:100000000C94FF030C9430040C9430040C943004D2
:100010000C9430040C9430040C9430040C94300490
:100020000C9430040C9430040C9430040C94300480
:100030000C9430040C9430040C9430040C94300470
:100040000C9430040C9430040C9430040C94300460
:100050000C9430040C9430040C9430040C946E0A0C
:100060000C9430040C94360E0C94020F0C94300453
:100070000C9430040C9430040C9430040C94300430
:100080000C9430040C9430040C9430040C94300420
:100090000C94690E0C94410F0C9430040C943004B1
:1000A0000C9430040C9430040C9430040C94300400
:1000B0000C9430040C9430040C9430040C943004F0
:1000C0000C9430040C9430040C9430040C949C0E6A
:1000D0000C94800F0C9430040C94CF0E0C94BF0F32
:1000E0000C943004880B8B0B7E0B820BC20B8F0B96
:1000F000930B990B9D0BA10BA70BAB0BAF0BC20B7B
:10010000B50BB90BBD0B0C94B50B0C94CB190C941F
:1001100087140C94FE120C94281A0C9488120C94D8
:10012000F2190C949C1A0C94DF110C9489120C9403
:100130009D0B0C94691F0C948F0B0C94D2180C948B
:1001400086100C94DA0D0C94820D0C94AF0B0C9469
:10015000C20B0C94BD0B0C94A8120C9406060C94C4
:10016000880B0C9490120C94A70B0C94A10B0C947C
:10017000820B0C947E0B0C94B8120C94B1130C945B
:10018000DF190C94B9120C94DA1A0C94EE1E0C942C
:10019000AA1D0C94AF0D0C9493130C948B0B0C9420
:1001A000580C0C94CF0D0C949C120C94F61D0C94CE
:1001B00042130C9427140C94AB0B0C94B90B0C94B5
:1001C000830D0C94930D0C9486140C94990B0C9441
:1001D000621A0C94930B0C94C0190000090A0208CF
:1001E0000B0C0D07060304010000000000000000D6
:1001F00000000000000000000000000000000000FF
:1002000000000000000011100F00000000000000BE
:1002100000000000000000000000000000000000DE
:100220000102102020080810204010204080020108
:1002300002010804020101020408102040808040ED
:1002400020100804020180040201804020100804EC
:10025000020108040201010204081020408001028A
:100260000408102040800505050507050808080852
:10027000020202020A0A080804040404010101013E
:100280000101010103030303030303030407070739
:100290000C0C0C0C0C0C0C0C0202020206060606DE
:1002A000060606060B0B0B0B0B0B0B0B00002000BE
:1002B0002300260029002C002F003200000100003E
:1002C00003010601090100002200250028002B007F
:1002D0002E003100340002010000050108010B016D
:1002E00000002100240027002A002D0030003300E8
:1002F00001010000040107010A0100000000003EA6
:100300005B4F5B3E3E6B4F6B3E1C3E7C3E1C183C85
:100310007E3C181C577D571C1C5E7F5E1C00183CE1
:100320001800FFE7C3E7FF0018241800FFE7DBE72A
:10033000FF30483A060E2629792926407F05050711
:10034000407F05253F5A3CE73C5A7F3E1C1C08086D
:100350001C1C3E7F14227F22145F5F005F5F060932
:100360007F017F006689956A606060606094A2FF8B
:10037000A29408047E040810207E201008082A1C7D
:1003800008081C2A08081E101010100C1E0C1E0C49
:1003900030383E3830060E3E0E06000000000000E9
:1003A000005F00000007000700147F147F14242A58
:1003B0007F2A12231308646236495620500008072A
:1003C0000300001C2241000041221C002A1C7F1C4B
:1003D0002A08083E0808008070300008080808084D
:1003E000000060600020100804023E5149453E00B4
:1003F000427F400072494949462141494D33181412
:10040000127F1027454545393C4A49493141211160
:1004100009073649494936464949291E0000140052
:100420000000403400000008142241141414141475
:10043000004122140802015909063E415D594E7CD3
:100440001211127C7F494949363E414141227F4188
:1004500041413E7F494949417F090909013E4141E6
:1004600051737F0808087F00417F41002040413FD1
:10047000017F081422417F404040407F021C027FE0
:100480007F0408107F3E4141413E7F090909063E35
:100490004151215E7F091929462649494932030104
:1004A0007F01033F4040403F1F2040201F3F403816
:1004B000403F631408146303047804036159494DF1
:1004C00043007F4141410204081020004141417F27
:1004D000040201020440404040400003070800209D
:1004E000545478407F28444438384444442838449D
:1004F00044287F385454541800087E090218A4A4D4
:100500009C787F0804047800447D40002040403DF2
:10051000007F1028440000417F40007C047804786C
:100520007C080404783844444438FC1824241818FF
:10053000242418FC7C08040408485454542404045B
:100540003F44243C4040207C1C2040201C3C403048
:10055000403C44281028444C9090907C4464544C77
:1005600044000836410000007700000041360800D2
:1005700002010204023C2623263C1EA1A161123A7C
:100580004040207A385454555921555579412254C8
:10059000547842215554784020545579400C1E52CD
:1005A0007212395555555939545454593955545472
:1005B000580000457C410002457D420001457C40D9
:1005C0007D1211127DF0282528F07C54554500201D
:1005D00054547C547C0A097F4932494949323A448F
:1005E00044443A324A4848303A4141217A3A4240FA
:1005F0002078009DA0A07D3D4242423D3D404040CC
:100600003D3C24FF2424487E4943662B2FFC2F2B9E
:10061000FF0929F620C0887E09032054547941003F
:1006200000447D413048484A32384040227A007ABE
:100630000A0A727D0D19317D2629292F282629299C
:10064000292630484D4020380808080808080808BE
:10065000382F10C8ACBA2F102834FA00007B0000E5
:1006600008142A142222142A14085500550055AAE9
:1006700055AA55AAFF55FF55FF000000FF001010B6
:1006800010FF00141414FF001010FF00FF1010F0F2
:1006900010F0141414FC001414F700FF0000FF0005
:1006A000FF1414F404FC141417101F10101F101F53
:1006B0001414141F00101010F0000000001F101080
:1006C00010101F10101010F010000000FF1010107C
:1006D000101010101010FF10000000FF140000FF99
:1006E00000FF00001F10170000FC04F41414171082
:1006F000171414F404F40000FF00F7141414141475
:100700001414F700F7141414171410101F101F14EA
:100710001414F4141010F010F000001F101F00004B
:10072000001F14000000FC140000F010F01010FF77
:1007300010FF141414FF141010101F00000000F01C
:1007400010FFFFFFFFFFF0F0F0F0F0FFFFFF0000F1
:10075000000000FFFF0F0F0F0F0F3844443844FC18
:100760004A4A4A347E02020606027E027E0263552F
:100770004941633844443C04407E201E2006027EEA
:10078000020299A5E7A5991C2A492A1C4C720172FC
:100790004C304A4D4D303048784830BC625A463D66
:1007A0003E494949007E0101017E2A2A2A2A2A441B
:1007B000445F444440514A444040444A5140000050
:1007C000FF0103E080FF000008086B6B083612365B
:1007D0002436060F090F060000181800000010103C
:1007E000003040FF0101001F01011E00191D1712FA
:1007F000003C3C3C3C000000000006068610112432
:100800001FBECFEFD1E2DEBFCDBF00E00CBF12E0D4
:10081000A0E0B2E0E8E2FAE400E00BBF02C007901B
:100820000D92A03DB107D9F725E0A0EDB2E001C0DF
:100830001D92AF3EB207E1F713E0CFEFD3E000E047
:1008400006C021970109802FFE010E94C324CD3FDD
:10085000D10780E00807A9F70E9473090C945F2272
:100860000C940000FF920F931F93CF93DF930E948D
:100870000F0B40E855E260E070E08DEA93E00E94E3
:10088000FE0F60E08BE00E94C30B61E08BE00E94F2
:10089000FF0B60E08CE20E94C30B61E08CE20E94DF
:1008A000FF0BC0E6D2E008E612E0F880229660E096
:1008B0008F2D0E94C30B61E08F2D0E94FF0BF8016A
:1008C00080810E5F1F4F61E00E94C30BF2E0C836CB
:1008D000DF0759F761E0809104020E94C30B61E0D9
:1008E0008CE00E94C30B40E050E0BA0184EE92E03D
:1008F000DF91CF911F910F91FF900C94B41BCF9378
:10090000DF93EC0126E4269FC001279F900D112460
:10091000BC01640F751F4FE050E084EE92E00E942E
:10092000A8196BE084EE92E00E94AE1940E050E01E
:100930006FEF7FEF84EE92E00E94BA194AE050E038
:10094000BE0184EE92E0DF91CF910C94640DCF93C1
:10095000DF93C2E3D3E040E050E060E070E08881E4
:1009600099810E947F0440E050E061E070E08A815C
:100970009B810E947F044EE150E062E070E08C8138
:100980009D810E947F044EE150E063E070E08E8123
:100990009F81DF91CF910C947F04E2E3F3E08081AB
:1009A000918190932203809321032281338130939C
:1009B000200320931F032481358130931E0320934D
:1009C0001D032681378130931C0320931B0340E0D5
:1009D00050E060E070E00E947F0440E050E061E0A1
:1009E00070E080911F03909120030E947F044EE1EC
:1009F00050E062E070E080911D0390911E030E9420
:100A00007F044EE150E063E070E080911B03909121
:100A10001C030C947F04EF92FF921F93CF93DF93FC
:100A200087E1E82E83E0F82EC8E6D2E024E030E04B
:100A300040E050E060E070E0CB010E947C11F701E3
:100A400061937F011881229661E0812F0E94FF0B44
:100A500064E670E080E090E00E94E90A60E0812FA7
:100A60000E94FF0BF2E0C037DF0701F7DF91CF9163
:100A70001F91FF90EF90089580911B0390911C03AC
:100A8000019690931C0380931B03209126038A30C8
:100A90009105F1F480911D0390911E0301969093AE
:100AA0001E0380931D0310921C0310921B0321113F
:100AB00017C04EE150E062E070E00E947F044EE11A
:100AC00050E063E070E080911B0390911C0306C02E
:100AD000211106C04EE150E063E070E00E947F0407
:100AE00080911D0390911E030697A1F580911F032D
:100AF0009091200301969093200380931F031092FE
:100B00001E0310921D0310921C0310921B03809170
:100B1000260381111FC04EE150E062E070E080E0EA
:100B200090E00E947F044EE150E063E070E080912D
:100B30001B0390911C030E947F0480911F039091DE
:100B400020038A30910534F440E050E061E070E029
:100B50000E947F0480911F03909120030A9719F54A
:100B60008091210390912203019690932203809318
:100B700021031092200310921F03809126038111FC
:100B800012C040E050E061E070E080E090E00E9440
:100B90007F0440E050E060E070E08091210390919C
:100BA00022030E947F0480912103909122030297E7
:100BB00061F580911F0390912003049731F5109205
:100BC0002203109221031092200310921F0310920F
:100BD0001E0310921D0310921C0310921B038091A0
:100BE0002603811112C040E050E060E070E080E038
:100BF00090E00E947F0440E050E061E070E080916E
:100C00001F03909120030C947F040895EF92FF92AC
:100C10000F932FEF49E06AE084EE92E00E94F31A0E
:100C20008CE2E82EFF24F39405E029E348E364E036
:100C300080ED92E00E9432210F91FF90EF90089595
:100C4000AF92BF92CF92DF92EF92FF920F931F93DA
:100C500060E070E084EE92E00E949313EE24EA9448
:100C6000FE2C08E210E024E630E041E750E063E7C4
:100C700070E084EE92E00E949C1A64E084EE92E0C0
:100C80000E94AE1960E070E084EE92E00E94B41918
:100C900043E750E065E770E084EE92E00E94A81917
:100CA00069E172E084EE92E00E94B20CAA24AA9458
:100CB000BA2C2FE8C22ED12C3FE5E32EF12C01E710
:100CC00010E02EE630E041E750E060E570E084EEB1
:100CD00092E00E94BD1441E7C42ED12C50EFE52EC6
:100CE000F12C0FE810E02FEF30E04FE850E061EE1C
:100CF00070E084EE92E00E94BD14EE24EA94FE2C93
:100D000003E210E02CE830E048EA50E069E670E0E9
:100D100084EE92E00E949C1A64E084EE92E00E94CD
:100D2000AE1960E070E084EE92E00E94B4194AEAE5
:100D300050E06BE670E084EE92E00E94A8196EE14C
:100D400072E084EE92E00E94B20C7BECC72ED12CB4
:100D5000EBE4EE2EF12C08EA10E02AE530E048EA58
:100D600050E06CE370E084EE92E00E94BD14F8EA7B
:100D7000CF2ED12CAEE0EA2EFF24F3940BEC10E042
:100D80002DE131E04BEC50E06FEF70E084EE92E04B
:100D90000E94BD1463E084EE92E00E94AE194FEF12
:100DA0005FEF60E070E084EE92E00E94BA194CEDD3
:100DB00050E066E470E084EE92E00E94A81966E2DA
:100DC00072E084EE92E00E94B20C40E050E060E0FD
:100DD00070E080E090E00E947F0440E050E061E03D
:100DE00070E080E090E00E947F044EE150E062E01D
:100DF00070E080E090E00E947F044EE150E063E00C
:100E000070E080E090E01F910F91FF90EF90DF90F5
:100E1000CF90BF90AF900C947F04EF92FF920F930E
:100E20001F93EE24EA94FE2C0EE110E027ED30E053
:100E30004EEB50E065E370E084EE92E00E949C1A75
:100E400063E084EE92E00E94AE1960E070E084EE10
:100E500092E00E94B41940EC50E065E370E084EE4B
:100E600092E00E94A81961E372E084EE92E01F9183
:100E70000F91FF90EF900C94B20C1092260360E05B
:100E800070E084EE92E00E9493130E94A7040C94F9
:100E90000D070F931F93CF93DF9300D0CDB7DEB72D
:100EA000EAE2F3E040815281648149835A836B8393
:100EB0000E94360A8C0149815A816B810E94FF0988
:100EC000C80101960E944F0A0E943D076EE372E03E
:100ED0008DEA93E00F900F900F90DF91CF911F91CB
:100EE0000F910C94B20C4F925F926F927F92AF92DF
:100EF000BF92CF92DF92EF92FF920F931F93CF9307
:100F0000DF9300D000D0CDB7DEB780ED92E00E9435
:100F1000D81F29833A834B835C836D837E838D81C5
:100F20009E810A978F3D934008F095C169817A812F
:100F3000072E000C880B990B1F921F921F922FEE09
:100F40002F93A12CB12C650118E9E12E13E0F12EAD
:100F500000E010E026E930E040E050E00E949E1101
:100F60002B013C016B817C81072E000C880B990BB7
:100F70001F921F921F921F923FE3A32EBB24B39494
:100F8000C12CD12C1CEAE12E13E0F12E00E010E080
:100F900028E730E040E050E00E949E116B017C01A8
:100FA00060E572E08DEA93E00E94950CB601645111
:100FB00071094AE050E08DEA93E00E946B0D68E50C
:100FC00072E08DEA93E00E94950C4AE050E0B20195
:100FD0008DEA93E00E946B0D0FB6F894DEBF0FBE52
:100FE000CDBF80912603811111C09AE4C91AD1089E
:100FF00025EDC216D10408F00EC18FEB481A510836
:101000009DE14916510408F420C105C1C201815770
:1010100091094F9708F07CC0C601845691094F97FB
:1010200090F580912C0390912D03019790932D03BF
:1010300080932C0397FF63C080912A0390912B0328
:10104000019790932B0380932A0397FD07C089E0B3
:1010500090E090932D0380932C030CC084E090E0EB
:1010600090932D0380932C0382E090E090932B03C8
:1010700080932A0340E050E060E070E080912A0312
:1010800090912B033AC025EFC21AD1088FE1C81600
:10109000D10408F0C0C020912C0330912D032F5FA4
:1010A0003F4F30932D0320932C0380912A0390917E
:1010B0002B032A30310574F0019690932B03809313
:1010C0002A0310922D0310922C0340E050E060E0C0
:1010D00070E013C002979CF02530310584F0109227
:1010E0002D0310922C0310922B0310922A0340E040
:1010F00050E060E070E080E090E00E947F0440E01B
:1011000050E061E070E080912C0390912D0367C066
:10111000C201885A9109849708F066C0C6018055BB
:1011200091094F9718F58091300390913103019701
:10113000909331038093300397FF49C080912E0331
:1011400090912F03019790932F0380932E0329E012
:1011500030E0309331032093300397FF2EC085E0B9
:1011600090E090932F0380932E0327C093E1C91A38
:1011700091E0D90A2FE1C216D10408F04CC0809149
:1011800030039091310301969093310380933003A3
:101190000A97ECF080912E0390912F030196909383
:1011A0002F0380932E031092310310923003069781
:1011B00024F010922F0310922E034EE150E062E0D3
:1011C00070E080912E0390912F030E947F044EE1E6
:1011D00050E063E070E080913003909131030E9411
:1011E0007F041092250317C080912503811113C03D
:1011F0008CED481A510895E14916510460F42AE52E
:10120000C21AD10889ECC816D10428F40E944907F3
:1012100081E08093250364E670E080E090E026960C
:101220000FB6F894DEBF0FBECDBFDF91CF911F91F7
:101230000F91FF90EF90DF90CF90BF90AF907F9095
:101240006F905F904F900C94E90A81E080932603A1
:101250000E942006E0CF26960FB6F894DEBF0FBEA0
:10126000CDBFDF91CF911F910F91FF90EF90DF9055
:10127000CF90BF90AF907F906F905F904F90089508
:10128000CF93C1E08091270381112BC08DEA93E0B9
:101290000E94830D18161906CCF48DEA93E00E9483
:1012A000AF0D8C32910591F02091280330912903E4
:1012B000F901EE0FFF1FEE5CFC4FC0979183808316
:1012C0002F5F3F4F309329032093280380912803F9
:1012D000909129030697B1F6C09327030E94CD048D
:1012E000D1CFCF9108950E94320440E050E0BA017E
:1012F00084EE92E00E94B41B60E070E084EE92E025
:101300000E94931363E084EE92E00E94AA1D0E9463
:10131000A7040E940D07C1E08091270381110AC034
:101320008BE00E942F0C892BB9F70E944009C093D3
:101330002703F2CF80E6C82E8AEED82EE12CF12CBE
:10134000C1E00E94B80AA70196010E948224672B7F
:10135000682B692B11F40E943C050E9473078CE2F4
:101360000E942F0C892B29F4809124038C278093D1
:101370002403809124038823E1F080E090E00E9420
:10138000FC248823B1F080E090E00E94FC248823B4
:1013900049F080912403882329F061E080910402C0
:1013A0000E94FF0B809123038111CBCF0E940B057C
:1013B000F9CF60E0809104020E94FF0BE4CFEF922E
:1013C000FF920F931F93CF93DF931F92CDB7DEB79A
:1013D0007C01FC0100811181C80169830E94FC2409
:1013E0006981681719F0C8010E940425C7010F9090
:1013F000DF91CF911F910F91FF90EF900895CF92C1
:10140000DF92EF92FF920F931F93CF93DF9300D061
:101410001F921F92CDB7DEB74B835C836D837E0135
:1014200026E0E20EF11C8E010D5F1F4F6C01C01A09
:10143000D10A9601200F311FF80161918F013A8383
:101440002983CE0101960E94DF090E151F0589F739
:101450000F900F900F900F900F90DF91CF911F91F1
:101460000F91FF90EF90DF90CF900895CF93DF938F
:101470001F921F92CDB7DEB71A82198280E090E0EA
:101480000E94FC24898381E090E00E94FC248A83EE
:1014900089819A810F900F90DF91CF910895CF931A
:1014A000DF9300D01F92CDB7DEB79C838B831A8267
:1014B0001982682FCE0101960E94DF096C8181E0BC
:1014C00090E09A838983CE0101960E94DF090F90F4
:1014D0000F900F900F90DF91CF9108951F920F9270
:1014E0000FB60F9211242F933F938F939F93AF9337
:1014F000BF9380913F0390914003A0914103B0912D
:10150000420330913E0323E0230F2D3720F4019650
:10151000A11DB11D05C026E8230F0296A11DB11D16
:1015200020933E0380933F0390934003A093410395
:10153000B09342038091430390914403A0914503EB
:10154000B09146030196A11DB11D80934303909372
:101550004403A0934503B0934603BF91AF919F917D
:101560008F913F912F910F900FBE0F901F90189564
:101570002FB7F89460913F0370914003809141032D
:10158000909142032FBF08953FB7F8948091430391
:1015900090914403A0914503B091460326B5A89BC2
:1015A00005C02F3F19F00196A11DB11D3FBFBA2FF5
:1015B000A92F982F8827820F911DA11DB11DBC0155
:1015C000CD0142E0660F771F881F991F4A95D1F71A
:1015D0000895CF92DF92EF92FF92CF93DF936B014A
:1015E0007C010E94C40AEB01C114D104E104F1049E
:1015F00079F00E94C40A6C1B7D0B683E7340A0F317
:1016000081E0C81AD108E108F108C851DC4FECCFDD
:10161000DF91CF91FF90EF90DF90CF900895789475
:1016200084B5826084BD84B5816084BD85B58260E7
:1016300085BD85B5816085BDEEE6F0E08081816085
:101640008083E1E8F0E01082808182608083808185
:1016500081608083E0E8F0E0808181608083E1EB5D
:10166000F0E0808184608083E0EBF0E08081816045
:101670008083E1E9F0E08081826080838081816005
:101680008083E0E9F0E0808181608083E1EAF0E03E
:10169000808182608083808181608083E0EAF0E0E5
:1016A000808181608083E1E2F1E0808182608083DB
:1016B000808181608083E0E2F1E0808181608083CD
:1016C000EAE7F0E0808184608083808182608083AB
:1016D0008081816080838081806880831092C100D6
:1016E000089590E0FC013197E131F10508F04AC01E
:1016F0008827EE58FF4F8F4F0C94C32480918000B1
:101700008F7703C0809180008F7D80938000089543
:1017100084B58F7702C084B58F7D84BD0895809194
:10172000B0008F7703C08091B0008F7D8093B000B0
:101730000895809190008F7707C0809190008F7DF1
:1017400003C080919000877F8093900008958091DE
:10175000A0008F7707C08091A0008F7D03C080918B
:10176000A000877F8093A0000895809120018F774B
:1017700007C0809120018F7D03C080912001877F69
:10178000809320010895CF93DF9390E0FC01E05E09
:10179000FD4F2491FC01EA59FD4F8491882361F1AA
:1017A00090E0880F991FFC01E052FD4FC591D49144
:1017B000FC01EA53FD4FA591B491611109C09FB797
:1017C000F8948881209582238883EC912E230BC086
:1017D000623061F49FB7F8943881822F809583231B
:1017E0008883EC912E2B2C939FBF06C08FB7F89463
:1017F000E8812E2B28838FBFDF91CF9108951F930F
:10180000CF93DF93282F30E0F901E652FE4F849109
:10181000F901E05EFD4FD491F901EA59FD4FC49101
:10182000CC23C9F0162F81110E94710BEC2FF0E030
:10183000EE0FFF1FEA53FD4FA591B4918FB7F894B7
:10184000111105C09C91ED2FE095E92302C0EC91A8
:10185000ED2BEC938FBFDF91CF911F910895CF9324
:10186000DF93282F30E0F901E652FE4F8491F90111
:10187000E05EFD4FD491F901EA59FD4FC491CC23AC
:1018800091F081110E94710BEC2FF0E0EE0FFF1F21
:10189000E455FD4FA591B491EC91ED2381E090E0EA
:1018A00021F480E002C080E090E0DF91CF910895C4
:1018B000CF92DF92EF92FF920F931F93CF93DF931C
:1018C0006C01EB017B01E40EF51E00E010E0CE158B
:1018D000DF0561F06991D601ED91FC910190F081F5
:1018E000E02DC6011995080F191FF1CFC801DF912E
:1018F000CF911F910F91FF90EF90DF90CF900895BF
:101900006115710579F0FB0101900020E9F731972D
:10191000AF01461B570BDC01ED91FC910280F38176
:10192000E02D199480E090E008950C94800CDC0187
:10193000ED91FC910190F081E02D19940F931F938C
:10194000CF93DF93EC016DE00E94970C8C016AE06D
:10195000CE010E94970C800F911FDF91CF911F91B4
:101960000F9108950F931F93CF93DF93EC010E9483
:10197000800C8C01CE010E949E0C800F911FDF9184
:10198000CF911F910F9108958F929F92AF92BF9226
:10199000CF92DF92EF92FF920F931F93CF93DF933B
:1019A000CDB7DEB7A1970FB6F894DEBF0FBECDBF9F
:1019B0006C01142FE52FCB01022F19A2223008F45D
:1019C0000AE07E0121E2E20EF11C802E912CA12C76
:1019D000B12C612F7E2FA50194010E948224029FC9
:1019E0001019112481E0E81AF1081A3014F4105D7E
:1019F00001C0195CF7011083122FE32FCA01232BBA
:101A0000242B252B31F7B701C6010E94800CA1962B
:101A10000FB6F894DEBF0FBECDBFDF91CF911F91FF
:101A20000F91FF90EF90DF90CF90BF90AF909F907D
:101A30008F900895CF92DF92EF92FF920F931F93B2
:101A4000CF93DF93EC016A017B012115310579F415
:101A5000E881F9810190F081E02D642FDF91CF9131
:101A60001F910F91FF90EF90DF90CF9019942A3043
:101A70003105E9F477FF1AC06DE20E94970C8C01E2
:101A800044275527BA014C195D096E097F092AE0E0
:101A9000CE010E94C40C800F911FDF91CF911F9146
:101AA0000F91FF90EF90DF90CF9008952AE0B7015B
:101AB000A601CE01DF91CF911F910F91FF90EF9082
:101AC000DF90CF900C94C40C9A01AB01770F660B9A
:101AD000770B0C941A0D0F931F93CF93DF93EC01A8
:101AE0009A01AB01770F660B770B0E941A0D8C01E0
:101AF000CE010E949E0C800F911FDF91CF911F910C
:101B00000F9108950895FC0124853585F901E05C65
:101B1000FF4F80819181329620813181821B930B0E
:101B20008F7399270895DC011C96ED91FC911D9708
:101B3000DF01A05CBF4F2D913C91119712968D91C2
:101B40009C9111972817390739F08D919C91E80FD6
:101B5000F91F808190E008958FEF9FEF0895FC01B9
:101B6000A485B585FD01E05CFF4F2081318132966F
:101B7000808191812817390779F080819181A80FA0
:101B8000B91F8C91208131812F5F3F4F2F733327F5
:101B90003183208390E008958FEF9FEF0895FC013B
:101BA00081A1882329F0A489B5898C9186FFFBCF78
:101BB00011A208950F931F93CF93DF93FC01A68585
:101BC000B7858D01005C1F4FE801888199810196DE
:101BD0008F739927AD014E5B5F4FEA0128813981F0
:101BE00082179307D1F3E80128813981A20FB31F2F
:101BF0006C93A685B785A05CBF4F11969C938E937E
:101C0000A689B7892C9181E090E0078C02C0880FEB
:101C1000991F0A94E2F7822B8C9381E081A30488B8
:101C2000F589E02D80818064808381E090E0DF9100
:101C3000CF911F910F910895FB01E05CFF4F208130
:101C400031812F5F3F4F2F733327DB01AE5BBF4FD7
:101C50004D915C912417350741F040815181DB01A2
:101C6000A40FB51F8C933183208308951F920F9288
:101C70000FB60F9211240BB60F922F933F934F93F1
:101C80005F936F937F938F939F93AF93BF93EF93E4
:101C9000FF938091C00082FD07C08091C6006BEA6F
:101CA00075E00E941C0E02C08091C600FF91EF916A
:101CB000BF91AF919F918F917F916F915F914F9164
:101CC0003F912F910F900BBE0F900FBE0F901F9062
:101CD00018951F920F920FB60F9211240BB60F9208
:101CE0002F933F934F935F936F937F938F939F9324
:101CF000AF93BF93EF93FF938091C80082FD07C01D
:101D00008091CE0063E275E00E941C0E02C08091BB
:101D1000CE00FF91EF91BF91AF919F918F917F91F5
:101D20006F915F914F913F912F910F900BBE0F904C
:101D30000FBE0F901F9018951F920F920FB60F9223
:101D400011240BB60F922F933F934F935F936F9392
:101D50007F938F939F93AF93BF93EF93FF93809164
:101D6000D00082FD07C08091D6006BE974E00E942C
:101D70001C0E02C08091D600FF91EF91BF91AF91F0
:101D80009F918F917F916F915F914F913F912F9193
:101D90000F900BBE0F900FBE0F901F9018951F92C3
:101DA0000F920FB60F9211240BB60F922F933F9301
:101DB0004F935F936F937F938F939F93AF93BF9353
:101DC000EF93FF938091300182FD07C0809136012F
:101DD00063E174E00E941C0E02C080913601FF9105
:101DE000EF91BF91AF919F918F917F916F915F9193
:101DF0004F913F912F910F900BBE0F900FBE0F9000
:101E00001F9018951F920F920FB60F9211240BB6C8
:101E10000F922F933F938F939F93EF93FF93209174
:101E2000A7053091A8058091A9059091AA052817CA
:101E3000390731F48091C1008F7D8093C10014C0B7
:101E4000E091A905F091AA05E959FA4F2081809106
:101E5000A9059091AA0501968F7399279093AA05D9
:101E60008093A9052093C600FF91EF919F918F91D8
:101E70003F912F910F900BBE0F900FBE0F901F90B0
:101E800018951F920F920FB60F9211240BB60F9256
:101E90002F933F938F939F93EF93FF9320911F0571
:101EA000309120058091210590912205281739074E
:101EB00031F48091C9008F7D8093C90014C0E091F6
:101EC0002105F0912205E152FB4F208180912105EF
:101ED0009091220501968F73992790932205809304
:101EE00021052093CE00FF91EF919F918F913F911B
:101EF0002F910F900BBE0F900FBE0F901F90189553
:101F00001F920F920FB60F9211240BB60F922F93C0
:101F10003F938F939F93EF93FF932091970430917A
:101F200098048091990490919A042817390731F404
:101F30008091D1008F7D8093D10014C0E0919904ED
:101F4000F0919A04E95AFB4F208180919904909175
:101F50009A0401968F73992790939A048093990419
:101F60002093D600FF91EF919F918F913F912F91F8
:101F70000F900BBE0F900FBE0F901F9018951F92E1
:101F80000F920FB60F9211240BB60F922F933F931F
:101F90008F939F93EF93FF9320910F043091100440
:101FA00080911104909112042817390731F480911F
:101FB00031018F7D8093310114C0E0911104F091C3
:101FC0001204E153FC4F208180911104909112047E
:101FD00001968F7399279093120480931104209394
:101FE0003601FF91EF919F918F913F912F910F902B
:101FF0000BBE0F900FBE0F901F901895CF92DF92DF
:10200000EF92FF920F931F93CF93DF93EC016A013E
:102010007B014115514E6105710509F1EC89FD897E
:1020200081E090E008A002C0880F991F0A94E2F7AF
:10203000808360E079E08DE390E0A70196010E9443
:10204000822489019A01015011092109310936952B
:10205000279517950795980101151041A8F0EC896F
:10206000FD89108260E874E88EE190E0A701960196
:102070000E948224DA01C9010197A109B109B6952C
:10208000A795979587959C01E889F9893083EA8916
:10209000FB89208319A2EE89FF89408181E090E0CD
:1020A0009C010C8C02C0220F331F0A94E2F7242BF0
:1020B0002083EE89FF8940819C010D8C02C0220F94
:1020C000331F0A94E2F7242B2083EE89FF89408195
:1020D0009C010E8C02C0220F331F0A94E2F7242BBE
:1020E0002083EE89FF8920810F8C02C0880F991F01
:1020F0000A94E2F7809582238083DF91CF911F912C
:102100000F91FF90EF90DF90CF900895CF92DF92E4
:10211000EF92FF92EDEAF3E01382128288EEC82E6E
:1021200083E0D82EE12CF12CC482D582E682F7829E
:1021300064E772E0718360838BEA95E0958784871A
:1021400087E695E09787868785EC90E0918B808B7A
:1021500084EC90E0938B828B80EC90E0958B848B69
:1021600081EC90E0978B868B82EC90E0918F808F52
:1021700086EC90E0938F828F44E0448F33E0358F7C
:1021800027E0268F95E0978F81E080A3EBE8F3E0CE
:1021900013821282C482D582E682F78271836083C1
:1021A000A3E2B5E0B587A487AFEDB4E0B787A68713
:1021B000ADECB0E0B18BA08BACECB0E0B38BA28BFC
:1021C000A8ECB0E0B58BA48BA9ECB0E0B78BA68BE4
:1021D000AAECB0E0B18FA08FAEECB0E0B38FA28FCD
:1021E000448F358F268F978F80A3E9E6F3E0138223
:1021F0001282C482D582E682F78271836083ABE962
:10220000B4E0B587A487A7E5B4E0B787A687A5EDB6
:10221000B0E0B18BA08BA4EDB0E0B38BA28BA0EDAE
:10222000B0E0B58BA48BA1EDB0E0B78BA68BA2ED8F
:10223000B0E0B18FA08FA6EDB0E0B38FA28F448F36
:10224000358F268F978F80A3E7E4F3E01382128205
:10225000C482D582E682F7827183608363E174E091
:10226000758764876FEC73E07787668765E371E055
:10227000718B608B64E371E0738B628B60E371E060
:10228000758B648B61E371E0778B668B62E371E041
:10229000718F608F66E371E0738F628F448F358F2B
:1022A000268F978F80A3FF90EF90DF90CF900895B7
:1022B000CF93DF9300D01F92CDB7DEB761157105C4
:1022C0008105910579F09B01AC0169833A834B83C9
:1022D0005C830E94522229813A814B815C810E9459
:1022E000A42403C060E070E0CB010F900F900F902A
:1022F0000F90DF91CF910895CF92DF92EF92FF92EE
:102300000F931F93621773078407950784F489015D
:102310009A016B017C01C901B8016C197D098E0914
:102320009F090E9458116C0D7D1D8E1D9F1D1F91D0
:102330000F91FF90EF90DF90CF9008954F925F92B2
:102340006F927F92AF92BF92CF92DF92EF92FF9205
:102350000F931F93CF93DF93CDB7DEB729013A01D7
:102360009B01AC0124193509460957098A899B89C3
:10237000AC89BD89BC01CD016A197B098C099D0915
:102380000E947224A80197012419350946095709AA
:102390000E94A424CA01B9016A0D7B1D8C1D9D1DDC
:1023A000DF91CF911F910F91FF90EF90DF90CF9031
:1023B000BF90AF907F906F905F904F9008952F9255
:1023C0003F924F925F926F927F928F929F92AF92C5
:1023D000BF92CF92DF92EF92FF920F931F93CF9312
:1023E000DF9300D0CDB7DEB74C017B836A836A01EF
:1023F000590117019801241B350B37FF03C0319594
:1024000021953109C5014A815B81841B950B97FF9A
:1024100003C091958195910951E0598382179307E3
:1024200014F019820BC09A2D8B2D5801092F182FEB
:102430009A818B81DB82CA82C92ED82E8A819B81A8
:10244000A816B9065CF49C2D8D2D6801092F182F54
:102450009A818B81BB82AA82A92EB82E2501AA81DE
:10246000BB814A1A5B0A38016C187D0877FE03C0ED
:10247000719461947108720157FE03C0BFEFEB1AAB
:10248000FB0AF594E794C016D1061CF00FEF1FEF7E
:102490001FC001E010E01CC0D401ED91FC91B98196
:1024A0000084F185E02D9101BB23C1F04A815B815D
:1024B000B601C4011995E618F708F7FE04C0C00E6E
:1024C000D11EE40CF51CEA81FB813196FB83EA8383
:1024D0004A815B81A416B506FCF604C0A6016A8198
:1024E0007B81E7CF0F900F900F90DF91CF911F91DD
:1024F0000F91FF90EF90DF90CF90BF90AF909F90A3
:102500008F907F906F905F904F903F902F900895A5
:102510000895DC01ED91FC910480F581E02D199482
:102520000F931F93DC01ED91FC91008CF18DE02D58
:1025300019951F910F9108950F931F93DC01ED9151
:10254000FC91028CF38DE02D19951F910F91089548
:10255000EF92FF920F931F93DC01ED91FC91048C9D
:10256000F58DE02D19951F910F91FF90EF90089533
:102570000895AF92BF92CF92DF92EF92FF920F93A6
:102580001F93CF93DF9300D01F92CDB7DEB75C01CE
:102590006901DC01ED91FC910680F781E02D4B8310
:1025A0005C8369837A831995D501ED91FC914B8108
:1025B0005C81C40ED51EB1E0CB1AD1080088F18928
:1025C000E02D7801860169817A819B01C501199509
:1025D000D501ED91FC910288F389E02DC5010F90A2
:1025E0000F900F900F90DF91CF911F910F91FF905F
:1025F000EF90DF90CF90BF90AF901994AF92BF92C1
:10260000CF92DF92EF92FF920F931F93CF93DF93BE
:1026100000D01F92CDB7DEB75C016901DC01ED91FE
:10262000FC910680F781E02D4B835C8369837A837C
:102630001995D501ED91FC9169817A819B012C0D51
:102640003D1D215031090088F189E02D78014B8131
:102650005C818A01C5011995D501ED91FC91028833
:10266000F389E02DC5010F900F900F900F90DF912F
:10267000CF911F910F91FF90EF90DF90CF90BF907F
:10268000AF9019944F925F926F927F928F929F9228
:10269000AF92BF92CF92DF92EF92FF920F931F9370
:1026A000CF93DF931F921F92CDB7DEB76C015A0113
:1026B00039014801DC01ED91FC910680F781E02DA4
:1026C00069837A8319956981462E7A81572E640C25
:1026D000751CD601ED91FC91461457046CF40484EA
:1026E000F585E02D87019401A501B201C601199578
:1026F000BFEF4B1A5B0AEDCF0288F389E02DC601CC
:102700000F900F90DF91CF911F910F91FF90EF905D
:10271000DF90CF90BF90AF909F908F907F906F9001
:102720005F904F901994EF92FF920F931F93DC01EB
:10273000ED91FC9111971A960D911C911B9718968B
:102740002D913C911997048CF58DE02D7B0140E093
:1027500050E060E070E019951F910F91FF90EF90AD
:102760000895CF92DF92EF92FF920F931F93CF9332
:10277000DF9300D000D0CDB7DEB76C01DC01ED9166
:10278000FC916217730789F4041715072CF4942F32
:10279000852FA801092F182F041B150B98012F5FF7
:1027A0003F4F008CF18DE02D12C04017510709F505
:1027B000261737072CF4962F872FB901292F382F8A
:1027C000261B370B2F5F3F4F028CF38DE02D8701C7
:1027D000C601199526960FB6F894DEBF0FBECDBF81
:1027E000DF91CF911F910F91FF90EF90DF90CF90ED
:1027F00008950680F781E02D2D833E834B835C8313
:1028000069837A831995D601ED91FC910088F1894D
:10281000E02D2D813E814B815C8169817A81C601E9
:102820001995D601ED91FC910288F389E02DC6013E
:1028300026960FB6F894DEBF0FBECDBFDF91CF91C5
:102840001F910F91FF90EF90DF90CF9019946F92AE
:102850007F928F929F92AF92BF92CF92DF92EF9230
:10286000FF920F931F93CF93DF93EC014B015A011B
:1028700069013801E881F9810680F781E02D199519
:10288000E881F9810684F785E02D87019601A5018D
:10289000B401CE011995E881F981A501460D571DB6
:1028A000415051090684F785E02D9601B401CE010F
:1028B0001995E881F9810484F585E02D9301A5013E
:1028C000B401CE011995E881F981C80CD91CB60173
:1028D000615071090484F585E02D9301A501CE01B5
:1028E0001995E881F9810288F389E02DCE01DF9105
:1028F000CF911F910F91FF90EF90DF90CF90BF90FD
:10290000AF909F908F907F906F9019940895FC01E5
:102910006370658B8481958126813781613039F0C0
:10292000633029F091878087338722870895318724
:102930002087938782870895FC011382128284E89E
:1029400092E0918380837583648357834683718784
:10295000608753874287158A1586148617861686E0
:1029600081E0848B2FEF3FEF338B228B318B208BD9
:10297000868B178A118E108E08952F923F924F9258
:102980005F926F927F928F929F92AF92BF92CF92FF
:10299000DF92EF92FF920F931F93CF93DF93CDB708
:1029A000DEB7AE970FB6F894DEBF0FBECDBF9A83E9
:1029B00089837EA76DA73A01290148011601B88EC7
:1029C000AF8A041715077CF4892DC416D5060CF0C0
:1029D000CAC146011A01602E782E852D27017B0180
:1029E0002DA78EA70DC0C016D106C4F4982D892D31
:1029F0004101292E382E942D852D2701E92EF82E00
:102A0000861497045CF4962D872D3401892E982E18
:102A10009DA58EA55EA64DA6492E582EA981BA81E8
:102A2000ED91FC9111970680F781E02DCD0119956C
:102A30006214730451F5EDA5FEA54E165F062CF049
:102A4000942D852D2F019DA78EA7E414F50444F045
:102A50002DA53EA52E153F0514F4FEA6EDA6720188
:102A6000A981BA81ED91FC9111972DA53EA52E1952
:102A70003F092F5F3F4F0684F785E02D0F89188DA2
:102A8000A301B701CD0119954CC1C201EDA5FEA569
:102A90008E1B9F0B940126193709A7014E1B5F0B54
:102AA00058874F83B101661977097C876B87D701F7
:102AB000A419B509B88BAF87F101E819F909FA8FA4
:102AC000E98F64018214930419F0F1E0CF1AD10860
:102AD00053011B8A1C8A1D8A1E8A1B821C821D822E
:102AE0001E82A901330F660B770B4D8F5E8F6F8FA0
:102AF00078A32B853C85032E000C440B550B29A392
:102B00003AA34BA35CA3AC01990F660B770B4DA3C3
:102B10005EA36FA378A76F817885072E000C880BC2
:102B2000990B69A77AA78BA79CA7CA14DB040CF49E
:102B30005AC06B817C818D819E812D8D3E8D4F8D04
:102B400058A10E94A424EDA4FEA4E20EF31E6B89FA
:102B50007C898D899E8929A13AA14BA15CA10E9403
:102B6000A4248DA59EA5280F391F4B815C816D8102
:102B70007E818DA19EA1AFA1B8A5480F591F6A1FE4
:102B80007B1F4B835C836D837E834B895C896D895E
:102B90007E8989A59AA5ABA5BCA5480F591F6A1FB8
:102BA0007B1F4B8B5C8B6D8B7E8B2E153F052CF426
:102BB0009E2D8F2D7901292F382FA981BA81ED9172
:102BC000FC9111972E193F092F5F3F4F0684F7851F
:102BD000E02D0F89188DA501B701CD011995BFEF23
:102BE000AB1ABB0AA2CF950128193909EF85F889DC
:102BF000E29FC001E39F900DF29F900D11249C0174
:102C0000990F440B550B2B833C834D835E83C50189
:102C1000861997094F815885489F6001499FD00CBC
:102C2000589FD00C11240D2C000CEE08FF08698D64
:102C30007A8D072E000C880B990B698F7A8F8B8FFA
:102C40009C8F8B859C85092E000CAA0BBB0B8B8758
:102C50009C87AD87BE879F01032E000C440B550B4C
:102C60002F87388B498B5A8B4F815885052E000C46
:102C7000660B770B4F83588769877A872A143B0442
:102C80000CF44FC06B817C818D819E81298D3A8DA2
:102C90004B8D5C8D0E94A4244201820E931EC701BD
:102CA000B6012B853C854D855E850E94A4246DA5CB
:102CB0007EA5260F371F8B819C81AD81BE814F85FC
:102CC000588969897A89840F951FA61FB71F8B833E
:102CD0009C83AD83BE836F81788589859A85C60E76
:102CE000D71EE81EF91E281539052CF4982D892DBC
:102CF0004901292F382FA981BA81ED91FC911197B3
:102D0000281939092F5F3F4F0684F785E02D0F8979
:102D1000188DA501B401CD011995BFEFAB1ABB0AFF
:102D2000ADCFA981BA81ED91FC9111970288F38909
:102D3000E02DCD01AE960FB6F894DEBF0FBECDBF2D
:102D4000DF91CF911F910F91FF90EF90DF90CF9087
:102D5000BF90AF909F908F907F906F905F904F90BB
:102D60003F902F9019944A01602E782E852D4DA406
:102D70005EA42DA78EA752CE2F923F924F925F92C4
:102D80006F927F928F929F92AF92BF92CF92DF927B
:102D9000EF92FF920F931F93CF93DF93CDB7DEB7E0
:102DA0006C970FB6F894DEBF0FBECDBF9C8F8B8F94
:102DB0005B011A011F830E833701C982DC0158961B
:102DC0004D915C9159974115510509F0E5C0189650
:102DD0008D919C911997681779070CF0CAC11A96C2
:102DE0008D919C911B97281639060CF0C2C18C2C32
:102DF000912CFB0136E0C39EE00DF11D1124FB87F1
:102E0000EA871E161F060CF0B4C1C40133E0880F18
:102E1000991F3A95E1F79D878C87820D931D1816AF
:102E200019060CF0A6C157968C91811103C0203B66
:102E300008F02F5FAB8DBC8DED91FC911197068052
:102E4000F781E02DCD012A8F19952A8DB5E02B9FB2
:102E500090011124F5013596FF87EE872501BB828D
:102E6000AA82A9014A195B09598B488BC1010896AE
:102E70009B8B8A8BE889F989E40DF51DE650FD4F9F
:102E8000949198873D822C826101A885A0FF13C090
:102E9000AB8DBC8DED91FC91B981B13031F40084E2
:102EA000F185E02D2E813F8116C00284F385E02D4F
:102EB000EE80FF801AC0EE81FF816E167F06F1F072
:102EC000AB8DBC8DED91FC91B981B13051F4008492
:102ED000F185E02D9301A601B2018B8D9C8D199592
:102EE0000DC00284F385E02D7301840194014C81AF
:102EF0005D816A817B818B8D9C8D1995E885E69536
:102F0000E8872C813D81280D391D3D832C833FEFBF
:102F1000C31AD30A4A895B89C416D50609F0B5CF0E
:102F20008A819B81880D991D9B838A839FEF491A13
:102F3000590AAE85BF854A165B0609F09BCFEE8124
:102F4000FF816E167F0609F4F2C0EB8DFC8DA08127
:102F5000B181F981F13079F4B5016B5F7F4F1C9637
:102F6000ED91FC911D97830128E030E0A1018B8D4C
:102F70009C8D1995DCC06A857B85681979091A963C
:102F8000ED91FC911B9773010C851D859401A101A6
:102F90008B8D9C8D1995CBC0FA0134969491329704
:102FA00065917491291BCB01B7E02B9F800D911D7A
:102FB0001124FA01259134913B8B2A8BFC01459118
:102FC00054915B834A83FC013296C49031965491AC
:102FD0005C87329614913196D4908981823058F072
:102FE000612E012E000C7708AD2D0D2C000CBB0BB3
:102FF000B987A88704C019861886612C712CAB8DFF
:10300000BC8DED91FC9111970680F781E02DCD01EB
:103010001995B9818B2E912C689CC001699C900DEB
:10302000789C900D1124FC01EA0DFB1DF98BE88BB7
:103030001C82712C612CE12F110FFF0B95012E0FBB
:103040003F1F3B872A87AC0CB11CA5014E0F5F1FA9
:103050005F8B4E8BC1018D0D911DD7FC9A95998F79
:10306000888F4C85641608F062C0862D90E04885F4
:103070005985480F591F489D9001499D300D589D15
:10308000300D1124D901A20DB31DBF87AE87AA84CC
:10309000BB8448885988DC80BA85DB1AE88DF98DB5
:1030A000E80FF91FFD8BEC8B8D2D8A0D2E893F8942
:1030B000A216B306B9F1877061F48A819B810196EB
:1030C000EA89FB89AA81BB81EA0FFB1F74909B836D
:1030D0008A8377FE20C0AB8DBC8DED91FC91B981C8
:1030E000B13061F40084F185E02D2E813F814C895F
:1030F0005D89B5018B8D9C8D19950DC00284F3857A
:10310000E02DEE80FF80840194014E855F85B20141
:103110008B8D9C8D1995770C480C591CEFEFAE1ACE
:10312000BE0AC2CF3C813C0D3C8363949ACFAB8DE9
:10313000BC8DED91FC9111970288F389E02DCD01B2
:103140006C960FB6F894DEBF0FBECDBFDF91CF9166
:103150001F910F91FF90EF90DF90CF90BF90AF90B5
:103160009F908F907F906F905F904F903F902F90A7
:1031700019946C960FB6F894DEBF0FBECDBFDF91E9
:10318000CF911F910F91FF90EF90DF90CF90BF9064
:10319000AF909F908F907F906F905F904F903F90F7
:1031A0002F900895AF92BF92CF92EF92FF920F931C
:1031B0001F93CF93DF93EC01262F888D998D009775
:1031C00009F040C06A3059F41D861C862C898E8512
:1031D0009F8538E0239F800D911D112441C06D30E3
:1031E00009F4AAC08E898823C1F03C898C859D850D
:1031F00046E0349F800D911D11244885598548175C
:1032000059075CF41D861C868E859F8548E0349F97
:10321000800D911D11249F878E87EA88FB8808897D
:1032200019894E855F856C857D85CC88CE010E948D
:10323000BC162C898C859D8536E0239F800D911DC1
:10324000112442C06A3079F41D861C862C89FC0149
:103250003696E4918E859F852E9F800D911D1124B9
:103260009F878E8769C06D3009F466C0FC01349673
:103270003491631708F460C03196E491E61708F4BE
:103280005BC0FC013296A590B490462F50E0431BE2
:10329000510937E0349FB001359F700D1124A60EFF
:1032A000B71EF501329634913196E491332311F033
:1032B000E1110DC0F5013496E4912C898C859D8532
:1032C000E29F800D911D11249D878C8735C0F501EB
:1032D000359644915E89552311F16C89E32FF0E016
:1032E000E40FF11D47FDFA956E9FD0016F9FB00D61
:1032F00011244C855D854A0F5B1FE885F985E4172D
:10330000F5076CF41D861C86FC013696E4918E85CB
:103310009F856E9F800D911D11249F878E87EA885F
:10332000FB88088919894E855F856C857D85CC88E9
:10333000CE010E94BC16BECF81E090E0DF91CF911C
:103340001F910F91FF90EF90CF90BF90AF90089595
:10335000FC0175876487578746870895611101C00E
:1033600061E0FC01648B0895FC01738B628B718BAF
:10337000608B0895FC01718B608B538B428B089599
:10338000DC019C96ED91FC919D979081D1968C915A
:10339000892B80830895EF92FF920F931F93DC0196
:1033A000ED91FC910284F385E02D7801890121E003
:1033B00030E019951F910F91FF90EF900895EF92D3
:1033C000FF920F931F93DC01ED91FC910284F38532
:1033D000E02D780101E010E019951F910F91FF9009
:1033E000EF9008950F931F93CF93DF9300D000D0F9
:1033F000CDB7DEB78C01DC01ED91FC910680F78141
:10340000E02D2D833E834B835C8369837A831995FA
:10341000D801ED91FC910084F185E02D2D813E8154
:103420004B815C8169817A81C8011995D801ED9140
:10343000FC910288F389E02DC80126960FB6F89416
:10344000DEBF0FBECDBFDF91CF911F910F911994B9
:10345000EF92FF920F931F93CF93DF9300D000D092
:10346000CDB7DEB77C01DC01ED91FC910680F781E0
:10347000E02D2D833E834B835C8369837A8319958A
:10348000D701ED91FC910484F585E02D2D813E81DD
:103490004B815C8169817A81C7011995D701ED91D2
:1034A000FC910288F389E02DC70126960FB6F894A7
:1034B000DEBF0FBECDBFDF91CF911F910F91FF9067
:1034C000EF901994EF92FF920F931F93CF93DF9396
:1034D00000D000D0CDB7DEB77C01DC01ED91FC91CE
:1034E0000680F781E02D2D833E834B835C836983C7
:1034F0007A831995D701ED91FC910684F785E02D2B
:103500002D813E814B815C8169817A81C70119954A
:10351000D701ED91FC910288F389E02DC701269631
:103520000FB6F894DEBF0FBECDBFDF91CF911F91D4
:103530000F91FF90EF901994CF92DF92EF92FF924C
:103540000F931F93CF93DF9300D000D0CDB7DEB79A
:103550006C01DC01ED91FC910680F781E02D2D835B
:103560003E834B835C8369837A831995D601ED9101
:10357000FC910284F385E02D2D813E814B815C819D
:1035800069817A81C6011995D601ED91FC91028875
:10359000F389E02DC60126960FB6F894DEBF0FBE64
:1035A000CDBFDF91CF911F910F91FF90EF90DF90F2
:1035B000CF901994CF93DF93EC0189A187FF09C0C5
:1035C00084E00E94F62181E00E94E82180E00E94D0
:1035D000F121ECA5FDA5908189A98095892380839F
:1035E000DF91CF910895EF92FF920F931F93CF93A6
:1035F000DF931F92CDB7DEB77C01062F142F40E476
:1036000051E060EF70E029830E949C148CEA92E004
:10361000D70111969C938E935E960C935E975F965E
:103620001C935F97298190962C9390978FEF91969A
:103630008C93919792968C93929793968C93939761
:10364000F701128E138E148E158E602F000F770BDC
:10365000FB01EA59FD4F8491E82FF0E0EE0FFF1FC8
:10366000EA53FD4F859194919D969C938E939C97E0
:10367000FB01E05EFD4FE491D196EC93D197412F91
:10368000110F550BFA01EA59FD4FE491F0E0EE0FEE
:10369000FF1FEA53FD4F85919491F70193A782A7ED
:1036A000FA01E05EFD4FE491D296EC93D2979996A1
:1036B0001C921E929897D0961C92D09795961C9229
:1036C0001E9294979E961C929E9797961C921E927D
:1036D00096979F961C920F90DF91CF911F910F911B
:1036E000FF90EF900895FC0181A187FF05C06EBD9A
:1036F0000DB407FEFDCF089528E030E090E8A4A1C6
:10370000B5A186A5492F462319F04C91842B03C0FF
:103710004C91809584238C93A0A5B1A54C9180A950
:10372000809584238C93A0A5B1A54C9180A9842B6E
:103730008C9396952150310911F70895CF93DF931B
:10374000EC01EAA5FBA590818AA980958923808355
:10375000CE010E94731BEAA5FBA590818AA9892B43
:103760008083DF91CF910895CF93DF93EC014115D2
:1037700051056105710521F440E052E16AE770E00E
:103780004A8F5B8F6C8F7D8F61E08F8D0E94C30BA2
:1037900060E08F8D0E94FF0B61E08E8D0E94C30B55
:1037A00061E08E8D0E94FF0B89A187FD16C061E04C
:1037B0008AA10E94C30B60E08AA10E94FF0B61E016
:1037C00089A10E94C30B61E089A10E94FF0B8BA11C
:1037D00087FD03C060E00E94C30B89A187FD0E94A2
:1037E000D22188A187FD21C061E00E94C30B61E066
:1037F00088A10E94FF0B64E670E080E090E00E94E8
:10380000E90A60E088A10E94FF0B64E670E080E0B6
:1038100090E00E94E90A61E088A10E94FF0B68EC39
:1038200070E080E090E00E94E90AE881F98106807A
:10383000F781E02DCE0119956FEECE010E949E1BFF
:1038400063E0CE010E94731B60E8CE010E94731BEF
:1038500062E0CE010E94731B6FECCE010E949E1BA2
:1038600060E0CE010E94731B61ECCE010E94731BCD
:1038700060E3CE010E94731B6DEECE010E949E1B81
:1038800064E6CE010E94731B63E0CE010E94731BAD
:1038900062E1CE010E94731B61E8CE010E94731B9E
:1038A00068EECE010E949E1B65E8CE010E94731B4C
:1038B00060E0CE010E94731B68E7CE010E94731B7B
:1038C0006BECCE010E949E1B69E3CE010E94731B2C
:1038D0006CE2CE010E94731B60E0CE010E94731B5C
:1038E00064E3CE010E94731B62E0CE010E94731B51
:1038F00067EFCE010E949E1B60E2CE010E94731B07
:103900006AEECE010E949E1B60E0CE010E94731BF6
:1039100060E0CE010E94731B60ECCE010E949E1BF2
:1039200063E2CE010E94731B61ECCE010E949E1BDC
:1039300060E1CE010E94731B65ECCE010E949E1BCC
:103940006EE3CE010E94731B68E2CE010E94731BDE
:1039500067ECCE010E949E1B66E8CE010E94731B9D
:1039600066E3CE010E949E1B68E4CE010E94731B99
:1039700067E3CE010E949E1B89A187FF09C01EBC80
:103980000DB407FEFDCF1EBC0DB407FEFDCF08C071
:1039900060E0CE010E94731B60E0CE010E94731BA9
:1039A0006AE3CE010E949E1B65E5CE010E94731B57
:1039B00061EBCE010E949E1B60E0CE010E94731B52
:1039C00068E1CE010E94731B66EBCE010E949E1B34
:1039D00068E0CE010E94731B62E8CE010E94731B57
:1039E00067E2CE010E94731B62EFCE010E949E1B14
:1039F00060E0CE010E94731B66E2CE010E949E1B16
:103A000061E0CE010E94731B60EECE010E949E1BFE
:103A10006FE0CE010E94731B61E3CE010E94731B15
:103A20006BE2CE010E94731B6CE0CE010E94731BFF
:103A30006EE0CE010E94731B68E0CE010E94731BF2
:103A40006EE4CE010E94731B61EFCE010E94731BD6
:103A500067E3CE010E94731B67E0CE010E94731BD7
:103A600060E1CE010E94731B63E0CE010E94731BD4
:103A70006EE0CE010E94731B69E0CE010E94731BB1
:103A800060E0CE010E94731B61EECE010E949E1B7E
:103A900060E0CE010E94731B6EE0CE010E94731B9A
:103AA00064E1CE010E94731B63E0CE010E94731B90
:103AB00061E1CE010E94731B67E0CE010E94731B7F
:103AC00061E3CE010E94731B61ECCE010E94731B67
:103AD00068E4CE010E94731B68E0CE010E94731B54
:103AE0006FE0CE010E94731B6CE0CE010E94731B3D
:103AF00061E3CE010E94731B66E3CE010E94731B3B
:103B00006FE0CE010E94731B61E1CE010E949E1BFB
:103B100068E770E080E090E00E94E90A69E2CE0187
:103B20000E949E1B68E770E080E090E00E94E90A36
:103B3000E881F9810288F389E02DCE01199580EFA3
:103B400090E09987888780E491E09B878A87DF915E
:103B5000CF9108951F93CF93DF93EC0163706D8B2A
:103B60006230C1F0633001F1613051F080EF90E0DC
:103B70009987888780E491E09B878A8718E41DC035
:103B800080E491E09987888780EF90E09B878A871F
:103B900018E213C080EF90E09987888780E491E075
:103BA0009B878A8718E809C080E491E09987888715
:103BB00080EF90E09B878A8718EEE881F981068084
:103BC000F781E02DCE01199566E3CE010E949E1B80
:103BD000612FCE010E94731BE881F9810288F3896D
:103BE000E02DCE01DF91CF911F9119940F931F9378
:103BF000CF93DF931F92CDB7DEB78C01DC01ED913F
:103C0000FC910680F781E02D698319956981611126
:103C100002C060E201C061E2C8010E949E1BD8019F
:103C2000ED91FC910288F389E02DC8010F90DF919E
:103C3000CF911F910F9119948F929F92AF92BF9243
:103C4000CF92DF92EF92FF920F931F93CF93DF9368
:103C5000EC01490181E0881A9108860E971EC40183
:103C6000A0E0B0E04B01A12CB12C54019924882490
:103C7000882A992AAA2ABB2A680181E0C81AD10891
:103C8000C40ED51EC601A0E0B0E06A01E12CF12C03
:103C90007601DD24CC24C82AD92AEA2AFB2A6AE242
:103CA000CE010E949E1B29A16B2D7727882799277B
:103CB00027FF18C06EBD0DB407FEFDCFC501AA27B2
:103CC000BB278EBD0DB407FEFDCFBB27AB2D9A2DB4
:103CD000892D8EBD0DB407FEFDCF8EBC0DB407FE41
:103CE000FDCF14C0CE010E94731BB5018827992710
:103CF000CE010E94731B99278B2D7A2D692DCE0141
:103D00000E94731B682DCE010E94731B6BE2CE01D3
:103D10000E949E1B29A16F2D77278827992727FFAF
:103D200018C06EBD0DB407FEFDCFC701AA27BB2783
:103D30008EBD0DB407FEFDCFBB27AF2D9E2D8D2D63
:103D40008EBD0DB407FEFDCFCEBC0DB407FEFDCF7A
:103D500014C0CE010E94731BB70188279927CE019A
:103D60000E94731B99278F2D7E2D6D2DCE010E94F1
:103D7000731B6C2DCE010E94731B6CE2CE01DF9190
:103D8000CF911F910F91FF90EF90DF90CF90BF9058
:103D9000AF909F908F900C949E1B1F93CF93DF93B7
:103DA000262FFC0131A137FF09C07EBD0DB407FEEF
:103DB000FDCF2EBD0DB407FEFDCF0CC0672F122F17
:103DC000EC010E94731B612FCE01DF91CF911F91F7
:103DD0000C94731BDF91CF911F910895EF92FF9286
:103DE0000F931F93CF93DF9377FD23C0DC011896C9
:103DF000ED91FC9119976E177F07DCF457FD19C000
:103E00001A96ED91FC911B974E175F0794F4790178
:103E1000EC0101E010E021E030E00E941C1EB7013F
:103E2000CE01DF91CF911F910F91FF90EF900C94F5
:103E3000CD1EDF91CF911F910F91FF90EF900895CC
:103E4000EF92FF921F93CF93DF9300D01F921F92A8
:103E5000CDB7DEB77C01162FFC0181A187FF12C010
:103E6000211531054105510549F17EBD0DB407FE0F
:103E7000FDCF1EBD0DB407FEFDCF21503109410914
:103E80005109EECF2115310541055105B9F0672FD4
:103E9000C70129833A834B835C837D830E94731B14
:103EA000612FC7010E94731B29813A814B815C817C
:103EB00021503109410951097D81E4CF0F900F90C4
:103EC0000F900F900F90DF91CF911F91FF90EF9087
:103ED00008958F929F92AF92BF92CF92DF92EF920E
:103EE000FF920F931F93CF93DF935C01FB01E901D6
:103EF0004701DC0118962D913C91199762177307C1
:103F00000CF049C01A968D919C911B974817590740
:103F10000CF041C06B01CC0EDD1ED60111977A0169
:103F2000E00EF11EB70161507109B7FD34C077FD95
:103F300032C0F7FF03C0E601E0E0F0E057FF03C046
:103F4000870140E050E0A217B3071CF0E901CE1B47
:103F5000DF0B681779071CF08C01041B150B9E0101
:103F6000D8010E94CB246B017C01BF01C5010E94D6
:103F70001C1EA7019601B401C501DF91CF911F91CD
:103F80000F91FF90EF90DF90CF90BF90AF909F90F8
:103F90008F900C94201FDF91CF911F910F91FF9074
:103FA000EF90DF90CF90BF90AF909F908F9008954B
:103FB0004F925F926F927F929F92AF92BF92CF92F9
:103FC000DF92EF92FF920F931F93CF93DF9300D076
:103FD00000D0CDB7DEB78C0160E0DC0112968C9189
:103FE0000E94C30B60E0F80183810E94C30B61E073
:103FF000D80115968C910E94C30B61E0F801848171
:104000000E94C30BD80150968C9150971896ED9151
:10401000FC9119979081892B808351969C9151979F
:104020001C96ED91FC911D978081282F30E0892FFF
:1040300090E08095909582239323808312968C91B3
:104040000E94AD217C01F80182810E94AD2197017F
:10405000281B390B2C5F3F4F2930310548F4A7014D
:10406000480F591FCA01959587959924939401C0CB
:10407000912C2FEF33E07901E81AF90A60E0D801BA
:1040800015968C910E94C30B60E0F80184810E9418
:10409000C30B61E0D80112968C910E94C30B61E0C2
:1040A000F80183810E94C30BD80153969C915397CA
:1040B0001E96ED91FC911F978081282F30E0892F6B
:1040C00090E08095909582239323808352968C91E3
:1040D00052971A96ED91FC911B979081892B8083C2
:1040E00014968C910E94AD216C01F80184810E948C
:1040F000AD21A601481B590B4C5F5F4F493051055C
:1041000038F49601280F391FC9019595879501C08C
:10411000912C4FEF53E06A01C81AD90A61E0D80127
:1041200015968C910E94C30B60E0F80182810E9479
:10413000C30BD80150969C9150971896ED91FC9125
:1041400019978081282F30E0892F90E080959095F5
:1041500082239323808353968C9153971E96ED91DF
:10416000FC911F979081892B808314968C910E94DB
:10417000AD215C01F80182810E94AD21D801169623
:104180000D911C9117970115110509F43FC0BC0151
:10419000990F880B990B0E9479232B013C01B501E3
:1041A000BB0C880B990B0E9479239B01AC01C301C6
:1041B000B2010E94CF2220E030E040E85FE30E949D
:1041C00062222B013C01B7010F2C000C880B990BCC
:1041D0000E9479239B01AC01C301B2010E94052416
:1041E0002B013C01B80180E090E00E9477239B0105
:1041F000AC01C301B2010E94052420E030E040E898
:104200005AE30E9405240E94412305C0B501681BA2
:10421000790B61507C4F911002C060E070E0FA822F
:10422000E982DC82CB827E836D832E2D3A814C2DF8
:104230005C817E8180E090E026960FB6F894DEBF28
:104240000FBECDBFDF91CF911F910F91FF90EF90E7
:10425000DF90CF90BF90AF909F907F906F905F90D6
:104260004F900895EF92FF920F931F93DC011296E7
:104270004C93129714962C93149713960C931397B0
:1042800015966C9315971796FC92EE92169770E020
:10429000FB01EA59FD4FE491F0E0EE0FFF1FEA53F6
:1042A000FD4F8591949119969C938E93189750E0A9
:1042B000FA01EA59FD4FE491F0E0EE0FFF1FEA53D7
:1042C000FD4F859194911B969C938E931A9730E0A5
:1042D000F901EA59FD4FE491F0E0EE0FFF1FEA53B8
:1042E000FD4F859194911D969C938E931C9710E0A1
:1042F000F801EA59FD4F849190E0880F991F8A5385
:104300009D4FFC01859194911F969C938E931E97CF
:10431000FB01E05EFD4F649150966C935097FA015B
:10432000E05EFD4F449152964C935297F901E05E46
:10433000FD4F249151962C935197F801E05EFD4F6B
:10434000049153960C9353978AE090E08D939C933D
:104350001F910F91FF90EF900895863308F08653D8
:1043600090917B00282F2870977F922B90937B0051
:1043700087702091060290E4299F90011124822BDE
:1043800080937C0080917A00806480937A00809191
:104390007A0086FDFCCF809178002091790090E032
:1043A000922B089561E085E30E94FF0B61E085E3B5
:1043B0000E94C30B8CB580618CBD8CB580648CBDB4
:1043C00061E084E30E94C30B61E083E30C94C30BC0
:1043D000811103C08CB5806202C08CB58F7D8CBD0D
:1043E00008959CB5937F892B8CBD08959CB5282F8B
:1043F00023709C7F922B9CBD2DB582FB992790F951
:10440000822F8E7F892B8DBD08958F929F92AF92C0
:10441000BF92CF92DF92EF92FF92CF93DF93EC01A6
:10442000688179818A819B8161157105810591057A
:1044300021F464E279ED8BE597E02DE133EF41E083
:1044400050E00E94A42449015A019B01AC01A7EA53
:10445000B1E40E94E9246B017C01ACEEB4EFA5014C
:1044600094010E94F724DC01CB018C0D9D1DAE1D33
:10447000BF1DB7FF03C00197A109B0488883998386
:10448000AA83BB83BC01CD019F77DF91CF91FF90C1
:10449000EF90DF90CF90BF90AF909F908F90089556
:1044A0000C94052280E092E00C94052260930002B7
:1044B0007093010280930202909303020895F8948E
:1044C0000C9412255058BB27AA270E947A220C94DC
:1044D000CB230E94BD2338F00E94C42320F039F47E
:1044E0009F3F19F426F40C94BA230EF4E095E7FBF1
:1044F0000C94B423E92F0E94DC2358F3BA17620707
:1045000073078407950720F079F4A6F50C94FE2331
:104510000EF4E0950B2EBA2FA02D0B01B9019001DE
:104520000C01CA01A0011124FF27591B99F0593F22
:1045300050F4503E68F11A16F040A22F232F342F6A
:104540004427585FF3CF469537952795A795F040B8
:104550005395C9F77EF41F16BA0B620B730B840BCD
:10456000BAF09150A1F0FF0FBB1F661F771F881F85
:10457000C2F70EC0BA0F621F731F841F48F48795DD
:1045800077956795B795F7959E3F08F0B0CF9395CF
:10459000880F08F09927EE0F9795879508950E9448
:1045A000E3220C94CB230E94C42358F00E94BD2325
:1045B00040F029F45F3F29F00C94B42351110C947E
:1045C000FF230C94BA230E94DC2368F39923B1F3F0
:1045D000552391F3951B550BBB27AA276217730729
:1045E000840738F09F5F5F4F220F331F441FAA1FBD
:1045F000A9F335D00E2E3AF0E0E832D09150504079
:10460000E695001CCAF72BD0FE2F29D0660F771F26
:10461000881FBB1F261737074807AB07B0E809F00C
:10462000BB0B802DBF01FF2793585F4F3AF09E3F91
:10463000510578F00C94B4230C94FF235F3FE4F30E
:10464000983ED4F3869577956795B795F7959F5FD4
:10465000C9F7880F911D9695879597F90895E1E020
:10466000660F771F881FBB1F621773078407BA077F
:1046700020F0621B730B840BBA0BEE1F88F7E095DA
:1046800008950E9448236894B1110C94FF23089563
:104690000E94E42388F09F5798F0B92F9927B751CB
:1046A000B0F0E1F0660F771F881F991F1AF0BA95D6
:1046B000C9F714C0B13091F00E94FE23B1E0089513
:1046C0000C94FE23672F782F8827B85F39F0B93F05
:1046D000CCF3869577956795B395D9F73EF4909589
:1046E0008095709561957F4F8F4F9F4F0895E89407
:1046F00009C097FB3EF490958095709561957F4F2A
:104700008F4F9F4F9923A9F0F92F96E9BB279395D7
:10471000F695879577956795B795F111F8CFFAF4E7
:10472000BB0F11F460FF1BC06F5F7F4F8F4F9F4F18
:1047300016C0882311F096E911C0772321F09EE876
:10474000872F762F05C0662371F096E8862F70E0DC
:1047500060E02AF09A95660F771F881FDAF7880FB6
:104760009695879597F9089597F99F6780E870E087
:1047700060E008959FEF80EC089500240A941616D7
:10478000170618060906089500240A94121613063F
:10479000140605060895092E0394000C11F48823CD
:1047A00052F0BB0F40F4BF2B11F460FF04C06F5FE9
:1047B0007F4F8F4F9F4F089557FD9058440F551FBF
:1047C00059F05F3F71F04795880F97FB991F61F093
:1047D0009F3F79F087950895121613061406551F0A
:1047E000F2CF4695F1DF08C0161617061806991F76
:1047F000F1CF86957105610508940895E894BB276B
:1048000066277727CB0197F908950E9418240C9406
:10481000CB230E94BD2338F00E94C42320F09523AF
:1048200011F00C94B4230C94BA2311240C94FF239C
:104830000E94DC2370F3959FC1F3950F50E0551F44
:10484000629FF001729FBB27F00DB11D639FAA27E5
:10485000F00DB11DAA1F649F6627B00DA11D661F34
:10486000829F2227B00DA11D621F739FB00DA11D55
:10487000621F839FA00D611D221F749F3327A00D0F
:10488000611D231F849F600D211D822F762F6A2FAB
:1048900011249F5750409AF0F1F088234AF0EE0F10
:1048A000FF1FBB1F661F771F881F91505040A9F73D
:1048B0009E3F510580F00C94B4230C94FF235F3F7E
:1048C000E4F3983ED4F3869577956795B795F79579
:1048D000E7959F5FC1F7FE2B880F911D96958795F1
:1048E00097F90895DB018F939F930E94E924BF916C
:1048F000AF91A29F800D911DA39F900DB29F900D2F
:1049000011240895A1E21A2EAA1BBB1BFD010DC0A4
:10491000AA1FBB1FEE1FFF1FA217B307E407F5076F
:1049200020F0A21BB30BE40BF50B661F771F881F4B
:10493000991F1A9469F760957095809590959B01E1
:10494000AC01BD01CF010895052E97FB1EF4009424
:104950000E94BB2457FD07D00E94822407FC03D08D
:104960004EF40C94BB2450954095309521953F4FC3
:104970004F4F5F4F089590958095709561957F4F4B
:104980008F4F9F4F0895EE0FFF1F881F8BBF07901B
:10499000F691E02D19940E94D324332312F48A1B3C
:1049A0009B0B0C94E424A29FB001B39FC001A39F72
:1049B000700D811D1124911DB29F700D811D112458
:1049C000911D08950E94D324B7FF0895821B930B75
:1049D00008950E94D324A59F900DB49F900DA49F8D
:1049E000800D911D11240895B7FF0C94E9240E94B5
:1049F000E924821B930B0895F999FECF92BD81BDE6
:104A0000F89A992780B50895262FF999FECF1FBAF5
:104A100092BD81BD20BD0FB6F894FA9AF99A0FBEE7
:084A200001960895F894FFCF00
:104A2800010000000800013A005061747465726E5C
:104A380020736F6C7665642100486F7572004D694C
:104A48006E75746573005361766520416C61726D93
:104A58000043726561746520416C61726D00736119
:104A6800766520616C61726D2063616C6C656400B1
:104A7800746F756368205800746F756368205900F7
:104A8800170019001B001D00160018001A001C0052
:104A980000000000DA0D580C830DAF0D930DCF0DFB
:104AA80000000000D218580C820D88128912A81232
:104AB80090129C12DF11B81287148614B912FE12D4
:104AC80042139313B113271400000000D218580C96
:104AD800F219DA1AEE1E691FCB19DF19DF11C01996
:104AE800AA1DF61D281A621A9C1A9313B1132714CB
:00000001FF
