:100000000C94FF030C9430040C9430040C943004D2
:100010000C9430040C9430040C9430040C94300490
:100020000C9430040C9430040C9430040C94300480
:100030000C9430040C9430040C9430040C94300470
:100040000C9430040C9430040C9430040C94300460
:100050000C9430040C9430040C9430040C94100F65
:100060000C9430040C94ED140C94B9150C943004D9
:100070000C9430040C9430040C9430040C94300430
:100080000C9430040C9430040C9430040C94300420
:100090000C9420150C94F8150C9430040C94300436
:1000A0000C9430040C9430040C9430040C94300400
:1000B0000C9430040C9430040C9430040C943004F0
:1000C0000C9430040C9430040C9430040C945315AC
:1000D0000C9437160C9430040C9486150C947616F8
:1000E0000C94300459105C104F1053109310601092
:1000F00064106A106E10721078107C1080109310CB
:1001000086108A108E100C9450180C9439140C948C
:100110004B210C9401190C94F81A0C944F100C9468
:100120007C100C945F250C9450200C94F71A0C94BE
:100130003D170C94D3200C9463200C9429110C943B
:100140000D190C9486140C948E100C9472100C944F
:1001500091140C9478100C94DA250C941B240C94B4
:10016000041A0C942A190C94F9180C9480100C940D
:1001700031200C945C100C94221A0C943A080C94C4
:10018000431F0C9493100C948A100C946A100C94D6
:10019000FA180C9419190C94981A0C9467240C945E
:1001A00099200C9466140C9464100C9429190C94E6
:1001B0003C200C946F190C943A140C94B3190C94C1
:1001C0004A140C9460100C9486100C940D210C941D
:1001D00053100C946E100C9459100000090A020878
:1001E0000B0C0D07060304010000000000000000D6
:1001F00000000000000000000000000000000000FF
:1002000000000000000011100F00000000000000BE
:1002100000000000000000000000000000000000DE
:100220000102102020080810204010204080020108
:1002300002010804020101020408102040808040ED
:1002400020100804020180040201804020100804EC
:10025000020108040201010204081020408001028A
:100260000408102040800505050507050808080852
:10027000020202020A0A080804040404010101013E
:100280000101010103030303030303030407070739
:100290000C0C0C0C0C0C0C0C0202020206060606DE
:1002A000060606060B0B0B0B0B0B0B0B00002000BE
:1002B0002300260029002C002F003200000100003E
:1002C00003010601090100002200250028002B007F
:1002D0002E003100340002010000050108010B016D
:1002E00000002100240027002A002D0030003300E8
:1002F00001010000040107010A0100000000003EA6
:100300005B4F5B3E3E6B4F6B3E1C3E7C3E1C183C85
:100310007E3C181C577D571C1C5E7F5E1C00183CE1
:100320001800FFE7C3E7FF0018241800FFE7DBE72A
:10033000FF30483A060E2629792926407F05050711
:10034000407F05253F5A3CE73C5A7F3E1C1C08086D
:100350001C1C3E7F14227F22145F5F005F5F060932
:100360007F017F006689956A606060606094A2FF8B
:10037000A29408047E040810207E201008082A1C7D
:1003800008081C2A08081E101010100C1E0C1E0C49
:1003900030383E3830060E3E0E06000000000000E9
:1003A000005F00000007000700147F147F14242A58
:1003B0007F2A12231308646236495620500008072A
:1003C0000300001C2241000041221C002A1C7F1C4B
:1003D0002A08083E0808008070300008080808084D
:1003E000000060600020100804023E5149453E00B4
:1003F000427F400072494949462141494D33181412
:10040000127F1027454545393C4A49493141211160
:1004100009073649494936464949291E0000140052
:100420000000403400000008142241141414141475
:10043000004122140802015909063E415D594E7CD3
:100440001211127C7F494949363E414141227F4188
:1004500041413E7F494949417F090909013E4141E6
:1004600051737F0808087F00417F41002040413FD1
:10047000017F081422417F404040407F021C027FE0
:100480007F0408107F3E4141413E7F090909063E35
:100490004151215E7F091929462649494932030104
:1004A0007F01033F4040403F1F2040201F3F403816
:1004B000403F631408146303047804036159494DF1
:1004C00043007F4141410204081020004141417F27
:1004D000040201020440404040400003070800209D
:1004E000545478407F28444438384444442838449D
:1004F00044287F385454541800087E090218A4A4D4
:100500009C787F0804047800447D40002040403DF2
:10051000007F1028440000417F40007C047804786C
:100520007C080404783844444438FC1824241818FF
:10053000242418FC7C08040408485454542404045B
:100540003F44243C4040207C1C2040201C3C403048
:10055000403C44281028444C9090907C4464544C77
:1005600044000836410000007700000041360800D2
:1005700002010204023C2623263C1EA1A161123A7C
:100580004040207A385454555921555579412254C8
:10059000547842215554784020545579400C1E52CD
:1005A0007212395555555939545454593955545472
:1005B000580000457C410002457D420001457C40D9
:1005C0007D1211127DF0282528F07C54554500201D
:1005D00054547C547C0A097F4932494949323A448F
:1005E00044443A324A4848303A4141217A3A4240FA
:1005F0002078009DA0A07D3D4242423D3D404040CC
:100600003D3C24FF2424487E4943662B2FFC2F2B9E
:10061000FF0929F620C0887E09032054547941003F
:1006200000447D413048484A32384040227A007ABE
:100630000A0A727D0D19317D2629292F282629299C
:10064000292630484D4020380808080808080808BE
:10065000382F10C8ACBA2F102834FA00007B0000E5
:1006600008142A142222142A14085500550055AAE9
:1006700055AA55AAFF55FF55FF000000FF001010B6
:1006800010FF00141414FF001010FF00FF1010F0F2
:1006900010F0141414FC001414F700FF0000FF0005
:1006A000FF1414F404FC141417101F10101F101F53
:1006B0001414141F00101010F0000000001F101080
:1006C00010101F10101010F010000000FF1010107C
:1006D000101010101010FF10000000FF140000FF99
:1006E00000FF00001F10170000FC04F41414171082
:1006F000171414F404F40000FF00F7141414141475
:100700001414F700F7141414171410101F101F14EA
:100710001414F4141010F010F000001F101F00004B
:10072000001F14000000FC140000F010F01010FF77
:1007300010FF141414FF141010101F00000000F01C
:1007400010FFFFFFFFFFF0F0F0F0F0FFFFFF0000F1
:10075000000000FFFF0F0F0F0F0F3844443844FC18
:100760004A4A4A347E02020606027E027E0263552F
:100770004941633844443C04407E201E2006027EEA
:10078000020299A5E7A5991C2A492A1C4C720172FC
:100790004C304A4D4D303048784830BC625A463D66
:1007A0003E494949007E0101017E2A2A2A2A2A441B
:1007B000445F444440514A444040444A5140000050
:1007C000FF0103E080FF000008086B6B083612365B
:1007D0002436060F090F060000181800000010103C
:1007E000003040FF0101001F01011E00191D1712FA
:1007F000003C3C3C3C00000000003A083D1711243E
:100800001FBECFEFD1E2DEBFCDBF00E00CBF13E0D3
:10081000A0E0B2E0E2E0FBE500E00BBF02C0079021
:100820000D92A233B107D9F726E0A2E3B3E001C0ED
:100830001D92AA35B207E1F713E0CFEFD3E000E055
:1008400006C021970109802FFE010E94242DCD3F73
:10085000D10780E00807A9F70E943D0E0C94672A93
:100860000C940000CF92DF92EF92FF920F931F93B0
:10087000CF93DF93EB017B0125E0E20EF11C8B01AE
:100880006C01C61AD70AC601800F911F0E94692DFC
:10089000F80181938F01EE15FF05A9F7CE01DF91D5
:1008A000CF911F910F91FF90EF90DF90CF9008951F
:1008B000FF920F931F93CF93DF930E94BB0F40E8EB
:1008C00055E260E070E084E194E00E94B51660E0DB
:1008D0008BE00E94941061E08BE00E94D01060E0F9
:1008E0008CE20E94941061E08CE20E94D01060E0E3
:1008F00081E00E949410CAECD2E002EC12E0F88091
:10090000229660E08F2D0E94941061E08F2D0E944E
:10091000D010F80180810E5F1F4F61E00E9494109B
:10092000F2E0C23DDF0759F761E0809100020E94CA
:10093000941061E08CE00E94941061E08BE20E94D0
:10094000941040E050E0BA0186E493E0DF91CF914B
:100950001F910F91FF900C942522CF93DF93EC0110
:1009600026E4269FC001279F900D1124BC01640F2F
:10097000751F4FE050E086E493E00E9419206BE081
:1009800086E493E00E941F2040E050E06FEF7FEF8D
:1009900086E493E00E942B204AE050E0BE0186E40A
:1009A00093E0DF91CF910C947C1240E050E060E046
:1009B00070E080918B0390918C030E94AD0440E025
:1009C00050E061E070E08091890390918A030E9479
:1009D000AD044EE150E062E070E0809187039091B9
:1009E00088030E94AD044EE150E063E070E0809126
:1009F0008503909186030C94AD04E9E9F3E08081CE
:100A0000918190938C0380938B0322813381309367
:100A10008A032093890324813581309388032093AE
:100A2000870326813781309386032093850340E036
:100A300050E060E070E00E94AD0440E050E061E012
:100A400070E08091890390918A030E94AD044EE189
:100A500050E062E070E080918703909188030E94EB
:100A6000AD044EE150E063E070E080918503909129
:100A700086030C94AD043F924F925F926F927F92E7
:100A80008F929F92AF92BF92CF92DF92EF92FF929E
:100A90000F931F93CF93DF93CDB7DEB728970FB691
:100AA000F894DEBF0FBECDBF60ED77E080E090E050
:100AB0000E948B0F3324339444244394512C52E0EE
:100AC000C52ED12C63E0A62EB12C4E0189E0880EF4
:100AD000911C00E010E061E08CE00E94D01084E600
:100AE00090E00E94B10F60E08CE00E94D01084E69C
:100AF00090E00E94B10F86E10E940011892BC1F4A1
:100B000086E10E940011892B39F46AE070E080E0F0
:100B100090E00E948B0FF4CFF801EE0FFF1F81E0F1
:100B200090E08C0F9D1FE80FF91F1182108256C0B4
:100B300088E10E940011892BC1F488E10E94001114
:100B4000892B39F46AE070E080E090E00E948B0F1E
:100B5000F4CFF801EE0FFF1F81E090E08C0F9D1F96
:100B6000E80FF91F5182408239C08AE10E940011CA
:100B7000892BC1F48AE10E940011892B39F46AE0C3
:100B800070E080E090E00E948B0FF4CFF801EE0F50
:100B9000FF1F81E090E08C0F9D1FE80FF91FD182AD
:100BA000C0821CC08CE10E940011892BC9F58CE128
:100BB0000E940011892B39F46AE070E080E090E037
:100BC0000E948B0FF4CFF801EE0FFF1F81E090E041
:100BD0008C0F9D1FE80FF91FB182A08269817A8175
:100BE0004AE050E084E194E00E9483126B817C81B2
:100BF0004AE050E084E194E00E9483126D817E819E
:100C00004AE050E084E194E00E9483126F8178858D
:100C10004AE050E084E194E00E9483120F5F1F4F8E
:100C2000043011050CF457CF6BE072E084E194E0DE
:100C30000E94CA11FE0131967F0101E813E0F7011D
:100C4000619071907F01F801808190E068167906CB
:100C5000B1F068E172E084E194E00E94CA114AE0D8
:100C600050E0B30184E194E00E9483124AE050E036
:100C7000F801608184E194E00E94AE12312C0F5F94
:100C80001F4FE814F904D9F63320E9F063E272E06B
:100C900084E194E028960FB6F894DEBF0FBECDBF76
:100CA000DF91CF911F910F91FF90EF90DF90CF9048
:100CB000BF90AF909F908F907F906F905F904F907C
:100CC0003F900C94CA111A8219821C821B821E82C8
:100CD0001D8218861F8261E272E084E194E00E9426
:100CE000CA11F7CEEF92FF920F931F93CF93DF932A
:100CF000C1E8D3E004E010E081E00E941D10B801DB
:100D00000E94CF2C7E0188834AE050E0682F84E166
:100D100094E00E94AE12E991F0E0EE0FFF1FEE5357
:100D2000FD4F61E080810E94D01060ED77E080E0AF
:100D300090E00E948B0FD701EC91F0E0EE0FFF1FC7
:100D4000EE53FD4F60E080810E94D010B3E0C538C3
:100D5000DB0791F6DF91CF911F910F91FF90EF90FC
:100D60000C943B05EF92FF920F931F93CF93DF9369
:100D700000D01F921F92CDB7DEB78091850390916E
:100D80008603019690938603809385030A9769F4FE
:100D900080918703909188030196909388038093B4
:100DA00087031092860310928503809187039091A8
:100DB0008803069701F58091890390918A03019633
:100DC00090938A038093890310928803109287037B
:100DD000109286031092850320917D0330917E034B
:100DE000232B49F48A30910534F440E050E061E06F
:100DF00070E00E94AD0480917D0390917E03892B69
:100E0000A1F44EE150E062E070E0809187039091A0
:100E100088030E94AD044EE150E063E070E08091F1
:100E20008503909186030E94AD048091890390917F
:100E30008A030A9729F580918B0390918C03019680
:100E400090938C0380938B0310928A0310928903F2
:100E500080917D0390917E03892B91F440E050E0D6
:100E600061E070E080E090E00E94AD0440E050E07E
:100E700060E070E080918B0390918C030E94AD0440
:100E800080918B0390918C03029771F58091890377
:100E900090918A03049741F510928C0310928B0372
:100EA00010928A031092890310928803109287038C
:100EB000109286031092850380917D0390917E03AA
:100EC000892B91F440E050E060E070E080E090E039
:100ED0000E94AD0440E050E061E070E08091890341
:100EE00090918A030E94AD0480E090E00E94692DF9
:100EF00090E090937C0380937B0382E0E82EF12CBA
:100F000001E010E080917B0390917C0380179107B2
:100F10000CF44AC0BE016F5F7F4FC7010E943204CC
:100F2000898190E020918B0330918C032817390739
:100F3000A9F58A8190E02091890330918A032817CE
:100F4000390761F58B8190E0209187033091880308
:100F50002817390719F58C8190E02091850330918D
:100F6000860328173907D1F48D818823B9F0809141
:100F7000790390917A03892B89F46BE272E084E122
:100F800094E00E94CA110E94720661E08BE20E9406
:100F9000D01060E08BE20E94D010E9CF0F5F1F4FAE
:100FA00085E0E80EF11CAECF0F900F900F900F90E0
:100FB0000F90DF91CF911F910F91FF90EF900895C7
:100FC000DF92EF92FF920F931F93CF93DF9300D0A6
:100FD0001F921F92CDB7DEB780E090E00E94692D8E
:100FE00090E090937C0380937B0382E0E82EF12CC9
:100FF00001E010E0D12C80917B0390917C0380175D
:1010000091078CF0BE016F5F7F4FC7010E943204D1
:101010008D81882311F0DD24D3940F5F1F4F85E06D
:10102000E80EF11CE8CFDD2011F061E001C060E0C6
:10103000809100020E94D0100F900F900F900F909F
:101040000F90DF91CF911F910F91FF90EF90DF9064
:101050000895CF93DF93C0E0D0E060E0CE010E941E
:10106000712D2196C11580E1D807B9F7DF91CF9195
:101070000C94E007EF92FF920F932FEF49E06AE0A4
:1010800086E493E00E9464218CE2E82EFF24F3942E
:1010900005E029E348E364E082E393E00E94A327AC
:1010A0000F91FF90EF900895AF92BF92CF92DF9291
:1010B000EF92FF920F931F9360E070E086E493E05D
:1010C0000E94041AEE24EA94FE2C08E210E024E6C2
:1010D00030E041E750E063E770E086E493E00E948F
:1010E0000D2164E086E493E00E941F2060E070E040
:1010F00086E493E00E94252043E750E065E770E036
:1011000086E493E00E94192064E372E086E493E0B1
:101110000E94CA11AA24AA94BA2C2FE8C22ED12C5C
:101120003FE5E32EF12C01E710E02EE630E041E749
:1011300050E060E570E086E493E00E942E1B41E7FA
:10114000C42ED12C50EFE52EF12C0FE810E02FEF3C
:1011500030E04FE850E061EE70E086E493E00E94FA
:101160002E1BEE24EA94FE2C03E210E02CE830E083
:1011700048EA50E069E670E086E493E00E940D21C1
:1011800064E086E493E00E941F2060E070E086E463
:1011900093E00E9425204AEA50E06BE670E086E486
:1011A00093E00E94192069E372E086E493E00E94D4
:1011B000CA117BECC72ED12CEBE4EE2EF12C08EA01
:1011C00010E02AE530E048EA50E06CE370E086E4A5
:1011D00093E00E942E1BF8EACF2ED12CAEE0EA2E2F
:1011E000FF24F3940BEC10E02DE131E04BEC50E0E8
:1011F0006FEF70E086E493E00E942E1B63E086E4CC
:1012000093E00E941F204FEF5FEF60E070E086E404
:1012100093E00E942B204CED50E066E470E086E401
:1012200093E00E94192061E472E086E493E00E945A
:10123000CA1165E086E493E00E941F2040E058EF69
:101240006FEF7FEF86E493E00E942B2048EC50E0A4
:1012500060E070E086E493E00E94192068EB72E0A1
:1012600086E493E00E94CA1140E050E060E070E044
:1012700080E090E00E94AD0440E050E061E070E06A
:1012800080E090E00E94AD044EE150E062E070E04A
:1012900080E090E00E94AD044EE150E063E070E039
:1012A00080E090E01F910F91FF90EF90DF90CF9042
:1012B000BF90AF900C94AD048F929F92AF92BF926B
:1012C000CF92DF92EF92FF920F931F93CF93DF9312
:1012D000CDB7DEB7AF970FB6F894DEBF0FBECDBF68
:1012E00082E090E090937E0380937D0360E070E065
:1012F00086E493E00E94041A65E086E493E00E948D
:101300001F2040E058EF6FEF7FEF86E493E00E94EC
:101310002B2048EC50E060E070E086E493E00E940F
:10132000192068EB72E086E493E00E94CA11AA24B7
:10133000AA94BA2C3DECC32ED12C41EBE42EF12C17
:1013400000EF10E020EA30E04DEC50E06FE870E094
:1013500086E493E00E942E1B6CE472E084E194E04A
:101360000E94CA1169E572E084E194E00E949B1139
:101370004AE050E060E070E184E194E00E94C51230
:1013800080E090E00E94692D90E090937C03809330
:101390007B0367E672E084E194E00E949B11609118
:1013A0007B0370917C034AE050E084E194E00E946A
:1013B000831252E0852E912CC12CD12CAA24A39407
:1013C000B12C80917B0390917C038A159B050CF4D2
:1013D000B1C0BE01655D7F4FC4010E9432044AE086
:1013E00050E06BA584E194E00E94A7124AE050E02F
:1013F0006CA584E194E00E94A7124AE050E06DA53C
:1014000084E194E00E94A7124AE050E06EA584E1D6
:1014100094E00E94A71265E086E493E00E941F20FA
:101420008FA5882329F090EEE92E97E0F92E03C0CE
:10143000E12C88EFF82E03E210E020EA30E0A6016C
:1014400060EA70E086E493E00E940D21A60160E06E
:1014500070E086E493E00E9419206FE972E0CE010B
:1014600084960E94491340E16EA5CE0101960E9428
:10147000971340E16DA5CE0108960E94971340E1B5
:101480006CA5CE0146960E94971340E16BA5CE0154
:101490004D960E949713BE01635E7F4FCE010F965B
:1014A0000E947613BE016A5E7F4FCE010F960E94A6
:1014B00007146AE30E941A14BE01685F7F4F0E94FE
:1014C0000714BE016F5F7F4F0E940714BC01CE015D
:1014D00084960E945F13CE010F960E94DB12CE010C
:1014E0004D960E94DB12CE0146960E94DB12CE0181
:1014F00008960E94DB12CE0101960E94DB126FEF6C
:101500007FEF86E493E00E942520BE016C5D7F4F53
:1015100086E493E00E94B811CE0184960E94DB120B
:101520008FEFA81AB80A82E3C80ED11C85E0880E96
:10153000911C47CFAF960FB6F894DEBF0FBECDBF5C
:10154000DF91CF911F910F91FF90EF90DF90CF909F
:10155000BF90AF909F908F900895EF92FF920F935E
:101560001F93EE24EA94FE2C0EE110E027ED30E00C
:101570004EEB50E065E370E086E493E00E940D21BD
:1015800063E086E493E00E941F2060E070E086E460
:1015900093E00E94252040EC50E065E370E086E493
:1015A00093E00E94192067E772E086E493E00E94CE
:1015B000CA1127ED30E046E950E065E370E086E4CB
:1015C00093E00E940D2163E086E493E00E941F20D7
:1015D00060E070E086E493E00E94252048E950E056
:1015E0006AE370E086E493E00E94192064E872E008
:1015F00086E493E00E94CA1165E086E493E00E94CD
:101600001F2040E058EF6FEF7FEF86E493E00E94E9
:101610002B2048EC50E060E070E086E493E00E940C
:10162000192068EB72E086E493E01F910F91FF9020
:10163000EF900C94CA1110927E0310927D0360E02B
:1016400070E086E493E00E94041A0E94D5040C9492
:10165000AD0A0F931F93CF93DF9300D01F921F9279
:10166000CDB7DEB7E1E9F3E08081898382818A83A7
:1016700084818B8386818C8381E08D830E94D80E48
:101680008C0160E972E084E194E00E949B114AE0E1
:1016900050E065E070E084E194E00E94C51225E02E
:1016A000209FC001219F900D112429813A814B81F7
:1016B0005C816D8102960E949B0EC80101960E947A
:1016C000F10E0E941B0B60EA72E084E194E00E943C
:1016D000CA110F900F900F900F900F90DF91CF9144
:1016E0001F910F910C94E007EF92FF920F931F93BD
:1016F000CF93DF9300D01F921F92CDB7DEB7019733
:101700007C0185E08E9D80018F9D100D11240E5F60
:101710001F4FBE016F5F7F4FC8010E9432046D8171
:1017200091E069276D8329813A814B815C81C801F1
:101730000E949B0E8D81882359F082E38E9DA0012B
:101740008F9D500D112490EEE92E97E0F92E09C0DF
:1017500082E38E9DA0018F9D500D1124E12C88EF16
:10176000F82E03E210E020EA30E060EA70E086E460
:1017700093E00E940D210E94E00768EE73E080E094
:1017800090E00E948B0F0F900F900F900F900F9092
:10179000DF91CF911F910F91FF90EF9008954F929D
:1017A0005F926F927F928F929F92AF92BF92CF92F1
:1017B000DF92EF92FF920F931F93CF93DF9300D0AE
:1017C00000D0CDB7DEB782E393E00E94492629839B
:1017D0003A834B835C836D837E838D819E810A97E0
:1017E0008F3D934008F0FFC169817A81072E000C7C
:1017F000880B990B1F921F921F922FEE2F93A12CF3
:10180000B12C650118E9E12E13E0F12E00E010E0A3
:1018100026E930E040E050E00E940F182B013C0127
:101820004B016B817C81072E000C880B990B1F925A
:101830001F921F921F923FE3A32EBB24B394C12C8F
:10184000D12C1CEAE12E13E0F12E00E010E028E795
:1018500030E040E050E00E940F186B017C018B01EA
:101860000451110962EB72E084E194E00E949B1143
:101870004AE050E0B80184E194E00E9483126AEBF0
:1018800072E084E194E00E949B114AE050E0B201D2
:1018900084E194E00E94831280917D0390917E0305
:1018A0000FB6F894DEBF0FBECDBF009779F5C60125
:1018B0008A549109853D910530F4C2018F5B9109ED
:1018C0004D9708F487C1C20182589109C39778F4F3
:1018D00039E4C31AD10888EDC816D10440F48091C8
:1018E0007F0390918003892B11F40E945C0928ECFE
:1018F000421A510839E24316510408F04FC10A3127
:10190000110508F04BC10E94290848C1813091059A
:1019100009F00BC1C201815791094F9708F076C0B9
:10192000C601845691094F97E0F5809193039091F9
:1019300094030197909394038093930397FF28C097
:1019400080919103909192030197909392038093D9
:10195000910397FD07C089E090E0909394038093F2
:1019600093030CC084E090E09093940380939303DE
:1019700082E090E0909392038093910340E050E0E6
:1019800060E070E080919103909192030E94AD0419
:1019900040E050E061E070E0809193039091940307
:1019A0009CC085EFC81AD1082FE1C216D10408F0F7
:1019B000AEC0809193039091940301969093940309
:1019C000809393030A976CF0809191039091920316
:1019D0000196909392038093910310929403109236
:1019E0009303809191039091920302973CF280912E
:1019F00093039091940304970CF210929403109225
:101A000093031092920310929103B8CFC201885AA7
:101A10009109849708F066C0C601805591094F97D7
:101A200018F58091970390919803019790939803EC
:101A30008093970397FF49C08091950390919603F7
:101A40000197909396038093950329E030E03093BB
:101A500098032093970397FF2EC085E090E0909322
:101A600096038093950327C033E1C31A31E0D30A6C
:101A70008FE1C816D10408F04AC080919703909175
:101A80009803019690939803809397030A97ECF03C
:101A9000809195039091960301969093960380937D
:101AA00095031092980310929703069724F01092D2
:101AB0009603109295034EE150E062E070E0809151
:101AC0009503909196030E94AD044EE150E063E0CF
:101AD00070E080919703909198030E94AD0410925A
:101AE0008D0315C080918D03811111C0C2018C5DE1
:101AF0009109459760F42AE5C21AD10839ECC3165A
:101B0000D10428F40E94290B81E080938D0388EC96
:101B1000481A510829E24216510408F03FC00A3120
:101B20001105E0F50E941B0B39C00297B9F538EC9E
:101B3000431A510889E24816510428F40A31110564
:101B400010F40E941B0B24EBC21AD10831EAC31611
:101B5000D10420F583E2E82EF12C01E010E0809121
:101B60007B0390917C0380179107C4F0C701839792
:101B7000881699066CF0E814F90454F04AE050E035
:101B8000B80184E194E00E948312C8010E94740BA2
:101B90000F5F1F4F82E3E80EF11CE1CF64E670E0B7
:101BA00080E090E026960FB6F894DEBF0FBECDBF62
:101BB000DF91CF911F910F91FF90EF90DF90CF9029
:101BC000BF90AF909F908F907F906F905F904F905D
:101BD0000C948B0F81E090E090937E0380937D03C3
:101BE0000E94540870CE26960FB6F894DEBF0FBE42
:101BF000CDBFDF91CF911F910F91FF90EF90DF90BC
:101C0000CF90BF90AF909F908F907F906F905F909C
:101C10004F900895CF93C1E080918E0381112BC026
:101C200084E194E00E943A1418161906CCF484E179
:101C300094E00E9466148C32910591F020918F03FC
:101C400030919003F901EE0FFF1FE756FC4FC0974C
:101C5000918380832F5F3F4F3093900320938F03B6
:101C600080918F03909190030697B1F6C0938E03F5
:101C70000E94FD04D1CFCF9108950E94580440E006
:101C800050E0BA0186E493E00E94252260E070E013
:101C900086E493E00E94041A63E086E493E00E94E5
:101CA0001B240E94D5040E94AD0A0E94E007C1E0F7
:101CB00080918E0381110AC08BE00E940011892B54
:101CC000B9F70E940A0EC0938E03F2CF80E6C82EA9
:101CD0008AEED82EE12CF12C0E945A0FA701960112
:101CE0000E94E32C672B682B692B11F40E94B2062B
:101CF0000E94CF0BF1CFEF92FF920F931F93CF93E0
:101D0000DF931F92CDB7DEB77C01FC01008111810A
:101D1000C80169830E94692D6981681719F0C8019B
:101D20000E94712DC7010F90DF91CF911F910F91EC
:101D3000FF90EF900895CF92DF92EF92FF920F9372
:101D40001F93CF93DF93CDB7DEB727970FB6F894E5
:101D5000DEBF0FBECDBF2B833C834D835E836F837D
:101D60007E0128E0E20EF11C8E010D5F1F4F6C0119
:101D7000C01AD10A9601200F311FF80161918F011D
:101D80003A832983CE0101960E947B0E0E151F0512
:101D900089F727960FB6F894DEBF0FBECDBFDF914F
:101DA000CF911F910F91FF90EF90DF90CF9008950A
:101DB000CF93DF931F921F92CDB7DEB71A8219829D
:101DC00080E090E00E94692D898381E090E00E948C
:101DD000692D8A8389819A810F900F90DF91CF912D
:101DE0000895CF93DF9300D01F92CDB7DEB79C83C9
:101DF0008B831A821982682FCE0101960E947B0E76
:101E00006C8181E090E09A838983CE0101960E94E3
:101E10007B0E0F900F900F900F90DF91CF91089550
:101E20001F920F920FB60F9211242F933F938F930F
:101E30009F93AF93BF938091A6039091A703A09126
:101E4000A803B091A9033091A50323E0230F2D37F8
:101E500020F40196A11DB11D05C026E8230F0296AE
:101E6000A11DB11D2093A5038093A6039093A70302
:101E7000A093A803B093A9038091AA039091AB0308
:101E8000A091AC03B091AD030196A11DB11D80934B
:101E9000AA039093AB03A093AC03B093AD03BF919F
:101EA000AF919F918F913F912F910F900FBE0F9007
:101EB0001F9018952FB7F8946091A6037091A7030F
:101EC0008091A8039091A9032FBF08953FB7F8947C
:101ED0008091AA039091AB03A091AC03B091AD03A4
:101EE00026B5A89B05C02F3F19F00196A11DB11D75
:101EF0003FBFBA2FA92F982F8827820F911DA11DB0
:101F0000B11DBC01CD0142E0660F771F881F991FEC
:101F10004A95D1F70895CF92DF92EF92FF92CF9337
:101F2000DF936B017C010E94660FEB01C114D104A9
:101F3000E104F10479F00E94660F6C1B7D0B683E92
:101F40007340A0F381E0C81AD108E108F108C85134
:101F5000DC4FECCFDF91CF91FF90EF90DF90CF90EF
:101F60000895019739F0880F991F880F991F0297DC
:101F70000197F1F70895789484B5826084BD84B5A3
:101F8000816084BD85B5826085BD85B5816085BD74
:101F9000EEE6F0E0808181608083E1E8F0E010828D
:101FA000808182608083808181608083E0E8F0E0CE
:101FB000808181608083E1EBF0E0808184608083B8
:101FC000E0EBF0E0808181608083E1E9F0E08081F6
:101FD00082608083808181608083E0E9F0E080819D
:101FE00081608083E1EAF0E080818260808380818B
:101FF00081608083E0EAF0E0808181608083E1E2BB
:10200000F1E0808182608083808181608083E0E272
:10201000F1E0808181608083EAE7F0E08081846084
:1020200080838081826080838081816080838081E1
:10203000806880831092C1000895863308F086532B
:1020400090917B00282F2870977F922B90937B0094
:1020500087702091020290E4299F90011124822B25
:1020600080937C0080917A00806480937A008091D4
:102070007A0086FDFCCF809178002091790090E075
:10208000922B089590E0FC013197E131F10508F0C1
:102090004AC08827EE58FF4F8F4F0C94242D809113
:1020A00080008F7703C0809180008F7D80938000B7
:1020B000089584B58F7702C084B58F7D84BD08955F
:1020C0008091B0008F7703C08091B0008F7D8093A6
:1020D000B0000895809190008F7707C080919000A4
:1020E0008F7D03C080919000877F8093900008953A
:1020F0008091A0008F7707C08091A0008F7D03C0E2
:102100008091A000877F8093A00008958091200196
:102110008F7707C0809120018F7D03C080912001BF
:10212000877F809320010895CF93DF9390E0FC0197
:10213000E05EFD4F2491FC01EA59FD4F8491882314
:1021400061F190E0880F991FFC01E052FD4FC591AD
:10215000D491FC01EA53FD4FA591B491611109C0DE
:102160009FB7F8948881209582238883EC912E2351
:102170000BC0623061F49FB7F8943881822F80954C
:1021800083238883EC912E2B2C939FBF06C08FB79F
:10219000F894E8812E2B28838FBFDF91CF9108958B
:1021A0001F93CF93DF93282F30E0F901E652FE4FC3
:1021B0008491F901E05EFD4FD491F901EA59FD4F98
:1021C000C491CC23C9F0162F81110E944210EC2F2C
:1021D000F0E0EE0FFF1FEA53FD4FA591B4918FB7CA
:1021E000F894111105C09C91ED2FE095E92302C0F0
:1021F000EC91ED2BEC938FBFDF91CF911F91089560
:10220000CF93DF93282F30E0F901E652FE4F8491FF
:10221000F901E05EFD4FD491F901EA59FD4FC491F7
:10222000CC2391F081110E944210EC2FF0E0EE0FD0
:10223000FF1FE455FD4FA591B491EC91ED2381E092
:1022400090E021F480E002C080E090E0DF91CF9147
:102250000895CF92DF92EF92FF920F931F93CF9347
:10226000DF936C01EB017B01E40EF51E00E010E052
:10227000CE15DF0561F06991D601ED91FC910190D9
:10228000F081E02DC6011995080F191FF1CFC80183
:10229000DF91CF911F910F91FF90EF90DF90CF9042
:1022A00008956115710579F0FB0101900020E9F7AF
:1022B0003197AF01461B570BDC01ED91FC91028079
:1022C000F381E02D199480E090E00895AF92BF92E1
:1022D000CF92DF92EF92FF920F931F93CF93DF93F2
:1022E0006C017B01C0E0D0E000E010E0D701149663
:1022F0008D919C911597C817D90788F4D601ED9157
:10230000FC91A080B180BE01C7010E942814682FF3
:10231000C601F5011995080F191F2196E7CFC801CD
:10232000DF91CF911F910F91FF90EF90DF90CF90B1
:10233000BF90AF9008950C945111DC01ED91FC9188
:102340000190F081E02D19940F931F93CF93DF93A9
:10235000EC016DE00E949D118C016AE0CE010E94AB
:102360009D11800F911FDF91CF911F910F910895C3
:102370000F931F93CF93DF93EC010E9466118C01A2
:10238000CE010E94A411800F911FDF91CF911F9168
:102390000F9108950F931F93CF93DF93EC010E9449
:1023A00051118C01CE010E94A411800F911FDF9169
:1023B000CF911F910F9108958F929F92AF92BF92EC
:1023C000CF92DF92EF92FF920F931F93CF93DF9301
:1023D000CDB7DEB7A1970FB6F894DEBF0FBECDBF65
:1023E0006C01142FE52FCB01022F19A2223008F423
:1023F0000AE07E0121E2E20EF11C802E912CA12C3C
:10240000B12C612F7E2FA50194010E94E32C029F25
:102410001019112481E0E81AF1081A3014F4105D43
:1024200001C0195CF7011083122FE32FCA01232B7F
:10243000242B252B31F7B701C6010E945111A1961B
:102440000FB6F894DEBF0FBECDBFDF91CF911F91C5
:102450000F91FF90EF90DF90CF90BF90AF909F9043
:102460008F900895CF92DF92EF92FF920F931F9378
:10247000CF93DF93EC016A017B012115310579F4DB
:10248000E881F9810190F081E02D642FDF91CF91F7
:102490001F910F91FF90EF90DF90CF9019942A3009
:1024A0003105E9F477FF1AC06DE20E949D118C019D
:1024B00044275527BA014C195D096E097F092AE0A6
:1024C000CE010E94DC11800F911FDF91CF911F91EF
:1024D0000F91FF90EF90DF90CF9008952AE0B70121
:1024E000A601CE01DF91CF911F910F91FF90EF9048
:1024F000DF90CF900C94DC119A01AB01770F660B43
:10250000770B0C9432120F931F93CF93DF93EC0150
:102510009A01AB01770F660B770B0E9432128C0188
:10252000CE010E94A411800F911FDF91CF911F91C6
:102530000F9108952115310541F4DC01ED91FC91D5
:102540000190F081E02D642F19940C94DC119A0114
:10255000462F50E060E070E00C949A120F931F93A6
:10256000CF93DF93EC019A01462F50E060E070E0DA
:102570000E949A128C01CE010E94A411800F911F1B
:10258000DF91CF911F910F9108950F931F93CF93D8
:10259000DF93EC019A01AB0160E070E00E949A12B7
:1025A0008C01CE010E94A411800F911FDF91CF9169
:1025B0001F910F910895FC01808191810C949C29B9
:1025C000CF93DF93EC0188819981009711F00E94ED
:1025D0009C29198218821D821C821B821A82DF911B
:1025E000CF9108950F931F93CF93DF93EC018B014D
:1025F0006F5F7F4F888199810E941E28009731F07C
:10260000998388831B830A8381E001C080E0DF9186
:10261000CF911F910F910895CF93DF93EC018881A3
:102620009981892B29F08A819B818617970760F40D
:10263000CE010E94F212882341F08C819D81892B6A
:1026400019F4E881F981108281E0DF91CF9108953A
:10265000EF92FF920F931F93CF93DF93EC017B01D7
:102660008A01BA010E940C13811104C0CE010E949C
:10267000E01207C01D830C83B701888199810E94F5
:10268000732ACE01DF91CF911F910F91FF90EF90B0
:102690000895FC0111821082138212821582148225
:1026A00016826115710551F0FB0101900020E9F7D8
:1026B0003197AF01461B570B0C9428130895CF9305
:1026C000DF93EC01FB018617970761F06081718150
:1026D0006115710529F0448155810E94281302C0BB
:1026E0000E94E012CE01DF91CF910895FC0111828A
:1026F0001082138212821582148216820C945F1348
:10270000CF93DF93EC016115710559F0FB01019046
:102710000020E9F73197AF01461B570B0E942813A1
:1027200002C00E94E012CE01DF91CF9108950F9375
:102730001F93CF93DF93CDB7DEB729970FB6F894E9
:10274000DEBF0FBECDBF8C01862FF8011182108233
:102750001382128215821482168250E0BE016F5FCE
:102760007F4F90E00E947A2ABE016F5F7F4FC801C1
:102770000E94801329960FB6F894DEBF0FBECDBF1E
:10278000DF91CF911F910F910895EF92FF920F93D8
:102790001F93CF93DF93FC0124813581611571056F
:1027A00011F480E019C041155105A9F07B01EC013D
:1027B0008A01020F131FB8010E940C13882389F3AA
:1027C000288139818C819D81B701820F931F0E94DE
:1027D000732A1D830C8381E0DF91CF911F910F91AC
:1027E000FF90EF900895CF93DF931F921F92CDB784
:1027F000DEB769831A8241E050E0BE016F5F7F4F10
:102800000E94C5130F900F90DF91CF910895CF9341
:10281000DF93EC01FB0144815581608171810E944D
:10282000C513811103C0CE010E94E012CE01DF91D9
:10283000CF910895CF93DF93EC010E94F3138111A0
:1028400003C0CE010E94E012CE01DF91CF91089526
:10285000FC01248135816217730748F480819181DE
:10286000009729F0FC01E60FF71F8081089580E0B2
:1028700008950895FC0124853585F901E05CFF4F3A
:1028800080819181329620813181821B930B8F73DD
:1028900099270895DC011C96ED91FC911D97DF01AD
:1028A000A05CBF4F2D913C91119712968D919C91F8
:1028B00011972817390739F08D919C91E80FF91F6E
:1028C000808190E008958FEF9FEF0895FC01A4852B
:1028D000B585FD01E05CFF4F20813181329680811A
:1028E00091812817390779F080819181A80FB91F4C
:1028F0008C91208131812F5F3F4F2F73332731839C
:10290000208390E008958FEF9FEF0895FC0181A14F
:10291000882329F0A489B5898C9186FFFBCF11A269
:1029200008950F931F93CF93DF93FC01A685B7857E
:102930008D01005C1F4FE8018881998101968F739A
:102940009927AD014E5B5F4FEA01288139818217DB
:102950009307D1F3E80128813981A20FB31F6C934B
:10296000A685B785A05CBF4F11969C938E93A689D0
:10297000B7892C9181E090E0078C02C0880F991FE5
:102980000A94E2F7822B8C9381E081A30488F58975
:10299000E02D80818064808381E090E0DF91CF91A1
:1029A0001F910F910895FB01E05CFF4F2081318161
:1029B0002F5F3F4F2F733327DB01AE5BBF4F4D912E
:1029C0005C912417350741F040815181DB01A40F50
:1029D000B51F8C933183208308951F920F920FB6F9
:1029E0000F9211240BB60F922F933F934F935F9347
:1029F0006F937F938F939F93AF93BF93EF93FF93C7
:102A00008091C00082FD07C08091C60062E176E03F
:102A10000E94D31402C08091C600FF91EF91BF9134
:102A2000AF919F918F917F916F915F914F913F9166
:102A30002F910F900BBE0F900FBE0F901F90189507
:102A40001F920F920FB60F9211240BB60F922F9375
:102A50003F934F935F936F937F938F939F93AF9326
:102A6000BF93EF93FF938091C80082FD07C08091D0
:102A7000CE006AE875E00E94D31402C08091CE00B7
:102A8000FF91EF91BF91AF919F918F917F916F9146
:102A90005F914F913F912F910F900BBE0F900FBE02
:102AA0000F901F9018951F920F920FB60F9211243E
:102AB0000BB60F922F933F934F935F936F937F9338
:102AC0008F939F93AF93BF93EF93FF938091D00029
:102AD00082FD07C08091D60062E075E00E94D314A9
:102AE00002C08091D600FF91EF91BF91AF919F916D
:102AF0008F917F916F915F914F913F912F910F90A7
:102B00000BBE0F900FBE0F901F9018951F920F9243
:102B10000FB60F9211240BB60F922F933F934F9342
:102B20005F936F937F938F939F93AF93BF93EF9335
:102B3000FF938091300182FD07C0809136016AE7E2
:102B400074E00E94D31402C080913601FF91EF918E
:102B5000BF91AF919F918F917F916F915F914F91B5
:102B60003F912F910F900BBE0F900FBE0F901F90B3
:102B700018951F920F920FB60F9211240BB60F9259
:102B80002F933F938F939F93EF93FF9320910E0684
:102B900030910F0680911006909111062817390781
:102BA00031F48091C1008F7D8093C10014C0E09109
:102BB0001006F0911106E253FA4F20818091100621
:102BC0009091110601968F73992790931106809327
:102BD00010062093C600FF91EF919F918F913F9136
:102BE0002F910F900BBE0F900FBE0F901F90189556
:102BF0001F920F920FB60F9211240BB60F922F93C4
:102C00003F938F939F93EF93FF932091860530918D
:102C1000870580918805909189052817390731F437
:102C20008091C9008F7D8093C90014C0E091880510
:102C3000F0918905EA5BFA4F208180918805909197
:102C4000890501968F73992790938905809388054C
:102C50002093CE00FF91EF919F918F913F912F9103
:102C60000F900BBE0F900FBE0F901F9018951F92E4
:102C70000F920FB60F9211240BB60F922F933F9322
:102C80008F939F93EF93FF932091FE043091FF0465
:102C900080910005909101052817390731F4809142
:102CA000D1008F7D8093D10014C0E0910005F09198
:102CB0000105E254FB4F20818091000590910105B0
:102CC00001968F73992790930105809300052093B7
:102CD000D600FF91EF919F918F913F912F910F908F
:102CE0000BBE0F900FBE0F901F9018951F920F9262
:102CF0000FB60F9211240BB60F922F933F938F9321
:102D00009F93EF93FF932091760430917704809105
:102D10007804909179042817390731F480913101B2
:102D20008F7D8093310114C0E0917804F091790493
:102D3000EA5CFB4F208180917804909179040196A0
:102D40008F739927909379048093780420933601A8
:102D5000FF91EF919F918F913F912F910F900BBE1B
:102D60000F900FBE0F901F901895CF92DF92EF92A9
:102D7000FF920F931F93CF93DF93EC016A017B01C6
:102D80004115514E6105710509F1EC89FD8981E01C
:102D900090E008A002C0880F991F0A94E2F7808390
:102DA00060E079E08DE390E0A70196010E94E32CBA
:102DB00089019A0101501109210931093695279598
:102DC00017950795980101151041A8F0EC89FD8928
:102DD000108260E874E88EE190E0A70196010E94FD
:102DE000E32CDA01C9010197A109B109B695A795AC
:102DF000979587959C01E889F9893083EA89FB8951
:102E0000208319A2EE89FF89408181E090E09C0136
:102E10000C8C02C0220F331F0A94E2F7242B20836C
:102E2000EE89FF8940819C010D8C02C0220F331F67
:102E30000A94E2F7242B2083EE89FF8940819C01CC
:102E40000E8C02C0220F331F0A94E2F7242B20833A
:102E5000EE89FF8920810F8C02C0880F991F0A9488
:102E6000E2F7809582238083DF91CF911F910F91AC
:102E7000FF90EF90DF90CF900895CF92DF92EF9286
:102E8000FF92E4E1F4E01382128288EEC82E83E020
:102E9000D82EE12CF12CC482D582E682F78266ED31
:102EA00072E07183608382E196E0958784878EEC7F
:102EB00095E09787868785EC90E0918B808B84ECFA
:102EC00090E0938B828B80EC90E0958B848B81ECEF
:102ED00090E0978B868B82EC90E0918F808F86ECD0
:102EE00090E0938F828F44E0448F33E0358F27E06A
:102EF000268F95E0978F81E080A3E2EFF3E01382C5
:102F00001282C482D582E682F78271836083AAE846
:102F1000B5E0B587A487A6E4B5E0B787A687ADEC92
:102F2000B0E0B18BA08BACECB0E0B38BA28BA8EC83
:102F3000B0E0B58BA48BA9ECB0E0B78BA68BAAEC64
:102F4000B0E0B18FA08FAEECB0E0B38FA28F448F12
:102F5000358F268F978F80A3E0EDF3E013821282E6
:102F6000C482D582E682F78271836083A2E0B5E0F5
:102F7000B587A487AEEBB4E0B787A687A5EDB0E030
:102F8000B18BA08BA4EDB0E0B38BA28BA0EDB0E031
:102F9000B58BA48BA1EDB0E0B78BA68BA2EDB0E012
:102FA000B18FA08FA6EDB0E0B38FA28F448F358F85
:102FB000268F978F80A3EEEAF3E013821282C482F9
:102FC000D582E682F782718360836AE774E0758751
:102FD000648766E374E07787668765E371E0718BE9
:102FE000608B64E371E0738B628B60E371E0758BDF
:102FF000648B61E371E0778B668B62E371E0718FC4
:10300000608F66E371E0738F628F448F358F268FF8
:10301000978F80A3FF90EF90DF90CF9008954F920D
:103020005F926F927F92AF92BF92CF92DF92EF92B8
:10303000FF920F931F93CF93DF93CDB7DEB7290194
:103040003A019B01AC0124193509460957098A89BF
:103050009B89AC89BD89BC01CD016A197B098C09AA
:103060009D090E94BF2CA801970124193509460922
:1030700057090E94052DCA01B9016A0D7B1D8C1DDF
:103080009D1DDF91CF911F910F91FF90EF90DF90E9
:10309000CF90BF90AF907F906F905F904F900895CA
:1030A0002F923F924F925F926F927F928F929F9258
:1030B000AF92BF92CF92DF92EF92FF920F931F9346
:1030C000CF93DF9300D0CDB7DEB74C017B836A830B
:1030D0006A01590117019801241B350B37FF03C002
:1030E000319521953109C5014A815B81841B950B7E
:1030F00097FF03C091958195910951E059838217FB
:10310000930714F019820BC09A2D8B2D5801092FAB
:10311000182F9A818B81DB82CA82C92ED82E8A8190
:103120009B81A816B9065CF49C2D8D2D6801092F92
:10313000182F9A818B81BB82AA82A92EB82E2501D5
:10314000AA81BB814A1A5B0A38016C187D0877FE98
:1031500003C0719461947108720157FE03C0BFEF00
:10316000EB1AFB0AF594E794C016D1061CF00FEF9A
:103170001FEF1FC001E010E01CC0D401ED91FC91D5
:10318000B9810084F185E02D9101BB23C1F04A8112
:103190005B81B601C4011995E618F708F7FE04C073
:1031A000C00ED11EE40CF51CEA81FB813196FB8335
:1031B000EA834A815B81A416B506FCF604C0A60129
:1031C0006A817B81E7CF0F900F900F90DF91CF91B5
:1031D0001F910F91FF90EF90DF90CF90BF90AF9035
:1031E0009F908F907F906F905F904F903F902F9027
:1031F00008950895DC01ED91FC910480F581E02DA6
:1032000019940F931F93DC01ED91FC91008CF18DCB
:10321000E02D19951F910F9108950F931F93DC01D5
:10322000ED91FC91028CF38DE02D19951F910F917A
:103230000895EF92FF920F931F93DC01ED91FC91A3
:10324000048CF58DE02D19951F910F91FF90EF9053
:1032500008950895AF92BF92CF92DF92EF92FF92BE
:103260000F931F93CF93DF9300D01F92CDB7DEB79C
:103270005C016901DC01ED91FC910680F781E02D94
:103280004B835C8369837A831995D501ED91FC9119
:103290004B815C81C40ED51EB1E0CB1AD1080088E9
:1032A000F189E02D7801860169817A819B01C50150
:1032B0001995D501ED91FC910288F389E02DC501A6
:1032C0000F900F900F900F90DF91CF911F910F9162
:1032D000FF90EF90DF90CF90BF90AF901994AF9296
:1032E000BF92CF92DF92EF92FF920F931F93CF93F3
:1032F000DF9300D01F92CDB7DEB75C016901DC011E
:10330000ED91FC910680F781E02D4B835C8369830E
:103310007A831995D501ED91FC9169817A819B01A0
:103320002C0D3D1D215031090088F189E02D7801D7
:103330004B815C818A01C5011995D501ED91FC9104
:103340000288F389E02DC5010F900F900F900F9028
:10335000DF91CF911F910F91FF90EF90DF90CF9071
:10336000BF90AF9019944F925F926F927F928F921D
:103370009F92AF92BF92CF92DF92EF92FF920F9304
:103380001F93CF93DF931F921F92CDB7DEB76C01CF
:103390005A0139014801DC01ED91FC910680F78169
:1033A000E02D69837A8319956981462E7A81572E9B
:1033B000640C751CD601ED91FC91461457046CF415
:1033C0000484F585E02D87019401A501B201C601B1
:1033D0001995BFEF4B1A5B0AEDCF0288F389E02DF8
:1033E000C6010F900F90DF91CF911F910F91FF9029
:1033F000EF90DF90CF90BF90AF909F908F907F9095
:103400006F905F904F901994EF92FF920F931F93DC
:10341000DC01ED91FC9111971A960D911C911B976F
:1034200018962D913C911997048CF58DE02D7B0118
:1034300040E050E060E070E019951F910F91FF901F
:10344000EF900895CF92DF92EF92FF920F931F9328
:10345000CF93DF9300D000D0CDB7DEB76C01DC0195
:10346000ED91FC916217730789F4041715072CF48A
:10347000942F852FA801092F182F041B150B9801D5
:103480002F5F3F4F008CF18DE02D12C04017510788
:1034900009F5261737072CF4962F872FB901292F06
:1034A000382F261B370B2F5F3F4F028CF38DE02DFB
:1034B0008701C601199526960FB6F894DEBF0FBE98
:1034C000CDBFDF91CF911F910F91FF90EF90DF90D3
:1034D000CF9008950680F781E02D2D833E834B83A6
:1034E0005C8369837A831995D601ED91FC910088FC
:1034F000F189E02D2D813E814B815C8169817A814A
:10350000C6011995D601ED91FC910288F389E02D51
:10351000C60126960FB6F894DEBF0FBECDBFDF9171
:10352000CF911F910F91FF90EF90DF90CF90199462
:103530006F927F928F929F92AF92BF92CF92DF92C3
:10354000EF92FF920F931F93CF93DF93EC014B0108
:103550005A0169013801E881F9810680F781E02D7F
:103560001995E881F9810684F785E02D8701960198
:10357000A501B401CE011995E881F981A501460D97
:10358000571D415051090684F785E02D9601B4017D
:10359000CE011995E881F9810484F585E02D930128
:1035A000A501B401CE011995E881F981C80CD91C97
:1035B000B601615071090484F585E02D9301A501E0
:1035C000CE011995E881F9810288F389E02DCE01B9
:1035D000DF91CF911F910F91FF90EF90DF90CF90EF
:1035E000BF90AF909F908F907F906F9019940895A7
:1035F000FC016370658B8481958126813781613000
:1036000039F0633029F091878087338722870895C6
:1036100031872087938782870895FC011382128265
:1036200086EE92E09183808375836483578346831B
:103630007187608753874287158A15861486178697
:10364000168681E0848B2FEF3FEF338B228B318BFB
:10365000208B868B178A118E108E08952F923F92A1
:103660004F925F926F927F928F929F92AF92BF9292
:10367000CF92DF92EF92FF920F931F93CF93DF933E
:10368000CDB7DEB7AE970FB6F894DEBF0FBECDBF95
:103690009A8389837EA76DA73A0129014801160103
:1036A000B88EAF8A041715077CF4892DC416D50689
:1036B0000CF0CAC146011A01602E782E852D270113
:1036C0007B012DA78EA70DC0C016D106C4F4982D7E
:1036D000892D4101292E382E942D852D2701E92E83
:1036E000F82E861497045CF4962D872D3401892ECC
:1036F000982E9DA58EA55EA64DA6492E582EA98171
:10370000BA81ED91FC9111970680F781E02DCD01F2
:1037100019956214730451F5EDA5FEA54E165F06CA
:103720002CF0942D852D2F019DA78EA7E414F50470
:1037300044F02DA53EA52E153F0514F4FEA6EDA6DA
:103740007201A981BA81ED91FC9111972DA53EA539
:103750002E193F092F5F3F4F0684F785E02D0F8913
:10376000188DA301B701CD0119954CC1C201EDA57A
:10377000FEA58E1B9F0B940126193709A7014E1B2E
:103780005F0B58874F83B101661977097C876B8778
:10379000D701A419B509B88BAF87F101E819F90968
:1037A000FA8FE98F64018214930419F0F1E0CF1AC3
:1037B000D10853011B8A1C8A1D8A1E8A1B821C8207
:1037C0001D821E82A901330F660B770B4D8F5E8F12
:1037D0006F8F78A32B853C85032E000C440B550B73
:1037E00029A33AA34BA35CA3AC01990F660B770BFB
:1037F0004DA35EA36FA378A76F817885072E000C79
:10380000880B990B69A77AA78BA79CA7CA14DB041E
:103810000CF45AC06B817C818D819E812D8D3E8DF3
:103820004F8D58A10E94052DEDA4FEA4E20EF31EBB
:103830006B897C898D899E8929A13AA14BA15CA1C4
:103840000E94052D8DA59EA5280F391F4B815C81F7
:103850006D817E818DA19EA1AFA1B8A5480F591F92
:103860006A1F7B1F4B835C836D837E834B895C89DE
:103870006D897E8989A59AA5ABA5BCA5480F591F5E
:103880006A1F7B1F4B8B5C8B6D8B7E8B2E153F05D0
:103890002CF49E2D8F2D7901292F382FA981BA81E3
:1038A000ED91FC9111972E193F092F5F3F4F068430
:1038B000F785E02D0F89188DA501B701CD01199568
:1038C000BFEFAB1ABB0AA2CF950128193909EF85C2
:1038D000F889E29FC001E39F900DF29F900D1124A3
:1038E0009C01990F440B550B2B833C834D835E83C6
:1038F000C501861997094F815885489F6001499FE6
:10390000D00C589FD00C11240D2C000CEE08FF0891
:10391000698D7A8D072E000C880B990B698F7A8F31
:103920008B8F9C8F8B859C85092E000CAA0BBB0B63
:103930008B879C87AD87BE879F01032E000C440BAD
:10394000550B2F87388B498B5A8B4F815885052E05
:10395000000C660B770B4F83588769877A872A1488
:103960003B040CF44FC06B817C818D819E81298D3D
:103970003A8D4B8D5C8D0E94052D4201820E931E67
:10398000C701B6012B853C854D855E850E94052DBE
:103990006DA57EA5260F371F8B819C81AD81BE81D1
:1039A0004F85588969897A89840F951FA61FB71F8B
:1039B0008B839C83AD83BE836F81788589859A854F
:1039C000C60ED71EE81EF91E281539052CF4982DB1
:1039D000892D4901292F382FA981BA81ED91FC91B8
:1039E0001197281939092F5F3F4F0684F785E02D7D
:1039F0000F89188DA501B401CD011995BFEFAB1A40
:103A0000BB0AADCFA981BA81ED91FC9111970288D3
:103A1000F389E02DCD01AE960FB6F894DEBF0FBE50
:103A2000CDBFDF91CF911F910F91FF90EF90DF906D
:103A3000CF90BF90AF909F908F907F906F905F904E
:103A40004F903F902F9019944A01602E782E852D2B
:103A50004DA45EA42DA78EA752CE2F923F924F92D7
:103A60005F926F927F928F929F92AF92BF92CF920E
:103A7000DF92EF92FF920F931F93CF93DF93CDB717
:103A8000DEB76C970FB6F894DEBF0FBECDBF9C8F2C
:103A90008B8F5B011A011F830E833701C982DC0102
:103AA00058964D915C9159974115510509F0E5C023
:103AB00018968D919C911997681779070CF0CAC1D7
:103AC0001A968D919C911B97281639060CF0C2C14D
:103AD0008C2C912CFB0136E0C39EE00DF11D1124CE
:103AE000FB87EA871E161F060CF0B4C1C40133E041
:103AF000880F991F3A95E1F79D878C87820D931D5A
:103B0000181619060CF0A6C157968C91811103C0A6
:103B1000203B08F02F5FAB8DBC8DED91FC91119790
:103B20000680F781E02DCD012A8F19952A8DB5E009
:103B30002B9F90011124F5013596FF87EE87250113
:103B4000BB82AA82A9014A195B09598B488BC10122
:103B500008969B8B8A8BE889F989E40DF51DE65060
:103B6000FD4F949198873D822C826101A885A0FF2A
:103B700013C0AB8DBC8DED91FC91B981B13031F4A6
:103B80000084F185E02D2E813F8116C00284F385EB
:103B9000E02DEE80FF801AC0EE81FF816E167F0659
:103BA000F1F0AB8DBC8DED91FC91B981B13051F448
:103BB0000084F185E02D9301A601B2018B8D9C8DCF
:103BC00019950DC00284F385E02D730184019401E1
:103BD0004C815D816A817B818B8D9C8D1995E885F7
:103BE000E695E8872C813D81280D391D3D832C8386
:103BF0003FEFC31AD30A4A895B89C416D50609F078
:103C0000B5CF8A819B81880D991D9B838A839FEF05
:103C1000491A590AAE85BF854A165B0609F09BCF43
:103C2000EE81FF816E167F0609F4F2C0EB8DFC8DEC
:103C3000A081B181F981F13079F4B5016B5F7F4FDB
:103C40001C96ED91FC911D97830128E030E0A101C5
:103C50008B8D9C8D1995DCC06A857B8568197909E7
:103C60001A96ED91FC911B9773010C851D859401AB
:103C7000A1018B8D9C8D1995CBC0FA01349694913E
:103C8000329765917491291BCB01B7E02B9F800D72
:103C9000911D1124FA01259134913B8B2A8BFC0153
:103CA000459154915B834A83FC013296C4903196CE
:103CB00054915C87329614913196D49089818230E8
:103CC00058F0612E012E000C7708AD2D0D2C000C44
:103CD000BB0BB987A88704C019861886612C712C84
:103CE000AB8DBC8DED91FC9111970680F781E02D95
:103CF000CD011995B9818B2E912C689CC001699CCE
:103D0000900D789C900D1124FC01EA0DFB1DF98BA0
:103D1000E88B1C82712C612CE12F110FFF0B950198
:103D20002E0F3F1F3B872A87AC0CB11CA5014E0FFD
:103D30005F1F5F8B4E8BC1018D0D911DD7FC9A9536
:103D4000998F888F4C85641608F062C0862D90E0AC
:103D500048855985480F591F489D9001499D300D50
:103D6000589D300D1124D901A20DB31DBF87AE8718
:103D7000AA84BB8448885988DC80BA85DB1AE88D20
:103D8000F98DE80FF91FFD8BEC8B8D2D8A0D2E8997
:103D90003F89A216B306B9F1877061F48A819B81CD
:103DA0000196EA89FB89AA81BB81EA0FFB1F749007
:103DB0009B838A8377FE20C0AB8DBC8DED91FC91F7
:103DC000B981B13061F40084F185E02D2E813F810D
:103DD0004C895D89B5018B8D9C8D19950DC0028430
:103DE000F385E02DEE80FF80840194014E855F8590
:103DF000B2018B8D9C8D1995770C480C591CEFEFF7
:103E0000AE1ABE0AC2CF3C813C0D3C8363949ACF6C
:103E1000AB8DBC8DED91FC9111970288F389E02D5B
:103E2000CD016C960FB6F894DEBF0FBECDBFDF910B
:103E3000CF911F910F91FF90EF90DF90CF90BF90A7
:103E4000AF909F908F907F906F905F904F903F903A
:103E50002F9019946C960FB6F894DEBF0FBECDBFAD
:103E6000DF91CF911F910F91FF90EF90DF90CF9056
:103E7000BF90AF909F908F907F906F905F904F908A
:103E80003F902F900895AF92BF92CF92EF92FF9202
:103E90000F931F93CF93DF93EC01262F888D998D7D
:103EA000009709F040C06A3059F41D861C862C89A1
:103EB0008E859F8538E0239F800D911D112441C080
:103EC0006D3009F4AAC08E898823C1F03C898C85A5
:103ED0009D8546E0349F800D911D112448855985AC
:103EE000481759075CF41D861C868E859F8548E01F
:103EF000349F800D911D11249F878E87EA88FB884F
:103F0000088919894E855F856C857D85CC88CE01B1
:103F10000E942D1D2C898C859D8536E0239F800D68
:103F2000911D112442C06A3079F41D861C862C89AB
:103F3000FC013696E4918E859F852E9F800D911D04
:103F400011249F878E8769C06D3009F466C0FC011B
:103F500034963491631708F460C03196E491E61703
:103F600008F45BC0FC013296A590B490462F50E057
:103F7000431B510937E0349FB001359F700D112468
:103F8000A60EB71EF501329634913196E491332393
:103F900011F0E1110DC0F5013496E4912C898C8566
:103FA0009D85E29F800D911D11249D878C8735C0D2
:103FB000F501359644915E89552311F16C89E32F03
:103FC000F0E0E40FF11D47FDFA956E9FD0016F9F61
:103FD000B00D11244C855D854A0F5B1FE885F9857E
:103FE000E417F5076CF41D861C86FC013696E491F7
:103FF0008E859F856E9F800D911D11249F878E87D2
:10400000EA88FB88088919894E855F856C857D85DE
:10401000CC88CE010E942D1DBECF81E090E0DF91C3
:10402000CF911F910F91FF90EF90CF90BF90AF90E5
:104030000895FC0175876487578746870895611145
:1040400001C061E0FC01648B0895FC01738B628BFD
:10405000718B608B0895FC01718B608B538B428B4D
:104060000895DC019C96ED91FC919D979081D196ED
:104070008C91892B80830895EF92FF920F931F9369
:10408000DC01ED91FC910284F385E02D780189013A
:1040900021E030E019951F910F91FF90EF90089566
:1040A000EF92FF920F931F93DC01ED91FC9102843C
:1040B000F385E02D780101E010E019951F910F9133
:1040C000FF90EF9008950F931F93CF93DF9300D04D
:1040D00000D0CDB7DEB78C01DC01ED91FC910680FC
:1040E000F781E02D2D833E834B835C8369837A8344
:1040F0001995D801ED91FC910084F185E02D2D8179
:104100003E814B815C8169817A81C8011995D80112
:10411000ED91FC910288F389E02DC80126960FB637
:10412000F894DEBF0FBECDBFDF91CF911F910F91ED
:104130001994EF92FF920F931F93CF93DF9300D0C8
:1041400000D0CDB7DEB77C01DC01ED91FC9106809B
:10415000F781E02D2D833E834B835C8369837A83D3
:104160001995D701ED91FC910484F585E02D2D8101
:104170003E814B815C8169817A81C7011995D701A4
:10418000ED91FC910288F389E02DC70126960FB6C8
:10419000F894DEBF0FBECDBFDF91CF911F910F917D
:1041A000FF90EF901994EF92FF920F931F93CF938C
:1041B000DF9300D000D0CDB7DEB77C01DC01ED91FC
:1041C000FC910680F781E02D2D833E834B835C8339
:1041D00069837A831995D701ED91FC910684F7855F
:1041E000E02D2D813E814B815C8169817A81C701FF
:1041F0001995D701ED91FC910288F389E02DC70153
:1042000026960FB6F894DEBF0FBECDBFDF91CF91DB
:104210001F910F91FF90EF901994CF92DF92EF9240
:10422000FF920F931F93CF93DF9300D000D0CDB7B1
:10423000DEB76C01DC01ED91FC910680F781E02D89
:104240002D833E834B835C8369837A831995D601E2
:10425000ED91FC910284F385E02D2D813E814B810F
:104260005C8169817A81C6011995D601ED91FC9135
:104270000288F389E02DC60126960FB6F894DEBFBA
:104280000FBECDBFDF91CF911F910F91FF90EF90A7
:10429000DF90CF901994CF93DF93EC0189A187FF32
:1042A00009C084E00E94582A81E00E944A2A80E0E6
:1042B0000E94532AECA5FDA5908189A980958923A8
:1042C0008083DF91CF910895EF92FF920F931F9318
:1042D000CF93DF931F92CDB7DEB77C01062F142F4B
:1042E00040E451E060EF70E029830E940D1B8EE0F6
:1042F00093E0D70111969C938E935E960C935E97F4
:104300005F961C935F97298190962C9390978FEFDF
:1043100091968C93919792968C93929793968C9377
:104320009397F701128E138E148E158E602F000F47
:10433000770BFB01EA59FD4F8491E82FF0E0EE0F77
:10434000FF1FEA53FD4F859194919D969C938E9308
:104350009C97FB01E05EFD4FE491D196EC93D197E1
:10436000412F110F550BFA01EA59FD4FE491F0E08E
:10437000EE0FFF1FEA53FD4F85919491F70193A72C
:1043800082A7FA01E05EFD4FE491D296EC93D297BA
:1043900099961C921E929897D0961C92D0979596BB
:1043A0001C921E9294979E961C929E9797961C9292
:1043B0001E9296979F961C920F90DF91CF911F911E
:1043C0000F91FF90EF900895FC0181A187FF05C038
:1043D0006EBD0DB407FEFDCF089528E030E090E8F3
:1043E000A4A1B5A186A5492F462319F04C91842B91
:1043F00003C04C91809584238C93A0A5B1A54C91CA
:1044000080A9809584238C93A0A5B1A54C9180A907
:10441000842B8C9396952150310911F70895CF93F1
:10442000DF93EC01EAA5FBA590818AA980958923F9
:104430008083CE010E94E421EAA5FBA590818AA990
:10444000892B8083DF91CF910895CF93DF93EC0187
:10445000411551056105710521F440E052E16AE71B
:1044600070E04A8F5B8F6C8F7D8F61E08F8D0E9433
:10447000941060E08F8D0E94D01061E08E8D0E94BC
:10448000941061E08E8D0E94D01089A187FD16C026
:1044900061E08AA10E94941060E08AA10E94D0107D
:1044A00061E089A10E94941061E089A10E94D0106E
:1044B0008BA187FD03C060E00E94941089A187FD55
:1044C0000E94342A88A187FD21C061E00E949410D7
:1044D00061E088A10E94D01064E670E080E090E086
:1044E0000E948B0F60E088A10E94D01064E670E00B
:1044F00080E090E00E948B0F61E088A10E94D010C4
:1045000068EC70E080E090E00E948B0FE881F98118
:104510000680F781E02DCE0119956FEECE010E9445
:104520000F2263E0CE010E94E42160E8CE010E94E8
:10453000E42162E0CE010E94E4216FECCE010E94F2
:104540000F2260E0CE010E94E42161ECCE010E94C6
:10455000E42160E3CE010E94E4216DEECE010E94D1
:104560000F2264E6CE010E94E42163E0CE010E94A6
:10457000E42162E1CE010E94E42161E8CE010E94C3
:10458000E42168EECE010E940F2265E8CE010E9470
:10459000E42160E0CE010E94E42168E7CE010E94A0
:1045A000E4216BECCE010E940F2269E3CE010E9450
:1045B000E4216CE2CE010E94E42160E0CE010E9481
:1045C000E42164E3CE010E94E42162E0CE010E9476
:1045D000E42167EFCE010E940F2260E2CE010E942B
:1045E000E4216AEECE010E940F2260E0CE010E941B
:1045F000E42160E0CE010E94E42160ECCE010E9443
:104600000F2263E2CE010E94E42161ECCE010E9400
:104610000F2260E1CE010E94E42165ECCE010E94F0
:104620000F226EE3CE010E94E42168E2CE010E94D7
:10463000E42167ECCE010E940F2266E8CE010E94C1
:10464000E42166E3CE010E940F2268E4CE010E94BD
:10465000E42167E3CE010E940F2289A187FF09C0F0
:104660001EBC0DB407FEFDCF1EBC0DB407FEFDCF72
:1046700008C060E0CE010E94E42160E0CE010E940B
:10468000E4216AE3CE010E940F2265E5CE010E947B
:10469000E42161EBCE010E940F2260E0CE010E9476
:1046A000E42168E1CE010E94E42166EBCE010E9484
:1046B0000F2268E0CE010E94E42162E8CE010E9450
:1046C000E42167E2CE010E94E42162EFCE010E9464
:1046D0000F2260E0CE010E94E42166E2CE010E943A
:1046E0000F2261E0CE010E94E42160EECE010E9423
:1046F0000F226FE0CE010E94E42161E3CE010E940F
:10470000E4216BE2CE010E94E4216CE0CE010E9424
:10471000E4216EE0CE010E94E42168E0CE010E9417
:10472000E4216EE4CE010E94E42161EFCE010E94FB
:10473000E42167E3CE010E94E42167E0CE010E94FC
:10474000E42160E1CE010E94E42163E0CE010E94F9
:10475000E4216EE0CE010E94E42169E0CE010E94D6
:10476000E42160E0CE010E94E42161EECE010E94CE
:104770000F2260E0CE010E94E4216EE0CE010E9493
:10478000E42164E1CE010E94E42163E0CE010E94B5
:10479000E42161E1CE010E94E42167E0CE010E94A4
:1047A000E42161E3CE010E94E42161ECCE010E948C
:1047B000E42168E4CE010E94E42168E0CE010E9479
:1047C000E4216FE0CE010E94E4216CE0CE010E9462
:1047D000E42161E3CE010E94E42166E3CE010E9460
:1047E000E4216FE0CE010E94E42161E1CE010E944C
:1047F0000F2268E770E080E090E00E948B0F69E292
:10480000CE010E940F2268E770E080E090E00E94F5
:104810008B0FE881F9810288F389E02DCE0119958B
:1048200080EF90E09987888780E491E09B878A8772
:10483000DF91CF9108951F93CF93DF93EC016370C5
:104840006D8B6230C1F0633001F1613051F080EF67
:1048500090E09987888780E491E09B878A8718E4B5
:104860001DC080E491E09987888780EF90E09B8766
:104870008A8718E213C080EF90E09987888780E4E8
:1048800091E09B878A8718E809C080E491E09987C6
:10489000888780EF90E09B878A8718EEE881F9810E
:1048A0000680F781E02DCE01199566E3CE010E94C6
:1048B0000F22612FCE010E94E421E881F981028854
:1048C000F389E02DCE01DF91CF911F9119940F93C1
:1048D0001F93CF93DF931F92CDB7DEB78C01DC011E
:1048E000ED91FC910680F781E02D6983199569812E
:1048F000611102C060E201C061E2C8010E940F22A2
:10490000D801ED91FC910288F389E02DC8010F9048
:10491000DF91CF911F910F9119948F929F92AF9237
:10492000BF92CF92DF92EF92FF920F931F93CF939C
:10493000DF93EC01490181E0881A9108860E971EE9
:10494000C401A0E0B0E04B01A12CB12C540199248A
:104950008824882A992AAA2ABB2A680181E0C81AD1
:10496000D108C40ED51EC601A0E0B0E06A01E12C5A
:10497000F12C7601DD24CC24C82AD92AEA2AFB2A84
:104980006AE2CE010E940F2229A16B2D772788278A
:10499000992727FF18C06EBD0DB407FEFDCFC501D6
:1049A000AA27BB278EBD0DB407FEFDCFBB27AB2DBD
:1049B0009A2D892D8EBD0DB407FEFDCF8EBC0DB492
:1049C00007FEFDCF14C0CE010E94E421B501882767
:1049D0009927CE010E94E42199278B2D7A2D692DEC
:1049E000CE010E94E421682DCE010E94E4216BE2F9
:1049F000CE010E940F2229A16F2D772788279927A2
:104A000027FF18C06EBD0DB407FEFDCFC701AA2752
:104A1000BB278EBD0DB407FEFDCFBB27AF2D9E2D4E
:104A20008D2D8EBD0DB407FEFDCFCEBC0DB407FE9F
:104A3000FDCF14C0CE010E94E421B7018827992739
:104A4000CE010E94E42199278F2D7E2D6D2DCE0160
:104A50000E94E4216C2DCE010E94E4216CE2CE0183
:104A6000DF91CF911F910F91FF90EF90DF90CF904A
:104A7000BF90AF909F908F900C940F221F93CF9375
:104A8000DF93262FFC0131A137FF09C07EBD0DB495
:104A900007FEFDCF2EBD0DB407FEFDCF0CC0672F66
:104AA000122FEC010E94E421612FCE01DF91CF9102
:104AB0001F910C94E421DF91CF911F910895EF9203
:104AC000FF920F931F93CF93DF9377FD23C0DC01F9
:104AD0001896ED91FC9119976E177F07DCF457FD3E
:104AE00019C01A96ED91FC911B974E175F0794F42D
:104AF0007901EC0101E010E021E030E00E948D241A
:104B0000B701CE01DF91CF911F910F91FF90EF90F0
:104B10000C943E25DF91CF911F910F91FF90EF9064
:104B20000895EF92FF921F93CF93DF9300D01F92CF
:104B30001F92CDB7DEB77C01162FFC0181A187FF44
:104B400012C0211531054105510549F17EBD0DB455
:104B500007FEFDCF1EBD0DB407FEFDCF215031096C
:104B600041095109EECF2115310541055105B9F033
:104B7000672FC70129833A834B835C837D830E941F
:104B8000E421612FC7010E94E42129813A814B81F0
:104B90005C8121503109410951097D81E4CF0F9099
:104BA0000F900F900F900F90DF91CF911F91FF907A
:104BB000EF9008958F929F92AF92BF92CF92DF9223
:104BC000EF92FF920F931F93CF93DF935C01FB0152
:104BD000E9014701DC0118962D913C911997621764
:104BE00073070CF049C01A968D919C911B9748173A
:104BF00059070CF041C06B01CC0EDD1ED601119798
:104C00007A01E00EF11EB70161507109B7FD34C0A1
:104C100077FD32C0F7FF03C0E601E0E0F0E057FFA8
:104C200003C0870140E050E0A217B3071CF0E90180
:104C3000CE1BDF0B681779071CF08C01041B150BCA
:104C40009E01D8010E942C2D6B017C01BF01C50182
:104C50000E948D24A7019601B401C501DF91CF9177
:104C60001F910F91FF90EF90DF90CF90BF90AF908A
:104C70009F908F900C949125DF91CF911F910F9170
:104C8000FF90EF90DF90CF90BF90AF909F908F906C
:104C900008954F925F926F927F929F92AF92BF92D0
:104CA000CF92DF92EF92FF920F931F93CF93DF93F8
:104CB00000D000D0CDB7DEB78C0160E0DC011296E9
:104CC0008C910E94941060E0F80183810E949410FE
:104CD00061E0D80115968C910E94941061E0F80172
:104CE00084810E949410D80150968C915097189608
:104CF000ED91FC9119979081892B808351969C911D
:104D000051971C96ED91FC911D978081282F30E0E2
:104D1000892F90E08095909582239323808312962B
:104D20008C910E941D107C01F80182810E941D104F
:104D30009701281B390B2C5F3F4F2930310548F470
:104D4000A701480F591FCA019595879599249394F7
:104D500001C0912C2FEF33E07901E81AF90A60E0E5
:104D6000D80115968C910E94941060E0F80184811E
:104D70000E94941061E0D80112968C910E949410C8
:104D800061E0F80183810E949410D80153969C91B0
:104D900053971E96ED91FC911F978081282F30E04C
:104DA000892F90E08095909582239323808352965B
:104DB0008C9152971A96ED91FC911B979081892BBB
:104DC000808314968C910E941D106C01F8018481DF
:104DD0000E941D10A601481B590B4C5F5F4F4930C4
:104DE000510538F49601280F391FC901959587950B
:104DF00001C0912C4FEF53E06A01C81AD90A61E053
:104E0000D80115968C910E94941060E0F80182817F
:104E10000E949410D80150969C9150971896ED914D
:104E2000FC9119978081282F30E0892F90E08095A0
:104E3000909582239323808353968C9153971E964B
:104E4000ED91FC911F979081892B808314968C9112
:104E50000E941D105C01F80182810E941D10D80182
:104E600016960D911C9117970115110509F43FC075
:104E7000BC01990F880B990B0E94B62B2B013C01AA
:104E8000B501BB0C880B990B0E94B62B9B01AC01A2
:104E9000C301B2010E940C2B20E030E040E85FE348
:104EA0000E949F2A2B013C01B7010F2C000C880B9C
:104EB000990B0E94B62B9B01AC01C301B2010E9469
:104EC000422C2B013C01B80180E090E00E94B42B01
:104ED0009B01AC01C301B2010E94422C20E030E0F2
:104EE00040E85AE30E94422C0E947E2B05C0B50187
:104EF000681B790B61507C4F911002C060E070E03C
:104F0000FA82E982DC82CB827E836D832E2D3A8108
:104F10004C2D5C817E8180E090E026960FB6F8945F
:104F2000DEBF0FBECDBFDF91CF911F910F91FF90DC
:104F3000EF90DF90CF90BF90AF909F907F906F9059
:104F40005F904F900895EF92FF920F931F93DC01B3
:104F500012964C93129714962C93149713960C93C5
:104F6000139715966C9315971796FC92EE921697D9
:104F700070E0FB01EA59FD4FE491F0E0EE0FFF1FF6
:104F8000EA53FD4F8591949119969C938E931897AF
:104F900050E0FA01EA59FD4FE491F0E0EE0FFF1FF7
:104FA000EA53FD4F859194911B969C938E931A978B
:104FB00030E0F901EA59FD4FE491F0E0EE0FFF1FF8
:104FC000EA53FD4F859194911D969C938E931C9767
:104FD00010E0F801EA59FD4F849190E0880F991F85
:104FE0008A539D4FFC01859194911F969C938E93BB
:104FF0001E97FB01E05EFD4F649150966C935097B5
:10500000FA01E05EFD4F449152964C935297F9019C
:10501000E05EFD4F249151962C935197F801E05E8C
:10502000FD4F049153960C9353978AE090E08D9333
:105030009C931F910F91FF90EF9008956F927F9234
:105040008F929F92AF92BF92CF92DF92EF92FF9298
:105050000F931F93CF93DF93EC01009789F4CB015B
:10506000DF91CF911F910F91FF90EF90DF90CF9044
:10507000BF90AF909F908F907F906F900C94072976
:10508000FC01E60FF71F9C0122503109E217F307DC
:1050900008F4ACC0D9010D911C91119706171707A0
:1050A000B0F00530110508F49FC0C80104978617B9
:1050B000970708F499C002501109061B170B0193BA
:1050C00011936D937C93CF010E949C298DC05B014D
:1050D000A01AB10A4C01800E911EA0915806B09101
:1050E000590640E050E0E12CF12C109709F44AC039
:1050F000A815B905D1F56D907C901197630182E0F8
:10510000C80ED11CCA14DB0480F1A3014A195B0943
:105110006A0182E0C80ED11C1296BC9012971396B9
:10512000AC91B5E0CB16D10440F0B282A383518399
:105130004083D9016D937C930AC00E5F1F4FC3015A
:10514000800F911FF90191838083EB2DFA2FE114D9
:10515000F10431F0D7011396FC93EE93129744C0FB
:10516000F0935906E09358063FC08D919C9111979A
:105170004817590708F4AC017D0112960D90BC91B7
:10518000A02DB3CF809156069091570688159905AA
:10519000E1F446175707C8F4809103029091040286
:1051A000009741F48DB79EB74091070250910802D5
:1051B000841B950BE817F907C8F4F0935706E093A2
:1051C0005606F901718360830FC0CB010E94072945
:1051D0007C01009759F0A801BE010E946A2ACE0105
:1051E0000E949C29C70104C0CE0102C080E090E06B
:1051F000DF91CF911F910F91FF90EF90DF90CF90B3
:10520000BF90AF909F908F907F906F900895CF93B5
:10521000DF938230910510F482E090E0E09158062F
:10522000F091590620E030E0C0E0D0E0309711F175
:105230004081518148175907C0F04817590761F458
:1052400082819381209719F09B838A832BC090934E
:1052500059068093580626C02115310519F04217CA
:10526000530718F49A01BE01DF01EF010280F381B8
:10527000E02DDCCF2115310509F1281B390B243035
:10528000310590F412968D919C91139761157105DB
:1052900021F0FB019383828304C09093590680938D
:1052A0005806FD01329644C0FD01E20FF31F8193C1
:1052B0009193225031092D933C933AC02091560688
:1052C00030915706232B41F42091050230910602BC
:1052D0003093570620935606209103023091040222
:1052E0002115310541F42DB73EB740910702509189
:1052F0000802241B350BE0915606F0915706E21781
:10530000F307A0F42E1B3F0B2817390778F0AC01E8
:105310004E5F5F4F2417350748F04E0F5F1F5093C5
:105320005706409356068193919302C0E0E0F0E067
:10533000CF01DF91CF9108950F931F93CF93DF9308
:10534000009709F48CC0FC013297138212820091FD
:105350005806109159060115110581F420813181FB
:10536000820F931F20915606309157062817390750
:1053700079F5F0935706E093560671C0D80140E0E6
:1053800050E0AE17BF0750F412962D913C91139741
:10539000AD012115310509F1D901F3CF9D01DA01E4
:1053A0003383228360817181860F971F8217930751
:1053B00069F4EC0128813981260F371F2E5F3F4F9A
:1053C000318320838A819B8193838283452B29F4B7
:1053D000F0935906E093580642C01396FC93EE935F
:1053E0001297ED01499159919E01240F351FE21743
:1053F000F30771F480819181840F951F02961196B5
:105400009C938E938281938113969C938E93129793
:10541000E0E0F0E0D80112968D919C9113970097EF
:1054200019F0F8018C01F6CF8D919C9198012E5FB7
:105430003F4F820F931F2091560630915706281731
:10544000390769F4309729F41092590610925806DA
:1054500002C0138212821093570600935606DF9102
:10546000CF911F910F91089561E085E30E94D010C4
:1054700061E085E30E9494108CB580618CBD8CB591
:1054800080648CBD61E084E30E94941061E083E35A
:105490000C949410811103C08CB5806202C08CB54D
:1054A0008F7D8CBD08959CB5937F892B8CBD08950D
:1054B0009CB5282F23709C7F922B9CBD2DB582FB21
:1054C000992790F9822F8E7F892B8DBD0895F894AE
:1054D0000C947F2DFB01DC0102C001900D92415024
:1054E0005040D8F70895FB01DC0101900D92002097
:1054F000E1F708954532510520F4423010F00C9444
:10550000852AFB011082CB010895BB27FB0155279B
:10551000AA27880F991FAA1FA41710F0A41B839510
:105520005051B9F7A05DAA3308F0A95DA193009787
:1055300079F7B111B1931192CB010C94AF2C505863
:10554000BB27AA270E94B72A0C94082C0E94FA2B8A
:1055500038F00E94012C20F039F49F3F19F426F412
:105560000C94F72B0EF4E095E7FB0C94F12BE92F4C
:105570000E94192C58F3BA1762077307840795071E
:1055800020F079F4A6F50C943B2C0EF4E0950B2E4C
:10559000BA2FA02D0B01B90190010C01CA01A00185
:1055A0001124FF27591B99F0593F50F4503E68F1E0
:1055B0001A16F040A22F232F342F4427585FF3CF21
:1055C000469537952795A795F0405395C9F77EF4F2
:1055D0001F16BA0B620B730B840BBAF09150A1F03B
:1055E000FF0FBB1F661F771F881FC2F70EC0BA0FC1
:1055F000621F731F841F48F4879577956795B79549
:10560000F7959E3F08F0B0CF9395880F08F0992743
:10561000EE0F9795879508950E94202B0C94082CE7
:105620000E94012C58F00E94FA2B40F029F45F3FB1
:1056300029F00C94F12B51110C943C2C0C94F72B69
:105640000E94192C68F39923B1F3552391F3951B0C
:10565000550BBB27AA2762177307840738F09F5F93
:105660005F4F220F331F441FAA1FA9F335D00E2E00
:105670003AF0E0E832D091505040E695001CCAF76D
:105680002BD0FE2F29D0660F771F881FBB1F261730
:1056900037074807AB07B0E809F0BB0B802DBF0107
:1056A000FF2793585F4F3AF09E3F510578F00C94D6
:1056B000F12B0C943C2C5F3FE4F3983ED4F3869599
:1056C00077956795B795F7959F5FC9F7880F911DF7
:1056D0009695879597F90895E1E0660F771F881FE3
:1056E000BB1F621773078407BA0720F0621B730B96
:1056F000840BBA0BEE1F88F7E09508950E94852B66
:105700006894B1110C943C2C08950E94212C88F0CF
:105710009F5798F0B92F9927B751B0F0E1F0660F75
:10572000771F881F991F1AF0BA95C9F714C0B130B6
:1057300091F00E943B2CB1E008950C943B2C672F14
:10574000782F8827B85F39F0B93FCCF386957795E5
:105750006795B395D9F73EF49095809570956195CE
:105760007F4F8F4F9F4F0895E89409C097FB3EF4F9
:1057700090958095709561957F4F8F4F9F4F99239E
:10578000A9F0F92F96E9BB279395F695879577951C
:105790006795B795F111F8CFFAF4BB0F11F460FFDC
:1057A0001BC06F5F7F4F8F4F9F4F16C0882311F034
:1057B00096E911C0772321F09EE8872F762F05C048
:1057C000662371F096E8862F70E060E02AF09A95E3
:1057D000660F771F881FDAF7880F9695879597F9D8
:1057E000089597F99F6780E870E060E008959FEF63
:1057F00080EC089500240A94161617061806090668
:10580000089500240A941216130614060506089536
:10581000092E0394000C11F4882352F0BB0F40F4BE
:10582000BF2B11F460FF04C06F5F7F4F8F4F9F4FFE
:10583000089557FD9058440F551F59F05F3F71F080
:105840004795880F97FB991F61F09F3F79F08795E7
:105850000895121613061406551FF2CF4695F1DF70
:1058600008C0161617061806991FF1CF8695710500
:10587000610508940895E894BB2766277727CB0134
:1058800097F908950E94552C0C94082C0E94FA2B2D
:1058900038F00E94012C20F0952311F00C94F12B8C
:1058A0000C94F72B11240C943C2C0E94192C70F3AF
:1058B000959FC1F3950F50E0551F629FF001729FB5
:1058C000BB27F00DB11D639FAA27F00DB11DAA1FC4
:1058D000649F6627B00DA11D661F829F2227B00D11
:1058E000A11D621F739FB00DA11D621F839FA00D9C
:1058F000611D221F749F3327A00D611D231F849FEC
:10590000600D211D822F762F6A2F11249F57504042
:105910009AF0F1F088234AF0EE0FFF1FBB1F661FBD
:10592000771F881F91505040A9F79E3F510580F086
:105930000C94F12B0C943C2C5F3FE4F3983ED4F391
:10594000869577956795B795F795E7959F5FC1F72A
:10595000FE2B880F911D9695879597F90895DC0188
:10596000FC01672F71917723E1F7329704C07C9196
:105970006D9370836291AE17BF07C8F30895DB0182
:105980008F939F930E944A2DBF91AF91A29F800D4C
:10599000911DA39F900DB29F900D1124089597FB28
:1059A000072E16F4009407D077FD09D00E94552DDC
:1059B00007FC05D03EF4909581959F4F0895709512
:1059C00061957F4F0895A1E21A2EAA1BBB1BFD0112
:1059D0000DC0AA1FBB1FEE1FFF1FA217B307E407CE
:1059E000F50720F0A21BB30BE40BF50B661F771F26
:1059F000881F991F1A9469F7609570958095909506
:105A00009B01AC01BD01CF010895052E97FB1EF44B
:105A100000940E941C2D57FD07D00E94E32C07FC28
:105A200003D04EF40C941C2D509540953095219543
:105A30003F4F4F4F5F4F08959095809570956195BA
:105A40007F4F8F4F9F4F0895EE0FFF1F881F8BBF13
:105A50000790F691E02D19940E94342D332312F40F
:105A60008A1B9B0B0C94452DA29FB001B39FC001D4
:105A7000A39F700D811D1124911DB29F700D811D7A
:105A80001124911D08950E94342DB7FF0895821BA3
:105A9000930B08950E94342DA59F900DB49F900DF7
:105AA000A49F800D911D11240895AA1BBB1B51E1D9
:105AB00007C0AA1FBB1FA617B70710F0A61BB70B7E
:105AC000881F991F5A95A9F780959095BC01CD0123
:105AD0000895F999FECF92BD81BDF89A992780B5B6
