:100000000C94F2030C9423040C9423040C94230406
:100010000C9423040C9423040C9423040C942304C4
:100020000C9423040C9423040C9423040C942304B4
:100030000C9423040C9423040C9423040C942304A4
:100040000C9423040C9423040C9423040C94230494
:100050000C9423040C9423040C9423040C947A0829
:100060000C9423040C94190C0C94E50C0C942304AC
:100070000C9423040C9423040C9423040C94230464
:100080000C9423040C9423040C9423040C94230454
:100090000C944C0C0C94240D0C9423040C94230409
:1000A0000C9423040C9423040C9423040C94230434
:1000B0000C9423040C9423040C9423040C94230424
:1000C0000C9423040C9423040C9423040C947F0CB0
:1000D0000C94630D0C9423040C94B20C0C94A20D9C
:1000E0000C942304940997098A098E09CE099B0967
:1000F0009F09A509A909AD09B309B709BB09CE092B
:10010000C109C509C9090C948A090C94931B0C9464
:1001100023120C94471B0C94C5170C947C170C9459
:10012000061D0C94C4110C94760B0C942D100C9499
:1001300030110C94660B0C9497090C943B0A0C94A8
:10014000C9090C94BD0B0C94B3090C94C5090C940B
:100150009F090C94BB090C9456100C94B7090C948D
:10016000650B0C94A9090C94B20B0C949B100C9485
:1001700039180C948F170C945A050C945D170C9435
:1001800025100C94920B0C94CE090C94FF170C9430
:1001900039100C944E110C94A5090C9468170C940A
:1001A0006F160C9424120C9477180C94DF100C9496
:1001B00094090C948E090C9426100C948B1C0C94AE
:1001C00045100C947C0F0C9455100C94AD090C94B4
:1001D0009B090C94C1090C94690E0000090A0208DD
:1001E0000B0C0D07060304010000000000000000D6
:1001F00000000000000000000000000000000000FF
:1002000000000000000011100F00000000000000BE
:1002100000000000000000000000000000000000DE
:100220000102102020080810204010204080020108
:1002300002010804020101020408102040808040ED
:1002400020100804020180040201804020100804EC
:10025000020108040201010204081020408001028A
:100260000408102040800505050507050808080852
:10027000020202020A0A080804040404010101013E
:100280000101010103030303030303030407070739
:100290000C0C0C0C0C0C0C0C0202020206060606DE
:1002A000060606060B0B0B0B0B0B0B0B00002200BC
:1002B000250028002B002E00310034000201000030
:1002C000050108010B0100002100240027002A007D
:1002D0002D003000330001010000040107010A0174
:1002E00000000000003E5B4F5B3E3E6B4F6B3E1CD0
:1002F0003E7C3E1C183C7E3C181C577D571C1C5EE7
:100300007F5E1C00183C1800FFE7C3E7FF001824BD
:100310001800FFE7DBE7FF30483A060E2629792967
:1003200026407F050507407F05253F5A3CE73C5A9C
:100330007F3E1C1C08081C1C3E7F14227F22145F79
:100340005F005F5F06097F017F006689956A6060D4
:1003500060606094A2FFA29408047E040810207ECE
:10036000201008082A1C08081C2A08081E10101053
:10037000100C1E0C1E0C30383E3830060E3E0E0699
:10038000000000000000005F0000000700070014EC
:100390007F147F14242A7F2A1223130864623649AB
:1003A0005620500008070300001C22410000412293
:1003B0001C002A1C7F1C2A08083E08080080703098
:1003C0000008080808080000606000201008040207
:1003D0003E5149453E00427F40007249494946210D
:1003E00041494D331814127F1027454545393C4A81
:1003F0004949314121110907364949493646494998
:10040000291E0000140000004034000000081422DF
:10041000411414141414004122140802015909064D
:100420003E415D594E7C1211127C7F494949363E4E
:10043000414141227F4141413E7F494949417F0934
:100440000909013E414151737F0808087F00417F3F
:1004500041002040413F017F081422417F4040403D
:10046000407F021C027F7F0408107F3E4141413ED5
:100470007F090909063E4151215E7F091929462657
:100480004949493203017F01033F4040403F1F205B
:1004900040201F3F4038403F631408146303047832
:1004A00004036159494D43007F4141410204081052
:1004B00020004141417F040201020440404040408D
:1004C000000307080020545478407F2844443838FB
:1004D00044444428384444287F385454541800086D
:1004E0007E090218A4A49C787F0804047800447D47
:1004F00040002040403D007F1028440000417F40E4
:10050000007C047804787C08040478384444443837
:10051000FC1824241818242418FC7C080404084817
:100520005454542404043F44243C4040207C1C2068
:1005300040201C3C4030403C44281028444C9090C3
:10054000907C4464544C440008364100000077001D
:1005500000004136080002010204023C2623263C2A
:100560001EA1A161123A4040207A385454555921B5
:10057000555579412254547842215554784020549D
:100580005579400C1E5272123955555559395454EB
:10059000545939555454580000457C410002457D5A
:1005A000420001457C407D1211127DF0282528F083
:1005B0007C545545002054547C547C0A097F4932B0
:1005C000494949323A4444443A324A4848303A4127
:1005D00041217A3A42402078009DA0A07D3D4242D0
:1005E000423D3D4040403D3C24FF2424487E494359
:1005F000662B2FFC2F2BFF0929F620C0887E0903CC
:1006000020545479410000447D413048484A3238F2
:100610004040227A007A0A0A727D0D19317D26291E
:10062000292F28262929292630484D402038080816
:10063000080808080808382F10C8ACBA2F1028344A
:10064000FA00007B000008142A142222142A14083D
:100650005500550055AA55AA55AAFF55FF55FF004C
:100660000000FF00101010FF00141414FF00101001
:10067000FF00FF1010F010F0141414FC001414F715
:1006800000FF0000FF00FF1414F404FC1414171002
:100690001F10101F101F1414141F00101010F00052
:1006A0000000001F101010101F10101010F010008C
:1006B0000000FF101010101010101010FF1000009C
:1006C00000FF140000FF00FF00001F10170000FCD7
:1006D00004F414141710171414F404F40000FF00A9
:1006E000F714141414141414F700F7141414171432
:1006F00010101F101F141414F4141010F010F00038
:10070000001F101F0000001F14000000FC14000058
:10071000F010F01010FF10FF141414FF141010103C
:100720001F00000000F010FFFFFFFFFFF0F0F0F0EF
:10073000F0FFFFFF0000000000FFFF0F0F0F0F0F83
:100740003844443844FC4A4A4A347E0202060602CF
:100750007E027E0263554941633844443C04407E36
:10076000201E2006027E020299A5E7A5991C2A49AF
:100770002A1C4C7201724C304A4D4D30304878483A
:1007800030BC625A463D3E494949007E0101017E26
:100790002A2A2A2A2A44445F444440514A44404079
:1007A000444A51400000FF0103E080FF00000808B8
:1007B0006B6B083612362436060F090F0600001838
:1007C000180000001010003040FF0101001F01015F
:1007D0001E00191D1712003C3C3C3C0000000000AC
:1007E0005A05690E11241FBECFEFD1E2DEBFCDBF87
:1007F00000E00CBF12E0A0E0B2E0E2E7F4E400E0C9
:100800000BBF02C007900D92A03CB107D9F725E0BD
:10081000A0ECB2E001C01D92A63DB207E1F713E0E3
:10082000C2EFD3E000E006C021970109802FFE014E
:100830000E940622C03FD10780E00807A9F70E9466
:1008400047080C94A21F0C9400000E941B0940E86A
:1008500055E260E070E084E993E00E94E10D60E021
:100860008BE00E94CF0961E08BE00E940B0A61E0FF
:100870008CE00E94CF0940E050E0BA0184ED92E0A4
:100880000C945119CF93DF93EC0126E4269FC0010D
:10089000279F900D1124BC01640F751F4FE050E09D
:1008A00084ED92E00E9445176BE084ED92E00E9497
:1008B0004B1740E050E06FEF7FEF84ED92E00E9435
:1008C00057174AE050E0BE0184ED92E0DF91CF91EE
:1008D0000C94470BCF93DF93C9E1D3E040E050E0A5
:1008E00060E070E0888199810E94420440E050E01D
:1008F00061E070E08A819B810E9442044EE150E0F9
:1009000062E070E08C819D810E9442044EE150E0E3
:1009100063E070E08E819F81DF91CF910C9442045F
:100920008091090390910A03019690930A038093A2
:100930000903209108038A309105F1F480910B039B
:1009400090910C03019690930C0380930B031092EB
:100950000A0310920903211117C04EE150E062E032
:1009600070E00E9442044EE150E063E070E080914C
:10097000090390910A0306C0211106C04EE150E020
:1009800063E070E00E94420480910B0390910C039D
:100990000697A1F580910D0390910E030196909317
:1009A0000E0380930D0310920C0310920B03109210
:1009B0000A03109209038091080381111FC04EE1C0
:1009C00050E062E070E080E090E00E9442044EE17E
:1009D00050E063E070E08091090390910A030E9467
:1009E000420480910D0390910E038A30910534F4F6
:1009F00040E050E061E070E00E94420480910D030D
:100A000090910E030A9719F580910F0390911003AE
:100A100001969093100380930F0310920E0310928F
:100A20000D0380910803811112C040E050E061E0A5
:100A300070E080E090E00E94420440E050E060E01E
:100A400070E080910F03909110030E944204809106
:100A50000F0390911003029761F580910D0390911F
:100A60000E03049731F51092100310920F031092A9
:100A70000E0310920D0310920C0310920B031092B0
:100A80000A031092090380910803811112C040E00B
:100A900050E060E070E080E090E00E94420440E0BE
:100AA00050E061E070E080910D0390910E030C9492
:100AB00042040895EF92FF920F932FEF49E06AE00E
:100AC00084ED92E00E9490188CE2E82EFF24F394CB
:100AD00005E029E348E364E080EC92E00E94CF1E49
:100AE0000F91FF90EF900895AF92BF92CF92DF9257
:100AF000EF92FF920F931F9360E070E084ED92E01D
:100B00000E943011EE24EA94FE2C08E210E024E664
:100B100030E041E750E063E770E084ED92E00E944E
:100B2000391864E084ED92E00E944B1760E070E0B9
:100B300084ED92E00E94511743E750E065E770E0D2
:100B400084ED92E00E94451763E072E084ED92E04C
:100B50000E94950AAA24AA94BA2C2FE8C22ED12C5E
:100B60003FE5E32EF12C01E710E02EE630E041E70F
:100B700050E060E570E084ED92E00E945A1241E797
:100B8000C42ED12C50EFE52EF12C0FE810E02FEF02
:100B900030E04FE850E061EE70E084ED92E00E94BA
:100BA0005A12EE24EA94FE2C03E210E02CE830E026
:100BB00048EA50E069E670E084ED92E00E9439185E
:100BC00064E084ED92E00E944B1760E070E084EDF9
:100BD00092E00E9451174AEA50E06BE670E084ED23
:100BE00092E00E94451768E072E084ED92E00E9476
:100BF000950A7BECC72ED12CEBE4EE2EF12C08EA03
:100C000010E02AE530E048EA50E06CE370E084ED63
:100C100092E00E945A12F8EACF2ED12CAEE0EA2ED2
:100C2000FF24F3940BEC10E02DE131E04BEC50E0AD
:100C30006FEF70E084ED92E00E945A1263E084ED61
:100C400092E00E944B174FEF5FEF60E070E084EDA1
:100C500092E00E9457174CED50E066E470E084ED9E
:100C600092E00E94451760E172E084ED92E00E94FC
:100C7000950A40E050E060E070E080E090E00E9483
:100C8000420440E050E061E070E080E090E00E94CB
:100C900042044EE150E062E070E080E090E00E94AB
:100CA00042044EE150E063E070E080E090E01F918C
:100CB0000F91FF90EF90DF90CF90BF90AF900C948A
:100CC00042044F925F926F927F92AF92BF92CF9207
:100CD000DF92EF92FF920F931F93CF93DF9300D099
:100CE00000D0CDB7DEB780EC92E00E94751D29835D
:100CF0003A834B835C836D837E838D819E810A97CB
:100D00008F3D934008F07EC169817A81072E000CE7
:100D1000880B990B1F921F921F922FEE2F93A12CDD
:100D2000B12C650118E9E12E13E0F12E00E010E08E
:100D300026E930E040E050E00E943B0F2B013C01EF
:100D40006B817C81072E000C880B990B1F921F92E0
:100D50001F921F923FE3A32EBB24B394C12CD12C2E
:100D60001CEAE12E13E0F12E00E010E028E730E06D
:100D700040E050E00E943B0F6B017C016BE172E0B0
:100D800084E993E00E94780AB601645171094AE04F
:100D900050E084E993E00E944E0B63E272E084E944
:100DA00093E00E94780A4AE050E0B20184E993E0BF
:100DB0000E944E0B0FB6F894DEBF0FBECDBF8091E0
:100DC0000803811111C09AE4C91AD10826EDC21690
:100DD000D10408F0F7C08FEB481A51089DE149167D
:100DE000510408F409C1EEC0C201815791094F971F
:100DF00008F07CC0C601845691094F9790F5809108
:100E00001303909114030197909314038093130399
:100E100097FF63C080911103909112030197909303
:100E200012038093110397FD07C089E090E090932F
:100E30001403809313030CC084E090E09093140398
:100E40008093130382E090E0909312038093110348
:100E500040E050E060E070E0809111039091120357
:100E60003AC025EFC21AD1088FE1C816D10408F0A4
:100E7000A9C020911303309114032F5F3F4F30938B
:100E800014032093130380911103909112032A30CD
:100E9000310574F001969093120380931103109220
:100EA00014031092130340E050E060E070E013C0C0
:100EB00002979CF02530310584F0109214031092B3
:100EC0001303109212031092110340E050E060E00F
:100ED00070E080E090E00E94420440E050E061E079
:100EE00070E0809113039091140368C098EA491A46
:100EF000510824E24216510408F064C0C60180552E
:100F000091094F9718F58091170390911803019755
:100F1000909318038093170397FF48C0809115039F
:100F2000909116030197909316038093150329E07F
:100F300030E0309318032093170397FF2DC085E00E
:100F400090E0909316038093150326C083E1C81A9E
:100F500081E0D80A9FE1C916D104A0F5809117035A
:100F600090911803019690931803809317030A97A2
:100F7000ECF080911503909116030196909316035F
:100F8000809315031092180310921703069724F00C
:100F900010921603109215034EE150E062E070E0EB
:100FA00080911503909116030E9442044EE150E097
:100FB00063E070E080911703909118030E9442044F
:100FC0001092070364E670E080E090E026960FB68A
:100FD000F894DEBF0FBECDBFDF91CF911F910F916F
:100FE000FF90EF90DF90CF90BF90AF907F906F9089
:100FF0005F904F900C94F50881E0809308030E9465
:101000007405E0CF26960FB6F894DEBF0FBECDBFB5
:10101000DF91CF911F910F91FF90EF90DF90CF90D4
:10102000BF90AF907F906F905F904F900895EF9238
:10103000FF920F931F93EE24EA94FE2C0EE110E032
:1010400027ED30E04EEB50E065E370E084ED92E098
:101050000E94391863E084ED92E00E944B1760E033
:1010600070E084ED92E00E94511740EC50E065E39F
:1010700070E084ED92E00E9445176BE272E084ED2F
:1010800092E01F910F91FF90EF900C94950A0E94AF
:10109000250440E050E0BA0184ED92E00E9451192D
:1010A00060E070E084ED92E00E94301163E084ED36
:1010B00092E00E94471B0E946A040E9417086AE49B
:1010C00072E084E993E00E94950A80E6C82E8AEED9
:1010D000D82EE12CF12C0E94C408A70196010E9491
:1010E000C521672B682B692B11F40E9490040E9484
:1010F0006106F1CF1F920F920FB60F9211242F931A
:101100003F938F939F93AF93BF93809126039091CA
:101110002703A0912803B09129033091250323E0F0
:10112000230F2D3720F40196A11DB11D05C026E81F
:10113000230F0296A11DB11D209325038093260342
:1011400090932703A0932803B093290380912A0347
:1011500090912B03A0912C03B0912D030196A11D1A
:10116000B11D80932A0390932B03A0932C03B0937B
:101170002D03BF91AF919F918F913F912F910F9030
:101180000FBE0F901F9018952FB7F894609126030B
:101190007091270380912803909129032FBF089510
:1011A0003FB7F89480912A0390912B03A0912C03D0
:1011B000B0912D0326B5A89B05C02F3F19F00196CD
:1011C000A11DB11D3FBFBA2FA92F982F8827820FCD
:1011D000911DA11DB11DBC01CD0142E0660F771F1D
:1011E000881F991F4A95D1F70895CF92DF92EF9209
:1011F000FF92CF93DF936B017C010E94D008EB013B
:10120000C114D104E104F10479F00E94D0086C1BF0
:101210007D0B683E7340A0F381E0C81AD108E10855
:10122000F108C851DC4FECCFDF91CF91FF90EF90E8
:10123000DF90CF900895789484B5826084BD84B5A2
:10124000816084BD85B5826085BD85B5816085BDC1
:10125000EEE6F0E0808181608083E1E8F0E01082DA
:10126000808182608083808181608083E0E8F0E01B
:10127000808181608083E1EBF0E080818460808305
:10128000E0EBF0E0808181608083E1E9F0E0808143
:1012900082608083808181608083E0E9F0E08081EA
:1012A00081608083E1EAF0E08081826080838081D8
:1012B00081608083E0EAF0E0808181608083E1E208
:1012C000F1E0808182608083808181608083E0E2C0
:1012D000F1E0808181608083EAE7F0E080818460D2
:1012E000808380818260808380818160808380812F
:1012F000806880831092C100089590E0FC013197CE
:10130000E131F10508F04AC08827EE58FF4F8F4FB2
:101310000C940622809180008F7703C0809180001A
:101320008F7D80938000089584B58F7702C084B547
:101330008F7D84BD08958091B0008F7703C0809128
:10134000B0008F7D8093B0000895809190008F77DA
:1013500007C0809190008F7D03C080919000877FAF
:101360008093900008958091A0008F7707C08091AE
:10137000A0008F7D03C08091A000877F8093A00094
:101380000895809120018F7707C0809120018F7D83
:1013900003C080912001877F809320010895CF931F
:1013A000DF9390E0FC01E05EFD4F2491FC01EA59DF
:1013B000FD4F8491882361F190E0880F991FFC0113
:1013C000EA53FD4FC591D491FC01E455FD4FA59121
:1013D000B491611109C09FB7F89488812095822348
:1013E0008883EC912E230BC0623061F49FB7F89490
:1013F0003881822F809583238883EC912E2B2C9328
:101400009FBF06C08FB7F894E8812E2B28838FBF2B
:10141000DF91CF9108951F93CF93DF93282F30E072
:10142000F901E652FE4F8491F901E05EFD4FD4913F
:10143000F901EA59FD4FC491CC23C9F0162F81114F
:101440000E947D09EC2FF0E0EE0FFF1FE455FD4FE9
:10145000A591B4918FB7F894111105C09C91ED2F0F
:10146000E095E92302C0EC91ED2BEC938FBFDF9167
:10147000CF911F910895CF92DF92EF92FF920F9339
:101480001F93CF93DF936C01EB017B01E40EF51EFC
:1014900000E010E0CE15DF0561F06991D601ED9115
:1014A000FC910190F081E02DC6011995080F191FDC
:1014B000F1CFC801DF91CF911F910F91FF90EF9075
:1014C000DF90CF9008956115710579F0FB010190CF
:1014D0000020E9F73197AF01461B570BDC01ED9176
:1014E000FC910280F381E02D199480E090E0089552
:1014F0000C94630ADC01ED91FC910190F081E02DE8
:1015000019940F931F93CF93DF93EC016DE00E942A
:101510007A0A8C016AE0CE010E947A0A800F911F3C
:10152000DF91CF911F910F9108950F931F93CF9348
:10153000DF93EC010E94630A8C01CE010E94810AB4
:10154000800F911FDF91CF911F910F9108958F927E
:101550009F92AF92BF92CF92DF92EF92FF920F9342
:101560001F93CF93DF93CDB7DEB7A1970FB6F89453
:10157000DEBF0FBECDBF6C01142FE52FCB01022FB4
:1015800019A2223008F40AE07E0121E2E20EF11CE9
:10159000802E912CA12CB12C612F7E2FA5019401BE
:1015A0000E94C521029F1019112481E0E81AF10858
:1015B0001A3014F4105D01C0195CF7011083122F6A
:1015C000E32FCA01232B242B252B31F7B701C601AA
:1015D0000E94630AA1960FB6F894DEBF0FBECDBF7E
:1015E000DF91CF911F910F91FF90EF90DF90CF90FF
:1015F000BF90AF909F908F900895CF92DF92EF921F
:10160000FF920F931F93CF93DF93EC016A017B014D
:101610002115310579F4E881F9810190F081E02DFF
:10162000642FDF91CF911F910F91FF90EF90DF908A
:10163000CF9019942A303105E9F477FF1AC06DE292
:101640000E947A0A8C0144275527BA014C195D097A
:101650006E097F092AE0CE010E94A70A800F911F20
:10166000DF91CF911F910F91FF90EF90DF90CF907E
:1016700008952AE0B701A601CE01DF91CF911F9115
:101680000F91FF90EF90DF90CF900C94A70A9A01F2
:10169000AB01770F660B770B0C94FD0A0F931F932A
:1016A000CF93DF93EC019A01AB01770F660B770BB9
:1016B0000E94FD0A8C01CE010E94810A800F911FB9
:1016C000DF91CF911F910F9108950895FC0124851A
:1016D0003585F901E05CFF4F808191813296208150
:1016E0003181821B930B8F7399270895DC011C961F
:1016F000ED91FC911D97DF01A05CBF4F2D913C91B6
:10170000119712968D919C9111972817390739F0EE
:101710008D919C91E80FF91F808190E008958FEFE3
:101720009FEF0895FC01A485B585FD01E05CFF4FA6
:10173000208131813296808191812817390779F093
:1017400080819181A80FB91F8C91208131812F5FF9
:101750003F4F2F7333273183208390E008958FEF1D
:101760009FEF0895FC0181A1882329F0A489B58900
:101770008C9186FFFBCF11A208950F931F93CF93F7
:10178000DF93FC01A685B7858D01005C1F4FE80142
:101790008881998101968F739927AD014E5B5F4FC8
:1017A000EA012881398182179307D1F3E801288162
:1017B0003981A20FB31F6C93A685B785A05CBF4F7C
:1017C00011969C938E93A689B7892C9181E090E025
:1017D000078C02C0880F991F0A94E2F7822B8C9322
:1017E00081E081A30488F589E02D80818064808375
:1017F00081E090E0DF91CF911F910F910895FB015F
:10180000E05CFF4F208131812F5F3F4F2F733327E3
:10181000DB01AE5BBF4F4D915C912417350741F062
:1018200040815181DB01A40FB51F8C93318320834C
:1018300008951F920F920FB60F9211240BB60F92BC
:101840002F933F934F935F936F937F938F939F93C8
:10185000AF93BF93EF93FF938091C00082FD07C0C9
:101860008091C60062E975E00E94FF0B02C0809182
:10187000C600FF91EF91BF91AF919F918F917F91A2
:101880006F915F914F913F912F910F900BBE0F90F1
:101890000FBE0F901F9018951F920F920FB60F92C8
:1018A00011240BB60F922F933F934F935F936F9337
:1018B0007F938F939F93AF93BF93EF93FF93809109
:1018C000C80082FD07C08091CE006AE075E00E94EA
:1018D000FF0B02C08091CE00FF91EF91BF91AF91BD
:1018E0009F918F917F916F915F914F913F912F9138
:1018F0000F900BBE0F900FBE0F901F9018951F9268
:101900000F920FB60F9211240BB60F922F933F93A5
:101910004F935F936F937F938F939F93AF93BF93F7
:10192000EF93FF938091D00082FD07C08091D60095
:1019300062E874E00E94FF0B02C08091D600FF9124
:10194000EF91BF91AF919F918F917F916F915F9137
:101950004F913F912F910F900BBE0F900FBE0F90A4
:101960001F9018951F920F920FB60F9211240BB66D
:101970000F922F933F934F935F936F937F938F9328
:101980009F93AF93BF93EF93FF938091300182FDBC
:1019900007C0809136016AEF73E00E94FF0B02C01E
:1019A00080913601FF91EF91BF91AF919F918F91FF
:1019B0007F916F915F914F913F912F910F900BBE4F
:1019C0000F900FBE0F901F9018951F920F920FB699
:1019D0000F9211240BB60F922F933F938F939F93E7
:1019E000EF93FF9320918E0530918F0580919005A4
:1019F000909191052817390731F48091C1008F7DAE
:101A00008093C10014C0E0919005F0919105E25BD4
:101A1000FA4F2081809190059091910501968F73E6
:101A2000992790939105809390052093C600FF918C
:101A3000EF919F918F913F912F910F900BBE0F903F
:101A40000FBE0F901F9018951F920F920FB60F9216
:101A500011240BB60F922F933F938F939F93EF9385
:101A6000FF9320910605309107058091080590911C
:101A700009052817390731F48091C9008F7D8093BB
:101A8000C90014C0E0910805F0910905EA53FB4F25
:101A90002081809108059091090501968F739927FF
:101AA00090930905809308052093CE00FF91EF9154
:101AB0009F918F913F912F910F900BBE0F900FBE72
:101AC0000F901F9018951F920F920FB60F9211242E
:101AD0000BB60F922F933F938F939F93EF93FF93A8
:101AE00020917E0430917F04809180049091810444
:101AF0002817390731F48091D1008F7D8093D10070
:101B000014C0E0918004F0918104E25CFB4F2081DD
:101B1000809180049091810401968F73992790930E
:101B20008104809380042093D600FF91EF919F91D0
:101B30008F913F912F910F900BBE0F900FBE0F9082
:101B40001F9018951F920F920FB60F9211240BB68B
:101B50000F922F933F938F939F93EF93FF93209137
:101B6000F6033091F7038091F8039091F903281759
:101B7000390731F4809131018F7D8093310114C098
:101B8000E091F803F091F903EA54FC4F2081809131
:101B9000F8039091F90301968F7399279093F903B5
:101BA0008093F80320933601FF91EF919F918F91DD
:101BB0003F912F910F900BBE0F900FBE0F901F9073
:101BC0001895CF92DF92EF92FF920F931F93CF93CE
:101BD000DF93EC016A017B014115514E61057105EE
:101BE00009F1EC89FD8981E090E008A002C0880F2E
:101BF000991F0A94E2F7808360E079E08DE390E03A
:101C0000A70196010E94C52189019A01015011097D
:101C100021093109369527951795079598010115E2
:101C20001041A8F0EC89FD89108260E874E88EE12B
:101C300090E0A70196010E94C521DA01C901019730
:101C4000A109B109B695A795979587959C01E88953
:101C5000F9893083EA89FB89208319A2EE89FF89FB
:101C6000408181E090E09C010C8C02C0220F331F68
:101C70000A94E2F7242B2083EE89FF8940819C019E
:101C80000D8C02C0220F331F0A94E2F7242B20830D
:101C9000EE89FF8940819C010E8C02C0220F331F08
:101CA0000A94E2F7242B2083EE89FF8920810F8C90
:101CB00002C0880F991F0A94E2F7809582238083DF
:101CC000DF91CF911F910F91FF90EF90DF90CF9018
:101CD0000895CF92DF92EF92FF92E4E9F3E013824E
:101CE000128288EEC82E83E0D82EE12CF12CC4821B
:101CF000D582E682F78263E672E07183608382E9CF
:101D000095E0958784878EE495E09787868785ECB4
:101D100090E0918B808B84EC90E0938B828B80ECB5
:101D200090E0958B848B81EC90E0978B868B82EC96
:101D300090E0918F808F86EC90E0938F828F44E0CB
:101D4000448F33E0358F27E0268F95E0978F81E031
:101D500080A3E2E7F3E013821282C482D582E68296
:101D6000F78271836083AAE0B5E0B587A487A6EC0B
:101D7000B4E0B787A687ADECB0E0B18BA08BACEC3C
:101D8000B0E0B38BA28BA8ECB0E0B58BA48BA9EC30
:101D9000B0E0B78BA68BAAECB0E0B18FA08FAEEC11
:101DA000B0E0B38FA28F448F358F268F978F80A39B
:101DB000E0E5F3E013821282C482D582E682F782E4
:101DC00071836083A2E8B4E0B587A487AEE3B4E092
:101DD000B787A687A5EDB0E0B18BA08BA4EDB0E0EE
:101DE000B38BA28BA0EDB0E0B58BA48BA1EDB0E0DE
:101DF000B78BA68BA2EDB0E0B18FA08FA6EDB0E0BF
:101E0000B38FA28F448F358F268F978F80A3EEE2FA
:101E1000F3E013821282C482D582E682F782718354
:101E200060836AEF73E07587648766EB73E077879A
:101E3000668765E371E0718B608B64E371E0738B9F
:101E4000628B60E371E0758B648B61E371E0778B8B
:101E5000668B62E371E0718F608F66E371E0738F70
:101E6000628F448F358F268F978F80A3FF90EF90DE
:101E7000DF90CF9008954F925F926F927F92AF92D2
:101E8000BF92CF92DF92EF92FF920F931F93CF9367
:101E9000DF93CDB7DEB729013A019B01AC012419CC
:101EA0003509460957098A899B89AC89BD89BC01D6
:101EB000CD016A197B098C099D090E94B521A801F1
:101EC000970124193509460957090E94E721CA01DB
:101ED000B9016A0D7B1D8C1D9D1DDF91CF911F9156
:101EE0000F91FF90EF90DF90CF90BF90AF907F90D9
:101EF0006F905F904F9008952F923F924F925F9214
:101F00006F927F928F929F92AF92BF92CF92DF9209
:101F1000EF92FF920F931F93CF93DF9300D0CDB733
:101F2000DEB74C017B836A836A015901170198016E
:101F3000241B350B37FF03C0319521953109C501AD
:101F40004A815B81841B950B97FF03C09195819516
:101F5000910951E059838217930714F019820BC03D
:101F60009A2D8B2D5801092F182F9A818B81DB8296
:101F7000CA82C92ED82E8A819B81A816B9065CF424
:101F80009C2D8D2D6801092F182F9A818B81BB8282
:101F9000AA82A92EB82E2501AA81BB814A1A5B0A02
:101FA00038016C187D0877FE03C071946194710844
:101FB000720157FE03C0BFEFEB1AFB0AF594E794DA
:101FC000C016D1061CF00FEF1FEF1FC001E010E09C
:101FD0001CC0D401ED91FC91B9810084F185E02D04
:101FE0009101BB23C1F04A815B81B601C4011995FF
:101FF000E618F708F7FE04C0C00ED11EE40CF51C6D
:10200000EA81FB813196FB83EA834A815B81A416D6
:10201000B506FCF604C0A6016A817B81E7CF0F906C
:102020000F900F90DF91CF911F910F91FF90EF9044
:10203000DF90CF90BF90AF909F908F907F906F90E8
:102040005F904F903F902F9008950895DC01ED919F
:10205000FC910480F581E02D19940F931F93DC010E
:10206000ED91FC91008CF18DE02D19951F910F9150
:1020700008950F931F93DC01ED91FC91028CF38D79
:10208000E02D19951F910F910895EF92FF920F93F4
:102090001F93DC01ED91FC91048CF58DE02D1995D9
:1020A0001F910F91FF90EF9008950895AF92BF9206
:1020B000CF92DF92EF92FF920F931F93CF93DF9314
:1020C00000D01F92CDB7DEB75C016901DC01ED9154
:1020D000FC910680F781E02D4B835C8369837A83D2
:1020E0001995D501ED91FC914B815C81C40ED51EF3
:1020F000B1E0CB1AD1080088F189E02D7801860182
:1021000069817A819B01C5011995D501ED91FC91F9
:102110000288F389E02DC5010F900F900F900F906A
:10212000DF91CF911F910F91FF90EF90DF90CF90B3
:10213000BF90AF901994AF92BF92CF92DF92EF927F
:10214000FF920F931F93CF93DF9300D01F92CDB7D1
:10215000DEB75C016901DC01ED91FC910680F7813D
:10216000E02D4B835C8369837A831995D501ED91CA
:10217000FC9169817A819B012C0D3D1D2150310913
:102180000088F189E02D78014B815C818A01C501CD
:102190001995D501ED91FC910288F389E02DC501D7
:1021A0000F900F900F900F90DF91CF911F910F9193
:1021B000FF90EF90DF90CF90BF90AF9019944F9227
:1021C0005F926F927F928F929F92AF92BF92CF92C7
:1021D000DF92EF92FF920F931F93CF93DF931F92A3
:1021E0001F92CDB7DEB76C015A0139014801DC01FD
:1021F000ED91FC910680F781E02D69837A83199532
:102200006981462E7A81572E640C751CD601ED919A
:10221000FC91461457046CF40484F585E02D870185
:102220009401A501B201C6011995BFEF4B1A5B0AD3
:10223000EDCF0288F389E02DC6010F900F90DF915A
:10224000CF911F910F91FF90EF90DF90CF90BF90B3
:10225000AF909F908F907F906F905F904F90199468
:10226000EF92FF920F931F93DC01ED91FC91119778
:102270001A960D911C911B9718962D913C911997C8
:10228000048CF58DE02D7B0140E050E060E070E0D3
:1022900019951F910F91FF90EF900895CF92DF92C3
:1022A000EF92FF920F931F93CF93DF9300D000D054
:1022B000CDB7DEB76C01DC01ED91FC9162177307BD
:1022C00089F4041715072CF4942F852FA801092FE2
:1022D000182F041B150B98012F5F3F4F008CF18DB9
:1022E000E02D12C04017510709F5261737072CF4C7
:1022F000962F872FB901292F382F261B370B2F5FD9
:102300003F4F028CF38DE02D8701C601199526966B
:102310000FB6F894DEBF0FBECDBFDF91CF911F91F6
:102320000F91FF90EF90DF90CF9008950680F78196
:10233000E02D2D833E834B835C8369837A831995DB
:10234000D601ED91FC910088F189E02D2D813E812F
:102350004B815C8169817A81C6011995D601ED9125
:10236000FC910288F389E02DC60126960FB6F894F9
:10237000DEBF0FBECDBFDF91CF911F910F91FF90B8
:10238000EF90DF90CF9019946F927F928F929F92EF
:10239000AF92BF92CF92DF92EF92FF920F931F9373
:1023A000CF93DF93EC014B015A0169013801E881B9
:1023B000F9810680F781E02D1995E881F98106847D
:1023C000F785E02D87019601A501B401CE0119958D
:1023D000E881F981A501460D571D41505109068438
:1023E000F785E02D9601B401CE011995E881F981B8
:1023F0000484F585E02D9301A501B401CE01199562
:10240000E881F981C80CD91CB601615071090484B6
:10241000F585E02D9301A501CE011995E881F9819B
:102420000288F389E02DCE01DF91CF911F910F91AA
:10243000FF90EF90DF90CF90BF90AF909F908F90E4
:102440007F906F9019940895FC016370658B84816F
:10245000958126813781613039F0633029F0918789
:1024600080873387228708953187208793878287E3
:102470000895FC011382128283E792E091838083A6
:102480007583648357834683718760875387428748
:10249000158A158614861786168681E0848B2FEFA1
:1024A0003FEF338B228B318B208B868B178A118EDB
:1024B000108E08952F923F924F925F926F927F926B
:1024C0008F929F92AF92BF92CF92DF92EF92FF9244
:1024D0000F931F93CF93DF93CDB7DEB7AE970FB6B1
:1024E000F894DEBF0FBECDBF9A8389837EA76DA708
:1024F0003A01290148011601B88EAF8A0417150761
:102500007CF4892DC416D5060CF0CAC146011A0107
:10251000602E782E852D27017B012DA78EA70DC05B
:10252000C016D106C4F4982D892D4101292E382ECC
:10253000942D852D2701E92EF82E861497045CF43E
:10254000962D872D3401892E982E9DA58EA55EA6E9
:102550004DA6492E582EA981BA81ED91FC91119773
:102560000680F781E02DCD0119956214730451F5B1
:10257000EDA5FEA54E165F062CF0942D852D2F019E
:102580009DA78EA7E414F50444F02DA53EA52E15B5
:102590003F0514F4FEA6EDA67201A981BA81ED9162
:1025A000FC9111972DA53EA52E193F092F5F3F4F96
:1025B0000684F785E02D0F89188DA301B701CD01A1
:1025C00019954CC1C201EDA5FEA58E1B9F0B940170
:1025D00026193709A7014E1B5F0B58874F83B1019E
:1025E000661977097C876B87D701A419B509B88B61
:1025F000AF87F101E819F909FA8FE98F64018214B4
:10260000930419F0F1E0CF1AD10853011B8A1C8AF8
:102610001D8A1E8A1B821C821D821E82A901330F05
:10262000660B770B4D8F5E8F6F8F78A32B853C8564
:10263000032E000C440B550B29A33AA34BA35CA318
:10264000AC01990F660B770B4DA35EA36FA378A720
:102650006F817885072E000C880B990B69A77AA7E4
:102660008BA79CA7CA14DB040CF45AC06B817C8135
:102670008D819E812D8D3E8D4F8D58A10E94E72129
:10268000EDA4FEA4E20EF31E6B897C898D899E89E0
:1026900029A13AA14BA15CA10E94E7218DA59EA58D
:1026A000280F391F4B815C816D817E818DA19EA198
:1026B000AFA1B8A5480F591F6A1F7B1F4B835C83CE
:1026C0006D837E834B895C896D897E8989A59AA5F6
:1026D000ABA5BCA5480F591F6A1F7B1F4B8B5C8B9A
:1026E0006D8B7E8B2E153F052CF49E2D8F2D790141
:1026F000292F382FA981BA81ED91FC9111972E19BC
:102700003F092F5F3F4F0684F785E02D0F89188D15
:10271000A501B701CD011995BFEFAB1ABB0AA2CF36
:10272000950128193909EF85F889E29FC001E39FD7
:10273000900DF29F900D11249C01990F440B550BA5
:102740002B833C834D835E83C501861997094F8196
:102750005885489F6001499FD00C589FD00C112488
:102760000D2C000CEE08FF08698D7A8D072E000CE9
:10277000880B990B698F7A8F8B8F9C8F8B859C85AB
:10278000092E000CAA0BBB0B8B879C87AD87BE87DD
:102790009F01032E000C440B550B2F87388B498B60
:1027A0005A8B4F815885052E000C660B770B4F8393
:1027B000588769877A872A143B040CF44FC06B81D1
:1027C0007C818D819E81298D3A8D4B8D5C8D0E94FF
:1027D000E7214201820E931EC701B6012B853C857D
:1027E0004D855E850E94E7216DA57EA5260F371FCA
:1027F0008B819C81AD81BE814F85588969897A8999
:10280000840F951FA61FB71F8B839C83AD83BE8348
:102810006F81788589859A85C60ED71EE81EF91EB8
:10282000281539052CF4982D892D4901292F382F89
:10283000A981BA81ED91FC911197281939092F5F6F
:102840003F4F0684F785E02D0F89188DA501B4014F
:10285000CD011995BFEFAB1ABB0AADCFA981BA81E3
:10286000ED91FC9111970288F389E02DCD01AE9690
:102870000FB6F894DEBF0FBECDBFDF91CF911F9191
:102880000F91FF90EF90DF90CF90BF90AF909F900F
:102890008F907F906F905F904F903F902F90199402
:1028A0004A01602E782E852D4DA45EA42DA78EA7FB
:1028B00052CE2F923F924F925F926F927F928F9261
:1028C0009F92AF92BF92CF92DF92EF92FF920F93BF
:1028D0001F93CF93DF93CDB7DEB76C970FB6F89405
:1028E000DEBF0FBECDBF9C8F8B8F5B011A011F8394
:1028F0000E833701C982DC0158964D915C9159973E
:102900004115510509F0E5C018968D919C911997D4
:10291000681779070CF0CAC11A968D919C911B9784
:10292000281639060CF0C2C18C2C912CFB0136E024
:10293000C39EE00DF11D1124FB87EA871E161F06BA
:102940000CF0B4C1C40133E0880F991F3A95E1F748
:102950009D878C87820D931D181619060CF0A6C151
:1029600057968C91811103C0203B08F02F5FAB8DEF
:10297000BC8DED91FC9111970680F781E02DCD0182
:102980002A8F19952A8DB5E02B9F90011124F5010E
:102990003596FF87EE872501BB82AA82A9014A19D5
:1029A0005B09598B488BC10108969B8B8A8BE88900
:1029B000F989E40DF51DE052FD4F949198873D8211
:1029C0002C826101A885A0FF13C0AB8DBC8DED9159
:1029D000FC91B981B13031F40084F185E02D2E8174
:1029E0003F8116C00284F385E02DEE80FF801AC07F
:1029F000EE81FF816E167F06F1F0AB8DBC8DED91FF
:102A0000FC91B981B13051F40084F185E02D93013E
:102A1000A601B2018B8D9C8D19950DC00284F385A2
:102A2000E02D7301840194014C815D816A817B8179
:102A30008B8D9C8D1995E885E695E8872C813D81E5
:102A4000280D391D3D832C833FEFC31AD30A4A89D1
:102A50005B89C416D50609F0B5CF8A819B81880DA4
:102A6000991D9B838A839FEF491A590AAE85BF85BA
:102A70004A165B0609F09BCFEE81FF816E167F063A
:102A800009F4F2C0EB8DFC8DA081B181F981F130A8
:102A900079F4B5016B5F7F4F1C96ED91FC911D970A
:102AA000830128E030E0A1018B8D9C8D1995DCC05D
:102AB0006A857B85681979091A96ED91FC911B97B7
:102AC00073010C851D859401A1018B8D9C8D199539
:102AD000CBC0FA0134969491329765917491291B79
:102AE000CB01B7E02B9F800D911D1124FA01259198
:102AF00034913B8B2A8BFC01459154915B834A8333
:102B0000FC013296C490319654915C8732961491B0
:102B10003196D4908981823058F0612E012E000CBC
:102B20007708AD2D0D2C000CBB0BB987A88704C00E
:102B300019861886612C712CAB8DBC8DED91FC91A2
:102B400011970680F781E02DCD011995B9818B2E63
:102B5000912C689CC001699C900D789C900D11246B
:102B6000FC01EA0DFB1DF98BE88B1C82712C612C9A
:102B7000E12F110FFF0B95012E0F3F1F3B872A8777
:102B8000AC0CB11CA5014E0F5F1F5F8B4E8BC101BA
:102B90008D0D911DD7FC9A95998F888F4C85641661
:102BA00008F062C0862D90E048855985480F591F6E
:102BB000489D9001499D300D589D300D1124D9013B
:102BC000A20DB31DBF87AE87AA84BB8448885988ED
:102BD000DC80BA85DB1AE88DF98DE80FF91FFD8BD3
:102BE000EC8B8D2D8A0D2E893F89A216B306B9F183
:102BF000877061F48A819B810196EA89FB89AA81A9
:102C0000BB81EA0FFB1F74909B838A8377FE20C0F1
:102C1000AB8DBC8DED91FC91B981B13061F4008434
:102C2000F185E02D2E813F814C895D89B5018B8D29
:102C30009C8D19950DC00284F385E02DEE80FF80F8
:102C4000840194014E855F85B2018B8D9C8D199511
:102C5000770C480C591CEFEFAE1ABE0AC2CF3C816C
:102C60003C0D3C8363949ACFAB8DBC8DED91FC9170
:102C700011970288F389E02DCD016C960FB6F89478
:102C8000DEBF0FBECDBFDF91CF911F910F91FF909F
:102C9000EF90DF90CF90BF90AF909F908F907F90FC
:102CA0006F905F904F903F902F9019946C960FB655
:102CB000F894DEBF0FBECDBFDF91CF911F910F9172
:102CC000FF90EF90DF90CF90BF90AF909F908F904C
:102CD0007F906F905F904F903F902F900895AF92AC
:102CE000BF92CF92EF92FF920F931F93CF93DF93F8
:102CF000EC01262F888D998D009709F040C06A302D
:102D000059F41D861C862C898E859F8538E0239F6B
:102D1000800D911D112441C06D3009F4AAC08E8927
:102D20008823C1F03C898C859D8546E0349F800DC9
:102D3000911D112448855985481759075CF41D8653
:102D40001C868E859F8548E0349F800D911D11243F
:102D50009F878E87EA88FB88088919894E855F8559
:102D60006C857D85CC88CE010E9459142C898C8578
:102D70009D8536E0239F800D911D112442C06A304D
:102D800079F41D861C862C89FC013696E4918E858B
:102D90009F852E9F800D911D11249F878E8769C06E
:102DA0006D3009F466C0FC0134963491631708F461
:102DB00060C03196E491E61708F45BC0FC013296DE
:102DC000A590B490462F50E0431B510937E0349F43
:102DD000B001359F700D1124A60EB71EF501329675
:102DE00034913196E491332311F0E1110DC0F501D6
:102DF0003496E4912C898C859D85E29F800D911DF0
:102E000011249D878C8735C0F501359644915E89E4
:102E1000552311F16C89E32FF0E0E40FF11D47FD1C
:102E2000FA956E9FD0016F9FB00D11244C855D8582
:102E30004A0F5B1FE885F985E417F5076CF41D86DA
:102E40001C86FC013696E4918E859F856E9F800DD1
:102E5000911D11249F878E87EA88FB88088919892C
:102E60004E855F856C857D85CC88CE010E94591486
:102E7000BECF81E090E0DF91CF911F910F91FF9045
:102E8000EF90CF90BF90AF900895FC017587648755
:102E9000578746870895611101C061E0FC01648B8A
:102EA0000895FC01738B628B718B608B0895FC011C
:102EB000718B608B538B428B0895DC019C96ED9156
:102EC000FC919D979081D1968C91892B8083089558
:102ED000EF92FF920F931F93DC01ED91FC9102841E
:102EE000F385E02D7801890121E030E019951F91EB
:102EF0000F91FF90EF900895EF92FF920F931F9321
:102F0000DC01ED91FC910284F385E02D780101E074
:102F100010E019951F910F91FF90EF9008950F9376
:102F20001F93CF93DF9300D000D0CDB7DEB78C01D5
:102F3000DC01ED91FC910680F781E02D2D833E832D
:102F40004B835C8369837A831995D801ED91FC9159
:102F50000084F185E02D2D813E814B815C8169816A
:102F60007A81C8011995D801ED91FC910288F38905
:102F7000E02DC80126960FB6F894DEBF0FBECDBF78
:102F8000DF91CF911F910F911994EF92FF920F93C0
:102F90001F93CF93DF9300D000D0CDB7DEB77C0175
:102FA000DC01ED91FC910680F781E02D2D833E83BD
:102FB0004B835C8369837A831995D701ED91FC91EA
:102FC0000484F585E02D2D813E814B815C816981F2
:102FD0007A81C7011995D701ED91FC910288F38997
:102FE000E02DC70126960FB6F894DEBF0FBECDBF09
:102FF000DF91CF911F910F91FF90EF901994EF9275
:10300000FF920F931F93CF93DF9300D000D0CDB7E3
:10301000DEB77C01DC01ED91FC910680F781E02DAB
:103020002D833E834B835C8369837A831995D70113
:10303000ED91FC910684F785E02D2D813E814B8139
:103040005C8169817A81C7011995D701ED91FC9165
:103050000288F389E02DC70126960FB6F894DEBFEB
:103060000FBECDBFDF91CF911F910F91FF90EF90D9
:103070001994CF92DF92EF92FF920F931F93CF9309
:10308000DF9300D000D0CDB7DEB76C01DC01ED914D
:10309000FC910680F781E02D2D833E834B835C837A
:1030A00069837A831995D601ED91FC910284F385A9
:1030B000E02D2D813E814B815C8169817A81C60141
:1030C0001995D601ED91FC910288F389E02DC60196
:1030D00026960FB6F894DEBF0FBECDBFDF91CF911D
:1030E0001F910F91FF90EF90DF90CF901994CF93A5
:1030F000DF93EC0189A187FF09C084E00E94931F40
:1031000081E00E94851F80E00E948E1FECA5FDA536
:10311000908189A9809589238083DF91CF9108953B
:10312000EF92FF920F931F93CF93DF931F92CDB730
:10313000DEB77C01062F142F40E451E060EF70E011
:1031400029830E9439128BE992E0D70111969C9352
:103150008E935E960C935E975F961C935F97298182
:1031600090962C9390978FEF91968C93919792963F
:103170008C93929793968C939397F701128E138E5C
:10318000148E158E602F000F770BFB01EA59FD4F4F
:103190008491E82FF0E0EE0FFF1FE455FD4F85917D
:1031A00094919D969C938E939C97FB01E05EFD4FBE
:1031B000E491D196EC93D197412F110F550BFA0161
:1031C000EA59FD4FE491F0E0EE0FFF1FE455FD4F8B
:1031D00085919491F70193A782A7FA01E05EFD4FD4
:1031E000E491D296EC93D29799961C921E9298975E
:1031F000D0961C92D09795961C921E9294979E966C
:103200001C929E9797961C921E9296979F961C9240
:103210000F90DF91CF911F910F91FF90EF90089544
:10322000FC0181A187FF05C06EBD0DB407FEFDCF77
:10323000089528E030E090E8A4A1B5A186A5492F23
:10324000462319F04C91842B03C04C918095842324
:103250008C93A0A5B1A54C9180A9809584238C93D3
:10326000A0A5B1A54C9180A9842B8C939695215053
:10327000310911F70895CF93DF93EC01EAA5FBA57F
:1032800090818AA9809589238083CE010E9410199C
:10329000EAA5FBA590818AA9892B8083DF91CF9134
:1032A0000895CF93DF93EC01411551056105710538
:1032B00021F440E052E16AE770E04A8F5B8F6C8F47
:1032C0007D8F61E08F8D0E94CF0960E08F8D0E941D
:1032D0000B0A61E08E8D0E94CF0961E08E8D0E9405
:1032E0000B0A89A187FD16C061E08AA10E94CF095F
:1032F00060E08AA10E940B0A61E089A10E94CF09C7
:1033000061E089A10E940B0A8BA187FD03C060E0E8
:103310000E94CF0989A187FD0E946F1F88A187FDA8
:1033200021C061E00E94CF0961E088A10E940B0AE0
:1033300064E670E080E090E00E94F50860E088A11B
:103340000E940B0A64E670E080E090E00E94F508BD
:1033500061E088A10E940B0A68EC70E080E090E0D8
:103360000E94F508E881F9810680F781E02DCE0101
:1033700019956FEECE010E943B1963E0CE010E94C9
:10338000101960E8CE010E94101962E0CE010E947F
:1033900010196FECCE010E943B1960E0CE010E9433
:1033A000101961ECCE010E94101960E3CE010E9459
:1033B00010196DEECE010E943B1964E6CE010E9409
:1033C000101963E0CE010E94101962E1CE010E9443
:1033D000101961E8CE010E94101968EECE010E941A
:1033E0003B1965E8CE010E94101960E0CE010E94F1
:1033F000101968E7CE010E9410196BECCE010E94F3
:103400003B1969E3CE010E9410196CE2CE010E94C3
:10341000101960E0CE010E94101964E3CE010E94F1
:10342000101962E0CE010E94101967EFCE010E94D0
:103430003B1960E2CE010E9410196AEECE010E9493
:103440003B1960E0CE010E94101960E0CE010E949D
:10345000101960ECCE010E943B1963E2CE010E947C
:10346000101961ECCE010E943B1960E1CE010E946F
:10347000101965ECCE010E943B196EE3CE010E944B
:10348000101968E2CE010E94101967ECCE010E946B
:103490003B1966E8CE010E94101966E3CE010E9436
:1034A0003B1968E4CE010E94101967E3CE010E9427
:1034B0003B1989A187FF09C01EBC0DB407FEFDCFD3
:1034C0001EBC0DB407FEFDCF08C060E0CE010E9417
:1034D000101960E0CE010E9410196AE3CE010E942B
:1034E0003B1965E5CE010E94101961EBCE010E94E7
:1034F0003B1960E0CE010E94101968E1CE010E94E4
:10350000101966EBCE010E943B1968E0CE010E94C3
:10351000101962E8CE010E94101967E2CE010E94E4
:10352000101962EFCE010E943B1960E0CE010E94AB
:10353000101966E2CE010E943B1961E0CE010E94A3
:10354000101960EECE010E943B196FE0CE010E947F
:10355000101961E3CE010E9410196BE2CE010E94A6
:1035600010196CE0CE010E9410196EE0CE010E948D
:10357000101968E0CE010E9410196EE4CE010E947D
:10358000101961EFCE010E94101967E3CE010E946D
:10359000101967E0CE010E94101960E1CE010E946F
:1035A000101963E0CE010E9410196EE0CE010E9456
:1035B000101969E0CE010E94101960E0CE010E944E
:1035C000101961EECE010E943B1960E0CE010E940D
:1035D00010196EE0CE010E94101964E1CE010E9424
:1035E000101963E0CE010E94101961E1CE010E9422
:1035F000101967E0CE010E94101961E3CE010E940C
:10360000101961ECCE010E94101968E4CE010E94ED
:10361000101968E0CE010E9410196FE0CE010E94DF
:1036200010196CE0CE010E94101961E3CE010E94D6
:10363000101966E3CE010E9410196FE0CE010E94BE
:10364000101961E1CE010E943B1968E770E080E04B
:1036500090E00E94F50869E2CE010E943B1968E7FC
:1036600070E080E090E00E94F508E881F98102882E
:10367000F389E02DCE01199580EF90E09987888736
:1036800080E491E09B878A87DF91CF9108951F9313
:10369000CF93DF93EC0163706D8B6230C1F06330C8
:1036A00001F1613051F080EF90E09987888780E4E4
:1036B00091E09B878A8718E41DC080E491E0998798
:1036C000888780EF90E09B878A8718E213C080EF9D
:1036D00090E09987888780E491E09B878A8718E843
:1036E00009C080E491E09987888780EF90E09B870C
:1036F0008A8718EEE881F9810680F781E02DCE01F6
:10370000199566E3CE010E943B19612FCE010E94FC
:103710001019E881F9810288F389E02DCE01DF914B
:10372000CF911F9119940F931F93CF93DF931F9203
:10373000CDB7DEB78C01DC01ED91FC910680F781FD
:10374000E02D698319956981611102C060E201C0B1
:1037500061E2C8010E943B19D801ED91FC910288F9
:10376000F389E02DC8010F90DF91CF911F910F9148
:1037700019948F929F92AF92BF92CF92DF92EF9265
:10378000FF920F931F93CF93DF93EC01490181E0E8
:10379000881A9108860E971EC401A0E0B0E04B0184
:1037A000A12CB12C540199248824882A992AAA2A68
:1037B000BB2A680181E0C81AD108C40ED51EC60113
:1037C000A0E0B0E06A01E12CF12C7601DD24CC24EC
:1037D000C82AD92AEA2AFB2A6AE2CE010E943B19AA
:1037E00029A16B2D77278827992727FF18C06EBD41
:1037F0000DB407FEFDCFC501AA27BB278EBD0DB4B2
:1038000007FEFDCFBB27AB2D9A2D892D8EBD0DB4A4
:1038100007FEFDCF8EBC0DB407FEFDCF14C0CE0158
:103820000E941019B50188279927CE010E9410190E
:1038300099278B2D7A2D692DCE010E941019682DA4
:10384000CE010E9410196BE2CE010E943B1929A102
:103850006F2D77278827992727FF18C06EBD0DB4D5
:1038600007FEFDCFC701AA27BB278EBD0DB407FEFB
:10387000FDCFBB27AF2D9E2D8D2D8EBD0DB407FE28
:10388000FDCFCEBC0DB407FEFDCF14C0CE010E940B
:103890001019B70188279927CE010E94101999277E
:1038A0008F2D7E2D6D2DCE010E9410196C2DCE0115
:1038B0000E9410196CE2CE01DF91CF911F910F9100
:1038C000FF90EF90DF90CF90BF90AF909F908F9040
:1038D0000C943B191F93CF93DF93262FFC0131A14A
:1038E00037FF09C07EBD0DB407FEFDCF2EBD0DB460
:1038F00007FEFDCF0CC0672F122FEC010E9410199C
:10390000612FCE01DF91CF911F910C941019DF919F
:10391000CF911F910895EF92FF920F931F93CF9332
:10392000DF9377FD23C0DC011896ED91FC91199788
:103930006E177F07DCF457FD19C01A96ED91FC91C4
:103940001B974E175F0794F47901EC0101E010E03A
:1039500021E030E00E94B91BB701CE01DF91CF9189
:103960001F910F91FF90EF900C946A1CDF91CF9103
:103970001F910F91FF90EF900895EF92FF921F9388
:10398000CF93DF9300D01F921F92CDB7DEB77C019B
:10399000162FFC0181A187FF12C0211531054105B9
:1039A000510549F17EBD0DB407FEFDCF1EBD0DB41E
:1039B00007FEFDCF2150310941095109EECF2115F4
:1039C000310541055105B9F0672FC70129833A83B5
:1039D0004B835C837D830E941019612FC7010E9475
:1039E000101929813A814B815C81215031094109AB
:1039F00051097D81E4CF0F900F900F900F900F90A1
:103A0000DF91CF911F91FF90EF9008958F929F9239
:103A1000AF92BF92CF92DF92EF92FF920F931F93DC
:103A2000CF93DF935C01FB01E9014701DC011896AC
:103A30002D913C911997621773070CF049C01A96A3
:103A40008D919C911B97481759070CF041C06B0151
:103A5000CC0EDD1ED60111977A01E00EF11EB701E2
:103A600061507109B7FD34C077FD32C0F7FF03C064
:103A7000E601E0E0F0E057FF03C0870140E050E0DE
:103A8000A217B3071CF0E901CE1BDF0B68177907FB
:103A90001CF08C01041B150B9E01D8010E940E2204
:103AA0006B017C01BF01C5010E94B91BA7019601F2
:103AB000B401C501DF91CF911F910F91FF90EF905D
:103AC000DF90CF90BF90AF909F908F900C94BD1CD3
:103AD000DF91CF911F910F91FF90EF90DF90CF90EA
:103AE000BF90AF909F908F9008954F925F926F928A
:103AF0007F929F92AF92BF92CF92DF92EF92FF920E
:103B00000F931F93CF93DF9300D000D0CDB7DEB7D4
:103B10008C0160E0DC0112968C910E94CF0960E07C
:103B2000F80183810E94CF0961E0D80115968C913C
:103B30000E94CF0961E0F80184810E94CF09D80179
:103B400050968C9150971896ED91FC911997908111
:103B5000892B808351969C9151971C96ED91FC91F5
:103B60001D978081282F30E0892F90E080959095D7
:103B700082239323808312968C910E944A1F7C019A
:103B8000F80182810E944A1F9701281B390B2C5F84
:103B90003F4F2930310548F4A701480F591FCA018A
:103BA000959587959924939401C0912C2FEF33E03C
:103BB0007901E81AF90A60E0D80115968C910E9403
:103BC000CF0960E0F80184810E94CF0961E0D8014B
:103BD00012968C910E94CF0961E0F80183810E94C6
:103BE000CF09D80153969C9153971E96ED91FC9165
:103BF0001F978081282F30E0892F90E08095909545
:103C000082239323808352968C9152971A96ED913A
:103C1000FC911B979081892B808314968C910E9434
:103C20004A1F6C01F80184810E944A1FA601481BAB
:103C3000590B4C5F5F4F4930510538F49601280FFE
:103C4000391FC9019595879501C0912C4FEF53E01D
:103C50006A01C81AD90A61E0D80115968C910E94B0
:103C6000CF0960E0F80182810E94CF09D801509607
:103C70009C9150971896ED91FC9119978081282F6F
:103C800030E0892F90E08095909582239323808364
:103C900053968C9153971E96ED91FC911F979081AE
:103CA000892B808314968C910E944A1F5C01F80135
:103CB00082810E944A1FD80116960D911C91179778
:103CC0000115110509F43FC0BC01990F880B990B30
:103CD0000E94BC202B013C01B501BB0C880B990B49
:103CE0000E94BC209B01AC01C301B2010E941220C2
:103CF00020E030E040E85FE30E94A51F2B013C017B
:103D0000B7010F2C000C880B990B0E94BC209B0163
:103D1000AC01C301B2010E9448212B013C01B80152
:103D200080E090E00E94BA209B01AC01C301B20187
:103D30000E94482120E030E040E85AE30E944821F8
:103D40000E94842005C0B501681B790B61507C4F2F
:103D5000911002C060E070E0FA82E982DC82CB82DE
:103D60007E836D832E2D3A814C2D5C817E8180E097
:103D700090E026960FB6F894DEBF0FBECDBFDF9160
:103D8000CF911F910F91FF90EF90DF90CF90BF9058
:103D9000AF909F907F906F905F904F900895EF92BB
:103DA000FF920F931F93DC0112964C931297149677
:103DB0002C93149713960C93139715966C93159751
:103DC0001796FC92EE92169770E0FB01EA59FD4FB0
:103DD000E491F0E0EE0FFF1FE455FD4F85919491C3
:103DE00019969C938E93189750E0FA01EA59FD4F6B
:103DF000E491F0E0EE0FFF1FE455FD4F85919491A3
:103E00001B969C938E931A9730E0F901EA59FD4F67
:103E1000E491F0E0EE0FFF1FE455FD4F8591949182
:103E20001D969C938E931C9710E0F801EA59FD4F64
:103E3000849190E0880F991F84559D4FFC018591D6
:103E400094911F969C938E931E97FB01E05EFD4F0D
:103E5000649150966C935097FA01E05EFD4F449147
:103E600052964C935297F901E05EFD4F2491519682
:103E70002C935197F801E05EFD4F049153960C93FB
:103E800053978AE090E08D939C931F910F91FF9040
:103E9000EF900895863308F0865390917B00282F89
:103EA0002870977F922B90937B008770209100025F
:103EB00090E4299F90011124822B80937C008091B3
:103EC0007A00806480937A0080917A0086FDFCCF2E
:103ED000809178002091790090E0922B089561E024
:103EE00085E30E940B0A61E085E30E94CF098CB54F
:103EF00080618CBD8CB580648CBD61E084E30E94E0
:103F0000CF0961E083E30C94CF09811103C08CB524
:103F1000806202C08CB58F7D8CBD08959CB5937F67
:103F2000892B8CBD08959CB5282F23709C7F922BE4
:103F30009CBD2DB582FB992790F9822F8E7F892B0E
:103F40008DBD0895F8940C9437225058BB27AA27AA
:103F50000E94BD1F0C940E210E94002138F00E9487
:103F6000072120F039F49F3F19F426F40C94FD202A
:103F70000EF4E095E7FB0C94F720E92F0E941F2137
:103F800058F3BA17620773078407950720F079F48E
:103F9000A6F50C9441210EF4E0950B2EBA2FA02D1E
:103FA0000B01B90190010C01CA01A0011124FF27E6
:103FB000591B99F0593F50F4503E68F11A16F040E1
:103FC000A22F232F342F4427585FF3CF46953795E0
:103FD0002795A795F0405395C9F77EF41F16BA0BA5
:103FE000620B730B840BBAF09150A1F0FF0FBB1F53
:103FF000661F771F881FC2F70EC0BA0F621F731F9C
:10400000841F48F4879577956795B795F7959E3FF8
:1040100008F0B0CF9395880F08F09927EE0F979589
:10402000879508950E9426200C940E210E94072156
:1040300058F00E94002140F029F45F3F29F00C94D1
:10404000F72051110C9442210C94FD200E941F2155
:1040500068F39923B1F3552391F3951B550BBB27B7
:10406000AA2762177307840738F09F5F5F4F220FFC
:10407000331F441FAA1FA9F335D00E2E3AF0E0E8F3
:1040800032D091505040E695001CCAF72BD0FE2F3D
:1040900029D0660F771F881FBB1F261737074807D1
:1040A000AB07B0E809F0BB0B802DBF01FF27935889
:1040B0005F4F3AF09E3F510578F00C94F7200C9436
:1040C00042215F3FE4F3983ED4F386957795679558
:1040D000B795F7959F5FC9F7880F911D96958795BE
:1040E00097F90895E1E0660F771F881FBB1F6217DD
:1040F00073078407BA0720F0621B730B840BBA0B9B
:10410000EE1F88F7E09508950E948B206894B11106
:104110000C94422108950E94272188F09F5798F01F
:10412000B92F9927B751B0F0E1F0660F771F881FBC
:10413000991F1AF0BA95C9F714C0B13091F00E94D6
:104140004121B1E008950C944121672F782F8827F1
:10415000B85F39F0B93FCCF3869577956795B395FD
:10416000D9F73EF490958095709561957F4F8F4F6C
:104170009F4F0895E89409C097FB3EF49095809571
:10418000709561957F4F8F4F9F4F9923A9F0F92F1D
:1041900096E9BB279395F695879577956795B7959B
:1041A000F111F8CFFAF4BB0F11F460FF1BC06F5F81
:1041B0007F4F8F4F9F4F16C0882311F096E911C093
:1041C000772321F09EE8872F762F05C0662371F0B4
:1041D00096E8862F70E060E02AF09A95660F771FC8
:1041E000881FDAF7880F9695879597F9089597F9BC
:1041F0009F6780E870E060E008959FEF80EC08958D
:1042000000240A94161617061806090608950024B5
:104210000A9412161306140605060895092E03942F
:10422000000C11F4882352F0BB0F40F4BF2B11F4A3
:1042300060FF04C06F5F7F4F8F4F9F4F089557FD02
:104240009058440F551F59F05F3F71F04795880F04
:1042500097FB991F61F09F3F79F08795089512169B
:1042600013061406551FF2CF4695F1DF08C0161647
:1042700017061806991FF1CF8695710561050894F8
:104280000895E894BB2766277727CB0197F908950F
:104290000E945B210C940E210E94002138F00E94A4
:1042A000072120F0952311F00C94F7200C94FD20A9
:1042B00011240C9442210E941F2170F3959FC1F399
:1042C000950F50E0551F629FF001729FBB27F00DC4
:1042D000B11D639FAA27F00DB11DAA1F649F662719
:1042E000B00DA11D661F829F2227B00DA11D621F68
:1042F000739FB00DA11D621F839FA00D611D221F22
:10430000749F3327A00D611D231F849F600D211D05
:10431000822F762F6A2F11249F5750409AF0F1F088
:1043200088234AF0EE0FFF1FBB1F661F771F881FF1
:1043300091505040A9F79E3F510580F00C94F72012
:104340000C9442215F3FE4F3983ED4F38695779531
:104350006795B795F795E7959F5FC1F7FE2B880F97
:10436000911D9695879597F90895DB018F939F93FB
:104370000E942C22BF91AF91A29F800D911DA39FFF
:10438000900DB29F900D11240895A1E21A2EAA1B40
:10439000BB1BFD010DC0AA1FBB1FEE1FFF1FA217F5
:1043A000B307E407F50720F0A21BB30BE40BF50BF2
:1043B000661F771F881F991F1A9469F7609570957B
:1043C000809590959B01AC01BD01CF010895052E0C
:1043D00097FB1EF400940E94FE2157FD07D00E9417
:1043E000C52107FC03D04EF40C94FE215095409556
:1043F000309521953F4F4F4F5F4F08959095809591
:10440000709561957F4F8F4F9F4F0895EE0FFF1F5F
:10441000881F8BBF0790F691E02D19940E941622F9
:10442000332312F48A1B9B0B0C942722A29FB0010A
:10443000B39FC001A39F700D811D1124911DB29FD8
:10444000700D811D1124911D08950E941622B7FF41
:104450000895821B930B08950E941622A59F900D2C
:10446000B49F900DA49F800D911D11240895F89480
:02447000FFCF7C
:10447200013A00486F7572004D696E75746573007C
:104482005361766520416C61726D00746F7563686B
:10449200205800746F756368205900437265617417
:1044A2006520416C61726D007361766520616C619B
:1044B200726D2063616C6C6564007265616368652E
:1044C20064206E6578742073656374696F6E000092
:1044D200000000BD0B3B0A660B920B760BB20B0081
:1044E2000000006F163B0A650B2510261045102DA3
:1044F2001039107C0F55102412231256109B10DF16
:104502001030114E11C411000000006F163B0A8FCB
:104512001777188B1C061D68177C177C0F5D1747D1
:104522001B931BC517FF17391830114E11C4110008
:00000001FF
