:100000000C94FF030C9430040C9430040C943004D2
:100010000C9430040C9430040C9430040C94300490
:100020000C9430040C9430040C9430040C94300480
:100030000C9430040C9430040C9430040C94300470
:100040000C9430040C9430040C9430040C94300460
:100050000C9430040C9430040C9430040C94EC1187
:100060000C9430040C946F170C943B180C943004CF
:100070000C9430040C9430040C9430040C94300430
:100080000C9430040C9430040C9430040C94300420
:100090000C94A2170C947A180C9430040C9430042D
:1000A0000C9430040C9430040C9430040C94300400
:1000B0000C9430040C9430040C9430040C943004F0
:1000C0000C9430040C9430040C9430040C94D51728
:1000D0000C94B9180C9430040C9408180C94F8186B
:1000E0000C943004351338132B132F136F133C1358
:1000F000401346134A134E13541358135C136F13D3
:10010000621366136A130C94D21A0C94BB160C94E7
:10011000CD230C94831B0C947A1D0C942B130C94FC
:1001200058130C94E1270C94D2220C94791D0C9452
:10013000BF190C9455230C94E5220C9405140C94CF
:100140008F1B0C9408170C946A130C944E130C9488
:1001500013170C9454130C945C280C949D260C9447
:10016000861C0C94AC1B0C947B1B0C945C130C94A1
:10017000B3220C9438130C94A41C0C94C5210C9439
:100180006F130C9466130C9446130C947C1B0C9404
:100190009B1B0C941A1D0C94E9260C941B230C94A5
:1001A000E8160C9440130C94AB1B0C9495060C941D
:1001B000BE220C94F11B0C94BC160C94351C0C94B0
:1001C000CC160C943C130C9462130C948F230C9457
:1001D0002F130C944A130C9435130000090A0208DB
:1001E0000B0C0D07060304010000000000000000D6
:1001F00000000000000000000000000000000000FF
:1002000000000000000011100F00000000000000BE
:1002100000000000000000000000000000000000DE
:100220000102102020080810204010204080020108
:1002300002010804020101020408102040808040ED
:1002400020100804020180040201804020100804EC
:10025000020108040201010204081020408001028A
:100260000408102040800505050507050808080852
:10027000020202020A0A080804040404010101013E
:100280000101010103030303030303030407070739
:100290000C0C0C0C0C0C0C0C0202020206060606DE
:1002A000060606060B0B0B0B0B0B0B0B00002000BE
:1002B0002300260029002C002F003200000100003E
:1002C00003010601090100002200250028002B007F
:1002D0002E003100340002010000050108010B016D
:1002E00000002100240027002A002D0030003300E8
:1002F00001010000040107010A0100000000003EA6
:100300005B4F5B3E3E6B4F6B3E1C3E7C3E1C183C85
:100310007E3C181C577D571C1C5E7F5E1C00183CE1
:100320001800FFE7C3E7FF0018241800FFE7DBE72A
:10033000FF30483A060E2629792926407F05050711
:10034000407F05253F5A3CE73C5A7F3E1C1C08086D
:100350001C1C3E7F14227F22145F5F005F5F060932
:100360007F017F006689956A606060606094A2FF8B
:10037000A29408047E040810207E201008082A1C7D
:1003800008081C2A08081E101010100C1E0C1E0C49
:1003900030383E3830060E3E0E06000000000000E9
:1003A000005F00000007000700147F147F14242A58
:1003B0007F2A12231308646236495620500008072A
:1003C0000300001C2241000041221C002A1C7F1C4B
:1003D0002A08083E0808008070300008080808084D
:1003E000000060600020100804023E5149453E00B4
:1003F000427F400072494949462141494D33181412
:10040000127F1027454545393C4A49493141211160
:1004100009073649494936464949291E0000140052
:100420000000403400000008142241141414141475
:10043000004122140802015909063E415D594E7CD3
:100440001211127C7F494949363E414141227F4188
:1004500041413E7F494949417F090909013E4141E6
:1004600051737F0808087F00417F41002040413FD1
:10047000017F081422417F404040407F021C027FE0
:100480007F0408107F3E4141413E7F090909063E35
:100490004151215E7F091929462649494932030104
:1004A0007F01033F4040403F1F2040201F3F403816
:1004B000403F631408146303047804036159494DF1
:1004C00043007F4141410204081020004141417F27
:1004D000040201020440404040400003070800209D
:1004E000545478407F28444438384444442838449D
:1004F00044287F385454541800087E090218A4A4D4
:100500009C787F0804047800447D40002040403DF2
:10051000007F1028440000417F40007C047804786C
:100520007C080404783844444438FC1824241818FF
:10053000242418FC7C08040408485454542404045B
:100540003F44243C4040207C1C2040201C3C403048
:10055000403C44281028444C9090907C4464544C77
:1005600044000836410000007700000041360800D2
:1005700002010204023C2623263C1EA1A161123A7C
:100580004040207A385454555921555579412254C8
:10059000547842215554784020545579400C1E52CD
:1005A0007212395555555939545454593955545472
:1005B000580000457C410002457D420001457C40D9
:1005C0007D1211127DF0282528F07C54554500201D
:1005D00054547C547C0A097F4932494949323A448F
:1005E00044443A324A4848303A4141217A3A4240FA
:1005F0002078009DA0A07D3D4242423D3D404040CC
:100600003D3C24FF2424487E4943662B2FFC2F2B9E
:10061000FF0929F620C0887E09032054547941003F
:1006200000447D413048484A32384040227A007ABE
:100630000A0A727D0D19317D2629292F282629299C
:10064000292630484D4020380808080808080808BE
:10065000382F10C8ACBA2F102834FA00007B0000E5
:1006600008142A142222142A14085500550055AAE9
:1006700055AA55AAFF55FF55FF000000FF001010B6
:1006800010FF00141414FF001010FF00FF1010F0F2
:1006900010F0141414FC001414F700FF0000FF0005
:1006A000FF1414F404FC141417101F10101F101F53
:1006B0001414141F00101010F0000000001F101080
:1006C00010101F10101010F010000000FF1010107C
:1006D000101010101010FF10000000FF140000FF99
:1006E00000FF00001F10170000FC04F41414171082
:1006F000171414F404F40000FF00F7141414141475
:100700001414F700F7141414171410101F101F14EA
:100710001414F4141010F010F000001F101F00004B
:10072000001F14000000FC140000F010F01010FF77
:1007300010FF141414FF141010101F00000000F01C
:1007400010FFFFFFFFFFF0F0F0F0F0FFFFFF0000F1
:10075000000000FFFF0F0F0F0F0F3844443844FC18
:100760004A4A4A347E02020606027E027E0263552F
:100770004941633844443C04407E201E2006027EEA
:10078000020299A5E7A5991C2A492A1C4C720172FC
:100790004C304A4D4D303048784830BC625A463D66
:1007A0003E494949007E0101017E2A2A2A2A2A441B
:1007B000445F444440514A444040444A5140000050
:1007C000FF0103E080FF000008086B6B083612365B
:1007D0002436060F090F060000181800000010103C
:1007E000003040FF0101001F01011E00191D1712FA
:1007F000003C3C3C3C00000000009506BF19112461
:100800001FBECFEFD1E2DEBFCDBF00E00CBF12E0D4
:10081000A0E0B2E0E6E0F0E600E00BBF02C0079027
:100820000D92A63CB107D9F728E0A6ECB2E001C0D2
:100830001D92A234B207E1F713E0CFEFD3E000E05E
:1008400006C021970109802FFE010E94A62FCD3FEF
:10085000D10780E00807A9F70E9418110C94E92C31
:100860000C940000CF92DF92EF92FF920F931F93B0
:10087000CF93DF93EB017B0126E0E20EF11C8B01AD
:100880006C01C61AD70AC601800F911F0E94EB2F78
:10089000F80181938F01EE15FF05A9F7CE01DF91D5
:1008A000CF911F910F91FF90EF90DF90CF9008951F
:1008B000FF920F931F93CF93DF930E94971240E80C
:1008C00055E260E070E08CEF95E00E94371960E03F
:1008D0008BE00E94701361E08BE00E94AC1360E03B
:1008E00081E00E947013CDE5D2E005E512E0F880CA
:1008F000229660E08F2D0E94701361E08F2D0E9480
:10090000AC13F80180810E5F1F4F61E00E947013ED
:10091000F2E0C536DF0759F761E088E00E94701306
:1009200061E08CE00E94701361E08BE20E94701322
:1009300040E050E0BA018AED92E0DF91CF911F9143
:100940000F91FF900C94A724CF93DF93EC0126E442
:10095000269FC001279F900D1124BC01640F751FB5
:100960004FE050E08AED92E00E949B226BE08AED1E
:1009700092E00E94A12240E050E06FEF7FEF8AED0D
:1009800092E00E94AD224AE050E0BE018AED92E082
:10099000DF91CF910C945615CF93DF9300D000D008
:1009A000CDB7DEB79C0186E0F901DE01119601901A
:1009B0000D928A95E1F796E0FB01D90101900D9225
:1009C0009A95E1F786E0FE013196DB0101900D92E8
:1009D0008A95E1F726960FB6F894DEBF0FBECDBF1D
:1009E000DF91CF9108956F927F928F929F92AF92F5
:1009F000BF92CF92DF92EF92FF920F931F93CF930C
:100A0000DF936C018B0196E0969FE001979FD00DDC
:100A100011242697CC0DDD1D949F9001959F300DDC
:100A20001124BE01C601820F931F0E94CC04025004
:100A30001109E12CF12C86E0A82E9CE3B92E0E15AD
:100A40001F050CF468C0A09ED001A19EB00D11241A
:100A5000AC0DBD1D6C9012965C91129728814A8155
:100A6000898190E03AE0239F800D911D1124B89E6A
:100A70009001B99E300D11246AE0469F200D311D72
:100A800011248B81280F311DAE9CF001AF9CF00D1D
:100A90001124EC0DFD1D80804181928073801196A0
:100AA0006C91119770E08AE0689E600D711D1124B1
:100AB000B69EC001B79E900D11246AE0569F800D2E
:100AC000911D112413965C911397850F911D281782
:100AD00039071CF401501109B2CF50E08AE0889E1A
:100AE000400D511D1124B49EC001B59E900D1124DE
:100AF0004AE0949E800D911D1124870D911D2817A9
:100B0000390724F06FEFE61AF60A99CFBD01CF013D
:100B10000E94CC0494CF26E02E9DC0012F9D900D05
:100B20001124BE018C0D9D1D0E94CC04C701DF91D4
:100B3000CF911F910F91FF90EF90DF90CF90BF90DA
:100B4000AF909F908F907F906F900895DF92EF927B
:100B5000FF920F931F93CF93DF937C018B0196E05D
:100B6000D92E10161106D4F4A80155954795B80151
:100B7000C7010E94F304EC01BC01C7010E94A60555
:100B8000CE0180959095080F191F2196DC9EC0011B
:100B9000DD9E900D1124E80EF91EE3CFDF91CF9179
:100BA0001F910F91FF90EF90DF90089540E050E08B
:100BB00060E070E080917305909174050E94A40438
:100BC00040E050E061E070E0809171059091720525
:100BD0000E94A4044EE150E062E070E080916F0555
:100BE000909170050E94A4044EE150E063E070E033
:100BF00080916D0590916E050C94A404E1E8F5E0F8
:100C00008081918190937405809373052281338153
:100C100030937205209371052481358130937005DE
:100C200020936F052681378130936E0520936D05E3
:100C300040E050E060E070E00E94A40440E050E03A
:100C400061E070E080917105909172050E94A404AA
:100C50004EE150E062E070E080916F059091700588
:100C60000E94A4044EE150E063E070E080916D05C5
:100C700090916E050C94A404DF92EF92FF920F9373
:100C80001F93CF93DF9300D000D0CDB7DEB780E0C5
:100C900090E00E94EB2F90E09093660580936505AD
:100CA00082E0E82EF12C01E010E0D12C8091650566
:100CB00090916605801791078CF0BE016F5F7F4FA2
:100CC000C7010E9432048E81882311F0DD24D39461
:100CD0000F5F1F4F86E0E80EF11CE8CFDD2011F01A
:100CE00061E001C060E088E00E94AC1326960FB678
:100CF000F894DEBF0FBECDBFDF91CF911F910F9152
:100D0000FF90EF90DF900895CF93DF93C0E0D0E0A5
:100D100060E0CE010E94F32F2196C11580E1D80733
:100D2000B9F7DF91CF910C943C06EF92FF920F93AD
:100D30002FEF49E06AE08AED92E00E94E6238CE220
:100D4000E82EFF24F39405E029E348E364E086EC11
:100D500092E00E94252A0F91FF90EF90089583E082
:100D600090E0909368058093670560E070E08AEDFD
:100D700092E00E94861C67E08AED92E00E94A12228
:100D80006FEF7FEF8AED92E00E94A7224CE350E0E4
:100D900060E070E08AED92E00E949B2269E072E0E0
:100DA0008AED92E00E94A41464E08AED92E00E9431
:100DB000A12260E070E08AED92E00E94A72240EC60
:100DC00050E065E370E08AED92E00E949B2261E1D1
:100DD00072E08AED92E00C94A414AF92BF92CF928D
:100DE000DF92EF92FF920F931F9360E070E08AED25
:100DF00092E00E94861CEE24EA94FE2C08E210E0A9
:100E000024E630E041E750E063E770E08AED92E0ED
:100E10000E948F2364E08AED92E00E94A12260E0AC
:100E200070E08AED92E00E94A72243E750E065E778
:100E300070E08AED92E00E949B2260E272E08AED0F
:100E400092E00E94A414AA24AA94BA2C2FE8C22EDD
:100E5000D12C3FE5E32EF12C01E710E02EE630E047
:100E600041E750E060E570E08AED92E00E94B01D3D
:100E700041E7C42ED12C50EFE52EF12C0FE810E005
:100E80002FEF30E04FE850E061EE70E08AED92E045
:100E90000E94B01DEE24EA94FE2C03E210E02CE840
:100EA00030E048EA50E069E670E08AED92E00E94A6
:100EB0008F2364E08AED92E00E94A12260E070E05E
:100EC0008AED92E00E94A7224AEA50E06BE670E0C9
:100ED0008AED92E00E949B2265E272E08AED92E048
:100EE0000E94A4147BECC72ED12CEBE4EE2EF12C47
:100EF00008EA10E02AE530E048EA50E06CE370E0F0
:100F00008AED92E00E94B01DF8EACF2ED12CAEE01F
:100F1000EA2EFF24F3940BEC10E02DE131E04BECD2
:100F200050E06FEF70E08AED92E00E94B01D63E048
:100F30008AED92E00E94A1224FEF5FEF60E070E047
:100F40008AED92E00E94AD224CED50E066E470E044
:100F50008AED92E00E949B226DE272E08AED92E0BF
:100F60000E94A41465E08AED92E00E94A12240E074
:100F700058EF6FEF7FEF8AED92E00E94AD2248ECD0
:100F800050E060E070E08AED92E00E949B2268E30E
:100F900072E08AED92E00E94A41440E050E060E02C
:100FA00070E080E090E00E94A40440E050E061E046
:100FB00070E080E090E00E94A4044EE150E062E026
:100FC00070E080E090E00E94A4044EE150E063E015
:100FD00070E080E090E01F910F91FF90EF90DF9024
:100FE000CF90BF90AF900C94A4042F923F924F9259
:100FF0005F926F927F928F929F92AF92BF92CF92A9
:10100000DF92EF92FF920F931F93CF93DF93CDB7B1
:10101000DEB7AC970FB6F894DEBF0FBECDBF82E04F
:1010200090E0909368058093670560E070E08AED3A
:1010300092E00E94861C65E08AED92E00E94A12267
:1010400040E058EF6FEF7FEF8AED92E00E94AD2213
:1010500048EC50E060E070E08AED92E00E949B2254
:1010600068E372E08AED92E00E94A414AA24AA9494
:10107000BA2C8DECC82ED12C92ECE92EF12C00EF7D
:1010800010E021EB30E04DEC50E060EA70E08AEDDA
:1010900092E00E94B01D20EFC22ED12C3AE9E32E3F
:1010A000F12C0DEC10E029E830E040EF50E068E76B
:1010B00070E08AED92E00E94B01D80E090E00E9416
:1010C000EB2F90E0909366058093650542E0C42E77
:1010D000D12C01E010E056E0B52E609165057091CD
:1010E000660560177107BCF0BE016F5F7F4FC601D8
:1010F0000E9432040D83D601A55FBC4FFE013196DC
:101100008B2D01900D928A95E1F70F5F1F4F26E01E
:10111000C20ED11CE2CF8DE093E00E94A605C090E4
:101120000002D090010231E0C31AD108CC0CDD1CC2
:10113000CC0CDD1C26E02C9DC0012D9D900D1124B2
:10114000FC01EE5EFC4F5F0188248394912C12E336
:10115000512E36018FEF681A780A80910002909123
:101160000102880F991F880F991F861597050CF4A7
:1011700016C18091650590916605861597050CF45A
:101180000EC1F501359720812BA73196408031960D
:10119000308031962080F501F081FCA765E08AED72
:1011A00092E00E94A122809100029091010294019C
:1011B000281B390BC901880F991F880F991F8C0DA7
:1011C0009D1D589EA001599E500D1124E12CF12C1B
:1011D00003E210E020E431E060E070E08AED92E0AC
:1011E0000E948F2380910002909101023CA533233D
:1011F000A1F0F401E81BF90BCF01880F991F880FAC
:10120000991F8C0D9D1D589EA001599E500D1124B3
:10121000E0EEEE2EE7E0FE2E14C09401281B390B01
:10122000C901880F991F880F991F8C0D9D1D589E0D
:10123000A001599E500D1124E12C68EFF62E03E217
:1012400010E02AE630E060EA70E08AED92E00E9469
:101250008F238091000290910102F401E81BF90BA9
:10126000CF01880F991F880F991F8C0D9D1D589EC7
:10127000A001599E500D112460E070E08AED92E0CB
:101280000E949B2260E172E0CE0184960E94CB1501
:1012900040E1622DCE0101960E94191640E1632DB6
:1012A000CE0108960E94191640E1642DCE014696A3
:1012B0000E94191640E16BA5CE014D960E941916A9
:1012C000BE01635E7F4FCE010F960E94F815BE01EE
:1012D0006A5E7F4FCE010F960E9489166AE30E94D4
:1012E0009C16BE01685F7F4F0E948916BE016F5F2A
:1012F0007F4F0E948916BC01CE0184960E94E115A1
:10130000CE010F960E945D15CE014D960E945D158F
:10131000CE0146960E945D15CE0108960E945D158D
:10132000CE0101960E945D156FEF7FEF8AED92E08E
:101330000E94A722BE016C5D7F4F8AED92E00E9461
:10134000921480910002909101029401281B390BA4
:10135000C901880F991F880F991FC80ED91E5C9C60
:10136000A0015D9C500D11246EE171E08AED92E0C8
:101370000E949B226FEF7FEF8AED92E00E94A722EE
:1013800068E372E08AED92E00E94A414CE01849694
:101390000E945D1536E0A30EB11C6301DACEAC9657
:1013A0000FB6F894DEBF0FBECDBFDF91CF911F9176
:1013B0000F91FF90EF90DF90CF90BF90AF909F90F4
:1013C0008F907F906F905F904F903F902F900895F7
:1013D00080910002909101029C01220F331F220F85
:1013E000331F4091650550916605241735076CF44D
:1013F000019690930102809300020E94F50768EC29
:1014000070E080E090E00C946712089580910002F3
:10141000909101028130910569F00197909301024A
:10142000809300020E94F50764EF71E080E090E095
:101430000C94671208959F92AF92BF92CF92DF9261
:10144000EF92FF920F931F93CF93DF93CDB7DEB749
:1014500027970FB6F894DEBF0FBECDBF6C0180E0BA
:1014600090E00E94EB2F282F30E030936605209308
:101470006505232B09F44FC082E0A82EB12C01E0B2
:1014800010E0E12CF12C96E0992E609165057091A9
:1014900066056017710704F1BE016F5F7F4FC501DC
:1014A0000E9432040C151D0589F09E9CC0019F9C72
:1014B000900D112429813A814B815C816D817E815F
:1014C00002960E9476118FEFE81AF80A0F5F1F4FFD
:1014D00086E0A80EB11CD9CF615071097A83698367
:1014E00080E090E06F830E94EB2F6F81681721F0FE
:1014F00080E090E00E94F32F6A8181E090E06F83AA
:101500000E94EB2F6F81681721F081E090E00E942C
:10151000F32F0E94F5070E943C0627960FB6F89419
:10152000DEBF0FBECDBFDF91CF911F910F91FF9016
:10153000EF90DF90CF90BF90AF909F900895EF9283
:10154000FF920F931F93EE24EA94FE2C0EE110E01D
:1015500027ED30E04EEB50E065E370E08AED92E07D
:101560000E948F2363E08AED92E00E94A12260E056
:1015700070E08AED92E00E94A72240EC50E065E323
:1015800070E08AED92E00E949B226AE372E08AEDAD
:1015900092E00E94A41427ED30E046E950E065E3B4
:1015A00070E08AED92E00E948F2363E08AED92E082
:1015B0000E94A12260E070E08AED92E00E94A722E2
:1015C00048E950E06AE370E08AED92E00E949B22D5
:1015D00067E472E08AED92E00E94A41465E08AED6F
:1015E00092E00E94A12240E058EF6FEF7FEF8AED7A
:1015F00092E00E94AD2248EC50E060E070E08AED9D
:1016000092E00E949B2263E572E08AED92E01F91D6
:101610000F91FF90EF900C94A41410926805109213
:10162000670581E090E0909301028093000260E002
:1016300070E08AED92E00E94861C0E94D6050C9410
:101640009F0AEF92FF920F931F93CF93DF9300D0E7
:1016500000D0CDB7DEB709E715E0F80180818983B6
:1016600082818A8384818B8386818C8381E08E83CF
:101670000E94B4117C0126E02E9DC0012F9D900D8B
:10168000112429813A814B815C816D817E81029692
:101690000E947611C70101960E94CD110E940D0B88
:1016A000F80111821082138212821582148217822D
:1016B000168226960FB6F894DEBF0FBECDBFDF911F
:1016C000CF911F910F91FF90EF900C943C06EF92F9
:1016D000FF920F931F93CF93DF930E94AF06C9E64B
:1016E000D5E034E0E32EF12C81E00E94F912B7013D
:1016F0000E94512F8E018883FC01FF27EE0FFF1FF0
:10170000EB5AFD4F60E080810E94AC1368EE73E0FD
:1017100080E090E00E946712E991F0E0EE0FFF1F79
:10172000EB5AFD4F61E080810E94AC1368EE73E0DC
:1017300080E090E00E946712D801EC91F0E0EE0F9B
:10174000FF1FEB5AFD4F60E080810E94AC13B5E0B3
:10175000CD36DB0749F60E94B50BDF91CF911F9183
:101760000F91FF90EF900C940D0B7F928F929F92B0
:10177000AF92BF92CF92DF92EF92FF920F931F939F
:10178000CF93DF93CDB7DEB728970FB6F894DEBFBF
:101790000FBECDBF60ED77E080E090E00E94671261
:1017A0007724739400E010E0EE24E394F12C52E0EF
:1017B000C52ED12C63E0A62EB12C4E0189E0880EF7
:1017C000911C84E690E00E948D1260E08CE00E9403
:1017D000AC1384E690E00E948D1261E08CE00E94E0
:1017E000AC1386E10E94DC13892BC1F486E10E94D0
:1017F000DC13892B39F46AE070E080E090E00E940D
:101800006712F4CFF801EE0FFF1F81E090E08C0F1C
:101810009D1FE80FF91F1182108256C088E10E94B7
:10182000DC13892BC1F488E10E94DC13892B39F485
:101830006AE070E080E090E00E946712F4CFF80167
:10184000EE0FFF1F81E090E08C0F9D1FE80FF91F46
:10185000F182E08239C08AE10E94DC13892BC1F455
:101860008AE10E94DC13892B39F46AE070E080E0A1
:1018700090E00E946712F4CFF801EE0FFF1F81E0A5
:1018800090E08C0F9D1FE80FF91FD182C0821CC011
:101890008CE10E94DC13892BC9F48CE10E94DC13DB
:1018A000892B39F46AE070E080E090E00E946712D2
:1018B000F4CFF801EE0FFF1F81E090E08C0F9D1F29
:1018C000E80FF91FB182A0820F5F1F4F043011058E
:1018D0000CF477CFFE013196A9E6B5E02191319164
:1018E0008D9190E02817390709F0712CE815F9055A
:1018F000A9F7711003C00E94670B63CF28960FB63B
:10190000F894DEBF0FBECDBFDF91CF911F910F9135
:10191000FF90EF90DF90CF90BF90AF909F908F900F
:101920007F900895EF92FF920F931F93CF93DF93D1
:1019300000D000D0CDB7DEB780916D0590916E05D7
:10194000019690936E0580936D050A9769F48091D6
:101950006F059091700501969093700580936F05C7
:1019600010926E0510926D0580916F059091700533
:10197000069701F5809171059091720501969093FB
:101980007205809371051092700510926F05109288
:101990006E0510926D058A30910564F420916705FB
:1019A00030916805232B31F440E050E061E070E0B5
:1019B0000E94A4048091670590916805892BA1F489
:1019C0004EE150E062E070E080916F05909170050B
:1019D0000E94A4044EE150E063E070E080916D0548
:1019E00090916E050E94A4048091710590917205FA
:1019F0000A9729F58091730590917405019690934B
:101A00007405809373051092720510927105809190
:101A1000670590916805892B91F440E050E061E002
:101A200070E080E090E00E94A40440E050E060E0BC
:101A300070E080917305909174050E94A4048091D8
:101A4000730590917405029771F5809171059091DD
:101A50007205049741F51092740510927305109267
:101A60007205109271051092700510926F05109218
:101A70006E0510926D058091670590916805892B20
:101A800091F440E050E060E070E080E090E00E947F
:101A9000A40440E050E061E070E080917105909115
:101AA00072050E94A40480E090E00E94EB2F90E079
:101AB000909366058093650582E0E82EF12C01E0A5
:101AC00010E0809165059091660580179107BCF143
:101AD000BE016F5F7F4FC7010E943204898190E091
:101AE00020917305309174052817390711F58A8103
:101AF00090E0209171053091720528173907C9F4DB
:101B00008B8190E020916F0530917005281739077F
:101B100081F48C8190E020916D0530916E0528173D
:101B2000390739F48E81882321F00E94AF060E9484
:101B3000670B0F5F1F4F86E0E80EF11CC2CF2696A1
:101B40000FB6F894DEBF0FBECDBFDF91CF911F91CE
:101B50000F91FF90EF900895EF92FF920F931F93D4
:101B6000CF93DF9300D000D0CDB7DEB78C016150AA
:101B7000710986E0869F7001879FF00C112482E036
:101B8000E80EF11CBE016F5F7F4FC7010E94320457
:101B90007E8181E078277E8329813A814B815C8137
:101BA0006D81C7010E9476112E81C8010197409175
:101BB0000002509101022223A9F021E030E0241B11
:101BC000350B220F331F220F331F820F931F22E387
:101BD000289FA001299F500D1124E0EEEE2EE7E092
:101BE000FE2E13C021E030E0241B350B220F331FE3
:101BF000220F331F820F931F22E3289FA001299FEA
:101C0000500D1124E12C68EFF62E03E210E02AE6D5
:101C100030E060EA70E08AED92E00E948F230E943B
:101C20003C0668EC70E080E090E00E946712269627
:101C30000FB6F894DEBF0FBECDBFDF91CF911F91DD
:101C40000F91FF90EF9008952F923F924F925F92E5
:101C50006F927F928F929F92AF92BF92CF92DF92BC
:101C6000EF92FF920F931F93CF93DF93CDB7DEB721
:101C70002A970FB6F894DEBF0FBECDBF86EC92E078
:101C80000E94CB2829833A834B835C836D837E83B8
:101C90008D819E810A978F3D934008F07DC26981B6
:101CA0007A81072E000C880B990B1F921F921F92AE
:101CB0002FEE2F93A12CB12C650118E9E12E13E032
:101CC000F12E00E010E026E930E040E050E00E9414
:101CD000911A2B013C016B817C81072E000C880B33
:101CE000990B1F921F921F921F92FFE3AF2EBB24EE
:101CF000B394C12CD12C1CEAE12E13E0F12E00E0AC
:101D000010E028E730E040E050E00E94911A6B01BB
:101D10007C018B0104511109809167059091680540
:101D20000FB6F894DEBF0FBECDBF009749F5C601D0
:101D30008A549109853D910530F4C2018F5B910968
:101D40004D9708F420C2C20182589109C39748F404
:101D500059E4C51AD10888EDC816D10410F40E94C0
:101D6000F50728EC421A510839E24316510408F0ED
:101D7000ECC10A31110508F0E8C10E948406E5C1F2
:101D80008130910509F00CC1C201815791094F972B
:101D900008F076C0C601845691094F97E0F580910E
:101DA0007B0590917C05019790937C0580937B0542
:101DB00097FF28C08091790590917A0501979093BB
:101DC0007A058093790597FD07C089E090E09093AC
:101DD0007C0580937B050CC083E090E090937C05AC
:101DE00080937B0582E090E090937A05809379055B
:101DF00040E050E060E070E08091790590917A05D4
:101E00000E94A40440E050E061E070E080917B0516
:101E100090917C059CC045EFC41AD1085FE1C516BE
:101E2000D10408F0AEC080917B0590917C050196AD
:101E300090937C0580937B050A976CF080917905DF
:101E400090917A05019690937A0580937905109286
:101E50007C0510927B058091790590917A05029717
:101E60003CF280917B0590917C0504970CF21092D6
:101E70007C0510927B0510927A0510927905B8CFF7
:101E8000C201885A9109849708F066C0C60180553E
:101E900091094F9718F580917F05909180050197E2
:101EA0009093800580937F0597FF49C080917D05C1
:101EB00090917E05019790937E0580937D0529E0A2
:101EC00030E03093800520937F0597FF2EC085E09A
:101ED00090E090937E0580937D0527C083E1C81A2A
:101EE00081E0D80A2FE1C216D10408F04AC08091DF
:101EF0007F059091800501969093800580937F05E2
:101F00000A97ECF080917D0590917E050196909363
:101F10007E0580937D051092800510927F050697BF
:101F200024F010927E0510927D054EE150E062E0B3
:101F300070E080917D0590917E050E94A4044EE1A1
:101F400050E063E070E080917F05909180050E94F1
:101F5000A4041092750515C080917505811111C0FA
:101F6000C2018C5D9109459760F43AE5C31AD10826
:101F700049ECC416D10428F40E94210B81E080931F
:101F8000750558EC451A510889E24816510408F0C5
:101F9000DCC00A31110508F0D8C00E940D0BD5C075
:101FA000029709F0D2C0C201885C9109899728F490
:101FB0000A31110510F40E940D0B5201160124EB99
:101FC000221A31083BE62316310438F0C6018E513F
:101FD0009140C79708F453C077C080910002909158
:101FE00001020197880F991F880F991F26E0289FEB
:101FF000A001299F500D112458874F83812C912CCB
:102000008C010F5F1F4F2091000230910102A90146
:10201000440F551F440F551F40175107BCF2409104
:102020006505509166054017510724F141E050E0E5
:10203000421B530B9A01220F331F220F331F820FB3
:10204000931F52E3589F9001599F300D1124A216FF
:10205000B30684F02D5D3F4F2A153B055CF0EF8100
:10206000F885E80DF91DE35FFC4F648170E0C8015D
:102070000E94AC0D86E0880E911CC801C1CF8091F2
:102080000002909101020197880F991F880F991FF4
:1020900026E0289FA001299F500D112458874F83C7
:1020A00000E010E061E070E04C012FEF821A920A2C
:1020B0002091000230910102A901440F551F440FE5
:1020C000551F4815590544F42DEC421A510834E2C5
:1020D0004316510458F139C0AB01421B530B9A010E
:1020E000220F331F220F331F820F931F52E3589F7B
:1020F0009001599F300D1124A216B3069CF02D5D5E
:102100003F4F2A153B0574F0EF81F885E00FF11F72
:10211000E35FFC4F848190E069877A870E941B0A05
:102120007A8569850A5F1F4FC401BECF33E223164B
:10213000310410F40E94E8094CE8C41AD10852E1B5
:10214000C516D10410F40E94060A64E670E080E02F
:1021500090E02A960FB6F894DEBF0FBECDBFDF9198
:10216000CF911F910F91FF90EF90DF90CF90BF9094
:10217000AF909F908F907F906F905F904F903F9027
:102180002F900C94671281E090E090936805809303
:1021900067050E94ED06D7CD2A960FB6F894DEBFEC
:1021A0000FBECDBFDF91CF911F910F91FF90EF90A8
:1021B000DF90CF90BF90AF909F908F907F906F9067
:1021C0005F904F903F902F900895CF93C1E0809102
:1021D000760581112BC08CEF95E00E94BC16181675
:1021E0001906CCF48CEF95E00E94E8168C3291052C
:1021F00091F02091770530917805F901EE0FFF1FDE
:10220000EF57FA4FC097918380832F5F3F4F3093F2
:10221000780520937705809177059091780506974A
:10222000B1F6C09376050E94FE05D1CFCF910895F7
:102230000E94580440E050E0BA018AED92E00E940A
:10224000A72460E070E08AED92E00E94861C63E0C3
:102250008AED92E00E949D260E94D6050E949F0A68
:102260000E943C06C1E08091760581110AC08BE096
:102270000E94DC13892BB9F70E94E510C093760504
:10228000F2CF80E6C82E8AEED82EE12CF12C0E94E7
:102290003612A70196010E94652F672B682B692BC8
:1022A00011F40E94920C0E94240EF1CFEF92FF9243
:1022B0000F931F93CF93DF931F92CDB7DEB77C01AF
:1022C000FC0100811181C80169830E94EB2F6981A3
:1022D000681719F0C8010E94F32FC7010F90DF9112
:1022E000CF911F910F91FF90EF900895CF92DF92C1
:1022F000EF92FF920F931F93CF93DF93CDB7DEB78B
:1023000028970FB6F894DEBF0FBECDBF2B833C835A
:102310004D835E836F8378877E0129E0E20EF11C96
:102320008E010D5F1F4F6C01C01AD10A9601200F5C
:10233000311FF80161918F013A832983CE01019603
:102340000E9456110E151F0589F728960FB6F894AE
:10235000DEBF0FBECDBFDF91CF911F910F91FF90D8
:10236000EF90DF90CF900895CF93DF931F921F924D
:10237000CDB7DEB71A82198280E090E00E94EB2F81
:10238000898381E090E00E94EB2F8A8389819A8182
:102390000F900F90DF91CF910895CF93DF9300D0EE
:1023A0001F92CDB7DEB79C838B831A821982682F68
:1023B000CE0101960E9456116C8181E090E09A83D3
:1023C0008983CE0101960E9456110F900F900F90B5
:1023D0000F90DF91CF9108951F920F920FB60F9239
:1023E00011242F933F938F939F93AF93BF9380912B
:1023F0008E0590918F05A0919005B0919105309137
:102400008D0523E0230F2D3720F40196A11DB11D6A
:1024100005C026E8230F0296A11DB11D20938D054E
:1024200080938E0590938F05A0939005B0939105AE
:102430008091920590919305A0919405B091950596
:102440000196A11DB11D8093920590939305A093D1
:102450009405B0939505BF91AF919F918F913F9156
:102460002F910F900FBE0F901F9018952FB7F894D3
:1024700060918E0570918F058091900590919105E6
:102480002FBF08953FB7F8948091920590919305DE
:10249000A0919405B091950526B5A89B05C02F3F46
:1024A00019F00196A11DB11D3FBFBA2FA92F982F7A
:1024B0008827820F911DA11DB11DBC01CD0142E0F5
:1024C000660F771F881F991F4A95D1F70895CF92FD
:1024D000DF92EF92FF92CF93DF936B017C010E941A
:1024E0004212EB01C114D104E104F10479F00E941D
:1024F00042126C1B7D0B683E7340A0F381E0C81A4A
:10250000D108E108F108C851DC4FECCFDF91CF9141
:10251000FF90EF90DF90CF900895019739F0880FEA
:10252000991F880F991F02970197F1F708957894E2
:1025300084B5826084BD84B5816084BD85B58260C8
:1025400085BD85B5816085BDEEE6F0E08081816066
:102550008083E1E8F0E01082808182608083808166
:1025600081608083E0E8F0E0808181608083E1EB3E
:10257000F0E0808184608083E0EBF0E08081816026
:102580008083E1E9F0E080818260808380818160E6
:102590008083E0E9F0E0808181608083E1EAF0E01F
:1025A000808182608083808181608083E0EAF0E0C6
:1025B000808181608083E1E2F1E0808182608083BC
:1025C000808181608083E0E2F1E0808181608083AE
:1025D000EAE7F0E08081846080838081826080838C
:1025E0008081816080838081806880831092C100B7
:1025F0000895863308F0865390917B00282F287029
:10260000977F922B90937B0087702091020290E439
:10261000299F90011124822B80937C0080917A0065
:10262000806480937A0080917A0086FDFCCF80914F
:1026300078002091790090E0922B089590E0FC01C1
:102640003197E131F10508F04AC08827EE58FF4F75
:102650008F4F0C94A62F809180008F7703C08091BC
:1026600080008F7D80938000089584B58F7702C0AD
:1026700084B58F7D84BD08958091B0008F7703C0AD
:102680008091B0008F7D8093B0000895809190007C
:102690008F7707C0809190008F7D03C0809190005C
:1026A000877F8093900008958091A0008F7707C066
:1026B0008091A0008F7D03C08091A000877F8093D0
:1026C000A0000895809120018F7707C0809120019C
:1026D0008F7D03C080912001877F80932001089522
:1026E000CF93DF9390E0FC01E05EFD4F2491FC016D
:1026F000EA59FD4F8491882361F190E0880F991F7A
:10270000FC01E052FD4FC591D491FC01EA53FD4F0D
:10271000A591B491611109C09FB7F8948881209563
:1027200082238883EC912E230BC0623061F49FB723
:10273000F8943881822F809583238883EC912E2B07
:102740002C939FBF06C08FB7F894E8812E2B288367
:102750008FBFDF91CF9108951F93CF93DF93282FE1
:1027600030E0F901E652FE4F8491F901E05EFD4F41
:10277000D491F901EA59FD4FC491CC23C9F0162F29
:1027800081110E941E13EC2FF0E0EE0FFF1FEA53A1
:10279000FD4FA591B4918FB7F894111105C09C918C
:1027A000ED2FE095E92302C0EC91ED2BEC938FBF68
:1027B000DF91CF911F910895CF93DF93282F30E0C1
:1027C000F901E652FE4F8491F901E05EFD4FD4918C
:1027D000F901EA59FD4FC491CC2391F081110E9477
:1027E0001E13EC2FF0E0EE0FFF1FE455FD4FA591F7
:1027F000B491EC91ED2381E090E021F480E002C0FF
:1028000080E090E0DF91CF910895CF92DF92EF9238
:10281000FF920F931F93CF93DF936C01EB017B012A
:10282000E40EF51E00E010E0CE15DF0561F06991C1
:10283000D601ED91FC910190F081E02DC601199532
:10284000080F191FF1CFC801DF91CF911F910F9190
:10285000FF90EF90DF90CF9008956115710579F0AA
:10286000FB0101900020E9F73197AF01461B570BA0
:10287000DC01ED91FC910280F381E02D199480E060
:1028800090E00895AF92BF92CF92DF92EF92FF92C5
:102890000F931F93CF93DF936C017B01C0E0D0E0D7
:1028A00000E010E0D70114968D919C911597C81700
:1028B000D90788F4D601ED91FC91A080B180BE01CA
:1028C000C7010E94AA16682FC601F5011995080FC5
:1028D000191F2196E7CFC801DF91CF911F910F916A
:1028E000FF90EF90DF90CF90BF90AF900895DC0104
:1028F000ED91FC910190F081E02D19940F931F93BD
:10290000CF93DF93EC016DE00E9477148C016AE0B5
:10291000CE010E947714800F911FDF91CF911F91FC
:102920000F9108950F931F93CF93DF93EC010E94B3
:1029300042148C01CE010E947E14800F911FDF9102
:10294000CF911F910F9108950F931F93CF93DF9312
:10295000EC010E942D148C01CE010E947E14800F88
:10296000911FDF91CF911F910F9108958F929F92A8
:10297000AF92BF92CF92DF92EF92FF920F931F938D
:10298000CF93DF93CDB7DEB7A1970FB6F894DEBF34
:102990000FBECDBF6C01142FE52FCB01022F19A262
:1029A000223008F40AE07E0121E2E20EF11C802EC2
:1029B000912CA12CB12C612F7E2FA50194010E9496
:1029C000652F029F1019112481E0E81AF1081A30CE
:1029D00014F4105D01C0195CF7011083122FE32F6E
:1029E000CA01232B242B252B31F7B701C6010E94E6
:1029F0002D14A1960FB6F894DEBF0FBECDBFDF91A8
:102A0000CF911F910F91FF90EF90DF90CF90BF90EB
:102A1000AF909F908F900895CF92DF92EF92FF92A8
:102A20000F931F93CF93DF93EC016A017B01211574
:102A3000310579F4E881F9810190F081E02D642F6E
:102A4000DF91CF911F910F91FF90EF90DF90CF908A
:102A500019942A303105E9F477FF1AC06DE20E941B
:102A600077148C0144275527BA014C195D096E096A
:102A70007F092AE0CE010E94B614800F911FDF91DA
:102A8000CF911F910F91FF90EF90DF90CF9008951D
:102A90002AE0B701A601CE01DF91CF911F910F91DE
:102AA000FF90EF90DF90CF900C94B6149A01AB0199
:102AB000770F660B770B0C940C15FC0180819181CC
:102AC0000C941E2CCF93DF93EC01888199810097A1
:102AD00011F00E941E2C198218821D821C821B82FA
:102AE0001A82DF91CF9108950F931F93CF93DF93B5
:102AF000EC018B016F5F7F4F888199810E94A02A32
:102B0000009731F0998388831B830A8381E001C099
:102B100080E0DF91CF911F910F910895CF93DF93C4
:102B2000EC0188819981892B29F08A819B81861704
:102B3000970760F4CE010E947415882341F08C81C0
:102B40009D81892B19F4E881F981108281E0DF9160
:102B5000CF910895EF92FF920F931F93CF93DF933E
:102B6000EC017B018A01BA010E948E15811104C01B
:102B7000CE010E94621507C01D830C83B7018881B6
:102B800099810E94F52CCE01DF91CF911F910F9179
:102B9000FF90EF900895FC0111821082138212823F
:102BA0001582148216826115710551F0FB010190A6
:102BB0000020E9F73197AF01461B570B0C94AA157B
:102BC0000895CF93DF93EC01FB018617970761F01F
:102BD000608171816115710529F0448155810E94E0
:102BE000AA1502C00E946215CE01DF91CF9108950F
:102BF000FC011182108213821282158214821682C5
:102C00000C94E115CF93DF93EC016115710559F038
:102C1000FB0101900020E9F73197AF01461B570BEC
:102C20000E94AA1502C00E946215CE01DF91CF91C9
:102C300008950F931F93CF93DF93CDB7DEB72997F6
:102C40000FB6F894DEBF0FBECDBF8C01862FF80102
:102C5000118210821382128215821482168250E031
:102C6000BE016F5F7F4F90E00E94FC2CBE016F5F42
:102C70007F4FC8010E94021629960FB6F894DEBF56
:102C80000FBECDBFDF91CF911F910F910895EF92AD
:102C9000FF920F931F93CF93DF93FC012481358123
:102CA0006115710511F480E019C041155105A9F0B5
:102CB0007B01EC018A01020F131FB8010E948E15DF
:102CC000882389F3288139818C819D81B701820F06
:102CD000931F0E94F52C1D830C8381E0DF91CF911F
:102CE0001F910F91FF90EF900895CF93DF931F9264
:102CF0001F92CDB7DEB769831A8241E050E0BE0172
:102D00006F5F7F4F0E9447160F900F90DF91CF911A
:102D10000895CF93DF93EC01FB01448155816081DD
:102D200071810E944716811103C0CE010E94621575
:102D3000CE01DF91CF910895CF93DF93EC010E94F4
:102D40007516811103C0CE010E946215CE01DF917C
:102D5000CF910895FC01248135816217730748F4EF
:102D600080819181009729F0FC01E60FF71F808197
:102D7000089580E008950895FC0124853585F901C2
:102D8000E05CFF4F80819181329620813181821BEE
:102D9000930B8F7399270895DC011C96ED91FC919C
:102DA0001D97DF01A05CBF4F2D913C9111971296AA
:102DB0008D919C9111972817390739F08D919C912D
:102DC000E80FF91F808190E008958FEF9FEF08953D
:102DD000FC01A485B585FD01E05CFF4F20813181B8
:102DE0003296808191812817390779F0808191810D
:102DF000A80FB91F8C91208131812F5F3F4F2F7316
:102E000033273183208390E008958FEF9FEF08955B
:102E1000FC0181A1882329F0A489B5898C9186FFC2
:102E2000FBCF11A208950F931F93CF93DF93FC0163
:102E3000A685B7858D01005C1F4FE80188819981C7
:102E400001968F739927AD014E5B5F4FEA01288190
:102E5000398182179307D1F3E80128813981A20FC4
:102E6000B31F6C93A685B785A05CBF4F11969C934A
:102E70008E93A689B7892C9181E090E0078C02C0DF
:102E8000880F991F0A94E2F7822B8C9381E081A32B
:102E90000488F589E02D80818064808381E090E062
:102EA000DF91CF911F910F910895FB01E05CFF4FDF
:102EB000208131812F5F3F4F2F733327DB01AE5BC2
:102EC000BF4F4D915C912417350741F040815181EE
:102ED000DB01A40FB51F8C933183208308951F92CB
:102EE0000F920FB60F9211240BB60F922F933F93B0
:102EF0004F935F936F937F938F939F93AF93BF9302
:102F0000EF93FF938091C00082FD07C08091C600BF
:102F10006AEF77E00E94551702C08091C600FF91CA
:102F2000EF91BF91AF919F918F917F916F915F9141
:102F30004F913F912F910F900BBE0F900FBE0F90AE
:102F40001F9018951F920F920FB60F9211240BB677
:102F50000F922F933F934F935F936F937F938F9332
:102F60009F93AF93BF93EF93FF938091C80082FD2F
:102F700007C08091CE0062E777E00E94551702C03B
:102F80008091CE00FF91EF91BF91AF919F918F9172
:102F90007F916F915F914F913F912F910F900BBE59
:102FA0000F900FBE0F901F9018951F920F920FB6A3
:102FB0000F9211240BB60F922F933F934F935F9371
:102FC0006F937F938F939F93AF93BF93EF93FF93F1
:102FD0008091D00082FD07C08091D6006AEE76E035
:102FE0000E94551702C08091D600FF91EF91BF91CA
:102FF000AF919F918F917F916F915F914F913F9191
:103000002F910F900BBE0F900FBE0F901F90189531
:103010001F920F920FB60F9211240BB60F922F939F
:103020003F934F935F936F937F938F939F93AF9350
:10303000BF93EF93FF938091300182FD07C0809191
:10304000360162E676E00E94551702C08091360193
:10305000FF91EF91BF91AF919F918F917F916F9170
:103060005F914F913F912F910F900BBE0F900FBE2C
:103070000F901F9018951F920F920FB60F92112468
:103080000BB60F922F933F938F939F93EF93FF93E2
:103090002091F6073091F7078091F8079091F90792
:1030A0002817390731F48091C1008F7D8093C100CA
:1030B00014C0E091F807F091F907EA54F84F208125
:1030C0008091F8079091F90701968F739927909353
:1030D000F9078093F8072093C600FF91EF919F9125
:1030E0008F913F912F910F900BBE0F900FBE0F90BD
:1030F0001F9018951F920F920FB60F9211240BB6C6
:103100000F922F933F938F939F93EF93FF93209171
:103110006E0730916F0780917007909171072817A3
:10312000390731F48091C9008F7D8093C90014C0A4
:10313000E0917007F0917107E25DF84F2081809176
:1031400070079091710701968F739927909371077B
:10315000809370072093CE00FF91EF919F918F9104
:103160003F912F910F900BBE0F900FBE0F901F90AD
:1031700018951F920F920FB60F9211240BB60F9253
:103180002F933F938F939F93EF93FF932091E606A6
:103190003091E7068091E8069091E90628173907F3
:1031A00031F48091D1008F7D8093D10014C0E091E3
:1031B000E806F091E906EA55F94F20818091E8068A
:1031C0009091E90601968F7399279093E906809371
:1031D000E8062093D600FF91EF919F918F913F9148
:1031E0002F910F900BBE0F900FBE0F901F90189550
:1031F0001F920F920FB60F9211240BB60F922F93BE
:103200003F938F939F93EF93FF9320915E063091AE
:103210005F0680916006909161062817390731F4A6
:10322000809131018F7D8093310114C0E09160065F
:10323000F0916106E25EF94F2081809160069091E5
:10324000610601968F7399279093610680936006BB
:1032500020933601FF91EF919F918F913F912F9194
:103260000F900BBE0F900FBE0F901F901895CF922E
:10327000DF92EF92FF920F931F93CF93DF93EC01B6
:103280006A017B014115514E6105710509F1EC8917
:10329000FD8981E090E008A002C0880F991F0A9480
:1032A000E2F7808360E079E08DE390E0A70196018A
:1032B0000E94652F89019A010150110921093109E4
:1032C0003695279517950795980101151041A8F097
:1032D000EC89FD89108260E874E88EE190E0A70136
:1032E00096010E94652FDA01C9010197A109B10970
:1032F000B695A795979587959C01E889F9893083BC
:10330000EA89FB89208319A2EE89FF89408181E047
:1033100090E09C010C8C02C0220F331F0A94E2F74C
:10332000242B2083EE89FF8940819C010D8C02C0F3
:10333000220F331F0A94E2F7242B2083EE89FF89A2
:1033400040819C010E8C02C0220F331F0A94E2F7C9
:10335000242B2083EE89FF8920810F8C02C0880FE7
:10336000991F0A94E2F7809582238083DF91CF91A1
:103370001F910F91FF90EF90DF90CF900895CF9223
:10338000DF92EF92FF92ECEFF5E01382128288EE6B
:10339000C82E83E0D82EE12CF12CC482D582E6829F
:1033A000F78269E672E0718360838AEF97E0958720
:1033B000848786EB97E09787868785EC90E0918BF2
:1033C000808B84EC90E0938B828B80EC90E0958BEB
:1033D000848B81EC90E0978B868B82EC90E0918FD0
:1033E000808F86EC90E0938F828F44E0448F33E0AF
:1033F000358F27E0268F95E0978F81E080A3EAED57
:10340000F5E013821282C482D582E682F78271834C
:103410006083A2E7B7E0B587A487AEE2B7E0B787DD
:10342000A687ADECB0E0B18BA08BACECB0E0B38B79
:10343000A28BA8ECB0E0B58BA48BA9ECB0E0B78B65
:10344000A68BAAECB0E0B18FA08FAEECB0E0B38F4A
:10345000A28F448F358F268F978F80A3E8EBF5E0FE
:1034600013821282C482D582E682F78271836083DE
:10347000AAEEB6E0B587A487A6EAB6E0B787A68726
:10348000A5EDB0E0B18BA08BA4EDB0E0B38BA28B27
:10349000A0EDB0E0B58BA48BA1EDB0E0B78BA68B0F
:1034A000A2EDB0E0B18FA08FA6EDB0E0B38FA28FF8
:1034B000448F358F268F978F80A3E6E9F5E013823E
:1034C0001282C482D582E682F7827183608362E6CB
:1034D00076E0758764876EE176E07787668765E3D7
:1034E00071E0718B608B64E371E0738B628B60E3DE
:1034F00071E0758B648B61E371E0778B668B62E3BF
:1035000071E0718F608F66E371E0738F628F448F1B
:10351000358F268F978F80A3FF90EF90DF90CF900D
:1035200008954F925F926F927F92AF92BF92CF9227
:10353000DF92EF92FF920F931F93CF93DF93CDB75C
:10354000DEB729013A019B01AC012419350946096E
:1035500057098A899B89AC89BD89BC01CD016A194B
:103560007B098C099D090E94412FA801970124190C
:103570003509460957090E94872FCA01B9016A0D0A
:103580007B1D8C1D9D1DDF91CF911F910F91FF9091
:10359000EF90DF90CF90BF90AF907F906F905F9053
:1035A0004F9008952F923F924F925F926F927F9229
:1035B0008F929F92AF92BF92CF92DF92EF92FF9243
:1035C0000F931F93CF93DF9300D0CDB7DEB74C019D
:1035D0007B836A836A01590117019801241B350B0B
:1035E00037FF03C0319521953109C5014A815B81BF
:1035F000841B950B97FF03C091958195910951E02C
:1036000059838217930714F019820BC09A2D8B2DC2
:103610005801092F182F9A818B81DB82CA82C92E0B
:10362000D82E8A819B81A816B9065CF49C2D8D2D1D
:103630006801092F182F9A818B81BB82AA82A92E3B
:10364000B82E2501AA81BB814A1A5B0A38016C1881
:103650007D0877FE03C0719461947108720157FE72
:1036600003C0BFEFEB1AFB0AF594E794C016D1062E
:103670001CF00FEF1FEF1FC001E010E01CC0D401D1
:10368000ED91FC91B9810084F185E02D9101BB237E
:10369000C1F04A815B81B601C4011995E618F708AB
:1036A000F7FE04C0C00ED11EE40CF51CEA81FB81BC
:1036B0003196FB83EA834A815B81A416B506FCF64A
:1036C00004C0A6016A817B81E7CF0F900F900F9015
:1036D000DF91CF911F910F91FF90EF90DF90CF90EE
:1036E000BF90AF909F908F907F906F905F904F9022
:1036F0003F902F9008950895DC01ED91FC91048096
:10370000F581E02D19940F931F93DC01ED91FC914D
:10371000008CF18DE02D19951F910F9108950F9355
:103720001F93DC01ED91FC91028CF38DE02D199536
:103730001F910F910895EF92FF920F931F93DC0159
:10374000ED91FC91048CF58DE02D19951F910F9151
:10375000FF90EF9008950895AF92BF92CF92DF92BD
:10376000EF92FF920F931F93CF93DF9300D01F929E
:10377000CDB7DEB75C016901DC01ED91FC910680FB
:10378000F781E02D4B835C8369837A831995D5019A
:10379000ED91FC914B815C81C40ED51EB1E0CB1A3A
:1037A000D1080088F189E02D7801860169817A814C
:1037B0009B01C5011995D501ED91FC910288F38912
:1037C000E02DC5010F900F900F900F90DF91CF91DA
:1037D0001F910F91FF90EF90DF90CF90BF90AF902F
:1037E0001994AF92BF92CF92DF92EF92FF920F9314
:1037F0001F93CF93DF9300D01F92CDB7DEB75C014C
:103800006901DC01ED91FC910680F781E02D4B838D
:103810005C8369837A831995D501ED91FC91698167
:103820007A819B012C0D3D1D215031090088F189C1
:10383000E02D78014B815C818A01C5011995D50184
:10384000ED91FC910288F389E02DC5010F900F9056
:103850000F900F90DF91CF911F910F91FF90EF90FC
:10386000DF90CF90BF90AF9019944F925F926F927C
:103870007F928F929F92AF92BF92CF92DF92EF9200
:10388000FF920F931F93CF93DF931F921F92CDB799
:10389000DEB76C015A0139014801DC01ED91FC9160
:1038A0000680F781E02D69837A8319956981462E18
:1038B0007A81572E640C751CD601ED91FC9146144B
:1038C00057046CF40484F585E02D87019401A5016B
:1038D000B201C6011995BFEF4B1A5B0AEDCF028802
:1038E000F389E02DC6010F900F90DF91CF911F91CA
:1038F0000F91FF90EF90DF90CF90BF90AF909F908F
:103900008F907F906F905F904F901994EF92FF92FD
:103910000F931F93DC01ED91FC9111971A960D9175
:103920001C911B9718962D913C911997048CF58D3D
:10393000E02D7B0140E050E060E070E019951F91C0
:103940000F91FF90EF900895CF92DF92EF92FF9248
:103950000F931F93CF93DF9300D000D0CDB7DEB786
:103960006C01DC01ED91FC916217730789F4041777
:1039700015072CF4942F852FA801092F182F041B4D
:10398000150B98012F5F3F4F008CF18DE02D12C079
:103990004017510709F5261737072CF4962F872F64
:1039A000B901292F382F261B370B2F5F3F4F028C71
:1039B000F38DE02D8701C601199526960FB6F89470
:1039C000DEBF0FBECDBFDF91CF911F910F91FF9052
:1039D000EF90DF90CF9008950680F781E02D2D8342
:1039E0003E834B835C8369837A831995D601ED917D
:1039F000FC910088F189E02D2D813E814B815C8115
:103A000069817A81C6011995D601ED91FC910288F0
:103A1000F389E02DC60126960FB6F894DEBF0FBEDF
:103A2000CDBFDF91CF911F910F91FF90EF90DF906D
:103A3000CF9019946F927F928F929F92AF92BF9284
:103A4000CF92DF92EF92FF920F931F93CF93DF936A
:103A5000EC014B015A0169013801E881F9810680C6
:103A6000F781E02D1995E881F9810684F785E02D2D
:103A700087019601A501B401CE011995E881F9816C
:103A8000A501460D571D415051090684F785E02DCB
:103A90009601B401CE011995E881F9810484F58578
:103AA000E02D9301A501B401CE011995E881F981BA
:103AB000C80CD91CB601615071090484F585E02D4C
:103AC0009301A501CE011995E881F9810288F38956
:103AD000E02DCE01DF91CF911F910F91FF90EF90DC
:103AE000DF90CF90BF90AF909F908F907F906F901E
:103AF00019940895FC016370658B848195812681FA
:103B00003781613039F0633029F0918780873387BE
:103B10002287089531872087938782870895FC0143
:103B20001382128289E792E0918380837583648394
:103B3000578346837187608753874287158A158626
:103B400014861786168681E0848B2FEF3FEF338B28
:103B5000228B318B208B868B178A118E108E0895C5
:103B60002F923F924F925F926F927F928F929F928D
:103B7000AF92BF92CF92DF92EF92FF920F931F937B
:103B8000CF93DF93CDB7DEB7AE970FB6F894DEBF15
:103B90000FBECDBF9A8389837EA76DA73A01290105
:103BA00048011601B88EAF8A041715077CF4892DD9
:103BB000C416D5060CF0CAC146011A01602E782E33
:103BC000852D27017B012DA78EA70DC0C016D1061C
:103BD000C4F4982D892D4101292E382E942D852D40
:103BE0002701E92EF82E861497045CF4962D872D74
:103BF0003401892E982E9DA58EA55EA64DA6492E30
:103C0000582EA981BA81ED91FC9111970680F78118
:103C1000E02DCD0119956214730451F5EDA5FEA5B3
:103C20004E165F062CF0942D852D2F019DA78EA793
:103C3000E414F50444F02DA53EA52E153F0514F41B
:103C4000FEA6EDA67201A981BA81ED91FC911197B2
:103C50002DA53EA52E193F092F5F3F4F0684F785FE
:103C6000E02D0F89188DA301B701CD0119954CC125
:103C7000C201EDA5FEA58E1B9F0B940126193709E5
:103C8000A7014E1B5F0B58874F83B1016619770957
:103C90007C876B87D701A419B509B88BAF87F10171
:103CA000E819F909FA8FE98F64018214930419F075
:103CB000F1E0CF1AD10853011B8A1C8A1D8A1E8A83
:103CC0001B821C821D821E82A901330F660B770B9B
:103CD0004D8F5E8F6F8F78A32B853C85032E000C54
:103CE000440B550B29A33AA34BA35CA3AC01990F3A
:103CF000660B770B4DA35EA36FA378A76F817885C2
:103D0000072E000C880B990B69A77AA78BA79CA795
:103D1000CA14DB040CF45AC06B817C818D819E81B6
:103D20002D8D3E8D4F8D58A10E94872FEDA4FEA4AE
:103D3000E20EF31E6B897C898D899E8929A13AA1A7
:103D40004BA15CA10E94872F8DA59EA5280F391F2E
:103D50004B815C816D817E818DA19EA1AFA1B8A5B3
:103D6000480F591F6A1F7B1F4B835C836D837E83C3
:103D70004B895C896D897E8989A59AA5ABA5BCA56F
:103D8000480F591F6A1F7B1F4B8B5C8B6D8B7E8B83
:103D90002E153F052CF49E2D8F2D7901292F382FBC
:103DA000A981BA81ED91FC9111972E193F092F5FDE
:103DB0003F4F0684F785E02D0F89188DA501B701C7
:103DC000CD011995BFEFAB1ABB0AA2CF95012819F7
:103DD0003909EF85F889E29FC001E39F900DF29FBA
:103DE000900D11249C01990F440B550B2B833C83A0
:103DF0004D835E83C501861997094F815885489F79
:103E00006001499FD00C589FD00C11240D2C000C40
:103E1000EE08FF08698D7A8D072E000C880B990B30
:103E2000698F7A8F8B8F9C8F8B859C85092E000CD8
:103E3000AA0BBB0B8B879C87AD87BE879F01032E88
:103E4000000C440B550B2F87388B498B5A8B4F81B5
:103E50005885052E000C660B770B4F8358876987B2
:103E60007A872A143B040CF44FC06B817C818D81CE
:103E70009E81298D3A8D4B8D5C8D0E94872F42014A
:103E8000820E931EC701B6012B853C854D855E854C
:103E90000E94872F6DA57EA5260F371F8B819C81E1
:103EA000AD81BE814F85588969897A89840F951FB4
:103EB000A61FB71F8B839C83AD83BE836F817885DC
:103EC00089859A85C60ED71EE81EF91E2815390564
:103ED0002CF4982D892D4901292F382FA981BA81D9
:103EE000ED91FC911197281939092F5F3F4F0684F6
:103EF000F785E02D0F89188DA501B401CD01199525
:103F0000BFEFAB1ABB0AADCFA981BA81ED91FC918D
:103F100011970288F389E02DCD01AE960FB6F89483
:103F2000DEBF0FBECDBFDF91CF911F910F91FF90EC
:103F3000EF90DF90CF90BF90AF909F908F907F9049
:103F40006F905F904F903F902F9019944A01602E90
:103F5000782E852D4DA45EA42DA78EA752CE2F922C
:103F60003F924F925F926F927F928F929F92AF9209
:103F7000BF92CF92DF92EF92FF920F931F93CF9356
:103F8000DF93CDB7DEB76C970FB6F894DEBF0FBEE8
:103F9000CDBF9C8F8B8F5B011A011F830E8337016E
:103FA000C982DC0158964D915C9159974115510594
:103FB00009F0E5C018968D919C91199768177907BB
:103FC0000CF0CAC11A968D919C911B972816390640
:103FD0000CF0C2C18C2C912CFB0136E0C39EE00D8D
:103FE000F11D1124FB87EA871E161F060CF0B4C1D1
:103FF000C40133E0880F991F3A95E1F79D878C87BC
:10400000820D931D181619060CF0A6C157968C91B7
:10401000811103C0203B08F02F5FAB8DBC8DED916B
:10402000FC9111970680F781E02DCD012A8F19951B
:104030002A8DB5E02B9F90011124F5013596FF875D
:10404000EE872501BB82AA82A9014A195B09598B17
:10405000488BC10108969B8B8A8BE889F989E40D0E
:10406000F51DE650FD4F949198873D822C826101A9
:10407000A885A0FF13C0AB8DBC8DED91FC91B981DB
:10408000B13031F40084F185E02D2E813F8116C0DE
:104090000284F385E02DEE80FF801AC0EE81FF815F
:1040A0006E167F06F1F0AB8DBC8DED91FC91B98160
:1040B000B13051F40084F185E02D9301A601B201E5
:1040C0008B8D9C8D19950DC00284F385E02D7301B5
:1040D000840194014C815D816A817B818B8D9C8DF3
:1040E0001995E885E695E8872C813D81280D391DD5
:1040F0003D832C833FEFC31AD30A4A895B89C416D8
:10410000D50609F0B5CF8A819B81880D991D9B83C7
:104110008A839FEF491A590AAE85BF854A165B0606
:1041200009F09BCFEE81FF816E167F0609F4F2C085
:10413000EB8DFC8DA081B181F981F13079F4B5016D
:104140006B5F7F4F1C96ED91FC911D97830128E0DA
:1041500030E0A1018B8D9C8D1995DCC06A857B8533
:10416000681979091A96ED91FC911B9773010C85DA
:104170001D859401A1018B8D9C8D1995CBC0FA01F1
:1041800034969491329765917491291BCB01B7E0D5
:104190002B9F800D911D1124FA01259134913B8BA9
:1041A0002A8BFC01459154915B834A83FC01329632
:1041B000C490319654915C87329614913196D49084
:1041C0008981823058F0612E012E000C7708AD2DC8
:1041D0000D2C000CBB0BB987A88704C01986188664
:1041E000612C712CAB8DBC8DED91FC9111970680EB
:1041F000F781E02DCD011995B9818B2E912C689C0A
:10420000C001699C900D789C900D1124FC01EA0D71
:10421000FB1DF98BE88B1C82712C612CE12F110F97
:10422000FF0B95012E0F3F1F3B872A87AC0CB11C5B
:10423000A5014E0F5F1F5F8B4E8BC1018D0D911D30
:10424000D7FC9A95998F888F4C85641608F062C0C8
:10425000862D90E048855985480F591F489D90014B
:10426000499D300D589D300D1124D901A20DB31D6B
:10427000BF87AE87AA84BB8448885988DC80BA850A
:10428000DB1AE88DF98DE80FF91FFD8BEC8B8D2D76
:104290008A0D2E893F89A216B306B9F1877061F4A1
:1042A0008A819B810196EA89FB89AA81BB81EA0FF9
:1042B000FB1F74909B838A8377FE20C0AB8DBC8DDF
:1042C000ED91FC91B981B13061F40084F185E02D6C
:1042D0002E813F814C895D89B5018B8D9C8D19950F
:1042E0000DC00284F385E02DEE80FF8084019401EF
:1042F0004E855F85B2018B8D9C8D1995770C480C8E
:10430000591CEFEFAE1ABE0AC2CF3C813C0D3C8374
:1043100063949ACFAB8DBC8DED91FC91119702887F
:10432000F389E02DCD016C960FB6F894DEBF0FBE79
:10433000CDBFDF91CF911F910F91FF90EF90DF9054
:10434000CF90BF90AF909F908F907F906F905F9035
:104350004F903F902F9019946C960FB6F894DEBF53
:104360000FBECDBFDF91CF911F910F91FF90EF90C6
:10437000DF90CF90BF90AF909F908F907F906F9085
:104380005F904F903F902F900895AF92BF92CF9241
:10439000EF92FF920F931F93CF93DF93EC01262FA1
:1043A000888D998D009709F040C06A3059F41D86B8
:1043B0001C862C898E859F8538E0239F800D911D5A
:1043C000112441C06D3009F4AAC08E898823C1F040
:1043D0003C898C859D8546E0349F800D911D11247C
:1043E00048855985481759075CF41D861C868E85BB
:1043F0009F8548E0349F800D911D11249F878E87F3
:10440000EA88FB88088919894E855F856C857D85DA
:10441000CC88CE010E94AF1F2C898C859D8536E00B
:10442000239F800D911D112442C06A3079F41D86AE
:104430001C862C89FC013696E4918E859F852E9FE3
:10444000800D911D11249F878E8769C06D3009F4FE
:1044500066C0FC0134963491631708F460C031964D
:10446000E491E61708F45BC0FC013296A590B49085
:10447000462F50E0431B510937E0349FB001359F70
:10448000700D1124A60EB71EF501329634913196A7
:10449000E491332311F0E1110DC0F5013496E4915C
:1044A0002C898C859D85E29F800D911D11249D870F
:1044B0008C8735C0F501359644915E89552311F1FD
:1044C0006C89E32FF0E0E40FF11D47FDFA956E9F34
:1044D000D0016F9FB00D11244C855D854A0F5B1F85
:1044E000E885F985E417F5076CF41D861C86FC0148
:1044F0003696E4918E859F856E9F800D911D1124C7
:104500009F878E87EA88FB88088919894E855F8591
:104510006C857D85CC88CE010E94AF1FBECF81E027
:1045200090E0DF91CF911F910F91FF90EF90CF908E
:10453000BF90AF900895FC017587648757874687C1
:104540000895611101C061E0FC01648B0895FC01D4
:10455000738B628B718B608B0895FC01718B608B08
:10456000538B428B0895DC019C96ED91FC919D97B5
:104570009081D1968C91892B80830895EF92FF9240
:104580000F931F93DC01ED91FC910284F385E02DE4
:104590007801890121E030E019951F910F91FF907A
:1045A000EF900895EF92FF920F931F93DC01ED912E
:1045B000FC910284F385E02D780101E010E019956B
:1045C0001F910F91FF90EF9008950F931F93CF933A
:1045D000DF9300D000D0CDB7DEB78C01DC01ED91C8
:1045E000FC910680F781E02D2D833E834B835C8315
:1045F00069837A831995D801ED91FC910084F18546
:10460000E02D2D813E814B815C8169817A81C801D9
:104610001995D801ED91FC910288F389E02DC8012C
:1046200026960FB6F894DEBF0FBECDBFDF91CF91B7
:104630001F910F911994EF92FF920F931F93CF93B5
:10464000DF9300D000D0CDB7DEB77C01DC01ED9167
:10465000FC910680F781E02D2D833E834B835C83A4
:1046600069837A831995D701ED91FC910484F585CE
:10467000E02D2D813E814B815C8169817A81C7016A
:104680001995D701ED91FC910288F389E02DC701BE
:1046900026960FB6F894DEBF0FBECDBFDF91CF9147
:1046A0001F910F91FF90EF901994EF92FF920F934B
:1046B0001F93CF93DF9300D000D0CDB7DEB77C013E
:1046C000DC01ED91FC910680F781E02D2D833E8386
:1046D0004B835C8369837A831995D701ED91FC91B3
:1046E0000684F785E02D2D813E814B815C816981B7
:1046F0007A81C7011995D701ED91FC910288F38960
:10470000E02DC70126960FB6F894DEBF0FBECDBFD1
:10471000DF91CF911F910F91FF90EF901994CF925D
:10472000DF92EF92FF920F931F93CF93DF9300D00E
:1047300000D0CDB7DEB76C01DC01ED91FC910680B5
:10474000F781E02D2D833E834B835C8369837A83DD
:104750001995D601ED91FC910284F385E02D2D8110
:104760003E814B815C8169817A81C6011995D601B0
:10477000ED91FC910288F389E02DC60126960FB6D3
:10478000F894DEBF0FBECDBFDF91CF911F910F9187
:10479000FF90EF90DF90CF901994CF93DF93EC01CF
:1047A00089A187FF09C084E00E94DA2C81E00E9481
:1047B000CC2C80E00E94D52CECA5FDA5908189A988
:1047C000809589238083DF91CF910895EF92FF92A6
:1047D0000F931F93CF93DF931F92CDB7DEB77C016A
:1047E000062F142F40E451E060EF70E029830E940F
:1047F0008F1D81EA92E0D70111969C938E935E966D
:104800000C935E975F961C935F97298190962C93EB
:1048100090978FEF91968C93919792968C93929715
:1048200093968C939397F701128E138E148E158E98
:10483000602F000F770BFB01EA59FD4F8491E82FA1
:10484000F0E0EE0FFF1FEA53FD4F859194919D9686
:104850009C938E939C97FB01E05EFD4FE491D19673
:10486000EC93D197412F110F550BFA01EA59FD4FE7
:10487000E491F0E0EE0FFF1FEA53FD4F8591949114
:10488000F70193A782A7FA01E05EFD4FE491D2966B
:10489000EC93D29799961C921E929897D0961C9260
:1048A000D09795961C921E9294979E961C929E97D6
:1048B00097961C921E9296979F961C920F90DF914E
:1048C000CF911F910F91FF90EF900895FC0181A16E
:1048D00087FF05C06EBD0DB407FEFDCF089528E02B
:1048E00030E090E8A4A1B5A186A5492F462319F090
:1048F0004C91842B03C04C91809584238C93A0A56C
:10490000B1A54C9180A9809584238C93A0A5B1A5D5
:104910004C9180A9842B8C9396952150310911F7E5
:104920000895CF93DF93EC01EAA5FBA590818AA9B6
:10493000809589238083CE010E946624EAA5FBA589
:1049400090818AA9892B8083DF91CF910895CF939D
:10495000DF93EC01411551056105710521F440E03B
:1049600052E16AE770E04A8F5B8F6C8F7D8F61E068
:104970008F8D0E94701360E08F8D0E94AC1361E0F8
:104980008E8D0E94701361E08E8D0E94AC1389A100
:1049900087FD16C061E08AA10E94701360E08AA1C1
:1049A0000E94AC1361E089A10E94701361E089A1AB
:1049B0000E94AC138BA187FD03C060E00E947013BE
:1049C00089A187FD0E94B62C88A187FD21C061E0E6
:1049D0000E94701361E088A10E94AC1364E670E04D
:1049E00080E090E00E94671260E088A10E94AC1312
:1049F00064E670E080E090E00E94671261E088A1C8
:104A00000E94AC1368EC70E080E090E00E946712B6
:104A1000E881F9810680F781E02DCE0119956FEECE
:104A2000CE010E94912463E0CE010E94662460E8DA
:104A3000CE010E94662462E0CE010E9466246FECE3
:104A4000CE010E94912460E0CE010E94662461ECB8
:104A5000CE010E94662460E3CE010E9466246DEEC2
:104A6000CE010E94912464E6CE010E94662463E098
:104A7000CE010E94662462E1CE010E94662461E8B4
:104A8000CE010E94662468EECE010E94912465E862
:104A9000CE010E94662460E0CE010E94662468E791
:104AA000CE010E9466246BECCE010E94912469E342
:104AB000CE010E9466246CE2CE010E94662460E072
:104AC000CE010E94662464E3CE010E94662462E067
:104AD000CE010E94662467EFCE010E94912460E21D
:104AE000CE010E9466246AEECE010E94912460E00D
:104AF000CE010E94662460E0CE010E94662460EC34
:104B0000CE010E94912463E2CE010E94662461ECF2
:104B1000CE010E94912460E1CE010E94662465ECE2
:104B2000CE010E9491246EE3CE010E94662468E2C9
:104B3000CE010E94662467ECCE010E94912466E8B3
:104B4000CE010E94662466E3CE010E94912468E4AF
:104B5000CE010E94662467E3CE010E94912489A1C0
:104B600087FF09C01EBC0DB407FEFDCF1EBC0DB4EF
:104B700007FEFDCF08C060E0CE010E94662460E021
:104B8000CE010E9466246AE3CE010E94912465E56D
:104B9000CE010E94662461EBCE010E94912460E068
:104BA000CE010E94662468E1CE010E94662466EB75
:104BB000CE010E94912468E0CE010E94662462E842
:104BC000CE010E94662467E2CE010E94662462EF55
:104BD000CE010E94912460E0CE010E94662466E22C
:104BE000CE010E94912461E0CE010E94662460EE15
:104BF000CE010E9491246FE0CE010E94662461E301
:104C0000CE010E9466246BE2CE010E9466246CE015
:104C1000CE010E9466246EE0CE010E94662468E008
:104C2000CE010E9466246EE4CE010E94662461EFEC
:104C3000CE010E94662467E3CE010E94662467E0ED
:104C4000CE010E94662460E1CE010E94662463E0EA
:104C5000CE010E9466246EE0CE010E94662469E0C7
:104C6000CE010E94662460E0CE010E94662461EEBF
:104C7000CE010E94912460E0CE010E9466246EE085
:104C8000CE010E94662464E1CE010E94662463E0A6
:104C9000CE010E94662461E1CE010E94662467E095
:104CA000CE010E94662461E3CE010E94662461EC7D
:104CB000CE010E94662468E4CE010E94662468E06A
:104CC000CE010E9466246FE0CE010E9466246CE053
:104CD000CE010E94662461E3CE010E94662466E351
:104CE000CE010E9466246FE0CE010E94662461E13D
:104CF000CE010E94912468E770E080E090E00E947D
:104D0000671269E2CE010E94912468E770E080E0BA
:104D100090E00E946712E881F9810288F389E02D12
:104D2000CE01199580EF90E09987888780E491E023
:104D30009B878A87DF91CF9108951F93CF93DF934D
:104D4000EC0163706D8B6230C1F0633001F1613052
:104D500051F080EF90E09987888780E491E09B870D
:104D60008A8718E41DC080E491E09987888780EFE6
:104D700090E09B878A8718E213C080EF90E09987C4
:104D8000888780E491E09B878A8718E809C080E4DF
:104D900091E09987888780EF90E09B878A8718EE5B
:104DA000E881F9810680F781E02DCE01199566E34F
:104DB000CE010E949124612FCE010E946624E881D9
:104DC000F9810288F389E02DCE01DF91CF911F9107
:104DD00019940F931F93CF93DF931F92CDB7DEB734
:104DE0008C01DC01ED91FC910680F781E02D698357
:104DF00019956981611102C060E201C061E2C801D8
:104E00000E949124D801ED91FC910288F389E02D54
:104E1000C8010F90DF91CF911F910F9119948F923C
:104E20009F92AF92BF92CF92DF92EF92FF920F9339
:104E30001F93CF93DF93EC01490181E0881A910819
:104E4000860E971EC401A0E0B0E04B01A12CB12C4E
:104E5000540199248824882A992AAA2ABB2A6801FD
:104E600081E0C81AD108C40ED51EC601A0E0B0E08A
:104E70006A01E12CF12C7601DD24CC24C82AD92A40
:104E8000EA2AFB2A6AE2CE010E94912429A16B2D15
:104E900077278827992727FF18C06EBD0DB407FE16
:104EA000FDCFC501AA27BB278EBD0DB407FEFDCFE0
:104EB000BB27AB2D9A2D892D8EBD0DB407FEFDCFDE
:104EC0008EBC0DB407FEFDCF14C0CE010E94662437
:104ED000B50188279927CE010E94662499278B2D3A
:104EE0007A2D692DCE010E946624682DCE010E9484
:104EF00066246BE2CE010E94912429A16F2D7727B1
:104F00008827992727FF18C06EBD0DB407FEFDCF77
:104F1000C701AA27BB278EBD0DB407FEFDCFBB2757
:104F2000AF2D9E2D8D2D8EBD0DB407FEFDCFCEBCB9
:104F30000DB407FEFDCF14C0CE010E946624B70158
:104F400088279927CE010E94662499278F2D7E2DD0
:104F50006D2DCE010E9466246C2DCE010E94662428
:104F60006CE2CE01DF91CF911F910F91FF90EF90F6
:104F7000DF90CF90BF90AF909F908F900C94912432
:104F80001F93CF93DF93262FFC0131A137FF09C078
:104F90007EBD0DB407FEFDCF2EBD0DB407FEFDCFC7
:104FA0000CC0672F122FEC010E946624612FCE01E6
:104FB000DF91CF911F910C946624DF91CF911F91C7
:104FC0000895EF92FF920F931F93CF93DF9377FD96
:104FD00023C0DC011896ED91FC9119976E177F079D
:104FE000DCF457FD19C01A96ED91FC911B974E17F2
:104FF0005F0794F47901EC0101E010E021E030E07A
:105000000E940F27B701CE01DF91CF911F910F9121
:10501000FF90EF900C94C027DF91CF911F910F91DB
:10502000FF90EF900895EF92FF921F93CF93DF933D
:1050300000D01F921F92CDB7DEB77C01162FFC0166
:1050400081A187FF12C0211531054105510549F1A4
:105050007EBD0DB407FEFDCF1EBD0DB407FEFDCF16
:105060002150310941095109EECF21153105410582
:105070005105B9F0672FC70129833A834B835C83BD
:105080007D830E946624612FC7010E9466242981C6
:105090003A814B815C8121503109410951097D815F
:1050A000E4CF0F900F900F900F900F90DF91CF9162
:1050B0001F91FF90EF9008958F929F92AF92BF92B1
:1050C000CF92DF92EF92FF920F931F93CF93DF93D4
:1050D0005C01FB01E9014701DC0118962D913C912F
:1050E0001997621773070CF049C01A968D919C911D
:1050F0001B97481759070CF041C06B01CC0EDD1E01
:10510000D60111977A01E00EF11EB70161507109C5
:10511000B7FD34C077FD32C0F7FF03C0E601E0E021
:10512000F0E057FF03C0870140E050E0A217B3074B
:105130001CF0E901CE1BDF0B681779071CF08C010E
:10514000041B150B9E01D8010E94AE2F6B017C0140
:10515000BF01C5010E940F27A7019601B401C50137
:10516000DF91CF911F910F91FF90EF90DF90CF9043
:10517000BF90AF909F908F900C941328DF91CF91A8
:105180001F910F91FF90EF90DF90CF90BF90AF9065
:105190009F908F9008954F925F926F927F929F920F
:1051A000AF92BF92CF92DF92EF92FF920F931F9335
:1051B000CF93DF9300D000D0CDB7DEB78C0160E095
:1051C000DC0112968C910E94701360E0F8018381DB
:1051D0000E94701361E0D80115968C910E947013A3
:1051E00061E0F80184810E947013D80150968C917F
:1051F00050971896ED91FC9119979081892B808397
:1052000051969C9151971C96ED91FC911D97808130
:10521000282F30E0892F90E080959095822393236A
:10522000808312968C910E94F9127C01F801828190
:105230000E94F9129701281B390B2C5F3F4F293030
:10524000310548F4A701480F591FCA019595879564
:105250009924939401C0912C2FEF33E07901E81A3F
:10526000F90A60E0D80115968C910E94701360E0F5
:10527000F80184810E94701361E0D80112968C912C
:105280000E94701361E0F80183810E947013D801BD
:1052900053969C9153971E96ED91FC911F97808198
:1052A000282F30E0892F90E08095909582239323DA
:1052B000808352968C9152971A96ED91FC911B9790
:1052C0009081892B808314968C910E94F9126C0135
:1052D000F80184810E94F912A601481B590B4C5F0A
:1052E0005F4F4930510538F49601280F391FC90125
:1052F0009595879501C0912C4FEF53E06A01C81A2C
:10530000D90A61E0D80115968C910E94701360E073
:10531000F80182810E947013D80150969C91509799
:105320001896ED91FC9119978081282F30E0892FF4
:1053300090E08095909582239323808353968C915F
:1053400053971E96ED91FC911F979081892B808336
:1053500014968C910E94F9125C01F80182810E94DE
:10536000F912D80116960D911C9117970115110588
:1053700009F43FC0BC01990F880B990B0E94382E8D
:105380002B013C01B501BB0C880B990B0E94382EF8
:105390009B01AC01C301B2010E948E2D20E030E0E0
:1053A00040E85FE30E94212D2B013C01B7010F2C47
:1053B000000C880B990B0E94382E9B01AC01C30195
:1053C000B2010E94C42E2B013C01B80180E090E0A4
:1053D0000E94362E9B01AC01C301B2010E94C42E73
:1053E00020E030E040E85AE30E94C42E0E94002EE4
:1053F00005C0B501681B790B61507C4F911002C04C
:1054000060E070E0FA82E982DC82CB827E836D8389
:105410002E2D3A814C2D5C817E8180E090E0269695
:105420000FB6F894DEBF0FBECDBFDF91CF911F91B5
:105430000F91FF90EF90DF90CF90BF90AF909F9033
:105440007F906F905F904F900895EF92FF920F932F
:105450001F93DC0112964C93129714962C93149779
:1054600013960C93139715966C9315971796FC92B9
:10547000EE92169770E0FB01EA59FD4FE491F0E0DF
:10548000EE0FFF1FEA53FD4F8591949119969C935F
:105490008E93189750E0FA01EA59FD4FE491F0E03D
:1054A000EE0FFF1FEA53FD4F859194911B969C933D
:1054B0008E931A9730E0F901EA59FD4FE491F0E03C
:1054C000EE0FFF1FEA53FD4F859194911D969C931B
:1054D0008E931C9710E0F801EA59FD4F849190E0FB
:1054E000880F991F8A539D4FFC01859194911F96B7
:1054F0009C938E931E97FB01E05EFD4F6491509646
:105500006C935097FA01E05EFD4F449152964C9394
:105510005297F901E05EFD4F249151962C935197DB
:10552000F801E05EFD4F049153960C9353978AE087
:1055300090E08D939C931F910F91FF90EF900895B1
:105540006F927F928F929F92AF92BF92CF92DF9293
:10555000EF92FF920F931F93CF93DF93EC0100978D
:1055600089F4CB01DF91CF911F910F91FF90EF90C4
:10557000DF90CF90BF90AF909F908F907F906F9073
:105580000C94892BFC01E60FF71F9C012250310976
:10559000E217F30708F4ACC0D9010D911C911197E3
:1055A00006171707B0F00530110508F49FC0C801B1
:1055B00004978617970708F499C002501109061B33
:1055C000170B019311936D937C93CF010E941E2CB6
:1055D0008DC05B01A01AB10A4C01800E911EA091F2
:1055E0004008B091410840E050E0E12CF12C1097C8
:1055F00009F44AC0A815B905D1F56D907C901197B2
:10560000630182E0C80ED11CCA14DB0480F1A3013F
:105610004A195B096A0182E0C80ED11C1296BC903F
:1056200012971396AC91B5E0CB16D10440F0B2823C
:10563000A38351834083D9016D937C930AC00E5F8D
:105640001F4FC301800F911FF90191838083EB2DC0
:10565000FA2FE114F10431F0D7011396FC93EE9385
:10566000129744C0F0934108E09340083FC08D91E9
:105670009C9111974817590708F4AC017D011296C7
:105680000D90BC91A02DB3CF80913E0890913F0822
:1056900088159905E1F446175707C8F4809103026D
:1056A00090910402009741F48DB79EB74091070294
:1056B00050910802841B950BE817F907C8F4F09382
:1056C0003F08E0933E08F901718360830FC0CB016E
:1056D0000E94892B7C01009759F0A801BE010E940D
:1056E000EC2CCE010E941E2CC70104C0CE0102C0CA
:1056F00080E090E0DF91CF911F910F91FF90EF90AC
:10570000DF90CF90BF90AF909F908F907F906F90E1
:105710000895CF93DF938230910510F482E090E0FA
:10572000E0914008F091410820E030E0C0E0D0E096
:10573000309711F14081518148175907C0F048173F
:10574000590761F482819381209719F09B838A83A2
:105750002BC0909341088093400826C02115310545
:1057600019F04217530718F49A01BE01DF01EF0147
:105770000280F381E02DDCCF2115310509F1281BD2
:10578000390B2430310590F412968D919C9113972A
:105790006115710521F0FB019383828304C090930E
:1057A000410880934008FD01329644C0FD01E20F9C
:1057B000F31F81939193225031092D933C933AC06A
:1057C00020913E0830913F08232B41F4209105029F
:1057D0003091060230933F0820933E082091030247
:1057E000309104022115310541F42DB73EB74091A7
:1057F000070250910802241B350BE0913E08F091FE
:105800003F08E217F307A0F42E1B3F0B28173907B8
:1058100078F0AC014E5F5F4F2417350748F04E0F0C
:105820005F1F50933F0840933E088193919302C0BD
:10583000E0E0F0E0CF01DF91CF9108950F931F9347
:10584000CF93DF93009709F48CC0FC013297138249
:10585000128200914008109141080115110581F450
:1058600020813181820F931F20913E0830913F08A3
:105870002817390779F5F0933F08E0933E0871C087
:10588000D80140E050E0AE17BF0750F412962D91BA
:105890003C911397AD012115310509F1D901F3CFE1
:1058A0009D01DA013383228360817181860F971F06
:1058B0008217930769F4EC0128813981260F371F7D
:1058C0002E5F3F4F318320838A819B819383828324
:1058D000452B29F4F0934108E093400842C0139609
:1058E000FC93EE931297ED01499159919E01240F7B
:1058F000351FE217F30771F480819181840F951FA2
:10590000029611969C938E938281938113969C9319
:105910008E931297E0E0F0E0D80112968D919C9161
:105920001397009719F0F8018C01F6CF8D919C9197
:1059300098012E5F3F4F820F931F20913E083091B8
:105940003F082817390769F4309729F41092410865
:105950001092400802C01382128210933F080093F5
:105960003E08DF91CF911F910F91089561E085E38B
:105970000E94AC1361E085E30E9470138CB58061D6
:105980008CBD8CB580648CBD61E084E30E94701393
:1059900061E083E30C947013811103C08CB58062C5
:1059A00002C08CB58F7D8CBD08959CB5937F892BEB
:1059B0008CBD08959CB5282F23709C7F922B9CBD95
:1059C0002DB582FB992790F9822F8E7F892B8DBD73
:1059D0000895F8940C940130FB01DC0102C00190A1
:1059E0000D9241505040D8F70895FB01DC01019021
:1059F0000D920020E1F708954532510520F4423020
:105A000010F00C94072DFB011082CB010895BB27E9
:105A1000FB015527AA27880F991FAA1FA41710F06A
:105A2000A41B83955051B9F7A05DAA3308F0A95D76
:105A3000A193009779F7B111B1931192CB010C9416
:105A4000312F5058BB27AA270E94392D0C948A2E3B
:105A50000E947C2E38F00E94832E20F039F49F3F64
:105A600019F426F40C94792E0EF4E095E7FB0C94CF
:105A7000732EE92F0E949B2E58F3BA176207730703
:105A80008407950720F079F4A6F50C94BD2E0EF44A
:105A9000E0950B2EBA2FA02D0B01B90190010C013E
:105AA000CA01A0011124FF27591B99F0593F50F456
:105AB000503E68F11A16F040A22F232F342F4427AE
:105AC000585FF3CF469537952795A795F0405395A6
:105AD000C9F77EF41F16BA0B620B730B840BBAF076
