:100000000C94FF030C9430040C9430040C943004D2
:100010000C9430040C9430040C9430040C94300490
:100020000C9430040C9430040C9430040C94300480
:100030000C9430040C9430040C9430040C94300470
:100040000C9430040C9430040C9430040C94300460
:100050000C9430040C9430040C9430040C948707F6
:100060000C9430040C94360B0C94020C0C94300459
:100070000C9430040C9430040C9430040C94300430
:100080000C9430040C9430040C9430040C94300420
:100090000C94690B0C94410C0C9430040C943004B7
:1000A0000C9430040C9430040C9430040C94300400
:1000B0000C9430040C9430040C9430040C943004F0
:1000C0000C9430040C9430040C9430040C949C0B6D
:1000D0000C94800C0C9430040C94CF0B0C94BF0C3B
:1000E0000C943004A108A40897089B08DB08A80812
:1000F000AC08B208B608BA08C008C408C808DB08CB
:10010000CE08D208D6080C94A81B0C94C4080C94F2
:10011000231C0C94AC160C9441110C94AF0A0C9453
:10012000AC080C94990E0C9499160C94B01A0C947B
:100130006B100C94720F0C94E2160C9497080C94AC
:10014000CF0A0C948C150C94860D0C94D6080C9444
:10015000820A0C947A160C94D2080C941C170C94F6
:10016000C8080C94DA0A0C94830A0C94BA080C940C
:10017000A4080C94730F0C94CE080C9494170C9450
:10018000C0080C94FC0F0C94620F0C94430F0C9459
:10019000E1100C9413060C94DB080C9485160C9457
:1001A000B2080C9456170C94560F0C94930A0C94A6
:1001B000641A0C944A0F0C94A1080C949B080C949C
:1001C0004D100C9440110C94B80F0C9471090C94C0
:1001D000B6080C94420F0C94A8080000090A020803
:1001E0000B0C0D07060304010000000000000000D6
:1001F00000000000000000000000000000000000FF
:1002000000000000000011100F00000000000000BE
:1002100000000000000000000000000000000000DE
:100220000102102020080810204010204080020108
:1002300002010804020101020408102040808040ED
:1002400020100804020180040201804020100804EC
:10025000020108040201010204081020408001028A
:100260000408102040800505050507050808080852
:10027000020202020A0A080804040404010101013E
:100280000101010103030303030303030407070739
:100290000C0C0C0C0C0C0C0C0202020206060606DE
:1002A000060606060B0B0B0B0B0B0B0B00002000BE
:1002B0002300260029002C002F003200000100003E
:1002C00003010601090100002200250028002B007F
:1002D0002E003100340002010000050108010B016D
:1002E00000002100240027002A002D0030003300E8
:1002F00001010000040107010A0100000000003EA6
:100300005B4F5B3E3E6B4F6B3E1C3E7C3E1C183C85
:100310007E3C181C577D571C1C5E7F5E1C00183CE1
:100320001800FFE7C3E7FF0018241800FFE7DBE72A
:10033000FF30483A060E2629792926407F05050711
:10034000407F05253F5A3CE73C5A7F3E1C1C08086D
:100350001C1C3E7F14227F22145F5F005F5F060932
:100360007F017F006689956A606060606094A2FF8B
:10037000A29408047E040810207E201008082A1C7D
:1003800008081C2A08081E101010100C1E0C1E0C49
:1003900030383E3830060E3E0E06000000000000E9
:1003A000005F00000007000700147F147F14242A58
:1003B0007F2A12231308646236495620500008072A
:1003C0000300001C2241000041221C002A1C7F1C4B
:1003D0002A08083E0808008070300008080808084D
:1003E000000060600020100804023E5149453E00B4
:1003F000427F400072494949462141494D33181412
:10040000127F1027454545393C4A49493141211160
:1004100009073649494936464949291E0000140052
:100420000000403400000008142241141414141475
:10043000004122140802015909063E415D594E7CD3
:100440001211127C7F494949363E414141227F4188
:1004500041413E7F494949417F090909013E4141E6
:1004600051737F0808087F00417F41002040413FD1
:10047000017F081422417F404040407F021C027FE0
:100480007F0408107F3E4141413E7F090909063E35
:100490004151215E7F091929462649494932030104
:1004A0007F01033F4040403F1F2040201F3F403816
:1004B000403F631408146303047804036159494DF1
:1004C00043007F4141410204081020004141417F27
:1004D000040201020440404040400003070800209D
:1004E000545478407F28444438384444442838449D
:1004F00044287F385454541800087E090218A4A4D4
:100500009C787F0804047800447D40002040403DF2
:10051000007F1028440000417F40007C047804786C
:100520007C080404783844444438FC1824241818FF
:10053000242418FC7C08040408485454542404045B
:100540003F44243C4040207C1C2040201C3C403048
:10055000403C44281028444C9090907C4464544C77
:1005600044000836410000007700000041360800D2
:1005700002010204023C2623263C1EA1A161123A7C
:100580004040207A385454555921555579412254C8
:10059000547842215554784020545579400C1E52CD
:1005A0007212395555555939545454593955545472
:1005B000580000457C410002457D420001457C40D9
:1005C0007D1211127DF0282528F07C54554500201D
:1005D00054547C547C0A097F4932494949323A448F
:1005E00044443A324A4848303A4141217A3A4240FA
:1005F0002078009DA0A07D3D4242423D3D404040CC
:100600003D3C24FF2424487E4943662B2FFC2F2B9E
:10061000FF0929F620C0887E09032054547941003F
:1006200000447D413048484A32384040227A007ABE
:100630000A0A727D0D19317D2629292F282629299C
:10064000292630484D4020380808080808080808BE
:10065000382F10C8ACBA2F102834FA00007B0000E5
:1006600008142A142222142A14085500550055AAE9
:1006700055AA55AAFF55FF55FF000000FF001010B6
:1006800010FF00141414FF001010FF00FF1010F0F2
:1006900010F0141414FC001414F700FF0000FF0005
:1006A000FF1414F404FC141417101F10101F101F53
:1006B0001414141F00101010F0000000001F101080
:1006C00010101F10101010F010000000FF1010107C
:1006D000101010101010FF10000000FF140000FF99
:1006E00000FF00001F10170000FC04F41414171082
:1006F000171414F404F40000FF00F7141414141475
:100700001414F700F7141414171410101F101F14EA
:100710001414F4141010F010F000001F101F00004B
:10072000001F14000000FC140000F010F01010FF77
:1007300010FF141414FF141010101F00000000F01C
:1007400010FFFFFFFFFFF0F0F0F0F0FFFFFF0000F1
:10075000000000FFFF0F0F0F0F0F3844443844FC18
:100760004A4A4A347E02020606027E027E0263552F
:100770004941633844443C04407E201E2006027EEA
:10078000020299A5E7A5991C2A492A1C4C720172FC
:100790004C304A4D4D303048784830BC625A463D66
:1007A0003E494949007E0101017E2A2A2A2A2A441B
:1007B000445F444440514A444040444A5140000050
:1007C000FF0103E080FF000008086B6B083612365B
:1007D0002436060F090F060000181800000010103C
:1007E000003040FF0101001F01011E00191D1712FA
:1007F000003C3C3C3C00000000001306860D112428
:100800001FBECFEFD1E2DEBFCDBF00E00CBF12E0D4
:10081000A0E0B2E0ECEAF2E400E00BBF02C0079017
:100820000D92AE37B107D9F725E0AEE7B2E001C0CF
:100830001D92AE38B207E1F713E0CFEFD3E000E04E
:1008400006C021970109802FFE010E942321CD3F80
:10085000D10780E00807A9F70E9447070C94BF1E44
:100860000C9400000E94280840E855E260E070E027
:100870008CE493E00E94FE0C60E08BE00E94DC08B8
:1008800061E08BE00E94180940E050E0BA0182E983
:1008900092E00C946E184F925F926F927F92AF929B
:1008A000BF92CF92DF92EF92FF920F931F93CF935D
:1008B000DF9300D000D0CDB7DEB78EE792E00E9484
:1008C000921C29833A834B835C836D837E838D8165
:1008D0009E810A978F3D934008F04CC069817A81D0
:1008E000072E000C880B990B1F921F921F922FEE60
:1008F0002F93A12CB12C650118E9E12E13E0F12E04
:1009000000E010E026E930E040E050E00E94580EA0
:100910002B013C016B817C81072E000C880B990B0D
:100920001F921F921F921F923FE3A32EBB24B394EA
:10093000C12CD12C1CEAE12E13E0F12E00E010E0D6
:1009400028E730E040E050E00E94580E66537109FD
:100950000FB6F894DEBF0FBECDBF663D710550F4F3
:100960009FEB491A51082DE14216510418F481E019
:100970008093C50226960FB6F894DEBF0FBECDBF9A
:10098000DF91CF911F910F91FF90EF90DF90CF906B
:10099000BF90AF907F906F905F904F900895CF93EE
:1009A000DF93EC0126E4269FC001279F900D1124C0
:1009B000BC01640F751F4FE050E082E992E00E9495
:1009C00062166BE082E992E00E94681640E050E017
:1009D0006FEF7FEF82E992E00E9474164AE050E0E8
:1009E000BE0182E992E0DF91CF910C947B0ACF9314
:1009F000DF93C1EDD2E040E050E060E070E088813C
:100A000099810E94CF0440E050E061E070E08A816B
:100A10009B810E94CF044EE150E062E070E08C8147
:100A20009D810E94CF044EE150E063E070E08E8132
:100A30009F81DF91CF910C94CF04E1EDF2E08081B2
:100A400091819093CD028093CC02228133813093A7
:100A5000CB022093CA02248135813093C9022093AE
:100A6000C802268137813093C7022093C60240E036
:100A700050E060E070E00E94CF0440E050E061E0B0
:100A800070E08091CA029091CB020E94CF044EE1A7
:100A900050E062E070E08091C8029091C9020E942B
:100AA000CF044EE150E063E070E08091C602909187
:100AB000C7020C94CF048091C6029091C7020196A0
:100AC0009093C7028093C6028A309105E1F4809129
:100AD000C8029091C90201969093C9028093C802FE
:100AE0001092C7021092C6024EE150E062E070E040
:100AF0000E94CF044EE150E063E070E08091C602B6
:100B00009091C70204C04EE150E063E070E00E94A3
:100B1000CF048091C8029091C902069781F5809117
:100B2000CA029091CB0201969093CB028093CA02A5
:100B30001092C9021092C8021092C7021092C60207
:100B40004EE150E062E070E080E090E00E94CF046F
:100B50004EE150E063E070E08091C6029091C702E0
:100B60000E94CF048091CA029091CB028A309105F5
:100B700034F440E050E061E070E00E94CF048091E6
:100B8000CA029091CB020A97F9F48091CC0290911D
:100B9000CD0201969093CD028093CC021092CB02AD
:100BA0001092CA0240E050E061E070E080E090E026
:100BB0000E94CF0440E050E060E070E08091CC0201
:100BC0009091CD020E94CF048091CC029091CD02F1
:100BD000029741F58091CA029091CB02049711F5DA
:100BE0001092CD021092CC021092CB021092CA0247
:100BF0001092C9021092C8021092C7021092C60247
:100C000040E050E060E070E080E090E00E94CF04BF
:100C100040E050E061E070E08091CA029091CB0228
:100C20000C94CF040895EF92FF920F932FEF49E0B9
:100C30006AE082E992E00E94AD178CE2E82EFF2480
:100C4000F39405E029E348E364E08EE792E00E9434
:100C5000EC1D0F91FF90EF900895EF92FF920F938C
:100C60001F93EE24EA94FE2C0EE110E027ED30E015
:100C70004EEB50E065E370E082E992E00E94561787
:100C800063E082E992E00E94681660E070E082E929
:100C900092E00E946E1640EC50E065E370E082E95D
:100CA00092E00E94621663E072E082E992E01F9196
:100CB0000F91FF90EF900C94C9090E94F7040C94D7
:100CC0002D06AF92BF92CF92DF92EF92FF920F93D9
:100CD0001F9360E070E082E992E00E944D10EE24E4
:100CE000EA94FE2C08E210E024E630E04AE550E009
:100CF00063E770E082E992E00E94561764E082E9BF
:100D000092E00E94681660E070E082E992E00E9442
:100D10006E164CE550E065E770E082E992E00E94D3
:100D2000621660E172E082E992E00E94C909AA2499
:100D3000AA94BA2C28E7C22ED12C3FE5E32EF12C41
:100D40000AE510E02EE630E04AE550E060E570E0AC
:100D500082E992E00E9477114AE5C42ED12C50EF2F
:100D6000E52EF12C08E710E02FEF30E048E750E0E7
:100D700061EE70E082E992E00E947711EE24EA943D
:100D8000FE2C03E210E02CE830E041E950E069E697
:100D900070E082E992E00E94561764E082E992E0F6
:100DA0000E94681660E070E082E992E00E946E1690
:100DB00043E950E06BE670E082E992E00E9462163F
:100DC00065E172E082E992E00E94C90971E9C72EEB
:100DD000D12CEBE4EE2EF12C04EB10E02AE530E010
:100DE00044EB50E06CE370E082E992E00E947711FE
:100DF000F4EBCF2ED12CAEE0EA2EFF24F39401E9E0
:100E000010E02DE131E041E950E06FEF70E082E960
:100E100092E00E9477111F910F91FF90EF90DF9069
:100E2000CF90BF90AF900895CF93C1E08091CE0254
:100E300081112BC08CE493E00E94830A18161906D6
:100E4000CCF48CE493E00E94AF0A8C32910591F0CF
:100E50002091CF023091D002F901EE0FFF1FEF5227
:100E6000FD4FC097918380832F5F3F4F3093D00217
:100E70002093CF028091CF029091D0020697B1F6D5
:100E8000C093CE020E941D05D1CFCF9108950E943C
:100E9000320440E050E0BA0182E992E00E946E180C
:100EA00060E070E082E992E00E944D1063E082E928
:100EB00092E00E94641A0E945D06C1E08091CE0219
:100EC00081110AC08BE00E944809892BB9F70E9462
:100ED0001407C093CE02F2CF80E6C82E8AEED82E39
:100EE000E12CF12C0E94D107A70196010E94E2207B
:100EF000672B682B692B11F40E945B050E944B0441
:100F00008091C502882371F30E946106EBCF1F9286
:100F10000F920FB60F9211242F933F938F939F93AD
:100F2000AF93BF938091DE029091DF02A091E00227
:100F3000B091E1023091DD0223E0230F2D3720F440
:100F40000196A11DB11D05C026E8230F0296A11D23
:100F5000B11D2093DD028093DE029093DF02A09307
:100F6000E002B093E1028091E2029091E302A0914D
:100F7000E402B091E5020196A11DB11D8093E20249
:100F80009093E302A093E402B093E502BF91AF9186
:100F90009F918F913F912F910F900FBE0F901F90B7
:100FA00018952FB7F8946091DE027091DF0280915E
:100FB000E0029091E1022FBF08953FB7F89480912D
:100FC000E2029091E302A091E402B091E50226B51D
:100FD000A89B05C02F3F19F00196A11DB11D3FBF71
:100FE000BA2FA92F982F8827820F911DA11DB11DFF
:100FF000BC01CD0142E0660F771F881F991F4A95FB
:10100000D1F70895CF92DF92EF92FF92CF93DF93C3
:101010006B017C010E94DD07EB01C114D104E104E6
:10102000F10479F00E94DD076C1B7D0B683E734074
:10103000A0F381E0C81AD108E108F108C851DC4FDB
:10104000ECCFDF91CF91FF90EF90DF90CF9008959C
:10105000789484B5826084BD84B5816084BD85B593
:10106000826085BD85B5816085BDEEE6F0E080815A
:1010700081608083E1E8F0E010828081826080837B
:10108000808181608083E0E8F0E0808181608083FE
:10109000E1EBF0E0808184608083E0EBF0E0808130
:1010A00081608083E1E9F0E08081826080838081DB
:1010B00081608083E0E9F0E0808181608083E1EA03
:1010C000F0E0808182608083808181608083E0EABB
:1010D000F0E0808181608083E1E2F1E080818260E4
:1010E0008083808181608083E0E2F1E080818160A3
:1010F0008083EAE7F0E08081846080838081826081
:101100008083808181608083808180688083109269
:10111000C100089590E0FC013197E131F10508F03C
:101120004AC08827EE58FF4F8F4F0C94232180919F
:1011300080008F7703C0809180008F7D8093800036
:10114000089584B58F7702C084B58F7D84BD0895DE
:101150008091B0008F7703C08091B0008F7D809325
:10116000B0000895809190008F7707C08091900023
:101170008F7D03C080919000877F809390000895B9
:101180008091A0008F7707C08091A0008F7D03C061
:101190008091A000877F8093A00008958091200116
:1011A0008F7707C0809120018F7D03C0809120013F
:1011B000877F809320010895CF93DF9390E0FC0117
:1011C000E05EFD4F2491FC01EA59FD4F8491882394
:1011D00061F190E0880F991FFC01E052FD4FC5912D
:1011E000D491FC01EA53FD4FA591B491611109C05E
:1011F0009FB7F8948881209582238883EC912E23D1
:101200000BC0623061F49FB7F8943881822F8095CB
:1012100083238883EC912E2B2C939FBF06C08FB71E
:10122000F894E8812E2B28838FBFDF91CF9108950A
:101230001F93CF93DF93282F30E0F901E652FE4F42
:101240008491F901E05EFD4FD491F901EA59FD4F17
:10125000C491CC23C9F0162F81110E948A08EC2F6B
:10126000F0E0EE0FFF1FEA53FD4FA591B4918FB749
:10127000F894111105C09C91ED2FE095E92302C06F
:10128000EC91ED2BEC938FBFDF91CF911F910895DF
:10129000CF93DF93282F30E0F901E652FE4F84917F
:1012A000F901E05EFD4FD491F901EA59FD4FC49177
:1012B000CC2391F081110E948A08EC2FF0E0EE0F10
:1012C000FF1FE455FD4FA591B491EC91ED2381E012
:1012D00090E021F480E002C080E090E0DF91CF91C7
:1012E0000895CF92DF92EF92FF920F931F93CF93C7
:1012F000DF936C01EB017B01E40EF51E00E010E0D2
:10130000CE15DF0561F06991D601ED91FC91019058
:10131000F081E02DC6011995080F191FF1CFC80102
:10132000DF91CF911F910F91FF90EF90DF90CF90C1
:1013300008956115710579F0FB0101900020E9F72E
:101340003197AF01461B570BDC01ED91FC910280F8
:10135000F381E02D199480E090E00895DC01ED9197
:10136000FC910190F081E02D19940F931F93CF937E
:10137000DF93EC016DE00E94AE098C016AE0CE01C2
:101380000E94AE09800F911FDF91CF911F910F91A5
:1013900008950F931F93CF93DF93EC010E94990957
:1013A0008C01CE010E94B509800F911FDF91CF9172
:1013B0001F910F9108958F929F92AF92BF92CF92FB
:1013C000DF92EF92FF920F931F93CF93DF93CDB7EE
:1013D000DEB7A1970FB6F894DEBF0FBECDBF6C018C
:1013E000142FE52FCB01022F19A2223008F40AE0B6
:1013F0007E0121E2E20EF11C802E912CA12CB12C59
:10140000612F7E2FA50194010E94E220029F1019F6
:10141000112481E0E81AF1081A3014F4105D01C0BB
:10142000195CF7011083122FE32FCA01232B242B01
:10143000252B31F7B701C6010E949909A1960FB675
:10144000F894DEBF0FBECDBFDF91CF911F910F91FA
:10145000FF90EF90DF90CF90BF90AF909F908F90D4
:101460000895CF92DF92EF92FF920F931F93CF9345
:10147000DF93EC016A017B012115310579F4E881E4
:10148000F9810190F081E02D642FDF91CF911F91C0
:101490000F91FF90EF90DF90CF9019942A30310593
:1014A000E9F477FF1AC06DE20E94AE098C0144276F
:1014B0005527BA014C195D096E097F092AE0CE0152
:1014C0000E94DB09800F911FDF91CF911F910F9137
:1014D000FF90EF90DF90CF9008952AE0B701A6012A
:1014E000CE01DF91CF911F910F91FF90EF90DF9090
:1014F000CF900C94DB099A01AB01770F660B770B49
:101500000C94310A0895FC0124853585F901E05CCD
:10151000FF4F80819181329620813181821B930B14
:101520008F7399270895DC011C96ED91FC911D970E
:10153000DF01A05CBF4F2D913C91119712968D91C8
:101540009C9111972817390739F08D919C91E80FDC
:10155000F91F808190E008958FEF9FEF0895FC01BF
:10156000A485B585FD01E05CFF4F20813181329675
:10157000808191812817390779F080819181A80FA6
:10158000B91F8C91208131812F5F3F4F2F733327FB
:101590003183208390E008958FEF9FEF0895FC0141
:1015A00081A1882329F0A489B5898C9186FFFBCF7E
:1015B00011A208950F931F93CF93DF93FC01A6858B
:1015C000B7858D01005C1F4FE801888199810196E4
:1015D0008F739927AD014E5B5F4FEA0128813981F6
:1015E00082179307D1F3E80128813981A20FB31F35
:1015F0006C93A685B785A05CBF4F11969C938E9384
:10160000A689B7892C9181E090E0078C02C0880FF1
:10161000991F0A94E2F7822B8C9381E081A30488BE
:10162000F589E02D80818064808381E090E0DF9106
:10163000CF911F910F910895FB01E05CFF4F208136
:1016400031812F5F3F4F2F733327DB01AE5BBF4FDD
:101650004D915C912417350741F040815181DB01A8
:10166000A40FB51F8C933183208308951F920F928E
:101670000FB60F9211240BB60F922F933F934F93F7
:101680005F936F937F938F939F93AF93BF93EF93EA
:10169000FF938091C00082FD07C08091C6006AE47C
:1016A00075E00E941C0B02C08091C600FF91EF9173
:1016B000BF91AF919F918F917F916F915F914F916A
:1016C0003F912F910F900BBE0F900FBE0F901F9068
:1016D00018951F920F920FB60F9211240BB60F920E
:1016E0002F933F934F935F936F937F938F939F932A
:1016F000AF93BF93EF93FF938091C80082FD07C023
:101700008091CE0062EC74E00E941C0B02C08091BC
:10171000CE00FF91EF91BF91AF919F918F917F91FB
:101720006F915F914F913F912F910F900BBE0F9052
:101730000FBE0F901F9018951F920F920FB60F9229
:1017400011240BB60F922F933F934F935F936F9398
:101750007F938F939F93AF93BF93EF93FF9380916A
:10176000D00082FD07C08091D6006AE374E00E9439
:101770001C0B02C08091D600FF91EF91BF91AF91F9
:101780009F918F917F916F915F914F913F912F9199
:101790000F900BBE0F900FBE0F901F9018951F92C9
:1017A0000F920FB60F9211240BB60F922F933F9307
:1017B0004F935F936F937F938F939F93AF93BF9359
:1017C000EF93FF938091300182FD07C08091360135
:1017D00062EB73E00E941C0B02C080913601FF9106
:1017E000EF91BF91AF919F918F917F916F915F9199
:1017F0004F913F912F910F900BBE0F900FBE0F9006
:101800001F9018951F920F920FB60F9211240BB6CE
:101810000F922F933F938F939F93EF93FF9320917A
:101820004605309147058091480590914905281754
:10183000390731F48091C1008F7D8093C10014C0BD
:10184000E0914805F0914905EA5FFA4F20818091C7
:1018500048059091490501968F7399279093490502
:10186000809348052093C600FF91EF919F918F913F
:101870003F912F910F900BBE0F900FBE0F901F90B6
:1018800018951F920F920FB60F9211240BB60F925C
:101890002F933F938F939F93EF93FF932091BE04D9
:1018A0003091BF048091C0049091C104281739077A
:1018B00031F48091C9008F7D8093C90014C0E091FC
:1018C000C004F091C104E258FB4F20818091C00414
:1018D0009091C10401968F7399279093C1048093CE
:1018E000C0042093CE00FF91EF919F918F913F9183
:1018F0002F910F900BBE0F900FBE0F901F90189559
:101900001F920F920FB60F9211240BB60F922F93C6
:101910003F938F939F93EF93FF93209136043091E1
:10192000370480913804909139042817390731F42D
:101930008091D1008F7D8093D10014C0E091380454
:10194000F0913904EA50FC4F208180913804909145
:10195000390401968F739927909339048093380442
:101960002093D600FF91EF919F918F913F912F91FE
:101970000F900BBE0F900FBE0F901F9018951F92E7
:101980000F920FB60F9211240BB60F922F933F9325
:101990008F939F93EF93FF932091AE033091AF030A
:1019A0008091B0039091B1032817390731F48091E9
:1019B00031018F7D8093310114C0E091B003F0912B
:1019C000B103E259FC4F20818091B0039091B103A3
:1019D00001968F7399279093B1038093B00320935E
:1019E0003601FF91EF919F918F913F912F910F9031
:1019F0000BBE0F900FBE0F901F901895CF92DF92E5
:101A0000EF92FF920F931F93CF93DF93EC016A0144
:101A10007B014115514E6105710509F1EC89FD8984
:101A200081E090E008A002C0880F991F0A94E2F7B5
:101A3000808360E079E08DE390E0A70196010E9449
:101A4000E22089019A0101501109210931093695D5
:101A5000279517950795980101151041A8F0EC8975
:101A6000FD89108260E874E88EE190E0A70196019C
:101A70000E94E220DA01C9010197A109B109B695D6
:101A8000A795979587959C01E889F9893083EA891C
:101A9000FB89208319A2EE89FF89408181E090E0D3
:101AA0009C010C8C02C0220F331F0A94E2F7242BF6
:101AB0002083EE89FF8940819C010D8C02C0220F9A
:101AC000331F0A94E2F7242B2083EE89FF8940819B
:101AD0009C010E8C02C0220F331F0A94E2F7242BC4
:101AE0002083EE89FF8920810F8C02C0880F991F07
:101AF0000A94E2F7809582238083DF91CF911F9132
:101B00000F91FF90EF90DF90CF900895CF92DF92EA
:101B1000EF92FF92ECE4F3E01382128288EEC82E7B
:101B200083E0D82EE12CF12CC482D582E682F782A4
:101B300061E272E0718360838AE495E0958784872F
:101B400086E095E09787868785EC90E0918B808B87
:101B500084EC90E0938B828B80EC90E0958B848B6F
:101B600081EC90E0978B868B82EC90E0918F808F58
:101B700086EC90E0938F828F44E0448F33E0358F82
:101B800027E0268F95E0978F81E080A3EAE2F3E0DB
:101B900013821282C482D582E682F78271836083C7
:101BA000A2ECB4E0B587A487AEE7B4E0B787A68718
:101BB000ADECB0E0B18BA08BACECB0E0B38BA28B02
:101BC000A8ECB0E0B58BA48BA9ECB0E0B78BA68BEA
:101BD000AAECB0E0B18FA08FAEECB0E0B38FA28FD3
:101BE000448F358F268F978F80A3E8E0F3E0138230
:101BF0001282C482D582E682F78271836083AAE36F
:101C0000B4E0B587A487A6EFB3E0B787A687A5EDB4
:101C1000B0E0B18BA08BA4EDB0E0B38BA28BA0EDB4
:101C2000B0E0B58BA48BA1EDB0E0B78BA68BA2ED95
:101C3000B0E0B18FA08FA6EDB0E0B38FA28F448F3C
:101C4000358F268F978F80A3E6EEF2E01382128203
:101C5000C482D582E682F7827183608362EB73E08F
:101C6000758764876EE673E07787668765E371E062
:101C7000718B608B64E371E0738B628B60E371E066
:101C8000758B648B61E371E0778B668B62E371E047
:101C9000718F608F66E371E0738F628F448F358F31
:101CA000268F978F80A3FF90EF90DF90CF900895BD
:101CB0004F925F926F927F92AF92BF92CF92DF92DC
:101CC000EF92FF920F931F93CF93DF93CDB7DEB7C1
:101CD00029013A019B01AC0124193509460957092C
:101CE0008A899B89AC89BD89BC01CD016A197B09B0
:101CF0008C099D090E94D220A80197012419350959
:101D0000460957090E940421CA01B9016A0D7B1DC9
:101D10008C1D9D1DDF91CF911F910F91FF90EF9032
:101D2000DF90CF90BF90AF907F906F905F904F907B
:101D300008952F923F924F925F926F927F928F926F
:101D40009F92AF92BF92CF92DF92EF92FF920F934A
:101D50001F93CF93DF9300D0CDB7DEB74C017B83C9
:101D60006A836A01590117019801241B350B37FF5B
:101D700003C0319521953109C5014A815B81841BDE
:101D8000950B97FF03C091958195910951E0598377
:101D90008217930714F019820BC09A2D8B2D5801CE
:101DA000092F182F9A818B81DB82CA82C92ED82EE7
:101DB0008A819B81A816B9065CF49C2D8D2D680143
:101DC000092F182F9A818B81BB82AA82A92EB82E47
:101DD0002501AA81BB814A1A5B0A38016C187D086B
:101DE00077FE03C0719461947108720157FE03C0BD
:101DF000BFEFEB1AFB0AF594E794C016D1061CF06E
:101E00000FEF1FEF1FC001E010E01CC0D401ED91E7
:101E1000FC91B9810084F185E02D9101BB23C1F0D3
:101E20004A815B81B601C4011995E618F708F7FEEF
:101E300004C0C00ED11EE40CF51CEA81FB81319672
:101E4000FB83EA834A815B81A416B506FCF604C0D5
:101E5000A6016A817B81E7CF0F900F900F90DF91F1
:101E6000CF911F910F91FF90EF90DF90CF90BF9097
:101E7000AF909F908F907F906F905F904F903F902A
:101E80002F9008950895DC01ED91FC910480F58177
:101E9000E02D19940F931F93DC01ED91FC91008CC0
:101EA000F18DE02D19951F910F9108950F931F93B8
:101EB000DC01ED91FC91028CF38DE02D19951F91C1
:101EC0000F910895EF92FF920F931F93DC01ED9114
:101ED000FC91048CF58DE02D19951F910F91FF90C9
:101EE000EF9008950895AF92BF92CF92DF92EF9254
:101EF000FF920F931F93CF93DF9300D01F92CDB724
:101F0000DEB75C016901DC01ED91FC910680F7818F
:101F1000E02D4B835C8369837A831995D501ED911C
:101F2000FC914B815C81C40ED51EB1E0CB1AD10867
:101F30000088F189E02D7801860169817A819B0111
:101F4000C5011995D501ED91FC910288F389E02D29
:101F5000C5010F900F900F900F90DF91CF911F91BF
:101F60000F91FF90EF90DF90CF90BF90AF901994BA
:101F7000AF92BF92CF92DF92EF92FF920F931F9397
:101F8000CF93DF9300D01F92CDB7DEB75C0169011C
:101F9000DC01ED91FC910680F781E02D4B835C83A1
:101FA00069837A831995D501ED91FC9169817A81D4
:101FB0009B012C0D3D1D215031090088F189E02D38
:101FC00078014B815C818A01C5011995D501ED919C
:101FD000FC910288F389E02DC5010F900F900F90BE
:101FE0000F90DF91CF911F910F91FF90EF90DF90B5
:101FF000CF90BF90AF9019944F925F926F927F9263
:102000008F929F92AF92BF92CF92DF92EF92FF9208
:102010000F931F93CF93DF931F921F92CDB7DEB71D
:102020006C015A0139014801DC01ED91FC910680F7
:10203000F781E02D69837A8319956981462E7A812B
:10204000572E640C751CD601ED91FC914614570473
:102050006CF40484F585E02D87019401A501B2019B
:10206000C6011995BFEF4B1A5B0AEDCF0288F389C1
:10207000E02DC6010F900F90DF91CF911F910F912E
:10208000FF90EF90DF90CF90BF90AF909F908F9098
:102090007F906F905F904F901994EF92FF920F9303
:1020A0001F93DC01ED91FC9111971A960D911C91F3
:1020B0001B9718962D913C911997048CF58DE02D66
:1020C0007B0140E050E060E070E019951F910F91B6
:1020D000FF90EF900895CF92DF92EF92FF920F93CF
:1020E0001F93CF93DF9300D000D0CDB7DEB76C0144
:1020F000DC01ED91FC916217730789F40417150751
:102100002CF4942F852FA801092F182F041B150BD1
:1021100098012F5F3F4F008CF18DE02D12C04017CA
:10212000510709F5261737072CF4962F872FB90189
:10213000292F382F261B370B2F5F3F4F028CF38D33
:10214000E02D8701C601199526960FB6F894DEBFDB
:102150000FBECDBFDF91CF911F910F91FF90EF90F8
:10216000DF90CF9008950680F781E02D2D833E8388
:102170004B835C8369837A831995D601ED91FC9139
:102180000088F189E02D2D813E814B815C81698140
:102190007A81C6011995D601ED91FC910288F389E7
:1021A000E02DC60126960FB6F894DEBF0FBECDBF58
:1021B000DF91CF911F910F91FF90EF90DF90CF9023
:1021C00019946F927F928F929F92AF92BF92CF920B
:1021D000DF92EF92FF920F931F93CF93DF93EC0167
:1021E0004B015A0169013801E881F9810680F781C4
:1021F000E02D1995E881F9810684F785E02D8701A6
:102200009601A501B401CE011995E881F981A501D6
:10221000460D571D415051090684F785E02D960162
:10222000B401CE011995E881F9810484F585E02D8A
:102230009301A501B401CE011995E881F981C80C7B
:10224000D91CB601615071090484F585E02D930114
:10225000A501CE011995E881F9810288F389E02D65
:10226000CE01DF91CF911F910F91FF90EF90DF9002
:10227000CF90BF90AF909F908F907F906F90199468
:102280000895FC016370658B848195812681378177
:10229000613039F0633029F0918780873387228756
:1022A000089531872087938782870895FC011382E0
:1022B000128281E392E091838083758364835783E4
:1022C00046837187608753874287158A15861486EF
:1022D0001786168681E0848B2FEF3FEF338B228B9E
:1022E000318B208B868B178A118E108E08952F923A
:1022F0003F924F925F926F927F928F929F92AF9296
:10230000BF92CF92DF92EF92FF920F931F93CF93E2
:10231000DF93CDB7DEB7AE970FB6F894DEBF0FBE32
:10232000CDBF9A8389837EA76DA73A012901480111
:102330001601B88EAF8A041715077CF4892DC416D0
:10234000D5060CF0CAC146011A01602E782E852DE3
:1023500027017B012DA78EA70DC0C016D106C4F49E
:10236000982D892D4101292E382E942D852D270158
:10237000E92EF82E861497045CF4962D872D3401EF
:10238000892E982E9DA58EA55EA64DA6492E582E67
:10239000A981BA81ED91FC9111970680F781E02D1A
:1023A000CD0119956214730451F5EDA5FEA54E16E5
:1023B0005F062CF0942D852D2F019DA78EA7E41488
:1023C000F50444F02DA53EA52E153F0514F4FEA6F8
:1023D000EDA67201A981BA81ED91FC9111972DA50D
:1023E0003EA52E193F092F5F3F4F0684F785E02D4C
:1023F0000F89188DA301B701CD0119954CC1C201F8
:10240000EDA5FEA58E1B9F0B940126193709A70188
:102410004E1B5F0B58874F83B101661977097C8784
:102420006B87D701A419B509B88BAF87F101E819FB
:10243000F909FA8FE98F64018214930419F0F1E02D
:10244000CF1AD10853011B8A1C8A1D8A1E8A1B823F
:102450001C821D821E82A901330F660B770B4D8FE4
:102460005E8F6F8F78A32B853C85032E000C440B69
:10247000550B29A33AA34BA35CA3AC01990F660BA0
:10248000770B4DA35EA36FA378A76F817885072E86
:10249000000C880B990B69A77AA78BA79CA7CA1475
:1024A000DB040CF45AC06B817C818D819E812D8D63
:1024B0003E8D4F8D58A10E940421EDA4FEA4E20E92
:1024C000F31E6B897C898D899E8929A13AA14BA134
:1024D0005CA10E9404218DA59EA5280F391F4B8168
:1024E0005C816D817E818DA19EA1AFA1B8A5480FB1
:1024F000591F6A1F7B1F4B835C836D837E834B89CF
:102500005C896D897E8989A59AA5ABA5BCA5480F74
:10251000591F6A1F7B1F4B8B5C8B6D8B7E8B2E151F
:102520003F052CF49E2D8F2D7901292F382FA9815D
:10253000BA81ED91FC9111972E193F092F5F3F4F02
:102540000684F785E02D0F89188DA501B701CD010F
:102550001995BFEFAB1ABB0AA2CF9501281939090B
:10256000EF85F889E29FC001E39F900DF29F900DE7
:1025700011249C01990F440B550B2B833C834D83F5
:102580005E83C501861997094F815885489F600170
:10259000499FD00C589FD00C11240D2C000CEE0834
:1025A000FF08698D7A8D072E000C880B990B698FB7
:1025B0007A8F8B8F9C8F8B859C85092E000CAA0BA4
:1025C000BB0B8B879C87AD87BE879F01032E000CBA
:1025D000440B550B2F87388B498B5A8B4F8158856D
:1025E000052E000C660B770B4F83588769877A8717
:1025F0002A143B040CF44FC06B817C818D819E8139
:10260000298D3A8D4B8D5C8D0E9404214201820EF2
:10261000931EC701B6012B853C854D855E850E94C2
:1026200004216DA57EA5260F371F8B819C81AD816E
:10263000BE814F85588969897A89840F951FA61FA5
:10264000B71F8B839C83AD83BE836F81788589851B
:102650009A85C60ED71EE81EF91E281539052CF4DA
:10266000982D892D4901292F382FA981BA81ED9103
:10267000FC911197281939092F5F3F4F0684F78580
:10268000E02D0F89188DA501B401CD011995BFEF7B
:10269000AB1ABB0AADCFA981BA81ED91FC9111971C
:1026A0000288F389E02DCD01AE960FB6F894DEBF17
:1026B0000FBECDBFDF91CF911F910F91FF90EF9093
:1026C000DF90CF90BF90AF909F908F907F906F9052
:1026D0005F904F903F902F9019944A01602E782E72
:1026E000852D4DA45EA42DA78EA752CE2F923F928A
:1026F0004F925F926F927F928F929F92AF92BF9212
:10270000CF92DF92EF92FF920F931F93CF93DF93BD
:10271000CDB7DEB76C970FB6F894DEBF0FBECDBF56
:102720009C8F8B8F5B011A011F830E833701C98237
:10273000DC0158964D915C9159974115510509F06E
:10274000E5C018968D919C911997681779070CF040
:10275000CAC11A968D919C911B97281639060CF0C8
:10276000C2C18C2C912CFB0136E0C39EE00DF11D03
:102770001124FB87EA871E161F060CF0B4C1C401A2
:1027800033E0880F991F3A95E1F79D878C87820D7A
:10279000931D181619060CF0A6C157968C9181113D
:1027A00003C0203B08F02F5FAB8DBC8DED91FC91F9
:1027B00011970680F781E02DCD012A8F19952A8D7A
:1027C000B5E02B9F90011124F5013596FF87EE8728
:1027D0002501BB82AA82A9014A195B09598B488B42
:1027E000C10108969B8B8A8BE889F989E40DF51D58
:1027F000E650FD4F949198873D822C826101A88517
:10280000A0FF13C0AB8DBC8DED91FC91B981B130AF
:1028100031F40084F185E02D2E813F8116C00284C1
:10282000F385E02DEE80FF801AC0EE81FF816E16E9
:102830007F06F1F0AB8DBC8DED91FC91B981B1308B
:1028400051F40084F185E02D9301A601B2018B8D36
:102850009C8D19950DC00284F385E02D73018401D0
:1028600094014C815D816A817B818B8D9C8D199552
:10287000E885E695E8872C813D81280D391D3D834B
:102880002C833FEFC31AD30A4A895B89C416D50645
:1028900009F0B5CF8A819B81880D991D9B838A831E
:1028A0009FEF491A590AAE85BF854A165B0609F0A3
:1028B0009BCFEE81FF816E167F0609F4F2C0EB8D8F
:1028C000FC8DA081B181F981F13079F4B5016B5FA4
:1028D0007F4F1C96ED91FC911D97830128E030E01D
:1028E000A1018B8D9C8D1995DCC06A857B8568194B
:1028F00079091A96ED91FC911B9773010C851D8542
:102900009401A1018B8D9C8D1995CBC0FA01349651
:102910009491329765917491291BCB01B7E02B9F5D
:10292000800D911D1124FA01259134913B8B2A8B46
:10293000FC01459154915B834A83FC013296C4901B
:10294000319654915C87329614913196D490898156
:10295000823058F0612E012E000C7708AD2D0D2C21
:10296000000CBB0BB987A88704C019861886612C98
:10297000712CAB8DBC8DED91FC9111970680F78188
:10298000E02DCD011995B9818B2E912C689CC00149
:10299000699C900D789C900D1124FC01EA0DFB1DA3
:1029A000F98BE88B1C82712C612CE12F110FFF0B2E
:1029B00095012E0F3F1F3B872A87AC0CB11CA50148
:1029C0004E0F5F1F5F8B4E8BC1018D0D911DD7FC8C
:1029D0009A95998F888F4C85641608F062C0862D71
:1029E00090E048855985480F591F489D9001499DA1
:1029F000300D589D300D1124D901A20DB31DBF8794
:102A0000AE87AA84BB8448885988DC80BA85DB1AE3
:102A1000E88DF98DE80FF91FFD8BEC8B8D2D8A0D5C
:102A20002E893F89A216B306B9F1877061F48A81B5
:102A30009B810196EA89FB89AA81BB81EA0FFB1F72
:102A400074909B838A8377FE20C0AB8DBC8DED9103
:102A5000FC91B981B13061F40084F185E02D2E81C3
:102A60003F814C895D89B5018B8D9C8D19950DC079
:102A70000284F385E02DEE80FF80840194014E8571
:102A80005F85B2018B8D9C8D1995770C480C591C74
:102A9000EFEFAE1ABE0AC2CF3C813C0D3C8363947B
:102AA0009ACFAB8DBC8DED91FC9111970288F38983
:102AB000E02DCD016C960FB6F894DEBF0FBECDBFF2
:102AC000DF91CF911F910F91FF90EF90DF90CF900A
:102AD000BF90AF909F908F907F906F905F904F903E
:102AE0003F902F9019946C960FB6F894DEBF0FBEEE
:102AF000CDBFDF91CF911F910F91FF90EF90DF90AD
:102B0000CF90BF90AF909F908F907F906F905F908D
:102B10004F903F902F900895AF92BF92CF92EF9237
:102B2000FF920F931F93CF93DF93EC01262F888D95
:102B3000998D009709F040C06A3059F41D861C86B3
:102B40002C898E859F8538E0239F800D911D11244F
:102B500041C06D3009F4AAC08E898823C1F03C8938
:102B60008C859D8546E0349F800D911D11244885FC
:102B70005985481759075CF41D861C868E859F85EC
:102B800048E0349F800D911D11249F878E87EA882D
:102B9000FB88088919894E855F856C857D85CC8881
:102BA000CE010E9476132C898C859D8536E0239F6B
:102BB000800D911D112442C06A3079F41D861C8657
:102BC0002C89FC013696E4918E859F852E9F800D81
:102BD000911D11249F878E8769C06D3009F466C0EE
:102BE000FC0134963491631708F460C03196E49187
:102BF000E61708F45BC0FC013296A590B490462F0E
:102C000050E0431B510937E0349FB001359F700DF0
:102C10001124A60EB71EF501329634913196E49137
:102C2000332311F0E1110DC0F5013496E4912C89A4
:102C30008C859D85E29F800D911D11249D878C8739
:102C400035C0F501359644915E89552311F16C89A3
:102C5000E32FF0E0E40FF11D47FDFA956E9FD001E0
:102C60006F9FB00D11244C855D854A0F5B1FE88571
:102C7000F985E417F5076CF41D861C86FC01369671
:102C8000E4918E859F856E9F800D911D11249F87F5
:102C90008E87EA88FB88088919894E855F856C854F
:102CA0007D85CC88CE010E947613BECF81E090E076
:102CB000DF91CF911F910F91FF90EF90CF90BF9038
:102CC000AF900895FC0175876487578746870895FC
:102CD000611101C061E0FC01648B0895FC01738BFC
:102CE000628B718B608B0895FC01718B608B538BB1
:102CF000428B0895DC019C96ED91FC919D9790810B
:102D0000D1968C91892B80830895EF92FF920F9337
:102D10001F93DC01ED91FC910284F385E02D780195
:102D2000890121E030E019951F910F91FF90EF90FC
:102D30000895EF92FF920F931F93DC01ED91FC91A8
:102D40000284F385E02D780101E010E019951F91D0
:102D50000F91FF90EF9008950F931F93CF93DF9300
:102D600000D000D0CDB7DEB78C01DC01ED91FC9135
:102D70000680F781E02D2D833E834B835C8369833E
:102D80007A831995D801ED91FC910084F185E02DAD
:102D90002D813E814B815C8169817A81C8011995C1
:102DA000D801ED91FC910288F389E02DC8012696A7
:102DB0000FB6F894DEBF0FBECDBFDF91CF911F914C
:102DC0000F911994EF92FF920F931F93CF93DF937C
:102DD00000D000D0CDB7DEB77C01DC01ED91FC91D5
:102DE0000680F781E02D2D833E834B835C836983CE
:102DF0007A831995D701ED91FC910484F585E02D36
:102E00002D813E814B815C8169817A81C701199551
:102E1000D701ED91FC910288F389E02DC701269638
:102E20000FB6F894DEBF0FBECDBFDF91CF911F91DB
:102E30000F91FF90EF901994EF92FF920F931F93D1
:102E4000CF93DF9300D000D0CDB7DEB77C01DC019B
:102E5000ED91FC910680F781E02D2D833E834B831D
:102E60005C8369837A831995D701ED91FC9106847F
:102E7000F785E02D2D813E814B815C8169817A81CE
:102E8000C7011995D701ED91FC910288F389E02DD6
:102E9000C70126960FB6F894DEBF0FBECDBFDF91F7
:102EA000CF911F910F91FF90EF901994CF92DF92E5
:102EB000EF92FF920F931F93CF93DF9300D000D038
:102EC000CDB7DEB76C01DC01ED91FC910680F78196
:102ED000E02D2D833E834B835C8369837A83199530
:102EE000D601ED91FC910284F385E02D2D813E8188
:102EF0004B815C8169817A81C6011995D601ED917A
:102F0000FC910288F389E02DC60126960FB6F8944D
:102F1000DEBF0FBECDBFDF91CF911F910F91FF900C
:102F2000EF90DF90CF901994CF93DF93EC0189A1BC
:102F300087FF09C084E00E94B01E81E00E94A21EAB
:102F400080E00E94AB1EECA5FDA5908189A980952B
:102F500089238083DF91CF910895EF92FF920F93A1
:102F60001F93CF93DF931F92CDB7DEB77C01062F5F
:102F7000142F40E451E060EF70E029830E94561165
:102F800089E592E0D70111969C938E935E960C93FF
:102F90005E975F961C935F97298190962C939097EC
:102FA0008FEF91968C93919792968C93929793969C
:102FB0008C939397F701128E138E148E158E602FBB
:102FC000000F770BFB01EA59FD4F8491E82FF0E0E9
:102FD000EE0FFF1FEA53FD4F859194919D969C93B0
:102FE0008E939C97FB01E05EFD4FE491D196EC93AC
:102FF000D197412F110F550BFA01EA59FD4FE4917A
:10300000F0E0EE0FFF1FEA53FD4F85919491F70119
:1030100093A782A7FA01E05EFD4FE491D296EC936C
:10302000D29799961C921E929897D0961C92D09700
:1030300095961C921E9294979E961C929E97979698
:103040001C921E9296979F961C920F90DF91CF91A3
:103050001F910F91FF90EF900895FC0181A187FFD0
:1030600005C06EBD0DB407FEFDCF089528E030E029
:1030700090E8A4A1B5A186A5492F462319F04C914B
:10308000842B03C04C91809584238C93A0A5B1A57B
:103090004C9180A9809584238C93A0A5B1A54C91D7
:1030A00080A9842B8C9396952150310911F70895AE
:1030B000CF93DF93EC01EAA5FBA590818AA98095C7
:1030C00089238083CE010E942D18EAA5FBA590815B
:1030D0008AA9892B8083DF91CF910895CF93DF93C5
:1030E000EC01411551056105710521F440E052E103
:1030F0006AE770E04A8F5B8F6C8F7D8F61E08F8D08
:103100000E94DC0860E08F8D0E94180961E08E8DBE
:103110000E94DC0861E08E8D0E94180989A187FD5C
:1031200016C061E08AA10E94DC0860E08AA10E94CA
:10313000180961E089A10E94DC0861E089A10E9470
:1031400018098BA187FD03C060E00E94DC0889A1FB
:1031500087FD0E948C1E88A187FD21C061E00E942E
:10316000DC0861E088A10E94180964E670E080E054
:1031700090E00E94020860E088A10E94180964E6BD
:1031800070E080E090E00E94020861E088A10E9467
:10319000180968EC70E080E090E00E940208E88185
:1031A000F9810680F781E02DCE0119956FEECE01F1
:1031B0000E94581863E0CE010E942D1860E8CE01ED
:1031C0000E942D1862E0CE010E942D186FECCE01F6
:1031D0000E94581860E0CE010E942D1861ECCE01CB
:1031E0000E942D1860E3CE010E942D186DEECE01D5
:1031F0000E94581864E6CE010E942D1863E0CE01AB
:103200000E942D1862E1CE010E942D1861E8CE01C6
:103210000E942D1868EECE010E94581865E8CE0174
:103220000E942D1860E0CE010E942D1868E7CE01A3
:103230000E942D186BECCE010E94581869E3CE0154
:103240000E942D186CE2CE010E942D1860E0CE0184
:103250000E942D1864E3CE010E942D1862E0CE0179
:103260000E942D1867EFCE010E94581860E2CE012F
:103270000E942D186AEECE010E94581860E0CE011F
:103280000E942D1860E0CE010E942D1860ECCE0146
:103290000E94581863E2CE010E942D1861ECCE0105
:1032A0000E94581860E1CE010E942D1865ECCE01F5
:1032B0000E9458186EE3CE010E942D1868E2CE01DC
:1032C0000E942D1867ECCE010E94581866E8CE01C6
:1032D0000E942D1866E3CE010E94581868E4CE01C2
:1032E0000E942D1867E3CE010E94581889A187FF1C
:1032F00009C01EBC0DB407FEFDCF1EBC0DB407FEF9
:10330000FDCF08C060E0CE010E942D1860E0CE0124
:103310000E942D186AE3CE010E94581865E5CE017F
:103320000E942D1861EBCE010E94581860E0CE017A
:103330000E942D1868E1CE010E942D1866EBCE0187
:103340000E94581868E0CE010E942D1862E8CE0154
:103350000E942D1867E2CE010E942D1862EFCE0167
:103360000E94581860E0CE010E942D1866E2CE013E
:103370000E94581861E0CE010E942D1860EECE0127
:103380000E9458186FE0CE010E942D1861E3CE0113
:103390000E942D186BE2CE010E942D186CE0CE0128
:1033A0000E942D186EE0CE010E942D1868E0CE011B
:1033B0000E942D186EE4CE010E942D1861EFCE01FF
:1033C0000E942D1867E3CE010E942D1867E0CE0100
:1033D0000E942D1860E1CE010E942D1863E0CE01FD
:1033E0000E942D186EE0CE010E942D1869E0CE01DA
:1033F0000E942D1860E0CE010E942D1861EECE01D2
:103400000E94581860E0CE010E942D186EE0CE0197
:103410000E942D1864E1CE010E942D1863E0CE01B8
:103420000E942D1861E1CE010E942D1867E0CE01A7
:103430000E942D1861E3CE010E942D1861ECCE018F
:103440000E942D1868E4CE010E942D1868E0CE017C
:103450000E942D186FE0CE010E942D186CE0CE0165
:103460000E942D1861E3CE010E942D1866E3CE0163
:103470000E942D186FE0CE010E942D1861E1CE014F
:103480000E94581868E770E080E090E00E9402080F
:1034900069E2CE010E94581868E770E080E090E091
:1034A0000E940208E881F9810288F389E02DCE01AB
:1034B000199580EF90E09987888780E491E09B8759
:1034C0008A87DF91CF9108951F93CF93DF93EC010B
:1034D00063706D8B6230C1F0633001F1613051F087
:1034E00080EF90E09987888780E491E09B878A87C6
:1034F00018E41DC080E491E09987888780EF90E010
:103500009B878A8718E213C080EF90E099878887AD
:1035100080E491E09B878A8718E809C080E491E005
:103520009987888780EF90E09B878A8718EEE881EB
:10353000F9810680F781E02DCE01199566E3CE0171
:103540000E945818612FCE010E942D18E881F98140
:103550000288F389E02DCE01DF91CF911F9119945C
:103560000F931F93CF93DF931F92CDB7DEB78C01DC
:10357000DC01ED91FC910680F781E02D69831995BE
:103580006981611102C060E201C061E2C8010E946C
:103590005818D801ED91FC910288F389E02DC801FB
:1035A0000F90DF91CF911F910F9119948F929F925D
:1035B000AF92BF92CF92DF92EF92FF920F931F9341
:1035C000CF93DF93EC01490181E0881A9108860EC0
:1035D000971EC401A0E0B0E04B01A12CB12C540116
:1035E00099248824882A992AAA2ABB2A680181E07A
:1035F000C81AD108C40ED51EC601A0E0B0E06A0109
:10360000E12CF12C7601DD24CC24C82AD92AEA2A1F
:10361000FB2A6AE2CE010E94581829A16B2D772758
:103620008827992727FF18C06EBD0DB407FEFDCF70
:10363000C501AA27BB278EBD0DB407FEFDCFBB2752
:10364000AB2D9A2D892D8EBD0DB407FEFDCF8EBCFE
:103650000DB407FEFDCF14C0CE010E942D18B50198
:1036600088279927CE010E942D1899278B2D7A2D16
:10367000692DCE010E942D18682DCE010E942D18B3
:103680006BE2CE010E94581829A16F2D7727882759
:10369000992727FF18C06EBD0DB407FEFDCFC701E7
:1036A000AA27BB278EBD0DB407FEFDCFBB27AF2DCC
:1036B0009E2D8D2D8EBD0DB407FEFDCFCEBC0DB45D
:1036C00007FEFDCF14C0CE010E942D18B701882738
:1036D0009927CE010E942D1899278F2D7E2D6D2DB3
:1036E000CE010E942D186C2DCE010E942D186CE287
:1036F000CE01DF91CF911F910F91FF90EF90DF905E
:10370000CF90BF90AF909F908F900C9458181F93BC
:10371000CF93DF93262FFC0131A137FF09C07EBD77
:103720000DB407FEFDCF2EBD0DB407FEFDCF0CC0BE
:10373000672F122FEC010E942D18612FCE01DF910F
:10374000CF911F910C942D18DF91CF911F91089567
:10375000EF92FF920F931F93CF93DF9377FD23C0D8
:10376000DC011896ED91FC9119976E177F07DCF438
:1037700057FD19C01A96ED91FC911B974E175F07E4
:1037800094F47901EC0101E010E021E030E00E94C6
:10379000D61AB701CE01DF91CF911F910F91FF9003
:1037A000EF900C94871BDF91CF911F910F91FF90A9
:1037B000EF900895EF92FF921F93CF93DF9300D085
:1037C0001F921F92CDB7DEB77C01162FFC0181A19D
:1037D00087FF12C0211531054105510549F17EBD14
:1037E0000DB407FEFDCF1EBD0DB407FEFDCF215069
:1037F000310941095109EECF211531054105510526
:10380000B9F0672FC70129833A834B835C837D839B
:103810000E942D18612FC7010E942D1829813A811D
:103820004B815C8121503109410951097D81E4CFEF
:103830000F900F900F900F900F90DF91CF911F91ED
:10384000FF90EF9008958F929F92AF92BF92CF9288
:10385000DF92EF92FF920F931F93CF93DF935C0160
:10386000FB01E9014701DC0118962D913C91199764
:10387000621773070CF049C01A968D919C911B97A3
:10388000481759070CF041C06B01CC0EDD1ED60164
:1038900011977A01E00EF11EB70161507109B7FD71
:1038A00034C077FD32C0F7FF03C0E601E0E0F0E08E
:1038B00057FF03C0870140E050E0A217B3071CF098
:1038C000E901CE1BDF0B681779071CF08C01041B84
:1038D000150B9E01D8010E942B216B017C01BF01B9
:1038E000C5010E94D61AA7019601B401C501DF9156
:1038F000CF911F910F91FF90EF90DF90CF90BF90ED
:10390000AF909F908F900C94DA1BDF91CF911F9115
:103910000F91FF90EF90DF90CF90BF90AF909F906E
:103920008F9008954F925F926F927F929F92AF9285
:10393000BF92CF92DF92EF92FF920F931F93CF939C
:10394000DF9300D000D0CDB7DEB78C0160E0DC01A2
:1039500012968C910E94DC0860E0F80183810E943D
:10396000DC0861E0D80115968C910E94DC0861E0CA
:10397000F80184810E94DC08D80150968C91509700
:103980001896ED91FC9119979081892B808351961F
:103990009C9151971C96ED91FC911D978081282F49
:1039A00030E0892F90E08095909582239323808347
:1039B00012968C910E94671E7C01F80182810E9400
:1039C000671E9701281B390B2C5F3F4F29303105AB
:1039D00048F4A701480F591FCA0195958795992466
:1039E000939401C0912C2FEF33E07901E81AF90A82
:1039F00060E0D80115968C910E94DC0860E0F80127
:103A000084810E94DC0861E0D80112968C910E94AA
:103A1000DC0861E0F80183810E94DC08D80153963C
:103A20009C9153971E96ED91FC911F978081282FB2
:103A300030E0892F90E080959095822393238083B6
:103A400052968C9152971A96ED91FC911B9790810A
:103A5000892B808314968C910E94671E6C01F8015B
:103A600084810E94671EA601481B590B4C5F5F4F63
:103A70004930510538F49601280F391FC901959531
:103A8000879501C0912C4FEF53E06A01C81AD90AFB
:103A900061E0D80115968C910E94DC0860E0F80185
:103AA00082810E94DC08D80150969C91509718960C
:103AB000ED91FC9119978081282F30E0892F90E0BB
:103AC0008095909582239323808353968C9153976E
:103AD0001E96ED91FC911F979081892B80831496FF
:103AE0008C910E94671E5C01F80182810E94671E12
:103AF000D80116960D911C9117970115110509F41F
:103B00003FC0BC01990F880B990B0E94D91F2B0154
:103B10003C01B501BB0C880B990B0E94D91F9B017E
:103B2000AC01C301B2010E942F1F20E030E040E849
:103B30005FE30E94C21E2B013C01B7010F2C000C59
:103B4000880B990B0E94D91F9B01AC01C301B201E4
:103B50000E9465202B013C01B80180E090E00E94AA
:103B6000D71F9B01AC01C301B2010E94652020E078
:103B700030E040E85AE30E9465200E94A11F05C082
:103B8000B501681B790B61507C4F911002C060E059
:103B900070E0FA82E982DC82CB827E836D832E2DF7
:103BA0003A814C2D5C817E8180E090E026960FB6B4
:103BB000F894DEBF0FBECDBFDF91CF911F910F9163
:103BC000FF90EF90DF90CF90BF90AF909F907F904D
:103BD0006F905F904F900895EF92FF920F931F9315
:103BE000DC0112964C93129714962C93149713960B
:103BF0000C93139715966C9315971796FC92EE926B
:103C0000169770E0FB01EA59FD4FE491F0E0EE0FEA
:103C1000FF1FEA53FD4F8591949119969C938E93C3
:103C2000189750E0FA01EA59FD4FE491F0E0EE0FE9
:103C3000FF1FEA53FD4F859194911B969C938E93A1
:103C40001A9730E0F901EA59FD4FE491F0E0EE0FE8
:103C5000FF1FEA53FD4F859194911D969C938E937F
:103C60001C9710E0F801EA59FD4F849190E0880F0D
:103C7000991F8A539D4FFC01859194911F969C93A7
:103C80008E931E97FB01E05EFD4F649150966C93FE
:103C90005097FA01E05EFD4F449152964C93529733
:103CA000F901E05EFD4F249151962C935197F80154
:103CB000E05EFD4F049153960C9353978AE090E099
:103CC0008D939C931F910F91FF90EF9008958633F1
:103CD00008F0865390917B00282F2870977F922BB5
:103CE00090937B0087702091000290E4299F9001BF
:103CF0001124822B80937C0080917A0080648093D1
:103D00007A0080917A0086FDFCCF80917800209126
:103D1000790090E0922B089561E085E30E941809F4
:103D200061E085E30E94DC088CB580618CBD8CB5B8
:103D300080648CBD61E084E30E94DC0861E083E381
:103D40000C94DC08811103C08CB5806202C08CB574
:103D50008F7D8CBD08959CB5937F892B8CBD089574
:103D60009CB5282F23709C7F922B9CBD2DB582FB88
:103D7000992790F9822F8E7F892B8DBD0895F89415
:103D80000C9454215058BB27AA270E94DA1E0C9489
:103D90002B200E941D2038F00E94242020F039F4AE
:103DA0009F3F19F426F40C941A200EF4E095E7FBDB
:103DB0000C941420E92F0E943C2058F3BA17620794
:103DC00073078407950720F079F4A6F50C945E201C
:103DD0000EF4E0950B2EBA2FA02D0B01B901900126
:103DE0000C01CA01A0011124FF27591B99F0593F6A
:103DF00050F4503E68F11A16F040A22F232F342FB2
:103E00004427585FF3CF469537952795A795F040FF
:103E10005395C9F77EF41F16BA0B620B730B840B14
:103E2000BAF09150A1F0FF0FBB1F661F771F881FCC
:103E3000C2F70EC0BA0F621F731F841F48F4879524
:103E400077956795B795F7959E3F08F0B0CF939516
:103E5000880F08F09927EE0F9795879508950E948F
:103E6000431F0C942B200E94242058F00E941D20F8
:103E700040F029F45F3F29F00C94142051110C9468
:103E80005F200C941A200E943C2068F39923B1F320
:103E9000552391F3951B550BBB27AA276217730770
:103EA000840738F09F5F5F4F220F331F441FAA1F04
:103EB000A9F335D00E2E3AF0E0E832D091505040C0
:103EC000E695001CCAF72BD0FE2F29D0660F771F6E
:103ED000881FBB1F261737074807AB07B0E809F054
:103EE000BB0B802DBF01FF2793585F4F3AF09E3FD9
:103EF000510578F00C9414200C945F205F3FE4F39C
:103F0000983ED4F3869577956795B795F7959F5F1B
:103F1000C9F7880F911D9695879597F90895E1E067
:103F2000660F771F881FBB1F621773078407BA07C6
:103F300020F0621B730B840BBA0BEE1F88F7E09521
:103F400008950E94A81F6894B1110C945F200895F1
:103F50000E94442088F09F5798F0B92F9927B751B5
:103F6000B0F0E1F0660F771F881F991F1AF0BA951D
:103F7000C9F714C0B13091F00E945E20B1E00895FD
:103F80000C945E20672F782F8827B85F39F0B93FEF
:103F9000CCF3869577956795B395D9F73EF49095D0
:103FA0008095709561957F4F8F4F9F4F0895E8944E
:103FB00009C097FB3EF490958095709561957F4F71
:103FC0008F4F9F4F9923A9F0F92F96E9BB2793951F
:103FD000F695879577956795B795F111F8CFFAF42F
:103FE000BB0F11F460FF1BC06F5F7F4F8F4F9F4F60
:103FF00016C0882311F096E911C0772321F09EE8BE
:10400000872F762F05C0662371F096E8862F70E023
:1040100060E02AF09A95660F771F881FDAF7880FFD
:104020009695879597F9089597F99F6780E870E0CE
:1040300060E008959FEF80EC089500240A9416161E
:10404000170618060906089500240A941216130686
:10405000140605060895092E0394000C11F4882314
:1040600052F0BB0F40F4BF2B11F460FF04C06F5F30
:104070007F4F8F4F9F4F089557FD9058440F551F06
:1040800059F05F3F71F04795880F97FB991F61F0DA
:104090009F3F79F087950895121613061406551F51
:1040A000F2CF4695F1DF08C0161617061806991FBD
:1040B000F1CF86957105610508940895E894BB27B2
:1040C00066277727CB0197F908950E9478200C94F2
:1040D0002B200E941D2038F00E94242020F09523E0
:1040E00011F00C9414200C941A2011240C945F20CD
:1040F0000E943C2070F3959FC1F3950F50E0551F2F
:10410000629FF001729FBB27F00DB11D639FAA272C
:10411000F00DB11DAA1F649F6627B00DA11D661F7B
:10412000829F2227B00DA11D621F739FB00DA11D9C
:10413000621F839FA00D611D221F749F3327A00D56
:10414000611D231F849F600D211D822F762F6A2FF2
:1041500011249F5750409AF0F1F088234AF0EE0F57
:10416000FF1FBB1F661F771F881F91505040A9F784
:104170009E3F510580F00C9414200C945F205F3F0B
:10418000E4F3983ED4F3869577956795B795F795C0
:10419000E7959F5FC1F7FE2B880F911D9695879538
:1041A00097F90895DB018F939F930E944921BF9156
:1041B000AF91A29F800D911DA39F900DB29F900D76
:1041C00011240895A1E21A2EAA1BBB1BFD010DC0EC
:1041D000AA1FBB1FEE1FFF1FA217B307E407F507B7
:1041E00020F0A21BB30BE40BF50B661F771F881F93
:1041F000991F1A9469F760957095809590959B0129
:10420000AC01BD01CF010895052E97FB1EF400946B
:104210000E941B2157FD07D00E94E22007FC03D01B
:104220004EF40C941B2150954095309521953F4FAD
:104230004F4F5F4F089590958095709561957F4F92
:104240008F4F9F4F0895EE0FFF1F881F8BBF079062
:10425000F691E02D19940E943321332312F48A1B26
:104260009B0B0C944421A29FB001B39FC001A39F5C
:10427000700D811D1124911DB29F700D811D11249F
:10428000911D08950E943321B7FF0895821B930B5F
:1042900008950E943321A59F900DB49F900DA49F77
:0C42A000800D911D11240895F894FFCFAB
:1042AC00013A0043726561746520416C61726D0066
:1042BC00486F7572004D696E75746573000000006F
:1042CC0000DA0A7109830AAF0A930ACF0A000000C8
:1042DC00008C157109820A420F430F620F4A0F5668
:1042EC000F990E720F41114011730FB80FFC0F4D47
:1042FC00106B10E110000000008C157109AC1694C5
:10430C0017A81B231C85169916990E7A16641AB0D9
:0E431C001AE2161C1756174D106B10E1100018
:00000001FF
