:100000000C94FF030C9430040C9430040C943004D2
:100010000C9430040C9430040C9430040C94300490
:100020000C9430040C9430040C9430040C94300480
:100030000C9430040C9430040C9430040C94300470
:100040000C9430040C9430040C9430040C94300460
:100050000C9430040C9430040C9430040C94B70EBF
:100060000C9430040C947D140C9449150C943004B9
:100070000C9430040C9430040C9430040C94300430
:100080000C9430040C9430040C9430040C94300420
:100090000C94B0140C9488150C9430040C94300417
:1000A0000C9430040C9430040C9430040C94300400
:1000B0000C9430040C9430040C9430040C943004F0
:1000C0000C9430040C9430040C9430040C94E3141D
:1000D0000C94C7150C9430040C9416150C94061649
:1000E0000C94300400100310F60FFA0F3A100710AA
:1000F0000B101110151019101F10231027103A1093
:100100002D10311035100C94E0170C94C9130C9479
:10011000DB200C9491180C94881A0C94F60F0C9414
:1001200023100C94EF240C94E01F0C94871A0C9469
:10013000CD160C9463200C94F31F0C94D0100C94E7
:100140009D180C9416140C9435100C9419100C94E2
:1001500021140C941F100C946A250C94AB230C945E
:1001600094190C94BA180C9489180C9427100C94B8
:10017000C11F0C9403100C94B2190C94E1070C9459
:10018000D31E0C943A100C9431100C9411100C9452
:100190008A180C94A9180C94281A0C94F7230C9420
:1001A00029200C94F6130C940B100C94B9180C9491
:1001B000CC1F0C94FF180C94CA130C9443190C9484
:1001C000DA130C9407100C942D100C949D200C94B1
:1001D000FA0F0C9415100C9400100000090A020884
:1001E0000B0C0D07060304010000000000000000D6
:1001F00000000000000000000000000000000000FF
:1002000000000000000011100F00000000000000BE
:1002100000000000000000000000000000000000DE
:100220000102102020080810204010204080020108
:1002300002010804020101020408102040808040ED
:1002400020100804020180040201804020100804EC
:10025000020108040201010204081020408001028A
:100260000408102040800505050507050808080852
:10027000020202020A0A080804040404010101013E
:100280000101010103030303030303030407070739
:100290000C0C0C0C0C0C0C0C0202020206060606DE
:1002A000060606060B0B0B0B0B0B0B0B00002000BE
:1002B0002300260029002C002F003200000100003E
:1002C00003010601090100002200250028002B007F
:1002D0002E003100340002010000050108010B016D
:1002E00000002100240027002A002D0030003300E8
:1002F00001010000040107010A0100000000003EA6
:100300005B4F5B3E3E6B4F6B3E1C3E7C3E1C183C85
:100310007E3C181C577D571C1C5E7F5E1C00183CE1
:100320001800FFE7C3E7FF0018241800FFE7DBE72A
:10033000FF30483A060E2629792926407F05050711
:10034000407F05253F5A3CE73C5A7F3E1C1C08086D
:100350001C1C3E7F14227F22145F5F005F5F060932
:100360007F017F006689956A606060606094A2FF8B
:10037000A29408047E040810207E201008082A1C7D
:1003800008081C2A08081E101010100C1E0C1E0C49
:1003900030383E3830060E3E0E06000000000000E9
:1003A000005F00000007000700147F147F14242A58
:1003B0007F2A12231308646236495620500008072A
:1003C0000300001C2241000041221C002A1C7F1C4B
:1003D0002A08083E0808008070300008080808084D
:1003E000000060600020100804023E5149453E00B4
:1003F000427F400072494949462141494D33181412
:10040000127F1027454545393C4A49493141211160
:1004100009073649494936464949291E0000140052
:100420000000403400000008142241141414141475
:10043000004122140802015909063E415D594E7CD3
:100440001211127C7F494949363E414141227F4188
:1004500041413E7F494949417F090909013E4141E6
:1004600051737F0808087F00417F41002040413FD1
:10047000017F081422417F404040407F021C027FE0
:100480007F0408107F3E4141413E7F090909063E35
:100490004151215E7F091929462649494932030104
:1004A0007F01033F4040403F1F2040201F3F403816
:1004B000403F631408146303047804036159494DF1
:1004C00043007F4141410204081020004141417F27
:1004D000040201020440404040400003070800209D
:1004E000545478407F28444438384444442838449D
:1004F00044287F385454541800087E090218A4A4D4
:100500009C787F0804047800447D40002040403DF2
:10051000007F1028440000417F40007C047804786C
:100520007C080404783844444438FC1824241818FF
:10053000242418FC7C08040408485454542404045B
:100540003F44243C4040207C1C2040201C3C403048
:10055000403C44281028444C9090907C4464544C77
:1005600044000836410000007700000041360800D2
:1005700002010204023C2623263C1EA1A161123A7C
:100580004040207A385454555921555579412254C8
:10059000547842215554784020545579400C1E52CD
:1005A0007212395555555939545454593955545472
:1005B000580000457C410002457D420001457C40D9
:1005C0007D1211127DF0282528F07C54554500201D
:1005D00054547C547C0A097F4932494949323A448F
:1005E00044443A324A4848303A4141217A3A4240FA
:1005F0002078009DA0A07D3D4242423D3D404040CC
:100600003D3C24FF2424487E4943662B2FFC2F2B9E
:10061000FF0929F620C0887E09032054547941003F
:1006200000447D413048484A32384040227A007ABE
:100630000A0A727D0D19317D2629292F282629299C
:10064000292630484D4020380808080808080808BE
:10065000382F10C8ACBA2F102834FA00007B0000E5
:1006600008142A142222142A14085500550055AAE9
:1006700055AA55AAFF55FF55FF000000FF001010B6
:1006800010FF00141414FF001010FF00FF1010F0F2
:1006900010F0141414FC001414F700FF0000FF0005
:1006A000FF1414F404FC141417101F10101F101F53
:1006B0001414141F00101010F0000000001F101080
:1006C00010101F10101010F010000000FF1010107C
:1006D000101010101010FF10000000FF140000FF99
:1006E00000FF00001F10170000FC04F41414171082
:1006F000171414F404F40000FF00F7141414141475
:100700001414F700F7141414171410101F101F14EA
:100710001414F4141010F010F000001F101F00004B
:10072000001F14000000FC140000F010F01010FF77
:1007300010FF141414FF141010101F00000000F01C
:1007400010FFFFFFFFFFF0F0F0F0F0FFFFFF0000F1
:10075000000000FFFF0F0F0F0F0F3844443844FC18
:100760004A4A4A347E02020606027E027E0263552F
:100770004941633844443C04407E201E2006027EEA
:10078000020299A5E7A5991C2A492A1C4C720172FC
:100790004C304A4D4D303048784830BC625A463D66
:1007A0003E494949007E0101017E2A2A2A2A2A441B
:1007B000445F444440514A444040444A5140000050
:1007C000FF0103E080FF000008086B6B083612365B
:1007D0002436060F090F060000181800000010103C
:1007E000003040FF0101001F01011E00191D1712FA
:1007F000003C3C3C3C0000000000E107CD16112409
:100800001FBECFEFD1E2DEBFCDBF00E00CBF13E0D3
:10081000A0E0B2E0E2E2FAE500E00BBF02C0079020
:100820000D92A036B107D9F726E0A0E6B3E001C0EB
:100830001D92A838B207E1F713E0CFEFD3E000E054
:1008400006C021970109802FFE010E94B42CCD3FE4
:10085000D10780E00807A9F70E94E40D0C94F7295E
:100860000C940000CF92DF92EF92FF920F931F93B0
:10087000CF93DF93EB017B0125E0E20EF11C8B01AE
:100880006C01C61AD70AC601800F911F0E94F92C6D
:10089000F80181938F01EE15FF05A9F7CE01DF91D5
:1008A000CF911F910F91FF90EF90DF90CF9008951F
:1008B000FF920F931F93CF93DF930E94620F40E844
:1008C00055E260E070E082E494E00E94451660E04A
:1008D0008BE00E943B1061E08BE00E94771060E0AB
:1008E0008CE20E943B1061E08CE20E94771060E095
:1008F00081E00E943B10C7EFD2E00FEE12E0F880DB
:10090000229660E08F2D0E943B1061E08F2D0E94A7
:100910007710F80180810E5F1F4F61E00E943B104D
:10092000F2E0CF3FDF0759F761E0809100020E94BB
:100930003B1061E08CE00E943B1061E08BE20E9482
:100940003B1040E050E0BA0184E793E0DF91CF91A3
:100950001F910F91FF900C94B521CF93DF93EC0181
:1009600026E4269FC001279F900D1124BC01640F2F
:10097000751F4FE050E084E793E00E94A91F6BE0F1
:1009800084E793E00E94AF1F40E050E06FEF7FEFFD
:1009900084E793E00E94BB1F4AE050E0BE0184E779
:1009A00093E0DF91CF910C94231240E050E060E09F
:1009B00070E08091B9039091BA030E94AD0440E0C9
:1009C00050E061E070E08091B7039091B8030E941D
:1009D000AD044EE150E062E070E08091B50390918B
:1009E000B6030E94AD044EE150E063E070E08091F8
:1009F000B3039091B4030C94AD04E7ECF3E0808171
:100A000091819093BA038093B9032281338130930B
:100A1000B8032093B703248135813093B603209324
:100A2000B503268137813093B4032093B30340E0AC
:100A300050E060E070E00E94AD0440E050E061E012
:100A400070E08091B7039091B8030E94AD044EE12D
:100A500050E062E070E08091B5039091B6030E948F
:100A6000AD044EE150E063E070E08091B3039091FB
:100A7000B4030C94AD04CF93DF9360ED77E080E096
:100A800090E00E94320FC0E0D0E061E08CE00E9474
:100A9000771084E690E00E94580F60E08CE00E949E
:100AA000771084E690E00E94580F2097C1F46BE025
:100AB00072E082E494E00E947111E091AF03F0E0F3
:100AC000EE0FFF1FE950FD4F80810E94A71031E01B
:100AD00020E0892B09F030E0C32FD22FD6CFC130D0
:100AE000D10571F563E172E082E494E00E94711136
:100AF000E091B003F0E0EE0FFF1FE950FD4F808161
:100B00000E94A710892B19F4C2E0D0E0BECF86E185
:100B10000E94A710019709F0B6CF88E10E94A710A4
:100B2000019709F0B0CF8AE10E94A710019709F060
:100B3000AACF8CE10E94A710019709F0A4CFA5CFFE
:100B4000C230D10571F56FE172E082E494E00E9459
:100B50007111E091B103F0E0EE0FFF1FE950FD4F7E
:100B600080810E94A710892B19F4C3E0D0E08DCFBB
:100B700086E10E94A710019709F085CF88E10E94C5
:100B8000A710019709F07FCF8AE10E94A710019773
:100B900009F079CF8CE10E94A710019709F073CF7B
:100BA000B3CFC330D10571F56BE272E082E494E01B
:100BB0000E947111E091B203F0E0EE0FFF1FE950C7
:100BC000FD4F80810E94A710892B19F4C4E0D0E06A
:100BD0005CCF86E10E94A710019709F054CF88E10D
:100BE0000E94A710019709F04ECF8AE10E94A7103A
:100BF000019709F048CF8CE10E94A710019709F0F6
:100C000042CFB3CFC430D10509F03FCF67E372E0E4
:100C100082E494E00E94711160E08CE0DF91CF915A
:100C20000C947710EF92FF920F931F93CF93DF9363
:100C3000CFEAD3E024E0E22EF12C81E00E94C40F41
:100C4000B7010E945F2C8E018883FC01FF27EE0F05
:100C5000FF1FE151FD4F61E080810E94771060ED40
:100C600077E080E090E00E94320FE991F0E0EE0F33
:100C7000FF1FE151FD4F60E080810E94771067E423
:100C800072E082E494E00E9471114AE050E0F801C1
:100C9000608182E494E00E944E12F3E0C33BDF07E0
:100CA00061F6DF91CF911F910F91FF90EF900C941F
:100CB0003B05EF92FF920F931F93CF93DF9300D0EA
:100CC0001F921F92CDB7DEB78091B3039091B4030A
:100CD00001969093B4038093B3030A9769F48091CB
:100CE000B5039091B60301969093B6038093B50334
:100CF0001092B4031092B3038091B5039091B603A0
:100D0000069701F58091B7039091B80301969093EF
:100D1000B8038093B7031092B6031092B5031092F4
:100D2000B4031092B3032091AB033091AC03232B97
:100D300049F48A30910534F440E050E061E070E01D
:100D40000E94AD048091AB039091AC03892BA1F478
:100D50004EE150E062E070E08091B5039091B603FF
:100D60000E94AD044EE150E063E070E08091B30377
:100D70009091B4030E94AD048091B7039091B803A1
:100D80000A9729F58091B9039091BA03019690933F
:100D9000BA038093B9031092B8031092B7038091FD
:100DA000AB039091AC03892B91F440E050E061E0FB
:100DB00070E080E090E00E94AD0440E050E060E030
:100DC00070E08091B9039091BA030E94AD048091C4
:100DD000B9039091BA03029771F58091B70390918E
:100DE000B803049741F51092BA031092B903109218
:100DF000B8031092B7031092B6031092B503109285
:100E0000B4031092B3038091AB039091AC03892B90
:100E100091F440E050E060E070E080E090E00E94FB
:100E2000AD0440E050E061E070E08091B703909144
:100E3000B8030E94AD0480E090E00E94F92C90E09D
:100E40009093AA038093A90382E0E82EF12C01E09D
:100E500010E08091A9039091AA03801791070CF4E8
:100E60004AC0BE016F5F7F4FC7010E943204898173
:100E700090E02091B9033091BA0328173907A9F5FA
:100E80008A8190E02091B7033091B8032817390781
:100E900061F58B8190E02091B5033091B60328175E
:100EA000390719F58C8190E02091B3033091B40398
:100EB00028173907D1F48D818823B9F08091A703D1
:100EC0009091A803892B89F468E572E082E494E0AC
:100ED0000E9471110E94120661E08BE20E9477105D
:100EE00060E08BE20E947710E9CF0F5F1F4F85E033
:100EF000E80EF11CAECF0F900F900F900F900F9057
:100F0000DF91CF911F910F91FF90EF900895DF92A5
:100F1000EF92FF920F931F93CF93DF9300D01F9216
:100F20001F92CDB7DEB780E090E00E94F92C90E0F0
:100F30009093AA038093A90382E0E82EF12C01E0AC
:100F400010E0D12C8091A9039091AA0380179107FA
:100F50008CF0BE016F5F7F4FC7010E9432048D810C
:100F6000882311F0DD24D3940F5F1F4F85E0E80E36
:100F7000F11CE8CFDD2011F061E001C060E080915C
:100F800000020E9477100F900F900F900F900F901B
:100F9000DF91CF911F910F91FF90EF90DF90089517
:100FA000CF93DF93C0E0D0E060E0CE010E94012D3E
:100FB0002196C11580E1D807B9F7DF91CF910C9444
:100FC0008707EF92FF920F932FEF49E06AE084E7E3
:100FD00093E00E94F4208CE2E82EFF24F39405E0D5
:100FE00029E348E364E080E693E00E9433270F9111
:100FF000FF90EF900895AF92BF92CF92DF92EF9261
:10100000FF920F931F9360E070E084E793E00E94EB
:101010009419EE24EA94FE2C08E210E024E630E075
:1010200041E750E063E770E084E793E00E949D2091
:1010300064E084E793E00E94AF1F60E070E084E723
:1010400093E00E94B51F43E750E065E770E084E756
:1010500093E00E94A91F61E672E084E793E00E949A
:101060007111AA24AA94BA2C2FE8C22ED12C3FE5E4
:10107000E32EF12C01E710E02EE630E041E750E0EE
:1010800060E570E084E793E00E94BE1A41E7C42E59
:10109000D12C50EFE52EF12C0FE810E02FEF30E0CF
:1010A0004FE850E061EE70E084E793E00E94BE1AE2
:1010B000EE24EA94FE2C03E210E02CE830E048EA4B
:1010C00050E069E670E084E793E00E949D2064E0D0
:1010D00084E793E00E94AF1F60E070E084E793E054
:1010E0000E94B51F4AEA50E06BE670E084E793E0A7
:1010F0000E94A91F66E672E084E793E00E947111E6
:101100007BECC72ED12CEBE4EE2EF12C08EA10E09C
:101110002AE530E048EA50E06CE370E084E793E0D1
:101120000E94BE1AF8EACF2ED12CAEE0EA2EFF24A0
:10113000F3940BEC10E02DE131E04BEC50E06FEF5D
:1011400070E084E793E00E94BE1A63E084E793E0D6
:101150000E94AF1F4FEF5FEF60E070E084E793E025
:101160000E94BB1F4CED50E066E470E084E793E022
:101170000E94A91F6EE672E084E793E00E9471115D
:1011800065E084E793E00E94AF1F40E058EF6FEF07
:101190007FEF84E793E00E94BB1F48EC50E060E0E3
:1011A00070E084E793E00E94A91F65EE72E084E797
:1011B00093E00E94711140E050E060E070E080E058
:1011C00090E00E94AD0440E050E061E070E080E01B
:1011D00090E00E94AD044EE150E062E070E080E0FB
:1011E00090E00E94AD044EE150E063E070E080E0EA
:1011F00090E01F910F91FF90EF90DF90CF90BF9004
:10120000AF900C94AD048F929F92AF92BF92CF9209
:10121000DF92EF92FF920F931F93CF93DF93CDB79F
:10122000DEB7AF970FB6F894DEBF0FBECDBF82E03A
:1012300090E09093AC038093AB0360E070E084E7B0
:1012400093E00E94941965E084E793E00E94AF1F49
:1012500040E058EF6FEF7FEF84E793E00E94BB1F01
:1012600048EC50E060E070E084E793E00E94A91F42
:1012700065EE72E084E793E00E947111AA24AA94BB
:10128000BA2C3DECC32ED12C41EBE42EF12C00EF17
:1012900010E020EA30E04DEC50E06FE870E084E7C9
:1012A00093E00E94BE1A69E772E082E494E00E9433
:1012B000711166E872E082E494E00E9442114AE013
:1012C00050E060E070E182E494E00E94551280E01A
:1012D00090E00E94F92C90E09093AA038093A903D8
:1012E00064E972E082E494E00E9442116091A903F3
:1012F0007091AA034AE050E082E494E00E942A122E
:1013000052E0852E912CC12CD12CAA24A394B12C6F
:101310008091A9039091AA038A159B050CF4B1C092
:10132000BE01655D7F4FC4010E9432044AE050E077
:101330006BA582E494E00E944E124AE050E06CA556
:1013400082E494E00E944E124AE050E06DA582E4EF
:1013500094E00E944E124AE050E06EA582E494E0D0
:101360000E944E1265E084E793E00E94AF1F8FA5B4
:10137000882329F090EEE92E97E0F92E03C0E12CA6
:1013800088EFF82E03E210E020EA30E0A60160EAE0
:1013900070E084E793E00E949D20A60160E070E089
:1013A00084E793E00E94A91F6CEC72E0CE01849662
:1013B0000E94D91240E16EA5CE0101960E9427132A
:1013C00040E16DA5CE0108960E94271340E16CA56F
:1013D000CE0146960E94271340E16BA5CE014D96A3
:1013E0000E942713BE01635E7F4FCE010F960E94BD
:1013F0000613BE016A5E7F4FCE010F960E949713BF
:101400006AE30E94AA13BE01685F7F4F0E94971390
:10141000BE016F5F7F4F0E949713BC01CE0184967F
:101420000E94EF12CE010F960E946B12CE014D96D4
:101430000E946B12CE0146960E946B12CE01089656
:101440000E946B12CE0101960E946B126FEF7FEF2C
:1014500084E793E00E94B51FBE016C5D7F4F84E777
:1014600093E00E945F11CE0184960E946B128FEF71
:10147000A81AB80A82E3C80ED11C85E0880E911C18
:1014800047CFAF960FB6F894DEBF0FBECDBFDF914A
:10149000CF911F910F91FF90EF90DF90CF90BF9071
:1014A000AF909F908F900895EF92FF920F931F93AC
:1014B000EE24EA94FE2C0EE110E027ED30E04EEB36
:1014C00050E065E370E084E793E00E949D2063E0D4
:1014D00084E793E00E94AF1F60E070E084E793E050
:1014E0000E94B51F40EC50E065E370E084E793E0B4
:1014F0000E94A91F64EA72E084E793E00E947111E0
:1015000027ED30E046E950E065E370E084E793E0E2
:101510000E949D2063E084E793E00E94AF1F60E09B
:1015200070E084E793E00E94B51F48E950E06AE369
:1015300070E084E793E00E94A91F61EB72E084E70A
:1015400093E00E94711165E084E793E00E94AF1F71
:1015500040E058EF6FEF7FEF84E793E00E94BB1FFE
:1015600048EC50E060E070E084E793E00E94A91F3F
:1015700065EE72E084E793E01F910F91FF90EF908A
:101580000C9471111092AC031092AB0360E070E008
:1015900084E793E00E9494190E94D5040C94540AA5
:1015A0000F931F93CF93DF9300D01F921F92CDB75D
:1015B000DEB7EFEBF3E08081898382818A838481C7
:1015C0008B8386818C8381E08D830E947F0E8C01CA
:1015D0006DEB72E082E494E00E9442114AE050E038
:1015E00065E070E082E494E00E94551225E0209FBF
:1015F000C001219F900D112429813A814B815C818A
:101600006D8102960E94420EC80101960E94980EBA
:101610000E94C20A6DEC72E082E494E00E947111B3
:101620000F900F900F900F900F90DF91CF911F911F
:101630000F910C948707EF92FF920F931F93CF9314
:10164000DF9300D01F921F92CDB7DEB701977C01C8
:1016500085E08E9D80018F9D100D11240E5F1F4F20
:10166000BE016F5F7F4FC8010E9432046D8191E01F
:1016700069276D8329813A814B815C81C8010E9471
:10168000420E8D81882359F082E38E9DA0018F9DAB
:10169000500D112490EEE92E97E0F92E09C082E357
:1016A0008E9DA0018F9D500D1124E12C88EFF82E06
:1016B00003E210E020EA30E060EA70E084E793E0C3
:1016C0000E949D200E94870768EE73E080E090E012
:1016D0000E94320F0F900F900F900F900F90DF919C
:1016E000CF911F910F91FF90EF9008954F925F92CD
:1016F0006F927F928F929F92AF92BF92CF92DF9222
:10170000EF92FF920F931F93CF93DF9300D000D0FF
:10171000CDB7DEB780E693E00E94D92529833A83CE
:101720004B835C836D837E838D819E810A978F3D81
:10173000934008F0FFC169817A81072E000C880B65
:10174000990B1F921F921F922FEE2F93A12CB12C59
:10175000650118E9E12E13E0F12E00E010E026E922
:1017600030E040E050E00E949F172B013C014B010C
:101770006B817C81072E000C880B990B1F921F92A6
:101780001F921F923FE3A32EBB24B394C12CD12CF4
:101790001CEAE12E13E0F12E00E010E028E730E033
:1017A00040E050E00E949F176B017C018B010451C7
:1017B00011096FED72E082E494E00E9442114AE068
:1017C00050E0B80182E494E00E942A1267EE72E0D1
:1017D00082E494E00E9442114AE050E0B20182E4C7
:1017E00094E00E942A128091AB039091AC030FB653
:1017F000F894DEBF0FBECDBF009779F5C6018A54BD
:101800009109853D910530F4C2018F5B91094D9797
:1018100008F487C1C20182589109C39778F439E46A
:10182000C31AD10888EDC816D10440F48091AD03E5
:101830009091AE03892B11F40E94030928EC421AFF
:10184000510839E24316510408F04FC10A3111051D
:1018500008F04BC10E94D00748C18130910509F0C2
:101860000BC1C201815791094F9708F076C0C6019C
:10187000845691094F97E0F58091C1039091C2037E
:1018800001979093C2038093C10397FF28C0809172
:10189000BF039091C00301979093C0038093BF034F
:1018A00097FD07C089E090E09093C2038093C10345
:1018B0000CC084E090E09093C2038093C10382E067
:1018C00090E09093C0038093BF0340E050E060E05D
:1018D00070E08091BF039091C0030E94AD0440E08E
:1018E00050E061E070E08091C1039091C2039CC020
:1018F00085EFC81AD1082FE1C216D10408F0AEC096
:101900008091C1039091C20301969093C20380938A
:10191000C1030A976CF08091BF039091C0030196B8
:101920009093C0038093BF031092C2031092C1032F
:101930008091BF039091C00302973CF28091C10354
:101940009091C20304970CF21092C2031092C1034B
:101950001092C0031092BF03B8CFC201885A9109F8
:10196000849708F066C0C601805591094F9718F515
:101970008091C5039091C60301979093C60380930D
:10198000C50397FF49C08091C3039091C403019799
:101990009093C4038093C30329E030E03093C603DF
:1019A0002093C50397FF2EC085E090E09093C40379
:1019B0008093C30327C033E1C31A31E0D30A8FE118
:1019C000C816D10408F04AC08091C5039091C6039F
:1019D00001969093C6038093C5030A97ECF080911B
:1019E000C3039091C40301969093C4038093C303EF
:1019F0001092C6031092C503069724F01092C403F8
:101A00001092C3034EE150E062E070E08091C303A6
:101A10009091C4030E94AD044EE150E063E070E099
:101A20008091C5039091C6030E94AD041092BB0340
:101A300015C08091BB03811111C0C2018C5D910959
:101A4000459760F42AE5C21AD10839ECC316D104CF
:101A500028F40E94D00A81E08093BB0388EC481AE6
:101A6000510829E24216510408F03FC00A3111051D
:101A7000E0F50E94C20A39C00297B9F538EC431A62
:101A8000510889E24816510428F40A31110510F46E
:101A90000E94C20A24EBC21AD10831EAC316D1044B
:101AA00020F583E2E82EF12C01E010E08091A903FB
:101AB0009091AA0380179107C4F0C70183978816F5
:101AC00099066CF0E814F90454F04AE050E0B801CB
:101AD00082E494E00E942A12C8010E941B0B0F5F4F
:101AE0001F4F82E3E80EF11CE1CF64E670E080E076
:101AF00090E026960FB6F894DEBF0FBECDBFDF9103
:101B0000CF911F910F91FF90EF90DF90CF90BF90FA
:101B1000AF909F908F907F906F905F904F900C94BC
:101B2000320F81E090E09093AC038093AB030E946E
:101B3000FB0770CE26960FB6F894DEBF0FBECDBF62
:101B4000DF91CF911F910F91FF90EF90DF90CF9099
:101B5000BF90AF909F908F907F906F905F904F90CD
:101B60000895CF93C1E08091BC0381112BC082E422
:101B700094E00E94CA1318161906CCF482E494E08B
:101B80000E94F6138C32910591F02091BD033091A3
:101B9000BE03F901EE0FFF1FE953FC4FC09791837D
:101BA00080832F5F3F4F3093BE032093BD0380910E
:101BB000BD039091BE030697B1F6C093BC030E948B
:101BC000FD04D1CFCF9108950E94580440E050E029
:101BD000BA0184E793E00E94B52160E070E084E7F9
:101BE00093E00E94941963E084E793E00E94AB23A2
:101BF0000E94D5040E94540A0E948707C1E0809188
:101C0000BC0381110AC08BE00E94A710892BB9F791
:101C10000E94B10DC093BC03F2CF80E6C82E8AEEBD
:101C2000D82EE12CF12C0E94010FA70196010E94F1
:101C3000732C672B682B692B11F40E9459060E94A4
:101C4000760BF1CFEF92FF920F931F93CF93DF9319
:101C50001F92CDB7DEB77C01FC0100811181C80164
:101C600069830E94F92C6981681719F0C8010E94E4
:101C7000012DC7010F90DF91CF911F910F91FF9020
:101C8000EF900895CF92DF92EF92FF920F931F9300
:101C9000CF93DF93CDB7DEB727970FB6F894DEBFAB
:101CA0000FBECDBF2B833C834D835E836F837E014C
:101CB00028E0E20EF11C8E010D5F1F4F6C01C01A6F
:101CC000D10A9601200F311FF80161918F013A83EB
:101CD0002983CE0101960E94220E0E151F0589F759
:101CE00027960FB6F894DEBF0FBECDBFDF91CF9120
:101CF0001F910F91FF90EF90DF90CF900895CF93B9
:101D0000DF931F921F92CDB7DEB71A82198280E04F
:101D100090E00E94F92C898381E090E00E94F92CE8
:101D20008A8389819A810F900F90DF91CF910895D6
:101D3000CF93DF9300D01F92CDB7DEB79C838B8308
:101D40001A821982682FCE0101960E94220E6C81A0
:101D500081E090E09A838983CE0101960E94220E51
:101D60000F900F900F900F90DF91CF9108951F92D9
:101D70000F920FB60F9211242F933F938F939F933F
:101D8000AF93BF938091D4039091D503A091D603D4
:101D9000B091D7033091D30323E0230F2D3720F4E4
:101DA0000196A11DB11D05C026E8230F0296A11DB5
:101DB000B11D2093D3038093D4039093D503A093B4
:101DC000D603B093D7038091D8039091D903A09103
:101DD000DA03B091DB030196A11DB11D8093D803F6
:101DE0009093D903A093DA03B093DB03BF91AF9133
:101DF0009F918F913F912F910F900FBE0F901F9049
:101E000018952FB7F8946091D4037091D503809101
:101E1000D6039091D7032FBF08953FB7F8948091D0
:101E2000D8039091D903A091DA03B091DB0326B5D2
:101E3000A89B05C02F3F19F00196A11DB11D3FBF02
:101E4000BA2FA92F982F8827820F911DA11DB11D90
:101E5000BC01CD0142E0660F771F881F991F4A958C
:101E6000D1F70895CF92DF92EF92FF92CF93DF9355
:101E70006B017C010E940D0FEB01C114D104E10440
:101E8000F10479F00E940D0F6C1B7D0B683E7340CE
:101E9000A0F381E0C81AD108E108F108C851DC4F6D
:101EA000ECCFDF91CF91FF90EF90DF90CF9008952E
:101EB000019739F0880F991F880F991F0297019792
:101EC000F1F70895789484B5826084BD84B581600B
:101ED00084BD85B5826085BD85B5816085BDEEE632
:101EE000F0E0808181608083E1E8F0E01082808111
:101EF00082608083808181608083E0E8F0E080817F
:101F000081608083E1EBF0E0808184608083E0EB9E
:101F1000F0E0808181608083E1E9F0E0808182608F
:101F20008083808181608083E0E9F0E0808181604E
:101F30008083E1EAF0E0808182608083808181603B
:101F40008083E0EAF0E0808181608083E1E2F1E07B
:101F5000808182608083808181608083E0E2F1E023
:101F6000808181608083EAE7F0E080818460808303
:101F700080818260808380818160808380818068AD
:101F800080831092C1000895863308F086539091A3
:101F90007B00282F2870977F922B90937B0087706F
:101FA0002091020290E4299F90011124822B8093BA
:101FB0007C0080917A00806480937A0080917A001E
:101FC00086FDFCCF809178002091790090E0922BE3
:101FD000089590E0FC013197E131F10508F04AC025
:101FE0008827EE58FF4F8F4F0C94B42C80918000BF
:101FF0008F7703C0809180008F7D8093800008954B
:1020000084B58F7702C084B58F7D84BD089580919B
:10201000B0008F7703C08091B0008F7D8093B000B7
:102020000895809190008F7707C0809190008F7DF8
:1020300003C080919000877F8093900008958091E5
:10204000A0008F7707C08091A0008F7D03C0809192
:10205000A000877F8093A0000895809120018F7752
:1020600007C0809120018F7D03C080912001877F70
:10207000809320010895CF93DF9390E0FC01E05E10
:10208000FD4F2491FC01EA59FD4F8491882361F1B1
:1020900090E0880F991FFC01E052FD4FC591D4914B
:1020A000FC01EA53FD4FA591B491611109C09FB79E
:1020B000F8948881209582238883EC912E230BC08D
:1020C000623061F49FB7F8943881822F8095832322
:1020D0008883EC912E2B2C939FBF06C08FB7F8946A
:1020E000E8812E2B28838FBFDF91CF9108951F9316
:1020F000CF93DF93282F30E0F901E652FE4F849111
:10210000F901E05EFD4FD491F901EA59FD4FC49108
:10211000CC23C9F0162F81110E94E90FEC2FF0E0BB
:10212000EE0FFF1FEA53FD4FA591B4918FB7F894BE
:10213000111105C09C91ED2FE095E92302C0EC91AF
:10214000ED2BEC938FBFDF91CF911F910895CF932B
:10215000DF93282F30E0F901E652FE4F8491F90118
:10216000E05EFD4FD491F901EA59FD4FC491CC23B3
:1021700091F081110E94E90FEC2FF0E0EE0FFF1FAC
:10218000E455FD4FA591B491EC91ED2381E090E0F1
:1021900021F480E002C080E090E0DF91CF910895CB
:1021A000CF92DF92EF92FF920F931F93CF93DF9323
:1021B0006C01EB017B01E40EF51E00E010E0CE1592
:1021C000DF0561F06991D601ED91FC910190F081FC
:1021D000E02DC6011995080F191FF1CFC801DF9135
:1021E000CF911F910F91FF90EF90DF90CF900895C6
:1021F0006115710579F0FB0101900020E9F7319735
:10220000AF01461B570BDC01ED91FC910280F3817D
:10221000E02D199480E090E00895AF92BF92CF92A4
:10222000DF92EF92FF920F931F93CF93DF936C0196
:102230007B01C0E0D0E000E010E0D70114968D9162
:102240009C911597C817D90788F4D601ED91FC9198
:10225000A080B180BE01C7010E94B813682FC601DB
:10226000F5011995080F191F2196E7CFC801DF91D5
:10227000CF911F910F91FF90EF90DF90CF90BF9083
:10228000AF9008950C94F810DC01ED91FC91019051
:10229000F081E02D19940F931F93CF93DF93EC01FE
:1022A0006DE00E9444118C016AE0CE010E9444114D
:1022B000800F911FDF91CF911F910F9108950F9380
:1022C0001F93CF93DF93EC010E940D118C01CE017F
:1022D0000E944B11800F911FDF91CF911F910F91A1
:1022E00008950F931F93CF93DF93EC010E94F81092
:1022F0008C01CE010E944B11800F911FDF91CF9175
:102300001F910F9108958F929F92AF92BF92CF929B
:10231000DF92EF92FF920F931F93CF93DF93CDB78E
:10232000DEB7A1970FB6F894DEBF0FBECDBF6C012C
:10233000142FE52FCB01022F19A2223008F40AE056
:102340007E0121E2E20EF11C802E912CA12CB12CF9
:10235000612F7E2FA50194010E94732C029F1019FA
:10236000112481E0E81AF1081A3014F4105D01C05C
:10237000195CF7011083122FE32FCA01232B242BA2
:10238000252B31F7B701C6010E94F810A1960FB6B0
:10239000F894DEBF0FBECDBFDF91CF911F910F919B
:1023A000FF90EF90DF90CF90BF90AF909F908F9075
:1023B0000895CF92DF92EF92FF920F931F93CF93E6
:1023C000DF93EC016A017B012115310579F4E88185
:1023D000F9810190F081E02D642FDF91CF911F9161
:1023E0000F91FF90EF90DF90CF9019942A30310534
:1023F000E9F477FF1AC06DE20E9444118C01442772
:102400005527BA014C195D096E097F092AE0CE01F2
:102410000E948311800F911FDF91CF911F910F9127
:10242000FF90EF90DF90CF9008952AE0B701A601CA
:10243000CE01DF91CF911F910F91FF90EF90DF9030
:10244000CF900C9483119A01AB01770F660B770B39
:102450000C94D9110F931F93CF93DF93EC019A0142
:10246000AB01770F660B770B0E94D9118C01CE015F
:102470000E944B11800F911FDF91CF911F910F91FF
:1024800008952115310541F4DC01ED91FC91019095
:10249000F081E02D642F19940C9483119A01462F3A
:1024A00050E060E070E00C9441120F931F93CF93C3
:1024B000DF93EC019A01AB0160E070E00E944112F1
:1024C0008C01CE010E944B11800F911FDF91CF91A3
:1024D0001F910F910895FC01808191810C942C290A
:1024E000CF93DF93EC0188819981009711F00E94CE
:1024F0002C29198218821D821C821B821A82DF916C
:10250000CF9108950F931F93CF93DF93EC018B012D
:102510006F5F7F4F888199810E94AE27009731F0CD
:10252000998388831B830A8381E001C080E0DF9167
:10253000CF911F910F910895CF93DF93EC01888184
:102540009981892B29F08A819B818617970760F4EE
:10255000CE010E948212882341F08C819D81892BBB
:1025600019F4E881F981108281E0DF91CF9108951B
:10257000EF92FF920F931F93CF93DF93EC017B01B8
:102580008A01BA010E949C12811104C0CE010E94EE
:10259000701207C01D830C83B701888199810E9446
:1025A000032ACE01DF91CF911F910F91FF90EF9001
:1025B0000895FC0111821082138212821582148206
:1025C00016826115710551F0FB0101900020E9F7B9
:1025D0003197AF01461B570B0C94B8120895CF9357
:1025E000DF93EC01FB018617970761F06081718131
:1025F0006115710529F0448155810E94B81202C00D
:102600000E947012CE01DF91CF910895FC011182DA
:102610001082138212821582148216820C94EF1299
:10262000CF93DF93EC016115710559F0FB01019027
:102630000020E9F73197AF01461B570B0E94B812F3
:1026400002C00E947012CE01DF91CF9108950F93C6
:102650001F93CF93DF93CDB7DEB729970FB6F894CA
:10266000DEBF0FBECDBF8C01862FF8011182108214
:102670001382128215821482168250E0BE016F5FAF
:102680007F4F90E00E940A2ABE016F5F7F4FC80112
:102690000E94101329960FB6F894DEBF0FBECDBF6F
:1026A000DF91CF911F910F910895EF92FF920F93B9
:1026B0001F93CF93DF93FC01248135816115710550
:1026C00011F480E019C041155105A9F07B01EC011E
:1026D0008A01020F131FB8010E949C12882389F3FC
:1026E000288139818C819D81B701820F931F0E94BF
:1026F000032A1D830C8381E0DF91CF911F910F91FD
:10270000FF90EF900895CF93DF931F921F92CDB764
:10271000DEB769831A8241E050E0BE016F5F7F4FF0
:102720000E9455130F900F90DF91CF910895CF9392
:10273000DF93EC01FB0144815581608171810E942E
:102740005513811103C0CE010E947012CE01DF919A
:10275000CF910895CF93DF93EC010E9483138111F1
:1027600003C0CE010E947012CE01DF91CF91089577
:10277000FC01248135816217730748F480819181BF
:10278000009729F0FC01E60FF71F8081089580E093
:1027900008950895FC0124853585F901E05CFF4F1B
:1027A00080819181329620813181821B930B8F73BE
:1027B00099270895DC011C96ED91FC911D97DF018E
:1027C000A05CBF4F2D913C91119712968D919C91D9
:1027D00011972817390739F08D919C91E80FF91F4F
:1027E000808190E008958FEF9FEF0895FC01A4850C
:1027F000B585FD01E05CFF4F2081318132968081FB
:1028000091812817390779F080819181A80FB91F2C
:102810008C91208131812F5F3F4F2F73332731837C
:10282000208390E008958FEF9FEF0895FC0181A130
:10283000882329F0A489B5898C9186FFFBCF11A24A
:1028400008950F931F93CF93DF93FC01A685B7855F
:102850008D01005C1F4FE8018881998101968F737B
:102860009927AD014E5B5F4FEA01288139818217BC
:102870009307D1F3E80128813981A20FB31F6C932C
:10288000A685B785A05CBF4F11969C938E93A689B1
:10289000B7892C9181E090E0078C02C0880F991FC6
:1028A0000A94E2F7822B8C9381E081A30488F58956
:1028B000E02D80818064808381E090E0DF91CF9182
:1028C0001F910F910895FB01E05CFF4F2081318142
:1028D0002F5F3F4F2F733327DB01AE5BBF4F4D910F
:1028E0005C912417350741F040815181DB01A40F31
:1028F000B51F8C933183208308951F920F920FB6DA
:102900000F9211240BB60F922F933F934F935F9327
:102910006F937F938F939F93AF93BF93EF93FF93A7
:102920008091C00082FD07C08091C60060E476E01F
:102930000E94631402C08091C600FF91EF91BF9185
:10294000AF919F918F917F916F915F914F913F9147
:102950002F910F900BBE0F900FBE0F901F901895E8
:102960001F920F920FB60F9211240BB60F922F9356
:102970003F934F935F936F937F938F939F93AF9307
:10298000BF93EF93FF938091C80082FD07C08091B1
:10299000CE0068EB75E00E94631402C08091CE0007
:1029A000FF91EF91BF91AF919F918F917F916F9127
:1029B0005F914F913F912F910F900BBE0F900FBEE3
:1029C0000F901F9018951F920F920FB60F9211241F
:1029D0000BB60F922F933F934F935F936F937F9319
:1029E0008F939F93AF93BF93EF93FF938091D0000A
:1029F00082FD07C08091D60060E375E00E946314F9
:102A000002C08091D600FF91EF91BF91AF919F914D
:102A10008F917F916F915F914F913F912F910F9087
:102A20000BBE0F900FBE0F901F9018951F920F9224
:102A30000FB60F9211240BB60F922F933F934F9323
:102A40005F936F937F938F939F93AF93BF93EF9316
:102A5000FF938091300182FD07C08091360168EAC2
:102A600074E00E94631402C080913601FF91EF91DF
:102A7000BF91AF919F918F917F916F915F914F9196
:102A80003F912F910F900BBE0F900FBE0F901F9094
:102A900018951F920F920FB60F9211240BB60F923A
:102AA0002F933F938F939F93EF93FF9320913C0637
:102AB00030913D0680913E0690913F0628173907D8
:102AC00031F48091C1008F7D8093C10014C0E091EA
:102AD0003E06F0913F06E450FA4F208180913E0679
:102AE00090913F0601968F73992790933F068093AC
:102AF0003E062093C600FF91EF919F918F913F91E9
:102B00002F910F900BBE0F900FBE0F901F90189536
:102B10001F920F920FB60F9211240BB60F922F93A4
:102B20003F938F939F93EF93FF932091B405309140
:102B3000B5058091B6059091B7052817390731F48E
:102B40008091C9008F7D8093C90014C0E091B605C3
:102B5000F091B705EC58FA4F20818091B60590911D
:102B6000B70501968F7399279093B7058093B605A3
:102B70002093CE00FF91EF919F918F913F912F91E4
:102B80000F900BBE0F900FBE0F901F9018951F92C5
:102B90000F920FB60F9211240BB60F922F933F9303
:102BA0008F939F93EF93FF9320912C0530912D05E8
:102BB00080912E0590912F052817390731F48091C7
:102BC000D1008F7D8093D10014C0E0912E05F0914B
:102BD0002F05E451FB4F208180912E0590912F0508
:102BE00001968F73992790932F0580932E0520933C
:102BF000D600FF91EF919F918F913F912F910F9070
:102C00000BBE0F900FBE0F901F9018951F920F9242
:102C10000FB60F9211240BB60F922F933F938F9301
:102C20009F93EF93FF932091A4043091A50480918A
:102C3000A6049091A7042817390731F48091310137
:102C40008F7D8093310114C0E091A604F091A70418
:102C5000EC59FB4F20818091A6049091A704019626
:102C60008F7399279093A7048093A604209336012D
:102C7000FF91EF919F918F913F912F910F900BBEFC
:102C80000F900FBE0F901F901895CF92DF92EF928A
:102C9000FF920F931F93CF93DF93EC016A017B01A7
:102CA0004115514E6105710509F1EC89FD8981E0FD
:102CB00090E008A002C0880F991F0A94E2F7808371
:102CC00060E079E08DE390E0A70196010E94732C0B
:102CD00089019A0101501109210931093695279579
:102CE00017950795980101151041A8F0EC89FD8909
:102CF000108260E874E88EE190E0A70196010E94DE
:102D0000732CDA01C9010197A109B109B695A795FC
:102D1000979587959C01E889F9893083EA89FB8931
:102D2000208319A2EE89FF89408181E090E09C0117
:102D30000C8C02C0220F331F0A94E2F7242B20834D
:102D4000EE89FF8940819C010D8C02C0220F331F48
:102D50000A94E2F7242B2083EE89FF8940819C01AD
:102D60000E8C02C0220F331F0A94E2F7242B20831B
:102D7000EE89FF8920810F8C02C0880F991F0A9469
:102D8000E2F7809582238083DF91CF911F910F918D
:102D9000FF90EF90DF90CF900895CF92DF92EF9267
:102DA000FF92E2E4F4E01382128288EEC82E83E000
:102DB000D82EE12CF12CC482D582E682F78263E022
:102DC00073E07183608380E496E0958784878CEF5D
:102DD00095E09787868785EC90E0918B808B84ECDB
:102DE00090E0938B828B80EC90E0958B848B81ECD0
:102DF00090E0978B868B82EC90E0918F808F86ECB1
:102E000090E0938F828F44E0448F33E0358F27E04A
:102E1000268F95E0978F81E080A3E0E2F4E01382B3
:102E20001282C482D582E682F78271836083A8EB26
:102E3000B5E0B587A487A4E7B5E0B787A687ADEC72
:102E4000B0E0B18BA08BACECB0E0B38BA28BA8EC64
:102E5000B0E0B58BA48BA9ECB0E0B78BA68BAAEC45
:102E6000B0E0B18FA08FAEECB0E0B38FA28F448FF3
:102E7000358F268F978F80A3EEEFF3E013821282B7
:102E8000C482D582E682F78271836083A0E3B5E0D5
:102E9000B587A487ACEEB4E0B787A687A5EDB0E010
:102EA000B18BA08BA4EDB0E0B38BA28BA0EDB0E012
:102EB000B58BA48BA1EDB0E0B78BA68BA2EDB0E0F3
:102EC000B18FA08FA6EDB0E0B38FA28F448F358F66
:102ED000268F978F80A3ECEDF3E013821282C482D9
:102EE000D582E682F7827183608368EA74E0758731
:102EF000648764E674E07787668765E371E0718BC9
:102F0000608B64E371E0738B628B60E371E0758BBF
:102F1000648B61E371E0778B668B62E371E0718FA4
:102F2000608F66E371E0738F628F448F358F268FD9
:102F3000978F80A3FF90EF90DF90CF9008954F92EE
:102F40005F926F927F92AF92BF92CF92DF92EF9299
:102F5000FF920F931F93CF93DF93CDB7DEB7290175
:102F60003A019B01AC0124193509460957098A89A0
:102F70009B89AC89BD89BC01CD016A197B098C098B
:102F80009D090E944F2CA801970124193509460973
:102F900057090E94952CCA01B9016A0D7B1D8C1D31
:102FA0009D1DDF91CF911F910F91FF90EF90DF90CA
:102FB000CF90BF90AF907F906F905F904F900895AB
:102FC0002F923F924F925F926F927F928F929F9239
:102FD000AF92BF92CF92DF92EF92FF920F931F9327
:102FE000CF93DF9300D0CDB7DEB74C017B836A83EC
:102FF0006A01590117019801241B350B37FF03C0E3
:10300000319521953109C5014A815B81841B950B5E
:1030100097FF03C091958195910951E059838217DB
:10302000930714F019820BC09A2D8B2D5801092F8C
:10303000182F9A818B81DB82CA82C92ED82E8A8171
:103040009B81A816B9065CF49C2D8D2D6801092F73
:10305000182F9A818B81BB82AA82A92EB82E2501B6
:10306000AA81BB814A1A5B0A38016C187D0877FE79
:1030700003C0719461947108720157FE03C0BFEFE1
:10308000EB1AFB0AF594E794C016D1061CF00FEF7B
:103090001FEF1FC001E010E01CC0D401ED91FC91B6
:1030A000B9810084F185E02D9101BB23C1F04A81F3
:1030B0005B81B601C4011995E618F708F7FE04C054
:1030C000C00ED11EE40CF51CEA81FB813196FB8316
:1030D000EA834A815B81A416B506FCF604C0A6010A
:1030E0006A817B81E7CF0F900F900F90DF91CF9196
:1030F0001F910F91FF90EF90DF90CF90BF90AF9016
:103100009F908F907F906F905F904F903F902F9007
:1031100008950895DC01ED91FC910480F581E02D86
:1031200019940F931F93DC01ED91FC91008CF18DAC
:10313000E02D19951F910F9108950F931F93DC01B6
:10314000ED91FC91028CF38DE02D19951F910F915B
:103150000895EF92FF920F931F93DC01ED91FC9184
:10316000048CF58DE02D19951F910F91FF90EF9034
:1031700008950895AF92BF92CF92DF92EF92FF929F
:103180000F931F93CF93DF9300D01F92CDB7DEB77D
:103190005C016901DC01ED91FC910680F781E02D75
:1031A0004B835C8369837A831995D501ED91FC91FA
:1031B0004B815C81C40ED51EB1E0CB1AD1080088CA
:1031C000F189E02D7801860169817A819B01C50131
:1031D0001995D501ED91FC910288F389E02DC50187
:1031E0000F900F900F900F90DF91CF911F910F9143
:1031F000FF90EF90DF90CF90BF90AF901994AF9277
:10320000BF92CF92DF92EF92FF920F931F93CF93D3
:10321000DF9300D01F92CDB7DEB75C016901DC01FE
:10322000ED91FC910680F781E02D4B835C836983EF
:103230007A831995D501ED91FC9169817A819B0181
:103240002C0D3D1D215031090088F189E02D7801B8
:103250004B815C818A01C5011995D501ED91FC91E5
:103260000288F389E02DC5010F900F900F900F9009
:10327000DF91CF911F910F91FF90EF90DF90CF9052
:10328000BF90AF9019944F925F926F927F928F92FE
:103290009F92AF92BF92CF92DF92EF92FF920F93E5
:1032A0001F93CF93DF931F921F92CDB7DEB76C01B0
:1032B0005A0139014801DC01ED91FC910680F7814A
:1032C000E02D69837A8319956981462E7A81572E7C
:1032D000640C751CD601ED91FC91461457046CF4F6
:1032E0000484F585E02D87019401A501B201C60192
:1032F0001995BFEF4B1A5B0AEDCF0288F389E02DD9
:10330000C6010F900F90DF91CF911F910F91FF9009
:10331000EF90DF90CF90BF90AF909F908F907F9075
:103320006F905F904F901994EF92FF920F931F93BD
:10333000DC01ED91FC9111971A960D911C911B9750
:1033400018962D913C911997048CF58DE02D7B01F9
:1033500040E050E060E070E019951F910F91FF9000
:10336000EF900895CF92DF92EF92FF920F931F9309
:10337000CF93DF9300D000D0CDB7DEB76C01DC0176
:10338000ED91FC916217730789F4041715072CF46B
:10339000942F852FA801092F182F041B150B9801B6
:1033A0002F5F3F4F008CF18DE02D12C04017510769
:1033B00009F5261737072CF4962F872FB901292FE7
:1033C000382F261B370B2F5F3F4F028CF38DE02DDC
:1033D0008701C601199526960FB6F894DEBF0FBE79
:1033E000CDBFDF91CF911F910F91FF90EF90DF90B4
:1033F000CF9008950680F781E02D2D833E834B8387
:103400005C8369837A831995D601ED91FC910088DC
:10341000F189E02D2D813E814B815C8169817A812A
:10342000C6011995D601ED91FC910288F389E02D32
:10343000C60126960FB6F894DEBF0FBECDBFDF9152
:10344000CF911F910F91FF90EF90DF90CF90199443
:103450006F927F928F929F92AF92BF92CF92DF92A4
:10346000EF92FF920F931F93CF93DF93EC014B01E9
:103470005A0169013801E881F9810680F781E02D60
:103480001995E881F9810684F785E02D8701960179
:10349000A501B401CE011995E881F981A501460D78
:1034A000571D415051090684F785E02D9601B4015E
:1034B000CE011995E881F9810484F585E02D930109
:1034C000A501B401CE011995E881F981C80CD91C78
:1034D000B601615071090484F585E02D9301A501C1
:1034E000CE011995E881F9810288F389E02DCE019A
:1034F000DF91CF911F910F91FF90EF90DF90CF90D0
:10350000BF90AF909F908F907F906F901994089587
:10351000FC016370658B84819581268137816130E0
:1035200039F0633029F091878087338722870895A7
:1035300031872087938782870895FC011382128246
:1035400083E193E09183808375836483578346830B
:103550007187608753874287158A15861486178678
:10356000168681E0848B2FEF3FEF338B228B318BDC
:10357000208B868B178A118E108E08952F923F9282
:103580004F925F926F927F928F929F92AF92BF9273
:10359000CF92DF92EF92FF920F931F93CF93DF931F
:1035A000CDB7DEB7AE970FB6F894DEBF0FBECDBF76
:1035B0009A8389837EA76DA73A01290148011601E4
:1035C000B88EAF8A041715077CF4892DC416D5066A
:1035D0000CF0CAC146011A01602E782E852D2701F4
:1035E0007B012DA78EA70DC0C016D106C4F4982D5F
:1035F000892D4101292E382E942D852D2701E92E64
:10360000F82E861497045CF4962D872D3401892EAC
:10361000982E9DA58EA55EA64DA6492E582EA98151
:10362000BA81ED91FC9111970680F781E02DCD01D3
:1036300019956214730451F5EDA5FEA54E165F06AB
:103640002CF0942D852D2F019DA78EA7E414F50451
:1036500044F02DA53EA52E153F0514F4FEA6EDA6BB
:103660007201A981BA81ED91FC9111972DA53EA51A
:103670002E193F092F5F3F4F0684F785E02D0F89F4
:10368000188DA301B701CD0119954CC1C201EDA55B
:10369000FEA58E1B9F0B940126193709A7014E1B0F
:1036A0005F0B58874F83B101661977097C876B8759
:1036B000D701A419B509B88BAF87F101E819F90949
:1036C000FA8FE98F64018214930419F0F1E0CF1AA4
:1036D000D10853011B8A1C8A1D8A1E8A1B821C82E8
:1036E0001D821E82A901330F660B770B4D8F5E8FF3
:1036F0006F8F78A32B853C85032E000C440B550B54
:1037000029A33AA34BA35CA3AC01990F660B770BDB
:103710004DA35EA36FA378A76F817885072E000C59
:10372000880B990B69A77AA78BA79CA7CA14DB04FF
:103730000CF45AC06B817C818D819E812D8D3E8DD4
:103740004F8D58A10E94952CEDA4FEA4E20EF31E0D
:103750006B897C898D899E8929A13AA14BA15CA1A5
:103760000E94952C8DA59EA5280F391F4B815C8149
:103770006D817E818DA19EA1AFA1B8A5480F591F73
:103780006A1F7B1F4B835C836D837E834B895C89BF
:103790006D897E8989A59AA5ABA5BCA5480F591F3F
:1037A0006A1F7B1F4B8B5C8B6D8B7E8B2E153F05B1
:1037B0002CF49E2D8F2D7901292F382FA981BA81C4
:1037C000ED91FC9111972E193F092F5F3F4F068411
:1037D000F785E02D0F89188DA501B701CD01199549
:1037E000BFEFAB1ABB0AA2CF950128193909EF85A3
:1037F000F889E29FC001E39F900DF29F900D112484
:103800009C01990F440B550B2B833C834D835E83A6
:10381000C501861997094F815885489F6001499FC6
:10382000D00C589FD00C11240D2C000CEE08FF0872
:10383000698D7A8D072E000C880B990B698F7A8F12
:103840008B8F9C8F8B859C85092E000CAA0BBB0B44
:103850008B879C87AD87BE879F01032E000C440B8E
:10386000550B2F87388B498B5A8B4F815885052EE6
:10387000000C660B770B4F83588769877A872A1469
:103880003B040CF44FC06B817C818D819E81298D1E
:103890003A8D4B8D5C8D0E94952C4201820E931EB9
:1038A000C701B6012B853C854D855E850E94952C10
:1038B0006DA57EA5260F371F8B819C81AD81BE81B2
:1038C0004F85588969897A89840F951FA61FB71F6C
:1038D0008B839C83AD83BE836F81788589859A8530
:1038E000C60ED71EE81EF91E281539052CF4982D92
:1038F000892D4901292F382FA981BA81ED91FC9199
:103900001197281939092F5F3F4F0684F785E02D5D
:103910000F89188DA501B401CD011995BFEFAB1A20
:10392000BB0AADCFA981BA81ED91FC9111970288B4
:10393000F389E02DCD01AE960FB6F894DEBF0FBE31
:10394000CDBFDF91CF911F910F91FF90EF90DF904E
:10395000CF90BF90AF909F908F907F906F905F902F
:103960004F903F902F9019944A01602E782E852D0C
:103970004DA45EA42DA78EA752CE2F923F924F92B8
:103980005F926F927F928F929F92AF92BF92CF92EF
:10399000DF92EF92FF920F931F93CF93DF93CDB7F8
:1039A000DEB76C970FB6F894DEBF0FBECDBF9C8F0D
:1039B0008B8F5B011A011F830E833701C982DC01E3
:1039C00058964D915C9159974115510509F0E5C004
:1039D00018968D919C911997681779070CF0CAC1B8
:1039E0001A968D919C911B97281639060CF0C2C12E
:1039F0008C2C912CFB0136E0C39EE00DF11D1124AF
:103A0000FB87EA871E161F060CF0B4C1C40133E021
:103A1000880F991F3A95E1F79D878C87820D931D3A
:103A2000181619060CF0A6C157968C91811103C087
:103A3000203B08F02F5FAB8DBC8DED91FC91119771
:103A40000680F781E02DCD012A8F19952A8DB5E0EA
:103A50002B9F90011124F5013596FF87EE872501F4
:103A6000BB82AA82A9014A195B09598B488BC10103
:103A700008969B8B8A8BE889F989E40DF51DE65041
:103A8000FD4F949198873D822C826101A885A0FF0B
:103A900013C0AB8DBC8DED91FC91B981B13031F487
:103AA0000084F185E02D2E813F8116C00284F385CC
:103AB000E02DEE80FF801AC0EE81FF816E167F063A
:103AC000F1F0AB8DBC8DED91FC91B981B13051F429
:103AD0000084F185E02D9301A601B2018B8D9C8DB0
:103AE00019950DC00284F385E02D730184019401C2
:103AF0004C815D816A817B818B8D9C8D1995E885D8
:103B0000E695E8872C813D81280D391D3D832C8366
:103B10003FEFC31AD30A4A895B89C416D50609F058
:103B2000B5CF8A819B81880D991D9B838A839FEFE6
:103B3000491A590AAE85BF854A165B0609F09BCF24
:103B4000EE81FF816E167F0609F4F2C0EB8DFC8DCD
:103B5000A081B181F981F13079F4B5016B5F7F4FBC
:103B60001C96ED91FC911D97830128E030E0A101A6
:103B70008B8D9C8D1995DCC06A857B8568197909C8
:103B80001A96ED91FC911B9773010C851D8594018C
:103B9000A1018B8D9C8D1995CBC0FA01349694911F
:103BA000329765917491291BCB01B7E02B9F800D53
:103BB000911D1124FA01259134913B8B2A8BFC0134
:103BC000459154915B834A83FC013296C4903196AF
:103BD00054915C87329614913196D49089818230C9
:103BE00058F0612E012E000C7708AD2D0D2C000C25
:103BF000BB0BB987A88704C019861886612C712C65
:103C0000AB8DBC8DED91FC9111970680F781E02D75
:103C1000CD011995B9818B2E912C689CC001699CAE
:103C2000900D789C900D1124FC01EA0DFB1DF98B81
:103C3000E88B1C82712C612CE12F110FFF0B950179
:103C40002E0F3F1F3B872A87AC0CB11CA5014E0FDE
:103C50005F1F5F8B4E8BC1018D0D911DD7FC9A9517
:103C6000998F888F4C85641608F062C0862D90E08D
:103C700048855985480F591F489D9001499D300D31
:103C8000589D300D1124D901A20DB31DBF87AE87F9
:103C9000AA84BB8448885988DC80BA85DB1AE88D01
:103CA000F98DE80FF91FFD8BEC8B8D2D8A0D2E8978
:103CB0003F89A216B306B9F1877061F48A819B81AE
:103CC0000196EA89FB89AA81BB81EA0FFB1F7490E8
:103CD0009B838A8377FE20C0AB8DBC8DED91FC91D8
:103CE000B981B13061F40084F185E02D2E813F81EE
:103CF0004C895D89B5018B8D9C8D19950DC0028411
:103D0000F385E02DEE80FF80840194014E855F8570
:103D1000B2018B8D9C8D1995770C480C591CEFEFD7
:103D2000AE1ABE0AC2CF3C813C0D3C8363949ACF4D
:103D3000AB8DBC8DED91FC9111970288F389E02D3C
:103D4000CD016C960FB6F894DEBF0FBECDBFDF91EC
:103D5000CF911F910F91FF90EF90DF90CF90BF9088
:103D6000AF909F908F907F906F905F904F903F901B
:103D70002F9019946C960FB6F894DEBF0FBECDBF8E
:103D8000DF91CF911F910F91FF90EF90DF90CF9037
:103D9000BF90AF909F908F907F906F905F904F906B
:103DA0003F902F900895AF92BF92CF92EF92FF92E3
:103DB0000F931F93CF93DF93EC01262F888D998D5E
:103DC000009709F040C06A3059F41D861C862C8982
:103DD0008E859F8538E0239F800D911D112441C061
:103DE0006D3009F4AAC08E898823C1F03C898C8586
:103DF0009D8546E0349F800D911D1124488559858D
:103E0000481759075CF41D861C868E859F8548E0FF
:103E1000349F800D911D11249F878E87EA88FB882F
:103E2000088919894E855F856C857D85CC88CE0192
:103E30000E94BD1C2C898C859D8536E0239F800DBA
:103E4000911D112442C06A3079F41D861C862C898C
:103E5000FC013696E4918E859F852E9F800D911DE5
:103E600011249F878E8769C06D3009F466C0FC01FC
:103E700034963491631708F460C03196E491E617E4
:103E800008F45BC0FC013296A590B490462F50E038
:103E9000431B510937E0349FB001359F700D112449
:103EA000A60EB71EF501329634913196E491332374
:103EB00011F0E1110DC0F5013496E4912C898C8547
:103EC0009D85E29F800D911D11249D878C8735C0B3
:103ED000F501359644915E89552311F16C89E32FE4
:103EE000F0E0E40FF11D47FDFA956E9FD0016F9F42
:103EF000B00D11244C855D854A0F5B1FE885F9855F
:103F0000E417F5076CF41D861C86FC013696E491D7
:103F10008E859F856E9F800D911D11249F878E87B2
:103F2000EA88FB88088919894E855F856C857D85BF
:103F3000CC88CE010E94BD1CBECF81E090E0DF9115
:103F4000CF911F910F91FF90EF90CF90BF90AF90C6
:103F50000895FC0175876487578746870895611126
:103F600001C061E0FC01648B0895FC01738B628BDE
:103F7000718B608B0895FC01718B608B538B428B2E
:103F80000895DC019C96ED91FC919D979081D196CE
:103F90008C91892B80830895EF92FF920F931F934A
:103FA000DC01ED91FC910284F385E02D780189011B
:103FB00021E030E019951F910F91FF90EF90089547
:103FC000EF92FF920F931F93DC01ED91FC9102841D
:103FD000F385E02D780101E010E019951F910F9114
:103FE000FF90EF9008950F931F93CF93DF9300D02E
:103FF00000D0CDB7DEB78C01DC01ED91FC910680DD
:10400000F781E02D2D833E834B835C8369837A8324
:104010001995D801ED91FC910084F185E02D2D8159
:104020003E814B815C8169817A81C8011995D801F3
:10403000ED91FC910288F389E02DC80126960FB618
:10404000F894DEBF0FBECDBFDF91CF911F910F91CE
:104050001994EF92FF920F931F93CF93DF9300D0A9
:1040600000D0CDB7DEB77C01DC01ED91FC9106807C
:10407000F781E02D2D833E834B835C8369837A83B4
:104080001995D701ED91FC910484F585E02D2D81E2
:104090003E814B815C8169817A81C7011995D70185
:1040A000ED91FC910288F389E02DC70126960FB6A9
:1040B000F894DEBF0FBECDBFDF91CF911F910F915E
:1040C000FF90EF901994EF92FF920F931F93CF936D
:1040D000DF9300D000D0CDB7DEB77C01DC01ED91DD
:1040E000FC910680F781E02D2D833E834B835C831A
:1040F00069837A831995D701ED91FC910684F78540
:10410000E02D2D813E814B815C8169817A81C701DF
:104110001995D701ED91FC910288F389E02DC70133
:1041200026960FB6F894DEBF0FBECDBFDF91CF91BC
:104130001F910F91FF90EF901994CF92DF92EF9221
:10414000FF920F931F93CF93DF9300D000D0CDB792
:10415000DEB76C01DC01ED91FC910680F781E02D6A
:104160002D833E834B835C8369837A831995D601C3
:10417000ED91FC910284F385E02D2D813E814B81F0
:104180005C8169817A81C6011995D601ED91FC9116
:104190000288F389E02DC60126960FB6F894DEBF9B
:1041A0000FBECDBFDF91CF911F910F91FF90EF9088
:1041B000DF90CF901994CF93DF93EC0189A187FF13
:1041C00009C084E00E94E82981E00E94DA2980E0A9
:1041D0000E94E329ECA5FDA5908189A980958923FA
:1041E0008083DF91CF910895EF92FF920F931F93F9
:1041F000CF93DF931F92CDB7DEB77C01062F142F2C
:1042000040E451E060EF70E029830E949D1A8BE347
:1042100093E0D70111969C938E935E960C935E97D4
:104220005F961C935F97298190962C9390978FEFC0
:1042300091968C93919792968C93929793968C9358
:104240009397F701128E138E148E158E602F000F28
:10425000770BFB01EA59FD4F8491E82FF0E0EE0F58
:10426000FF1FEA53FD4F859194919D969C938E93E9
:104270009C97FB01E05EFD4FE491D196EC93D197C2
:10428000412F110F550BFA01EA59FD4FE491F0E06F
:10429000EE0FFF1FEA53FD4F85919491F70193A70D
:1042A00082A7FA01E05EFD4FE491D296EC93D2979B
:1042B00099961C921E929897D0961C92D09795969C
:1042C0001C921E9294979E961C929E9797961C9273
:1042D0001E9296979F961C920F90DF91CF911F91FF
:1042E0000F91FF90EF900895FC0181A187FF05C019
:1042F0006EBD0DB407FEFDCF089528E030E090E8D4
:10430000A4A1B5A186A5492F462319F04C91842B71
:1043100003C04C91809584238C93A0A5B1A54C91AA
:1043200080A9809584238C93A0A5B1A54C9180A9E8
:10433000842B8C9396952150310911F70895CF93D2
:10434000DF93EC01EAA5FBA590818AA980958923DA
:104350008083CE010E947421EAA5FBA590818AA9E1
:10436000892B8083DF91CF910895CF93DF93EC0168
:10437000411551056105710521F440E052E16AE7FC
:1043800070E04A8F5B8F6C8F7D8F61E08F8D0E9414
:104390003B1060E08F8D0E94771061E08E8D0E944F
:1043A0003B1061E08E8D0E94771089A187FD16C0B9
:1043B00061E08AA10E943B1060E08AA10E94771010
:1043C00061E089A10E943B1061E089A10E94771001
:1043D0008BA187FD03C060E00E943B1089A187FD8F
:1043E0000E94C42988A187FD21C061E00E943B1082
:1043F00061E088A10E94771064E670E080E090E0C0
:104400000E94320F60E088A10E94771064E670E09D
:1044100080E090E00E94320F61E088A10E94771056
:1044200068EC70E080E090E00E94320FE881F98152
:104430000680F781E02DCE0119956FEECE010E9426
:104440009F2163E0CE010E94742160E8CE010E94AA
:10445000742162E0CE010E9474216FECCE010E94B3
:104460009F2160E0CE010E94742161ECCE010E9488
:10447000742160E3CE010E9474216DEECE010E9492
:104480009F2164E6CE010E94742163E0CE010E9468
:10449000742162E1CE010E94742161E8CE010E9484
:1044A000742168EECE010E949F2165E8CE010E9432
:1044B000742160E0CE010E94742168E7CE010E9461
:1044C00074216BECCE010E949F2169E3CE010E9412
:1044D00074216CE2CE010E94742160E0CE010E9442
:1044E000742164E3CE010E94742162E0CE010E9437
:1044F000742167EFCE010E949F2160E2CE010E94ED
:1045000074216AEECE010E949F2160E0CE010E94DC
:10451000742160E0CE010E94742160ECCE010E9403
:104520009F2163E2CE010E94742161ECCE010E94C2
:104530009F2160E1CE010E94742165ECCE010E94B2
:104540009F216EE3CE010E94742168E2CE010E9499
:10455000742167ECCE010E949F2166E8CE010E9483
:10456000742166E3CE010E949F2168E4CE010E947F
:10457000742167E3CE010E949F2189A187FF09C0B2
:104580001EBC0DB407FEFDCF1EBC0DB407FEFDCF53
:1045900008C060E0CE010E94742160E0CE010E945C
:1045A00074216AE3CE010E949F2165E5CE010E943D
:1045B000742161EBCE010E949F2160E0CE010E9438
:1045C000742168E1CE010E94742166EBCE010E9445
:1045D0009F2168E0CE010E94742162E8CE010E9412
:1045E000742167E2CE010E94742162EFCE010E9425
:1045F0009F2160E0CE010E94742166E2CE010E94FC
:104600009F2161E0CE010E94742160EECE010E94E4
:104610009F216FE0CE010E94742161E3CE010E94D0
:1046200074216BE2CE010E9474216CE0CE010E94E5
:1046300074216EE0CE010E94742168E0CE010E94D8
:1046400074216EE4CE010E94742161EFCE010E94BC
:10465000742167E3CE010E94742167E0CE010E94BD
:10466000742160E1CE010E94742163E0CE010E94BA
:1046700074216EE0CE010E94742169E0CE010E9497
:10468000742160E0CE010E94742161EECE010E948F
:104690009F2160E0CE010E9474216EE0CE010E9455
:1046A000742164E1CE010E94742163E0CE010E9476
:1046B000742161E1CE010E94742167E0CE010E9465
:1046C000742161E3CE010E94742161ECCE010E944D
:1046D000742168E4CE010E94742168E0CE010E943A
:1046E00074216FE0CE010E9474216CE0CE010E9423
:1046F000742161E3CE010E94742166E3CE010E9421
:1047000074216FE0CE010E94742161E1CE010E940C
:104710009F2168E770E080E090E00E94320F69E23C
:10472000CE010E949F2168E770E080E090E00E9447
:10473000320FE881F9810288F389E02DCE011995C5
:1047400080EF90E09987888780E491E09B878A8753
:10475000DF91CF9108951F93CF93DF93EC016370A6
:104760006D8B6230C1F0633001F1613051F080EF48
:1047700090E09987888780E491E09B878A8718E496
:104780001DC080E491E09987888780EF90E09B8747
:104790008A8718E213C080EF90E09987888780E4C9
:1047A00091E09B878A8718E809C080E491E09987A7
:1047B000888780EF90E09B878A8718EEE881F981EF
:1047C0000680F781E02DCE01199566E3CE010E94A7
:1047D0009F21612FCE010E947421E881F981028816
:1047E000F389E02DCE01DF91CF911F9119940F93A2
:1047F0001F93CF93DF931F92CDB7DEB78C01DC01FF
:10480000ED91FC910680F781E02D6983199569810E
:10481000611102C060E201C061E2C8010E949F21F3
:10482000D801ED91FC910288F389E02DC8010F9029
:10483000DF91CF911F910F9119948F929F92AF9218
:10484000BF92CF92DF92EF92FF920F931F93CF937D
:10485000DF93EC01490181E0881A9108860E971ECA
:10486000C401A0E0B0E04B01A12CB12C540199246B
:104870008824882A992AAA2ABB2A680181E0C81AB2
:10488000D108C40ED51EC601A0E0B0E06A01E12C3B
:10489000F12C7601DD24CC24C82AD92AEA2AFB2A65
:1048A0006AE2CE010E949F2129A16B2D77278827DC
:1048B000992727FF18C06EBD0DB407FEFDCFC501B7
:1048C000AA27BB278EBD0DB407FEFDCFBB27AB2D9E
:1048D0009A2D892D8EBD0DB407FEFDCF8EBC0DB473
:1048E00007FEFDCF14C0CE010E947421B5018827B8
:1048F0009927CE010E94742199278B2D7A2D692D3D
:10490000CE010E947421682DCE010E9474216BE2B9
:10491000CE010E949F2129A16F2D772788279927F3
:1049200027FF18C06EBD0DB407FEFDCFC701AA2733
:10493000BB278EBD0DB407FEFDCFBB27AF2D9E2D2F
:104940008D2D8EBD0DB407FEFDCFCEBC0DB407FE80
:10495000FDCF14C0CE010E947421B701882799278A
:10496000CE010E94742199278F2D7E2D6D2DCE01B1
:104970000E9474216C2DCE010E9474216CE2CE0144
:10498000DF91CF911F910F91FF90EF90DF90CF902B
:10499000BF90AF909F908F900C949F211F93CF93C7
:1049A000DF93262FFC0131A137FF09C07EBD0DB476
:1049B00007FEFDCF2EBD0DB407FEFDCF0CC0672F47
:1049C000122FEC010E947421612FCE01DF91CF9153
:1049D0001F910C947421DF91CF911F910895EF9254
:1049E000FF920F931F93CF93DF9377FD23C0DC01DA
:1049F0001896ED91FC9119976E177F07DCF457FD1F
:104A000019C01A96ED91FC911B974E175F0794F40D
:104A10007901EC0101E010E021E030E00E941D246A
:104A2000B701CE01DF91CF911F910F91FF90EF90D1
:104A30000C94CE24DF91CF911F910F91FF90EF90B6
:104A40000895EF92FF921F93CF93DF9300D01F92B0
:104A50001F92CDB7DEB77C01162FFC0181A187FF25
:104A600012C0211531054105510549F17EBD0DB436
:104A700007FEFDCF1EBD0DB407FEFDCF215031094D
:104A800041095109EECF2115310541055105B9F014
:104A9000672FC70129833A834B835C837D830E9400
:104AA0007421612FC7010E94742129813A814B81B1
:104AB0005C8121503109410951097D81E4CF0F907A
:104AC0000F900F900F900F90DF91CF911F91FF905B
:104AD000EF9008958F929F92AF92BF92CF92DF9204
:104AE000EF92FF920F931F93CF93DF935C01FB0133
:104AF000E9014701DC0118962D913C911997621745
:104B000073070CF049C01A968D919C911B9748171A
:104B100059070CF041C06B01CC0EDD1ED601119778
:104B20007A01E00EF11EB70161507109B7FD34C082
:104B300077FD32C0F7FF03C0E601E0E0F0E057FF89
:104B400003C0870140E050E0A217B3071CF0E90161
:104B5000CE1BDF0B681779071CF08C01041B150BAB
:104B60009E01D8010E94BC2C6B017C01BF01C501D4
:104B70000E941D24A7019601B401C501DF91CF91C8
:104B80001F910F91FF90EF90DF90CF90BF90AF906B
:104B90009F908F900C942125DF91CF911F910F91C1
:104BA000FF90EF90DF90CF90BF90AF909F908F904D
:104BB00008954F925F926F927F929F92AF92BF92B1
:104BC000CF92DF92EF92FF920F931F93CF93DF93D9
:104BD00000D000D0CDB7DEB78C0160E0DC011296CA
:104BE0008C910E943B1060E0F80183810E943B1091
:104BF00061E0D80115968C910E943B1061E0F801AC
:104C000084810E943B10D80150968C915097189641
:104C1000ED91FC9119979081892B808351969C91FD
:104C200051971C96ED91FC911D978081282F30E0C3
:104C3000892F90E08095909582239323808312960C
:104C40008C910E94C40F7C01F80182810E94C40FE4
:104C50009701281B390B2C5F3F4F2930310548F451
:104C6000A701480F591FCA019595879599249394D8
:104C700001C0912C2FEF33E07901E81AF90A60E0C6
:104C8000D80115968C910E943B1060E0F801848158
:104C90000E943B1061E0D80112968C910E943B105B
:104CA00061E0F80183810E943B10D80153969C91EA
:104CB00053971E96ED91FC911F978081282F30E02D
:104CC000892F90E08095909582239323808352963C
:104CD0008C9152971A96ED91FC911B979081892B9C
:104CE000808314968C910E94C40F6C01F80184811A
:104CF0000E94C40FA601481B590B4C5F5F4F4930FF
:104D0000510538F49601280F391FC90195958795EB
:104D100001C0912C4FEF53E06A01C81AD90A61E033
:104D2000D80115968C910E943B1060E0F8018281B9
:104D30000E943B10D80150969C9150971896ED9187
:104D4000FC9119978081282F30E0892F90E0809581
:104D5000909582239323808353968C9153971E962C
:104D6000ED91FC911F979081892B808314968C91F3
:104D70000E94C40F5C01F80182810E94C40FD80117
:104D800016960D911C9117970115110509F43FC056
:104D9000BC01990F880B990B0E94462B2B013C01FB
:104DA000B501BB0C880B990B0E94462B9B01AC01F3
:104DB000C301B2010E949C2A20E030E040E85FE39A
:104DC0000E942F2A2B013C01B7010F2C000C880BED
:104DD000990B0E94462B9B01AC01C301B2010E94BA
:104DE000D22B2B013C01B80180E090E00E94442BC3
:104DF0009B01AC01C301B2010E94D22B20E030E044
:104E000040E85AE30E94D22B0E940E2B05C0B50148
:104E1000681B790B61507C4F911002C060E070E01C
:104E2000FA82E982DC82CB827E836D832E2D3A81E9
:104E30004C2D5C817E8180E090E026960FB6F89440
:104E4000DEBF0FBECDBFDF91CF911F910F91FF90BD
:104E5000EF90DF90CF90BF90AF909F907F906F903A
:104E60005F904F900895EF92FF920F931F93DC0194
:104E700012964C93129714962C93149713960C93A6
:104E8000139715966C9315971796FC92EE921697BA
:104E900070E0FB01EA59FD4FE491F0E0EE0FFF1FD7
:104EA000EA53FD4F8591949119969C938E93189790
:104EB00050E0FA01EA59FD4FE491F0E0EE0FFF1FD8
:104EC000EA53FD4F859194911B969C938E931A976C
:104ED00030E0F901EA59FD4FE491F0E0EE0FFF1FD9
:104EE000EA53FD4F859194911D969C938E931C9748
:104EF00010E0F801EA59FD4F849190E0880F991F66
:104F00008A539D4FFC01859194911F969C938E939B
:104F10001E97FB01E05EFD4F649150966C93509795
:104F2000FA01E05EFD4F449152964C935297F9017D
:104F3000E05EFD4F249151962C935197F801E05E6D
:104F4000FD4F049153960C9353978AE090E08D9314
:104F50009C931F910F91FF90EF9008956F927F9215
:104F60008F929F92AF92BF92CF92DF92EF92FF9279
:104F70000F931F93CF93DF93EC01009789F4CB013C
:104F8000DF91CF911F910F91FF90EF90DF90CF9025
:104F9000BF90AF909F908F907F906F900C949728C8
:104FA000FC01E60FF71F9C0122503109E217F307BD
:104FB00008F4ACC0D9010D911C9111970617170781
:104FC000B0F00530110508F49FC0C801049786179A
:104FD000970708F499C002501109061B170B01939B
:104FE00011936D937C93CF010E942C298DC05B019E
:104FF000A01AB10A4C01800E911EA0918606B091B4
:10500000870640E050E0E12CF12C109709F44AC0EB
:10501000A815B905D1F56D907C901197630182E0D8
:10502000C80ED11CCA14DB0480F1A3014A195B0924
:105030006A0182E0C80ED11C1296BC90129713969A
:10504000AC91B5E0CB16D10440F0B282A38351837A
:105050004083D9016D937C930AC00E5F1F4FC3013B
:10506000800F911FF90191838083EB2DFA2FE114BA
:10507000F10431F0D7011396FC93EE93129744C0DC
:10508000F0938706E09386063FC08D919C9111971F
:105090004817590708F4AC017D0112960D90BC9198
:1050A000A02DB3CF8091840690918506881599052F
:1050B000E1F446175707C8F4809103029091040267
:1050C000009741F48DB79EB74091070250910802B6
:1050D000841B950BE817F907C8F4F0938506E09355
:1050E0008406F901718360830FC0CB010E94972869
:1050F0007C01009759F0A801BE010E94FA29CE0157
:105100000E942C29C70104C0CE0102C080E090E0BB
:10511000DF91CF911F910F91FF90EF90DF90CF9093
:10512000BF90AF909F908F907F906F900895CF9396
:10513000DF938230910510F482E090E0E0918606E2
:10514000F091870620E030E0C0E0D0E0309711F128
:105150004081518148175907C0F04817590761F439
:1051600082819381209719F09B838A832BC090932F
:1051700087068093860626C02115310519F042174F
:10518000530718F49A01BE01DF01EF010280F38199
:10519000E02DDCCF2115310509F1281B390B243016
:1051A000310590F412968D919C91139761157105BC
:1051B00021F0FB019383828304C090938706809340
:1051C0008606FD01329644C0FD01E20FF31F819374
:1051D0009193225031092D933C933AC0209184063B
:1051E00030918506232B41F420910502309106026F
:1051F00030938506209384062091030230910402A7
:105200002115310541F42DB73EB740910702509169
:105210000802241B350BE0918406F0918506E21705
:10522000F307A0F42E1B3F0B2817390778F0AC01C9
:105230004E5F5F4F2417350748F04E0F5F1F5093A6
:105240008506409384068193919302C0E0E0F0E0EC
:10525000CF01DF91CF9108950F931F93CF93DF93E9
:10526000009709F48CC0FC013297138212820091DE
:105270008606109187060115110581F42081318180
:10528000820F931F209184063091850628173907D5
:1052900079F5F0938506E093840671C0D80140E06B
:1052A00050E0AE17BF0750F412962D913C91139722
:1052B000AD012115310509F1D901F3CF9D01DA01C5
:1052C0003383228360817181860F971F8217930732
:1052D00069F4EC0128813981260F371F2E5F3F4F7B
:1052E000318320838A819B8193838283452B29F498
:1052F000F0938706E093860642C01396FC93EE93E4
:105300001297ED01499159919E01240F351FE21723
:10531000F30771F480819181840F951F0296119695
:105320009C938E938281938113969C938E93129774
:10533000E0E0F0E0D80112968D919C9113970097D0
:1053400019F0F8018C01F6CF8D919C9198012E5F98
:105350003F4F820F931F20918406309185062817B6
:10536000390769F4309729F410928706109286065F
:1053700002C0138212821093850600938406DF9187
:10538000CF911F910F91089561E085E30E947710FE
:1053900061E085E30E943B108CB580618CBD8CB5CB
:1053A00080648CBD61E084E30E943B1061E083E394
:1053B0000C943B10811103C08CB5806202C08CB587
:1053C0008F7D8CBD08959CB5937F892B8CBD0895EE
:1053D0009CB5282F23709C7F922B9CBD2DB582FB02
:1053E000992790F9822F8E7F892B8DBD0895F8948F
:1053F0000C940F2DFB01DC0102C001900D92415075
:105400005040D8F70895FB01DC0101900D92002077
:10541000E1F708954532510520F4423010F00C9424
:10542000152AFB011082CB010895BB27FB015527EC
:10543000AA27880F991FAA1FA41710F0A41B8395F1
:105440005051B9F7A05DAA3308F0A95DA193009768
:1054500079F7B111B1931192CB010C943F2C5058B4
:10546000BB27AA270E94472A0C94982B0E948A2BBC
:1054700038F00E94912B20F039F49F3F19F426F464
:105480000C94872B0EF4E095E7FB0C94812BE92F0D
:105490000E94A92B58F3BA17620773078407950770
:1054A00020F079F4A6F50C94CB2B0EF4E0950B2E9E
:1054B000BA2FA02D0B01B90190010C01CA01A00166
:1054C0001124FF27591B99F0593F50F4503E68F1C1
:1054D0001A16F040A22F232F342F4427585FF3CF02
:1054E000469537952795A795F0405395C9F77EF4D3
:1054F0001F16BA0B620B730B840BBAF09150A1F01C
:10550000FF0FBB1F661F771F881FC2F70EC0BA0FA1
:10551000621F731F841F48F4879577956795B79529
:10552000F7959E3F08F0B0CF9395880F08F0992724
:10553000EE0F9795879508950E94B02A0C94982BAA
:105540000E94912B58F00E948A2B40F029F45F3F73
:1055500029F00C94812B51110C94CC2B0C94872B9B
:105560000E94A92B68F39923B1F3552391F3951B5E
:10557000550BBB27AA2762177307840738F09F5F74
:105580005F4F220F331F441FAA1FA9F335D00E2EE1
:105590003AF0E0E832D091505040E695001CCAF74E
:1055A0002BD0FE2F29D0660F771F881FBB1F261711
:1055B00037074807AB07B0E809F0BB0B802DBF01E8
:1055C000FF2793585F4F3AF09E3F510578F00C94B7
:1055D000812B0C94CC2B5F3FE4F3983ED4F386955B
:1055E00077956795B795F7959F5FC9F7880F911DD8
:1055F0009695879597F90895E1E0660F771F881FC4
:10560000BB1F621773078407BA0720F0621B730B76
:10561000840BBA0BEE1F88F7E09508950E94152BB6
:105620006894B1110C94CC2B08950E94B12B88F092
:105630009F5798F0B92F9927B751B0F0E1F0660F56
:10564000771F881F991F1AF0BA95C9F714C0B13097
:1056500091F00E94CB2BB1E008950C94CB2B672FD7
:10566000782F8827B85F39F0B93FCCF386957795C6
:105670006795B395D9F73EF49095809570956195AF
:105680007F4F8F4F9F4F0895E89409C097FB3EF4DA
:1056900090958095709561957F4F8F4F9F4F99237F
:1056A000A9F0F92F96E9BB279395F69587957795FD
:1056B0006795B795F111F8CFFAF4BB0F11F460FFBD
:1056C0001BC06F5F7F4F8F4F9F4F16C0882311F015
:1056D00096E911C0772321F09EE8872F762F05C029
:1056E000662371F096E8862F70E060E02AF09A95C4
:1056F000660F771F881FDAF7880F9695879597F9B9
:10570000089597F99F6780E870E060E008959FEF43
:1057100080EC089500240A94161617061806090648
:10572000089500240A941216130614060506089517
:10573000092E0394000C11F4882352F0BB0F40F49F
:10574000BF2B11F460FF04C06F5F7F4F8F4F9F4FDF
:10575000089557FD9058440F551F59F05F3F71F061
:105760004795880F97FB991F61F09F3F79F08795C8
:105770000895121613061406551FF2CF4695F1DF51
:1057800008C0161617061806991FF1CF86957105E1
:10579000610508940895E894BB2766277727CB0115
:1057A00097F908950E94E52B0C94982B0E948A2B60
:1057B00038F00E94912B20F0952311F00C94812B4E
:1057C0000C94872B11240C94CC2B0E94A92B70F3E2
:1057D000959FC1F3950F50E0551F629FF001729F96
:1057E000BB27F00DB11D639FAA27F00DB11DAA1FA5
:1057F000649F6627B00DA11D661F829F2227B00DF2
:10580000A11D621F739FB00DA11D621F839FA00D7C
:10581000611D221F749F3327A00D611D231F849FCC
:10582000600D211D822F762F6A2F11249F57504023
:105830009AF0F1F088234AF0EE0FFF1FBB1F661F9E
:10584000771F881F91505040A9F79E3F510580F067
:105850000C94812B0C94CC2B5F3FE4F3983ED4F353
:10586000869577956795B795F795E7959F5FC1F70B
:10587000FE2B880F911D9695879597F90895DC0169
:10588000FC01672F71917723E1F7329704C07C9177
:105890006D9370836291AE17BF07C8F30895DB0163
:1058A0008F939F930E94DA2CBF91AF91A29F800D9E
:1058B000911DA39F900DB29F900D1124089597FB09
:1058C000072E16F4009407D077FD09D00E94E52C2E
:1058D00007FC05D03EF4909581959F4F08957095F3
:1058E00061957F4F0895A1E21A2EAA1BBB1BFD01F3
:1058F0000DC0AA1FBB1FEE1FFF1FA217B307E407AF
:10590000F50720F0A21BB30BE40BF50B661F771F06
:10591000881F991F1A9469F76095709580959095E6
:105920009B01AC01BD01CF010895052E97FB1EF42C
:1059300000940E94AC2C57FD07D00E94732C07FCEA
:1059400003D04EF40C94AC2C509540953095219595
:105950003F4F4F4F5F4F089590958095709561959B
:105960007F4F8F4F9F4F0895EE0FFF1F881F8BBFF4
:105970000790F691E02D19940E94C42C332312F461
:105980008A1B9B0B0C94D52CA29FB001B39FC00126
:10599000A39F700D811D1124911DB29F700D811D5B
:1059A0001124911D08950E94C42CB7FF0895821BF5
:1059B000930B08950E94C42CA59F900DB49F900D49
:1059C000A49F800D911D11240895AA1BBB1B51E1BA
:1059D00007C0AA1FBB1FA617B70710F0A61BB70B5F
:1059E000881F991F5A95A9F780959095BC01CD0104
:1059F0000895F999FECF92BD81BDF89A992780B597
:105A00000895262FF999FECF1FBA92BD81BD20BD02
:105A10000FB6F894FA9AF99A0FBE01960895F89481
:025A2000FFCFB6
:105A22000800010000880680003A00776169746905
:105A32006E670067657474696E67706174310067C0
:105A4200657474696E677061743200676574746935
:105A52006E6770617433005061747465726E207386
:105A62006F6C76656421005041545445524E205467
:105A72004F20534F4C564500616C61726D206F6E22
:105A820000486F7572004D696E75746573005361DD
:105A9200766520416C61726D007072696E7420616E
:105AA2006C61726D7300454550524F4D206C6567B5
:105AB2006E7468006E756D6572206F6620616C6130
:105AC200726D730043726561746520416C61726D21
:105AD200005669657720416C61726D730073697A53
