:100000000C94F2030C9423040C9423040C94230406
:100010000C9423040C9423040C9423040C942304C4
:100020000C9423040C9423040C9423040C942304B4
:100030000C9423040C9423040C9423040C942304A4
:100040000C9423040C9423040C9423040C94230494
:100050000C9423040C9423040C9423040C940C0D92
:100060000C9423040C947A120C9446130C942304DD
:100070000C9423040C9423040C9423040C94230464
:100080000C9423040C9423040C9423040C94230454
:100090000C94AD120C9485130C9423040C9423043B
:1000A0000C9423040C9423040C9423040C94230434
:1000B0000C9423040C9423040C9423040C94230424
:1000C0000C9423040C9423040C9423040C94E01249
:1000D0000C94C4130C9423040C9413130C94031465
:1000E0000C942304260E290E1C0E200E600E2D0EDD
:1000F000310E370E3B0E3F0E450E490E4D0E600E73
:10010000530E570E5B0E0C9440170C94D7110C94A1
:10011000CD0E0C94F4210C9425180C941E120C9402
:100120001C0E0C94570E0C9478060C94BE1D0C9467
:100130003F0E0C9484180C94C6110C94530E0C941E
:10014000370E0C942D0E0C94600E0C945B0E0C94D8
:1001500087160C9467230C94490E0C949A160C94F1
:100160009A1E0C9491170C94F3110C944D0E0C9450
:10017000F01D0C94D81E0C94C91D0C94D01C0C942A
:10018000B7160C94A6160C94EC220C943B0E0C940F
:100190008E160C94AF170C9413120C9485180C94B3
:1001A000261E0C94310E0C94DD1D0C94601E0C94D4
:1001B000DD150C94CA140C94290E0C94260E0C9484
:1001C000200E0C94450E0C94A8210C94B6160C9499
:1001D00086160C94FC160C94C7110000090A02083C
:1001E0000B0C0D07060304010000000000000000D6
:1001F00000000000000000000000000000000000FF
:1002000000000000000011100F00000000000000BE
:1002100000000000000000000000000000000000DE
:100220000102102020080810204010204080020108
:1002300002010804020101020408102040808040ED
:1002400020100804020180040201804020100804EC
:10025000020108040201010204081020408001028A
:100260000408102040800505050507050808080852
:10027000020202020A0A080804040404010101013E
:100280000101010103030303030303030407070739
:100290000C0C0C0C0C0C0C0C0202020206060606DE
:1002A000060606060B0B0B0B0B0B0B0B00002200BC
:1002B000250028002B002E00310034000201000030
:1002C000050108010B0100002100240027002A007D
:1002D0002D003000330001010000040107010A0174
:1002E00000000000003E5B4F5B3E3E6B4F6B3E1CD0
:1002F0003E7C3E1C183C7E3C181C577D571C1C5EE7
:100300007F5E1C00183C1800FFE7C3E7FF001824BD
:100310001800FFE7DBE7FF30483A060E2629792967
:1003200026407F050507407F05253F5A3CE73C5A9C
:100330007F3E1C1C08081C1C3E7F14227F22145F79
:100340005F005F5F06097F017F006689956A6060D4
:1003500060606094A2FFA29408047E040810207ECE
:10036000201008082A1C08081C2A08081E10101053
:10037000100C1E0C1E0C30383E3830060E3E0E0699
:10038000000000000000005F0000000700070014EC
:100390007F147F14242A7F2A1223130864623649AB
:1003A0005620500008070300001C22410000412293
:1003B0001C002A1C7F1C2A08083E08080080703098
:1003C0000008080808080000606000201008040207
:1003D0003E5149453E00427F40007249494946210D
:1003E00041494D331814127F1027454545393C4A81
:1003F0004949314121110907364949493646494998
:10040000291E0000140000004034000000081422DF
:10041000411414141414004122140802015909064D
:100420003E415D594E7C1211127C7F494949363E4E
:10043000414141227F4141413E7F494949417F0934
:100440000909013E414151737F0808087F00417F3F
:1004500041002040413F017F081422417F4040403D
:10046000407F021C027F7F0408107F3E4141413ED5
:100470007F090909063E4151215E7F091929462657
:100480004949493203017F01033F4040403F1F205B
:1004900040201F3F4038403F631408146303047832
:1004A00004036159494D43007F4141410204081052
:1004B00020004141417F040201020440404040408D
:1004C000000307080020545478407F2844443838FB
:1004D00044444428384444287F385454541800086D
:1004E0007E090218A4A49C787F0804047800447D47
:1004F00040002040403D007F1028440000417F40E4
:10050000007C047804787C08040478384444443837
:10051000FC1824241818242418FC7C080404084817
:100520005454542404043F44243C4040207C1C2068
:1005300040201C3C4030403C44281028444C9090C3
:10054000907C4464544C440008364100000077001D
:1005500000004136080002010204023C2623263C2A
:100560001EA1A161123A4040207A385454555921B5
:10057000555579412254547842215554784020549D
:100580005579400C1E5272123955555559395454EB
:10059000545939555454580000457C410002457D5A
:1005A000420001457C407D1211127DF0282528F083
:1005B0007C545545002054547C547C0A097F4932B0
:1005C000494949323A4444443A324A4848303A4127
:1005D00041217A3A42402078009DA0A07D3D4242D0
:1005E000423D3D4040403D3C24FF2424487E494359
:1005F000662B2FFC2F2BFF0929F620C0887E0903CC
:1006000020545479410000447D413048484A3238F2
:100610004040227A007A0A0A727D0D19317D26291E
:10062000292F28262929292630484D402038080816
:10063000080808080808382F10C8ACBA2F1028344A
:10064000FA00007B000008142A142222142A14083D
:100650005500550055AA55AA55AAFF55FF55FF004C
:100660000000FF00101010FF00141414FF00101001
:10067000FF00FF1010F010F0141414FC001414F715
:1006800000FF0000FF00FF1414F404FC1414171002
:100690001F10101F101F1414141F00101010F00052
:1006A0000000001F101010101F10101010F010008C
:1006B0000000FF101010101010101010FF1000009C
:1006C00000FF140000FF00FF00001F10170000FCD7
:1006D00004F414141710171414F404F40000FF00A9
:1006E000F714141414141414F700F7141414171432
:1006F00010101F101F141414F4141010F010F00038
:10070000001F101F0000001F14000000FC14000058
:10071000F010F01010FF10FF141414FF141010103C
:100720001F00000000F010FFFFFFFFFFF0F0F0F0EF
:10073000F0FFFFFF0000000000FFFF0F0F0F0F0F83
:100740003844443844FC4A4A4A347E0202060602CF
:100750007E027E0263554941633844443C04407E36
:10076000201E2006027E020299A5E7A5991C2A49AF
:100770002A1C4C7201724C304A4D4D30304878483A
:1007800030BC625A463D3E494949007E0101017E26
:100790002A2A2A2A2A44445F444440514A44404079
:1007A000444A51400000FF0103E080FF00000808B8
:1007B0006B6B083612362436060F090F0600001838
:1007C000180000001010003040FF0101001F01015F
:1007D0001E00191D1712003C3C3C3C0000000000AC
:1007E0007806CA1411241FBECFEFD1E2DEBFCDBF01
:1007F00000E00CBF13E0A0E0B2E0E6E1F6E500E0C7
:100800000BBF02C007900D92AA31B107D9F726E0BD
:10081000AAE1B3E001C01D92AF32B207E1F713E0E5
:10082000C2EFD3E000E006C021970109802FFE014E
:100830000E94C22AC03FD10780E00807A9F70E94A2
:10084000480C0C9419280C940000CF92DF92EF9280
:10085000FF920F931F93CF93DF93EB017B0125E072
:10086000E20EF11C8B016C01C61AD70AC601800F7B
:10087000911F0E94F32AF80181938F01EE15FF0565
:10088000A9F7CE01DF91CF911F910F91FF90EF90CB
:10089000DF90CF900895FF920F931F93CF93DF9334
:1008A0000E94AD0D40E855E260E070E089EE93E013
:1008B0000E94421460E08BE00E94610E61E08BE0D8
:1008C0000E949D0E60E08CE20E94610E61E08CE26D
:1008D0000E949D0EC9EAD2E001EB12E0F880229658
:1008E00060E08F2D0E94610E61E08F2D0E949D0EB1
:1008F000F80180810E5F1F4F61E00E94610EF2E0FF
:10090000C13BDF0759F761E0809100020E94610E50
:1009100061E08CE00E94610E61E08BE20E94610E5A
:1009200040E050E0BA018EE293E0DF91CF911F9159
:100930000F91FF900C94B21FCF93DF93EC0126E44C
:10094000269FC001279F900D1124BC01640F751FC5
:100950004FE050E08EE293E00E94A61D6BE08EE235
:1009600093E00E94AC1D40E050E06FEF7FEF8EE21D
:1009700093E00E94B81D4AE050E0BE018EE293E091
:10098000DF91CF910C94201040E050E060E070E0E7
:1009900080916F03909170030E949C0440E050E0AE
:1009A00061E070E080916D0390916E030E949C0461
:1009B0004EE150E062E070E080916B0390916C0337
:1009C0000E949C044EE150E063E070E08091690376
:1009D00090916A030C949C04EF92FF920F931F93E3
:1009E000CF93DF9300D01F921F92CDB7DEB78091D7
:1009F000690390916A03019690936A038093690357
:100A00000A9769F480916B0390916C03019690931F
:100A10006C0380936B0310926A03109269038091B8
:100A20006B0390916C03069701F580916D03909193
:100A30006E03019690936E0380936D0310926C0386
:100A400010926B0310926A03109269032091650360
:100A500030916603232B49F48A30910534F440E049
:100A600050E061E070E00E949C04809165039091E9
:100A70006603892BA1F44EE150E062E070E08091C2
:100A80006B0390916C030E949C044EE150E063E084
:100A900070E08091690390916A030E949C048091A8
:100AA0006D0390916E030A9729F580916F039091E1
:100AB000700301969093700380936F0310926E03FE
:100AC00010926D038091650390916603892B91F4D8
:100AD00040E050E061E070E080E090E00E949C0423
:100AE00040E050E060E070E080916F03909170030F
:100AF0000E949C0480916F0390917003029771F59E
:100B000080916D0390916E03049741F510927003EC
:100B100010926F0310926E0310926D0310926C038B
:100B200010926B0310926A0310926903809165031F
:100B300090916603892B91F440E050E060E070E012
:100B400080E090E00E949C0440E050E061E070E0B2
:100B500080916D0390916E030E949C0480E090E070
:100B60000E94F32A90E0909364038093630382E0F1
:100B7000E82EF12C01E010E0809163039091640372
:100B8000801791070CF44EC0BE016F5F7F4FC70105
:100B90000E942504898190E020916F0330917003B9
:100BA00028173907C9F58A8190E020916D033091AB
:100BB0006E032817390781F58B8190E020916B0334
:100BC00030916C032817390739F58C8190E020911A
:100BD000690330916A0328173907F1F48D8188235E
:100BE000D9F08091610390916203892BA9F461E0AF
:100BF0008BE20E949D0E64EF71E080E090E00E9425
:100C0000870D60E08BE20E949D0E64EF71E080E052
:100C100090E00E94870DE5CF0F5F1F4F85E0E80E43
:100C2000F11CAACF0F900F900F900F900F90DF91B3
:100C3000CF911F910F91FF90EF900895DF92EF9267
:100C4000FF920F931F93CF93DF9300D01F921F92B9
:100C5000CDB7DEB780E090E00E94F32A90E0909359
:100C600064038093630382E0E82EF12C01E010E03E
:100C7000D12C8091630390916403801791078CF0CD
:100C8000BE016F5F7F4FC7010E9425048D818823BD
:100C900011F0DD24D3940F5F1F4F85E0E80EF11CA7
:100CA000E8CFDD2011F061E001C060E0809100023A
:100CB0000E949D0E0F900F900F900F900F90DF915C
:100CC000CF911F910F91FF90EF90DF900895CF93F8
:100CD000DF93C0E0D0E060E0CE010E94FB2A2196C5
:100CE000C11580E1D807B9F7DF91CF910C941E06AA
:100CF000EF92FF920F932FEF49E06AE08EE293E0CC
:100D00000E94F11E8CE2E82EFF24F39405E029E313
:100D100048E364E08AE193E00E9430250F91FF9060
:100D2000EF900895AF92BF92CF92DF92EF92FF9231
:100D30000F931F9360E070E08EE293E00E949117A2
:100D4000EE24EA94FE2C08E210E024E630E041E7CD
:100D500050E063E770E08EE293E00E949A1E64E048
:100D60008EE293E00E94AC1D60E070E08EE293E0C2
:100D70000E94B21D43E750E065E770E08EE293E029
:100D80000E94A61D6BE172E08EE293E00E946E0F5E
:100D9000AA24AA94BA2C2FE8C22ED12C3FE5E32E28
:100DA000F12C01E710E02EE630E041E750E060E58D
:100DB00070E08EE293E00E94BB1841E7C42ED12C74
:100DC00050EFE52EF12C0FE810E02FEF30E04FE868
:100DD00050E061EE70E08EE293E00E94BB18EE24DA
:100DE000EA94FE2C03E210E02CE830E048EA50E000
:100DF00069E670E08EE293E00E949A1E64E08EE263
:100E000093E00E94AC1D60E070E08EE293E00E94EF
:100E1000B21D4AEA50E06BE670E08EE293E00E9479
:100E2000A61D60E272E08EE293E00E946E0F7BEC02
:100E3000C72ED12CEBE4EE2EF12C08EA10E02AE5C7
:100E400030E048EA50E06CE370E08EE293E00E940C
:100E5000BB18F8EACF2ED12CAEE0EA2EFF24F39493
:100E60000BEC10E02DE131E04BEC50E06FEF70E067
:100E70008EE293E00E94BB1863E08EE293E00E9452
:100E8000AC1D4FEF5FEF60E070E08EE293E00E94F8
:100E9000B81D4CED50E066E470E08EE293E00E94F5
:100EA000A61D68E272E08EE293E00E946E0F65E09C
:100EB0008EE293E00E94AC1D40E058EF6FEF7FEFB1
:100EC0008EE293E00E94B81D48EC50E060E070E0D4
:100ED0008EE293E00E94A61D6FE972E08EE293E03D
:100EE0000E946E0F40E050E060E070E080E090E033
:100EF0000E949C0440E050E061E070E080E090E0FF
:100F00000E949C044EE150E062E070E080E090E0DE
:100F10000E949C044EE150E063E070E080E090E0CD
:100F20001F910F91FF90EF90DF90CF90BF90AF9007
:100F30000C949C048F929F92AF92BF92CF92DF92BB
:100F4000EF92FF920F931F93CF93DF93CDB7DEB74E
:100F5000AF970FB6F894DEBF0FBECDBF82E090E032
:100F6000909366038093650360E070E08EE293E007
:100F70000E94911765E08EE293E00E94AC1D40E074
:100F800058EF6FEF7FEF8EE293E00E94B81D48ECC0
:100F900050E060E070E08EE293E00E94A61D6FE9F1
:100FA00072E08EE293E00E946E0FAA24AA94BA2CFB
:100FB0003DECC32ED12C41EBE42EF12C00EF10E0E0
:100FC00020EA30E04DEC50E06FE870E08EE293E014
:100FD0000E94BB1863E372E089EE93E00E946E0FFB
:100FE00060E472E089EE93E00E943F0F4AE050E037
:100FF00060E070E189EE93E00E94521080E090E0A2
:101000000E94F32A90E090936403809363036EE45C
:1010100072E089EE93E00E943F0F6091630370914C
:1010200064034AE050E089EE93E00E94271052E00A
:10103000852E912CC12CD12CAA24A394B12C809163
:101040006303909164038A159B050CF4B1C0BE0143
:10105000655D7F4FC4010E9425044AE050E06BA506
:1010600089EE93E00E944B104AE050E06CA589EEB7
:1010700093E00E944B104AE050E06DA589EE93E0AA
:101080000E944B104AE050E06EA589EE93E00E946A
:101090004B1065E08EE293E00E94AC1D8FA5882383
:1010A00029F090EEE92E97E0F92E03C0E12C88EFAD
:1010B000F82E03E210E020EA30E0A60160EA70E0DA
:1010C0008EE293E00E949A1EA60160E070E08EE23C
:1010D00093E00E94A61D66E872E0CE0184960E940D
:1010E000D61040E16EA5CE0101960E94241140E188
:1010F0006DA5CE0108960E94241140E16CA5CE0199
:1011000046960E94241140E16BA5CE014D960E94A7
:101110002411BE01635E7F4FCE010F960E94031122
:10112000BE016A5E7F4FCE010F960E9494116AE362
:101130000E94A711BE01685F7F4F0E949411BE01FB
:101140006F5F7F4F0E949411BC01CE0184960E9474
:10115000EC10CE010F960E946810CE014D960E94B1
:101160006810CE0146960E946810CE0108960E9433
:101170006810CE0101960E9468106FEF7FEF8EE23B
:1011800093E00E94B21DBE016C5D7F4F8EE293E042
:101190000E945C0FCE0184960E9468108FEFA81AFF
:1011A000B80A82E3C80ED11C85E0880E911C47CF97
:1011B000AF960FB6F894DEBF0FBECDBFDF91CF91D3
:1011C0001F910F91FF90EF90DF90CF90BF90AF9065
:1011D0009F908F900895EF92FF920F931F93EE24AC
:1011E000EA94FE2C0EE110E027ED30E04EEB50E0EB
:1011F00065E370E08EE293E00E949A1E63E08EE267
:1012000093E00E94AC1D60E070E08EE293E00E94EB
:10121000B21D40EC50E065E370E08EE293E00E9486
:10122000A61D6EE572E08EE293E00E946E0F27ED40
:1012300030E046E950E065E370E08EE293E00E9422
:101240009A1E63E08EE293E00E94AC1D60E070E0C5
:101250008EE293E00E94B21D48E950E06AE370E03C
:101260008EE293E00E94A61D6BE672E08EE293E0B0
:101270000E946E0F65E08EE293E00E94AC1D40E09C
:1012800058EF6FEF7FEF8EE293E00E94B81D48ECBD
:1012900050E060E070E08EE293E00E94A61D6FE9EE
:1012A00072E08EE293E01F910F91FF90EF900C940B
:1012B0006E0F109266031092650360E070E08EE29C
:1012C00093E00E9491170E94C4040C94EB080F93C2
:1012D0001F93CF93DF9300D01F921F92CDB7DEB73D
:1012E000E2E7F3E08081898382818A8384818B8332
:1012F00086818C8381E08D830E94D40C8C0167E70A
:1013000072E089EE93E00E943F0F4AE050E065E012
:1013100070E089EE93E00E94521025E0209FC0010A
:10132000219F900D112429813A814B815C816D812F
:1013300002960E94970CC80101960E94ED0C0E9433
:10134000590967E872E089EE93E00E946E0F0F90F2
:101350000F900F900F900F90DF91CF911F910F91F1
:101360000C941E06EF92FF920F931F93CF93DF937F
:1013700000D01F921F92CDB7DEB701977C0185E0A8
:101380008E9D80018F9D100D11240E5F1F4FBE0199
:101390006F5F7F4FC8010E9425046D8191E069272E
:1013A0006D8329813A814B815C81C8010E94970C31
:1013B0008D81882359F082E38E9DA0018F9D500D71
:1013C000112490EEE92E97E0F92E09C082E38E9D5C
:1013D000A0018F9D500D1124E12C88EFF82E03E21F
:1013E00010E020EA30E060EA70E08EE293E00E94D4
:1013F0009A1E0E941E0668EE73E080E090E00E9454
:10140000870D0F900F900F900F900F90DF91CF915D
:101410001F910F91FF90EF9008954F925F926F92FE
:101420007F928F929F92AF92BF92CF92DF92EF9274
:10143000FF920F931F93CF93DF9300D000D0CDB7CF
:10144000DEB78AE193E00E94D62329833A834B8357
:101450005C836D837E838D819E810A978F3D93404F
:1014600008F0FFC169817A81072E000C880B990B67
:101470001F921F921F922FEE2F93A12CB12C65016A
:1014800018E9E12E13E0F12E00E010E026E930E04B
:1014900040E050E00E949C152B013C014B016B8108
:1014A0007C81072E000C880B990B1F921F921F92B4
:1014B0001F923FE3A32EBB24B394C12CD12C1CEA72
:1014C000E12E13E0F12E00E010E028E730E040E0EC
:1014D00050E00E949C156B017C018B0104511109A5
:1014E00069E972E089EE93E00E943F0F4AE050E024
:1014F000B80189EE93E00E94271061EA72E089EE5C
:1015000093E00E943F0F4AE050E0B20189EE93E081
:101510000E94271080916503909166030FB6F8949E
:10152000DEBF0FBECDBF009779F5C6018A54910981
:10153000853D910530F4C2018F5B91094D9708F408
:1015400087C1C20182589109C39778F439E4C31A5C
:10155000D10888EDC816D10440F4809167039091BA
:101560006803892B11F40E949A0728EC421A51084B
:1015700039E24316510408F04FC10A31110508F051
:101580004BC10E94670648C18130910509F00BC12B
:10159000C201815791094F9708F076C0C601845661
:1015A00091094F97E0F5809174039091750301972D
:1015B000909375038093740397FF28C08091720302
:1015C000909173030197909373038093720397FD37
:1015D00007C089E090E090937503809374030CC07A
:1015E00084E090E0909375038093740382E090E030
:1015F000909373038093720340E050E060E070E0EA
:1016000080917203909173030E949C0440E050E02B
:1016100061E070E080917403909175039CC085EF48
:10162000C81AD1082FE1C216D10408F0AEC08091CB
:1016300074039091750301969093750380937403DE
:101640000A976CF0809172039091730301969093C6
:101650007303809372031092750310927403809148
:1016600072039091730302973CF2809174039091FE
:10167000750304970CF21092750310927403109284
:10168000730310927203B8CFC201885A91098497EC
:1016900008F066C0C601805591094F9718F58091F2
:1016A000780390917903019790937903809378035D
:1016B00097FF49C0809176039091770301979093AB
:1016C00077038093760329E030E030937903209309
:1016D000780397FF2EC085E090E090937703809386
:1016E000760327C033E1C31A31E0D30A8FE1C8166D
:1016F000D10408F04AC08091780390917903019653
:1017000090937903809378030A97ECF080917603A5
:1017100090917703019690937703809376031092CC
:10172000790310927803069724F0109277031092B1
:1017300076034EE150E062E070E080917603909194
:1017400077030E949C044EE150E063E070E08091DA
:101750007803909179030E949C041092710315C044
:1017600080917103811111C0C2018C5D910945976F
:1017700060F42AE5C21AD10839ECC316D10428F462
:101780000E94670981E08093710388EC481A510830
:1017900029E24216510408F03FC00A311105E0F574
:1017A0000E94590939C00297B9F538EC431A51081B
:1017B00089E24816510428F40A31110510F40E94F8
:1017C000590924EBC21AD10831EAC316D10420F515
:1017D00083E2E82EF12C01E010E080916303909108
:1017E000640380179107C4F0C70183978816990690
:1017F0006CF0E814F90454F04AE050E0B80189EEC6
:1018000093E00E942710C8010E94B2090F5F1F4F8A
:1018100082E3E80EF11CE1CF64E670E080E090E046
:1018200026960FB6F894DEBF0FBECDBFDF91CF91E5
:101830001F910F91FF90EF90DF90CF90BF90AF90EE
:101840009F908F907F906F905F904F900C94870D3A
:1018500081E090E090936603809365030E94920676
:1018600070CE26960FB6F894DEBF0FBECDBFDF91C7
:10187000CF911F910F91FF90EF90DF90CF90BF908D
:10188000AF909F908F907F906F905F904F90089552
:101890000E944B0440E050E0BA018EE293E00E94C7
:1018A000B21F60E070E08EE293E00E94911763E067
:1018B0008EE293E00E94A8210E94C4040E94EB08DB
:1018C0000E941E0688E5C82E82E0D82EE12CF12C5D
:1018D0000E94560DA70196010E94812A672B682B52
:1018E000692B11F40E94EC040E940D0AF1CFEF92D3
:1018F000FF920F931F93CF93DF931F92CDB7DEB765
:101900007C01FC0100811181C80169830E94F32AD6
:101910006981681719F0C8010E94FB2AC7010F905E
:10192000DF91CF911F910F91FF90EF900895CF928B
:10193000DF92EF92FF920F931F93CF93DF93CDB778
:10194000DEB727970FB6F894DEBF0FBECDBF2B834F
:101950003C834D835E836F837E0128E0E20EF11CA1
:101960008E010D5F1F4F6C01C01AD10A9601200F26
:10197000311FF80161918F013A832983CE010196CD
:101980000E94770C0E151F0589F727960FB6F8945D
:10199000DEBF0FBECDBFDF91CF911F910F91FF90A2
:1019A000EF90DF90CF900895CF93DF931F921F9217
:1019B000CDB7DEB71A82198280E090E00E94F32A48
:1019C000898381E090E00E94F32A8A8389819A8149
:1019D0000F900F90DF91CF910895CF93DF9300D0B8
:1019E0001F92CDB7DEB79C838B831A821982682F32
:1019F000CE0101960E94770C6C8181E090E09A8381
:101A00008983CE0101960E94770C0F900F900F9062
:101A10000F90DF91CF9108951F920F920FB60F9202
:101A200011242F933F938F939F93AF93BF938091F4
:101A30007B0390917C03A0917D03B0917E03309154
:101A40007A0323E0230F2D3720F40196A11DB11D49
:101A500005C026E8230F0296A11DB11D20937A032D
:101A600080937B0390937C03A0937D03B0937E03CC
:101A700080917F0390918003A0918103B0918203B4
:101A80000196A11DB11D80937F0390938003A093C5
:101A90008103B0938203BF91AF919F918F913F914A
:101AA0002F910F900FBE0F901F9018952FB7F8949D
:101AB00060917B0370917C0380917D0390917E0304
:101AC0002FBF08953FB7F89480917F0390918003D2
:101AD000A0918103B091820326B5A89B05C02F3F3A
:101AE00019F00196A11DB11D3FBFBA2FA92F982F44
:101AF0008827820F911DA11DB11DBC01CD0142E0BF
:101B0000660F771F881F991F4A95D1F70895CF92C6
:101B1000DF92EF92FF92CF93DF936B017C010E94E3
:101B2000620DEB01C114D104E104F10479F00E94CB
:101B3000620D6C1B7D0B683E7340A0F381E0C81AF8
:101B4000D108E108F108C851DC4FECCFDF91CF910B
:101B5000FF90EF90DF90CF900895789484B58260E5
:101B600084BD84B5816084BD85B5826085BD85B541
:101B7000816085BDEEE6F0E0808181608083E1E8F0
:101B8000F0E0108280818260808380818160808328
:101B9000E0E8F0E0808181608083E1EBF0E080812B
:101BA00084608083E0EBF0E0808181608083E1E904
:101BB000F0E0808182608083808181608083E0E9C1
:101BC000F0E0808181608083E1EAF0E080818260E2
:101BD0008083808181608083E0EAF0E080818160A1
:101BE0008083E1E2F1E08081826080838081816096
:101BF0008083E0E2F1E0808181608083EAE7F0E0C9
:101C00008081846080838081826080838081816024
:101C100080838081806880831092C100089590E065
:101C2000FC013197E131F10508F04AC08827EE58F0
:101C3000FF4F8F4F0C94C22A809180008F7703C092
:101C4000809180008F7D80938000089584B58F7788
:101C500002C084B58F7D84BD08958091B0008F77D8
:101C600003C08091B0008F7D8093B0000895809173
:101C700090008F7707C0809190008F7D03C0809186
:101C80009000877F8093900008958091A0008F77C7
:101C900007C08091A0008F7D03C08091A000877F46
:101CA0008093A0000895809120018F7707C08091D4
:101CB00020018F7D03C080912001877F80932001C8
:101CC0000895CF93DF9390E0FC01E05EFD4F2491F7
:101CD000FC01EA59FD4F8491882361F190E0880F5F
:101CE000991FFC01EA53FD4FC591D491FC01E455C5
:101CF000FD4FA591B491611109C09FB7F8948881F7
:101D0000209582238883EC912E230BC0623061F4EE
:101D10009FB7F8943881822F809583238883EC9134
:101D20002E2B2C939FBF06C08FB7F894E8812E2BE3
:101D300028838FBFDF91CF9108951F93CF93DF93B7
:101D4000282F30E0F901E652FE4F8491F901E05E60
:101D5000FD4FD491F901EA59FD4FC491CC23C9F04C
:101D6000162F81110E940F0EEC2FF0E0EE0FFF1FD7
:101D7000E455FD4FA591B4918FB7F894111105C0AA
:101D80009C91ED2FE095E92302C0EC91ED2BEC93B3
:101D90008FBFDF91CF911F910895CF92DF92EF9285
:101DA000FF920F931F93CF93DF936C01EB017B01A5
:101DB000E40EF51E00E010E0CE15DF0561F069913C
:101DC000D601ED91FC910190F081E02DC6011995AD
:101DD000080F191FF1CFC801DF91CF911F910F910B
:101DE000FF90EF90DF90CF9008956115710579F025
:101DF000FB0101900020E9F73197AF01461B570B1B
:101E0000DC01ED91FC910280F381E02D199480E0DA
:101E100090E00895AF92BF92CF92DF92EF92FF923F
:101E20000F931F93CF93DF936C017B01C0E0D0E051
:101E300000E010E0D70114968D919C911597C8177A
:101E4000D90788F4D601ED91FC91A080B180BE0144
:101E5000C7010E94B511682FC601F5011995080F39
:101E6000191F2196E7CFC801DF91CF911F910F91E4
:101E7000FF90EF90DF90CF90BF90AF9008950C94BB
:101E8000F50EDC01ED91FC910190F081E02D1994AB
:101E90000F931F93CF93DF93EC016DE00E94410FEE
:101EA0008C016AE0CE010E94410F800F911FDF91EB
:101EB000CF911F910F9108950F931F93CF93DF93AD
:101EC000EC010E940A0F8C01CE010E94480F800F86
:101ED000911FDF91CF911F910F9108950F931F9341
:101EE000CF93DF93EC010E94F50E8C01CE010E948E
:101EF000480F800F911FDF91CF911F910F9108958F
:101F00008F929F92AF92BF92CF92DF92EF92FF9209
:101F10000F931F93CF93DF93CDB7DEB7A1970FB683
:101F2000F894DEBF0FBECDBF6C01142FE52FCB019F
:101F3000022F19A2223008F40AE07E0121E2E20E0B
:101F4000F11C802E912CA12CB12C612F7E2FA5018C
:101F500094010E94812A029F1019112481E0E81A3D
:101F6000F1081A3014F4105D01C0195CF7011083F8
:101F7000122FE32FCA01232B242B252B31F7B70176
:101F8000C6010E94F50EA1960FB6F894DEBF0FBEF3
:101F9000CDBFDF91CF911F910F91FF90EF90DF9018
:101FA000CF90BF90AF909F908F900895CF92DF9287
:101FB000EF92FF920F931F93CF93DF93EC016A018F
:101FC0007B012115310579F4E881F9810190F081D7
:101FD000E02D642FDF91CF911F910F91FF90EF9033
:101FE000DF90CF9019942A303105E9F477FF1AC0B9
:101FF0006DE20E94410F8C0144275527BA014C190C
:102000005D096E097F092AE0CE010E94800F800FD2
:10201000911FDF91CF911F910F91FF90EF90DF9073
:10202000CF9008952AE0B701A601CE01DF91CF91AC
:102030001F910F91FF90EF90DF90CF900C94800F45
:102040009A01AB01770F660B770B0C94D60F0F93A9
:102050001F93CF93DF93EC019A01AB01770F660BCF
:10206000770B0E94D60F8C01CE010E94480F800F83
:10207000911FDF91CF911F910F9108952115310587
:1020800041F4DC01ED91FC910190F081E02D642F91
:1020900019940C94800F9A01462F50E060E070E094
:1020A0000C943E100F931F93CF93DF93EC019A0192
:1020B000AB0160E070E00E943E108C01CE010E94F6
:1020C000480F800F911FDF91CF911F910F910895BD
:1020D000FC01808191810C944E27CF93DF93EC011A
:1020E00088819981009711F00E944E2719821882E9
:1020F0001D821C821B821A82DF91CF9108950F935B
:102100001F93CF93DF93EC018B016F5F7F4F88812B
:1021100099810E94D025009731F0998388831B8391
:102120000A8381E001C080E0DF91CF911F910F9180
:102130000895CF93DF93EC0188819981892B29F051
:102140008A819B818617970760F4CE010E947F10D9
:10215000882341F08C819D81892B19F4E881F981D4
:10216000108281E0DF91CF910895EF92FF920F935B
:102170001F93CF93DF93EC017B018A01BA010E9488
:102180009910811104C0CE010E946D1007C01D83FB
:102190000C83B701888199810E942528CE01DF91A7
:1021A000CF911F910F91FF90EF900895FC01118244
:1021B00010821382128215821482168261157105B3
:1021C00051F0FB0101900020E9F73197AF01461B68
:1021D000570B0C94B5100895CF93DF93EC01FB01DE
:1021E0008617970761F0608171816115710529F08B
:1021F000448155810E94B51002C00E946D10CE012D
:10220000DF91CF910895FC01118210821382128216
:102210001582148216820C94EC10CF93DF93EC019C
:102220006115710559F0FB0101900020E9F7319724
:10223000AF01461B570B0E94B51002C00E946D10E3
:10224000CE01DF91CF9108950F931F93CF93DF932A
:10225000CDB7DEB729970FB6F894DEBF0FBECDBF5E
:102260008C01862FF801118210821382128215824E
:102270001482168250E0BE016F5F7F4F90E00E9493
:102280002C28BE016F5F7F4FC8010E940D11299657
:102290000FB6F894DEBF0FBECDBFDF91CF911F9177
:1022A0000F910895EF92FF920F931F93CF93DF93B7
:1022B000FC01248135816115710511F480E019C09C
:1022C00041155105A9F07B01EC018A01020F131F92
:1022D000B8010E949910882389F3288139818C8163
:1022E0009D81B701820F931F0E9425281D830C83B7
:1022F00081E0DF91CF911F910F91FF90EF900895B2
:10230000CF93DF931F921F92CDB7DEB769831A82F6
:1023100041E050E0BE016F5F7F4F0E9452110F906D
:102320000F90DF91CF910895CF93DF93EC01FB01E4
:1023300044815581608171810E945211811103C0D5
:10234000CE010E946D10CE01DF91CF910895CF9301
:10235000DF93EC010E948011811103C0CE010E9425
:102360006D10CE01DF91CF910895FC01248135815C
:102370006217730748F480819181009729F0FC016E
:10238000E60FF71F8081089580E008950895FC010D
:1023900024853585F901E05CFF4F8081918132967B
:1023A00020813181821B930B8F7399270895DC0163
:1023B0001C96ED91FC911D97DF01A05CBF4F2D9104
:1023C0003C91119712968D919C911197281739077E
:1023D00039F08D919C91E80FF91F808190E008956C
:1023E0008FEF9FEF0895FC01A485B585FD01E05CAA
:1023F000FF4F2081318132968081918128173907E2
:1024000079F080819181A80FB91F8C912081318151
:102410002F5F3F4F2F7333273183208390E0089540
:102420008FEF9FEF0895FC0181A1882329F0A489F3
:10243000B5898C9186FFFBCF11A208950F931F934E
:10244000CF93DF93FC01A685B7858D01005C1F4FFC
:10245000E8018881998101968F739927AD014E5BC0
:102460005F4FEA012881398182179307D1F3E80190
:1024700028813981A20FB31F6C93A685B785A05C14
:10248000BF4F11969C938E93A689B7892C9181E0BA
:1024900090E0078C02C0880F991F0A94E2F7822B04
:1024A0008C9381E081A30488F589E02D808180648C
:1024B000808381E090E0DF91CF911F910F9108958B
:1024C000FB01E05CFF4F208131812F5F3F4F2F7375
:1024D0003327DB01AE5BBF4F4D915C91241735076D
:1024E00041F040815181DB01A40FB51F8C933183F2
:1024F000208308951F920F920FB60F9211240BB6EE
:102500000F922F933F934F935F936F937F938F938C
:102510009F93AF93BF93EF93FF938091C00082FD91
:1025200007C08091C60067EE75E00E94601202C08D
:102530008091C600FF91EF91BF91AF919F918F91D4
:102540007F916F915F914F913F912F910F900BBEB3
:102550000F900FBE0F901F9018951F920F920FB6FD
:102560000F9211240BB60F922F933F934F935F93CB
:102570006F937F938F939F93AF93BF93EF93FF934B
:102580008091C80082FD07C08091CE006FE575E0A4
:102590000E94601202C08091CE00FF91EF91BF9126
:1025A000AF919F918F917F916F915F914F913F91EB
:1025B0002F910F900BBE0F900FBE0F901F9018958C
:1025C0001F920F920FB60F9211240BB60F922F93FA
:1025D0003F934F935F936F937F938F939F93AF93AB
:1025E000BF93EF93FF938091D00082FD07C080914D
:1025F000D60067ED74E00E94601202C08091D600A0
:10260000FF91EF91BF91AF919F918F917F916F91CA
:102610005F914F913F912F910F900BBE0F900FBE86
:102620000F901F9018951F920F920FB60F921124C2
:102630000BB60F922F933F934F935F936F937F93BC
:102640008F939F93AF93BF93EF93FF93809130014C
:1026500082FD07C0809136016FE474E00E94601231
:1026600002C080913601FF91EF91BF91AF919F9190
:102670008F917F916F915F914F913F912F910F902B
:102680000BBE0F900FBE0F901F9018951F920F92C8
:102690000FB60F9211240BB60F922F933F938F9387
:1026A0009F93EF93FF932091E3053091E405809190
:1026B000E5059091E6052817390731F48091C100AE
:1026C0008F7D8093C10014C0E091E505F091E6058F
:1026D000ED55FA4F20818091E5059091E605019630
:1026E0008F7399279093E6058093E5052093C600A4
:1026F000FF91EF919F918F913F912F910F900BBE82
:102700000F900FBE0F901F9018951F920F920FB64B
:102710000F9211240BB60F922F933F938F939F9399
:10272000EF93FF9320915B0530915C0580915D05EF
:1027300090915E052817390731F48091C9008F7D8B
:102740008093C90014C0E0915D05F0915E05E55EDF
:10275000FA4F208180915D0590915E0501968F73FF
:10276000992790935E0580935D052093CE00FF919D
:10277000EF919F918F913F912F910F900BBE0F90F2
:102780000FBE0F901F9018951F920F920FB60F92C9
:1027900011240BB60F922F933F938F939F93EF9338
:1027A000FF932091D3043091D4048091D50490916B
:1027B000D6042817390731F48091D1008F7D80939A
:1027C000D10014C0E091D504F091D604ED56FB4F32
:1027D00020818091D5049091D60401968F7399271A
:1027E0009093D6048093D5042093D600FF91EF9167
:1027F0009F918F913F912F910F900BBE0F900FBE25
:102800000F901F9018951F920F920FB60F921124E0
:102810000BB60F922F933F938F939F93EF93FF935A
:1028200020914B0430914C0480914D0490914E04C2
:102830002817390731F4809131018F7D8093310160
:1028400014C0E0914D04F0914E04E55FFB4F2081F0
:1028500080914D0490914E0401968F739927909327
:102860004E0480934D0420933601FF91EF919F9188
:102870008F913F912F910F900BBE0F900FBE0F9035
:102880001F901895CF92DF92EF92FF920F931F93B4
:10289000CF93DF93EC016A017B014115514E610535
:1028A000710509F1EC89FD8981E090E008A002C082
:1028B000880F991F0A94E2F7808360E079E08DE346
:1028C00090E0A70196010E94812A89019A01015096
:1028D0001109210931093695279517950795980112
:1028E00001151041A8F0EC89FD89108260E874E8B8
:1028F0008EE190E0A70196010E94812ADA01C901C8
:102900000197A109B109B695A795979587959C015F
:10291000E889F9893083EA89FB89208319A2EE8945
:10292000FF89408181E090E09C010C8C02C0220F65
:10293000331F0A94E2F7242B2083EE89FF8940811C
:102940009C010D8C02C0220F331F0A94E2F7242B46
:102950002083EE89FF8940819C010E8C02C0220FEA
:10296000331F0A94E2F7242B2083EE89FF8920810C
:102970000F8C02C0880F991F0A94E2F7809582237A
:102980008083DF91CF911F910F91FF90EF90DF90A7
:10299000CF900895CF92DF92EF92FF92E9EEF3E0AD
:1029A0001382128288EEC82E83E0D82EE12CF12CFF
:1029B000C482D582E682F7826DEB72E07183608318
:1029C00087EE95E09587848783EA95E097878687E9
:1029D00085EC90E0918B808B84EC90E0938B828BE4
:1029E00080EC90E0958B848B81EC90E0978B868BCC
:1029F00082EC90E0918F808F86EC90E0938F828FB5
:102A000044E0448F33E0358F27E0268F95E0978FA1
:102A100081E080A3E7ECF3E013821282C482D582C6
:102A2000E682F78271836083AFE5B5E0B587A4875E
:102A3000ABE1B5E0B787A687ADECB0E0B18BA08B7A
:102A4000ACECB0E0B38BA28BA8ECB0E0B58BA48B60
:102A5000A9ECB0E0B78BA68BAAECB0E0B18FA08F49
:102A6000AEECB0E0B38FA28F448F358F268F978F57
:102A700080A3E5EAF3E013821282C482D582E68263
:102A8000F78271836083A7EDB4E0B587A487A3E9DB
:102A9000B4E0B787A687A5EDB0E0B18BA08BA4ED1D
:102AA000B0E0B38BA28BA0EDB0E0B58BA48BA1ED11
:102AB000B0E0B78BA68BA2EDB0E0B18FA08FA6EDF2
:102AC000B0E0B38FA28F448F358F268F978F80A36E
:102AD000E3E8F3E013821282C482D582E682F782B1
:102AE000718360836FE474E0758764876BE074E0E2
:102AF0007787668765E371E0718B608B64E371E0D3
:102B0000738B628B60E371E0758B648B61E371E0C2
:102B1000778B668B62E371E0718F608F66E371E0A3
:102B2000738F628F448F358F268F978F80A3FF908E
:102B3000EF90DF90CF9008954F925F926F927F92C7
:102B4000AF92BF92CF92DF92EF92FF920F931F93BB
:102B5000CF93DF93CDB7DEB729013A019B01AC01DA
:102B600024193509460957098A899B89AC89BD8989
:102B7000BC01CD016A197B098C099D090E94712A4B
:102B8000A801970124193509460957090E94A32A6B
:102B9000CA01B9016A0D7B1D8C1D9D1DDF91CF916E
:102BA0001F910F91FF90EF90DF90CF90BF90AF906B
:102BB0007F906F905F904F9008952F923F924F9229
:102BC0005F926F927F928F929F92AF92BF92CF92BD
:102BD000DF92EF92FF920F931F93CF93DF9300D07A
:102BE000CDB7DEB74C017B836A836A0159011701B7
:102BF0009801241B350B37FF03C03195219531090E
:102C0000C5014A815B81841B950B97FF03C0919599
:102C10008195910951E059838217930714F0198225
:102C20000BC09A2D8B2D5801092F182F9A818B815B
:102C3000DB82CA82C92ED82E8A819B81A816B9064A
:102C40005CF49C2D8D2D6801092F182F9A818B81A2
:102C5000BB82AA82A92EB82E2501AA81BB814A1A5D
:102C60005B0A38016C187D0877FE03C0719461948B
:102C70007108720157FE03C0BFEFEB1AFB0AF5940F
:102C8000E794C016D1061CF00FEF1FEF1FC001E044
:102C900010E01CC0D401ED91FC91B9810084F18554
:102CA000E02D9101BB23C1F04A815B81B601C401D3
:102CB0001995E618F708F7FE04C0C00ED11EE40C03
:102CC000F51CEA81FB813196FB83EA834A815B81B3
:102CD000A416B506FCF604C0A6016A817B81E7CF85
:102CE0000F900F900F90DF91CF911F910F91FF9058
:102CF000EF90DF90CF90BF90AF909F908F907F909C
:102D00006F905F904F903F902F9008950895DC0151
:102D1000ED91FC910480F581E02D19940F931F93A0
:102D2000DC01ED91FC91008CF18DE02D19951F9146
:102D30000F9108950F931F93DC01ED91FC91028C8C
:102D4000F38DE02D19951F910F910895EF92FF9249
:102D50000F931F93DC01ED91FC91048CF58DE02D18
:102D600019951F910F91FF90EF9008950895AF92DC
:102D7000BF92CF92DF92EF92FF920F931F93CF9368
:102D8000DF9300D01F92CDB7DEB75C016901DC0193
:102D9000ED91FC910680F781E02D4B835C83698384
:102DA0007A831995D501ED91FC914B815C81C40E1C
:102DB000D51EB1E0CB1AD1080088F189E02D780149
:102DC000860169817A819B01C5011995D501ED9133
:102DD000FC910288F389E02DC5010F900F900F90B0
:102DE0000F90DF91CF911F910F91FF90EF90DF90A7
:102DF000CF90BF90AF901994AF92BF92CF92DF92D5
:102E0000EF92FF920F931F93CF93DF9300D01F9207
:102E1000CDB7DEB75C016901DC01ED91FC91068064
:102E2000F781E02D4B835C8369837A831995D50103
:102E3000ED91FC9169817A819B012C0D3D1D215002
:102E400031090088F189E02D78014B815C818A018C
:102E5000C5011995D501ED91FC910288F389E02D0A
:102E6000C5010F900F900F900F90DF91CF911F91A0
:102E70000F91FF90EF90DF90CF90BF90AF9019949B
:102E80004F925F926F927F928F929F92AF92BF927A
:102E9000CF92DF92EF92FF920F931F93CF93DF9326
:102EA0001F921F92CDB7DEB76C015A01390148015C
:102EB000DC01ED91FC910680F781E02D69837A8336
:102EC00019956981462E7A81572E640C751CD6019E
:102ED000ED91FC91461457046CF40484F585E02DC3
:102EE00087019401A501B201C6011995BFEF4B1AE4
:102EF0005B0AEDCF0288F389E02DC6010F900F9099
:102F0000DF91CF911F910F91FF90EF90DF90CF90C5
:102F1000BF90AF909F908F907F906F905F904F90F9
:102F20001994EF92FF920F931F93DC01ED91FC91A6
:102F300011971A960D911C911B9718962D913C9103
:102F40001997048CF58DE02D7B0140E050E060E0A6
:102F500070E019951F910F91FF90EF900895CF9217
:102F6000DF92EF92FF920F931F93CF93DF9300D0E6
:102F700000D0CDB7DEB76C01DC01ED91FC9162179A
:102F8000730789F4041715072CF4942F852FA801D3
:102F9000092F182F041B150B98012F5F3F4F008C32
:102FA000F18DE02D12C04017510709F5261737079C
:102FB0002CF4962F872FB901292F382F261B370B7A
:102FC0002F5F3F4F028CF38DE02D8701C6011995CD
:102FD00026960FB6F894DEBF0FBECDBFDF91CF911E
:102FE0001F910F91FF90EF90DF90CF900895068092
:102FF000F781E02D2D833E834B835C8369837A8345
:103000001995D601ED91FC910088F189E02D2D8173
:103010003E814B815C8169817A81C6011995D60117
:10302000ED91FC910288F389E02DC60126960FB63A
:10303000F894DEBF0FBECDBFDF91CF911F910F91EE
:10304000FF90EF90DF90CF9019946F927F928F92C4
:103050009F92AF92BF92CF92DF92EF92FF920F9327
:103060001F93CF93DF93EC014B015A0169013801A3
:10307000E881F9810680F781E02D1995E881F981D1
:103080000684F785E02D87019601A501B401CE01E4
:103090001995E881F981A501460D571D4150510947
:1030A0000684F785E02D9601B401CE011995E881DB
:1030B000F9810484F585E02D9301A501B401CE01C9
:1030C0001995E881F981C80CD91CB60161507109C4
:1030D0000484F585E02D9301A501CE011995E881C1
:1030E000F9810288F389E02DCE01DF91CF911F9104
:1030F0000F91FF90EF90DF90CF90BF90AF909F9097
:103100008F907F906F9019940895FC016370658B88
:103110008481958126813781613039F0633029F0CF
:103120009187808733872287089531872087938707
:1031300082870895FC01138212828DEC92E09183C4
:103140008083758364835783468371876087538741
:103150004287158A158614861786168681E0848B29
:103160002FEF3FEF338B228B318B208B868B178A8F
:10317000118E108E08952F923F924F925F926F9210
:103180007F928F929F92AF92BF92CF92DF92EF92F7
:10319000FF920F931F93CF93DF93CDB7DEB7AE9718
:1031A0000FB6F894DEBF0FBECDBF9A8389837EA78A
:1031B0006DA73A01290148011601B88EAF8A04179C
:1031C00015077CF4892DC416D5060CF0CAC146013A
:1031D0001A01602E782E852D27017B012DA78EA741
:1031E0000DC0C016D106C4F4982D892D4101292E99
:1031F000382E942D852D2701E92EF82E861497045C
:103200005CF4962D872D3401892E982E9DA58EA5D0
:103210005EA64DA6492E582EA981BA81ED91FC914A
:1032200011970680F781E02DCD0119956214730482
:1032300051F5EDA5FEA54E165F062CF0942D852DBB
:103240002F019DA78EA7E414F50444F02DA53EA5FB
:103250002E153F0514F4FEA6EDA67201A981BA81D0
:10326000ED91FC9111972DA53EA52E193F092F5FD9
:103270003F4F0684F785E02D0F89188DA301B70114
:10328000CD0119954CC1C201EDA5FEA58E1B9F0B6A
:10329000940126193709A7014E1B5F0B58874F83EE
:1032A000B101661977097C876B87D701A419B50925
:1032B000B88BAF87F101E819F909FA8FE98F64013A
:1032C0008214930419F0F1E0CF1AD10853011B8A3C
:1032D0001C8A1D8A1E8A1B821C821D821E82A901D5
:1032E000330F660B770B4D8F5E8F6F8F78A32B8517
:1032F0003C85032E000C440B550B29A33AA34BA38A
:103300005CA3AC01990F660B770B4DA35EA36FA373
:1033100078A76F817885072E000C880B990B69A719
:103320007AA78BA79CA7CA14DB040CF45AC06B8144
:103330007C818D819E812D8D3E8D4F8D58A10E9467
:10334000A32AEDA4FEA4E20EF31E6B897C898D896D
:103350009E8929A13AA14BA15CA10E94A32A8DA517
:103360009EA5280F391F4B815C816D817E818DA1C7
:103370009EA1AFA1B8A5480F591F6A1F7B1F4B83A1
:103380005C836D837E834B895C896D897E8989A589
:103390009AA5ABA5BCA5480F591F6A1F7B1F4B8B75
:1033A0005C8B6D8B7E8B2E153F052CF49E2D8F2D07
:1033B0007901292F382FA981BA81ED91FC911197BC
:1033C0002E193F092F5F3F4F0684F785E02D0F89A7
:1033D000188DA501B701CD011995BFEFAB1ABB0A36
:1033E000A2CF950128193909EF85F889E29FC0011C
:1033F000E39F900DF29F900D11249C01990F440BB7
:10340000550B2B833C834D835E83C5018619970939
:103410004F815885489F6001499FD00C589FD00C20
:1034200011240D2C000CEE08FF08698D7A8D072EF3
:10343000000C880B990B698F7A8F8B8F9C8F8B85F3
:103440009C85092E000CAA0BBB0B8B879C87AD8734
:10345000BE879F01032E000C440B550B2F87388B22
:10346000498B5A8B4F815885052E000C660B770BC4
:103470004F83588769877A872A143B040CF44FC01E
:103480006B817C818D819E81298D3A8D4B8D5C8DE8
:103490000E94A32A4201820E931EC701B6012B850A
:1034A0003C854D855E850E94A32A6DA57EA5260FCD
:1034B000371F8B819C81AD81BE814F855889698979
:1034C0007A89840F951FA61FB71F8B839C83AD83BA
:1034D000BE836F81788589859A85C60ED71EE81EC2
:1034E000F91E281539052CF4982D892D4901292F0D
:1034F000382FA981BA81ED91FC91119728193909CA
:103500002F5F3F4F0684F785E02D0F89188DA501A9
:10351000B401CD011995BFEFAB1ABB0AADCFA9819C
:10352000BA81ED91FC9111970288F389E02DCD01CC
:10353000AE960FB6F894DEBF0FBECDBFDF91CF9130
:103540001F910F91FF90EF90DF90CF90BF90AF90C1
:103550009F908F907F906F905F904F903F902F90B3
:1035600019944A01602E782E852D4DA45EA42DA7B6
:103570008EA752CE2F923F924F925F926F927F9280
:103580008F929F92AF92BF92CF92DF92EF92FF9273
:103590000F931F93CF93DF93CDB7DEB76C970FB622
:1035A000F894DEBF0FBECDBF9C8F8B8F5B011A01DD
:1035B0001F830E833701C982DC0158964D915C91BF
:1035C00059974115510509F0E5C018968D919C91C8
:1035D0001997681779070CF0CAC11A968D919C91BA
:1035E0001B97281639060CF0C2C18C2C912CFB01BC
:1035F00036E0C39EE00DF11D1124FB87EA871E16FD
:103600001F060CF0B4C1C40133E0880F991F3A952E
:10361000E1F79D878C87820D931D181619060CF013
:10362000A6C157968C91811103C0203B08F02F5FF3
:10363000AB8DBC8DED91FC9111970680F781E02D4B
:10364000CD012A8F19952A8DB5E02B9F9001112469
:10365000F5013596FF87EE872501BB82AA82A90175
:103660004A195B09598B488BC10108969B8B8A8B41
:10367000E889F989E40DF51DE052FD4F9491988792
:103680003D822C826101A885A0FF13C0AB8DBC8D4B
:10369000ED91FC91B981B13031F40084F185E02DD8
:1036A0002E813F8116C00284F385E02DEE80FF80DD
:1036B0001AC0EE81FF816E167F06F1F0AB8DBC8DD6
:1036C000ED91FC91B981B13051F40084F185E02D88
:1036D0009301A601B2018B8D9C8D19950DC00284BA
:1036E000F385E02D7301840194014C815D816A8131
:1036F0007B818B8D9C8D1995E885E695E8872C81DB
:103700003D81280D391D3D832C833FEFC31AD30A19
:103710004A895B89C416D50609F0B5CF8A819B8199
:10372000880D991D9B838A839FEF491A590AAE859C
:10373000BF854A165B0609F09BCFEE81FF816E16AE
:103740007F0609F4F2C0EB8DFC8DA081B181F98177
:10375000F13079F4B5016B5F7F4F1C96ED91FC91D0
:103760001D97830128E030E0A1018B8D9C8D199578
:10377000DCC06A857B85681979091A96ED91FC9100
:103780001B9773010C851D859401A1018B8D9C8D68
:103790001995CBC0FA013496949132976591749142
:1037A000291BCB01B7E02B9F800D911D1124FA013D
:1037B000259134913B8B2A8BFC01459154915B837D
:1037C0004A83FC013296C490319654915C873296BC
:1037D00014913196D4908981823058F0612E012E57
:1037E000000C7708AD2D0D2C000CBB0BB987A887FA
:1037F00004C019861886612C712CAB8DBC8DED919F
:10380000FC9111970680F781E02DCD011995B981C2
:103810008B2E912C689CC001699C900D789C900D1A
:103820001124FC01EA0DFB1DF98BE88B1C82712C25
:10383000612CE12F110FFF0B95012E0F3F1F3B87CE
:103840002A87AC0CB11CA5014E0F5F1F5F8B4E8BFE
:10385000C1018D0D911DD7FC9A95998F888F4C854C
:10386000641608F062C0862D90E048855985480F9F
:10387000591F489D9001499D300D589D300D1124D0
:10388000D901A20DB31DBF87AE87AA84BB84488827
:103890005988DC80BA85DB1AE88DF98DE80FF91FAD
:1038A000FD8BEC8B8D2D8A0D2E893F89A216B306D8
:1038B000B9F1877061F48A819B810196EA89FB895D
:1038C000AA81BB81EA0FFB1F74909B838A8377FEDA
:1038D00020C0AB8DBC8DED91FC91B981B13061F40C
:1038E0000084F185E02D2E813F814C895D89B501F1
:1038F0008B8D9C8D19950DC00284F385E02DEE8093
:10390000FF80840194014E855F85B2018B8D9C8D73
:103910001995770C480C591CEFEFAE1ABE0AC2CFAE
:103920003C813C0D3C8363949ACFAB8DBC8DED9173
:10393000FC9111970288F389E02DCD016C960FB6AA
:10394000F894DEBF0FBECDBFDF91CF911F910F91D5
:10395000FF90EF90DF90CF90BF90AF909F908F90AF
:103960007F906F905F904F903F902F9019946C963E
:103970000FB6F894DEBF0FBECDBFDF91CF911F9180
:103980000F91FF90EF90DF90CF90BF90AF909F90FE
:103990008F907F906F905F904F903F902F90089501
:1039A000AF92BF92CF92EF92FF920F931F93CF935C
:1039B000DF93EC01262F888D998D009709F040C088
:1039C0006A3059F41D861C862C898E859F8538E0C7
:1039D000239F800D911D112441C06D3009F4AAC0B0
:1039E0008E898823C1F03C898C859D8546E0349F73
:1039F000800D911D112448855985481759075CF49D
:103A00001D861C868E859F8548E0349F800D911D04
:103A100011249F878E87EA88FB88088919894E853B
:103A20005F856C857D85CC88CE010E94BA1A2C8971
:103A30008C859D8536E0239F800D911D112442C009
:103A40006A3079F41D861C862C89FC013696E49137
:103A50008E859F852E9F800D911D11249F878E87B7
:103A600069C06D3009F466C0FC0134963491631767
:103A700008F460C03196E491E61708F45BC0FC01DD
:103A80003296A590B490462F50E0431B510937E081
:103A9000349FB001359F700D1124A60EB71EF5019D
:103AA000329634913196E491332311F0E1110DC037
:103AB000F5013496E4912C898C859D85E29F800DDB
:103AC000911D11249D878C8735C0F5013596449151
:103AD0005E89552311F16C89E32FF0E0E40FF11DAD
:103AE00047FDFA956E9FD0016F9FB00D11244C8554
:103AF0005D854A0F5B1FE885F985E417F5076CF4CF
:103B00001D861C86FC013696E4918E859F856E9FEE
:103B1000800D911D11249F878E87EA88FB88088974
:103B200019894E855F856C857D85CC88CE010E9484
:103B3000BA1ABECF81E090E0DF91CF911F910F9133
:103B4000FF90EF90CF90BF90AF900895FC017587E4
:103B50006487578746870895611101C061E0FC01C1
:103B6000648B0895FC01738B628B718B608B08955D
:103B7000FC01718B608B538B428B0895DC019C960A
:103B8000ED91FC919D979081D1968C91892B8083AA
:103B90000895EF92FF920F931F93DC01ED91FC913A
:103BA0000284F385E02D7801890121E030E0199548
:103BB0001F910F91FF90EF900895EF92FF920F9356
:103BC0001F93DC01ED91FC910284F385E02D7801D7
:103BD00001E010E019951F910F91FF90EF9008956B
:103BE0000F931F93CF93DF9300D000D0CDB7DEB7F4
:103BF0008C01DC01ED91FC910680F781E02D2D8395
:103C00003E834B835C8369837A831995D801ED9158
:103C1000FC910084F185E02D2D813E814B815C81FA
:103C200069817A81C8011995D801ED91FC910288CA
:103C3000F389E02DC80126960FB6F894DEBF0FBEBB
:103C4000CDBFDF91CF911F910F911994EF92FF9209
:103C50000F931F93CF93DF9300D000D0CDB7DEB783
:103C60007C01DC01ED91FC910680F781E02D2D8334
:103C70003E834B835C8369837A831995D701ED91E9
:103C8000FC910484F585E02D2D813E814B815C8182
:103C900069817A81C7011995D701ED91FC9102885C
:103CA000F389E02DC70126960FB6F894DEBF0FBE4C
:103CB000CDBFDF91CF911F910F91FF90EF9019949D
:103CC000EF92FF920F931F93CF93DF9300D000D01A
:103CD000CDB7DEB77C01DC01ED91FC910680F78168
:103CE000E02D2D833E834B835C8369837A83199512
:103CF000D701ED91FC910684F785E02D2D813E8161
:103D00004B815C8169817A81C7011995D701ED9159
:103D1000FC910288F389E02DC70126960FB6F8942E
:103D2000DEBF0FBECDBFDF91CF911F910F91FF90EE
:103D3000EF901994CF92DF92EF92FF920F931F931F
:103D4000CF93DF9300D000D0CDB7DEB76C01DC019C
:103D5000ED91FC910680F781E02D2D833E834B830E
:103D60005C8369837A831995D601ED91FC91028475
:103D7000F385E02D2D813E814B815C8169817A81C3
:103D8000C6011995D601ED91FC910288F389E02DC9
:103D9000C60126960FB6F894DEBF0FBECDBFDF91E9
:103DA000CF911F910F91FF90EF90DF90CF901994DA
:103DB000CF93DF93EC0189A187FF09C084E00E94C3
:103DC0000A2881E00E94FC2780E00E940528ECA5DB
:103DD000FDA5908189A9809589238083DF91CF916A
:103DE0000895EF92FF920F931F93CF93DF931F924B
:103DF000CDB7DEB77C01062F142F40E451E060EF11
:103E000070E029830E949A1885EF92E0D7011196FD
:103E10009C938E935E960C935E975F961C935F9730
:103E2000298190962C9390978FEF91968C939197F0
:103E300092968C93929793968C939397F701128E08
:103E4000138E148E158E602F000F770BFB01EA592D
:103E5000FD4F8491E82FF0E0EE0FFF1FE455FD4F7A
:103E6000859194919D969C938E939C97FB01E05E27
:103E7000FD4FE491D196EC93D197412F110F550B43
:103E8000FA01EA59FD4FE491F0E0EE0FFF1FE4550F
:103E9000FD4F85919491F70193A782A7FA01E05E07
:103EA000FD4FE491D296EC93D29799961C921E9274
:103EB0009897D0961C92D09795961C921E929497A4
:103EC0009E961C929E9797961C921E9296979F96EE
:103ED0001C920F90DF91CF911F910F91FF90EF9067
:103EE0000895FC0181A187FF05C06EBD0DB407FEDA
:103EF000FDCF089528E030E090E8A4A1B5A186A503
:103F0000492F462319F04C91842B03C04C91809586
:103F100084238C93A0A5B1A54C9180A9809584237E
:103F20008C93A0A5B1A54C9180A9842B8C939695D8
:103F30002150310911F70895CF93DF93EC01EAA5E1
:103F4000FBA590818AA9809589238083CE010E9458
:103F5000711FEAA5FBA590818AA9892B8083DF9137
:103F6000CF910895CF93DF93EC0141155105610581
:103F7000710521F440E052E16AE770E04A8F5B8FFF
:103F80006C8F7D8F61E08F8D0E94610E60E08F8D60
:103F90000E949D0E61E08E8D0E94610E61E08E8D0B
:103FA0000E949D0E89A187FD16C061E08AA10E9432
:103FB000610E60E08AA10E949D0E61E089A10E94CD
:103FC000610E61E089A10E949D0E8BA187FD03C057
:103FD00060E00E94610E89A187FD0E94E62788A10A
:103FE00087FD21C061E00E94610E61E088A10E940E
:103FF0009D0E64E670E080E090E00E94870D60E036
:1040000088A10E949D0E64E670E080E090E00E942E
:10401000870D61E088A10E949D0E68EC70E080E051
:1040200090E00E94870DE881F9810680F781E02DFC
:10403000CE0119956FEECE010E949C1F63E0CE0168
:104040000E94711F60E8CE010E94711F62E0CE01E4
:104050000E94711F6FECCE010E949C1F60E0CE0198
:104060000E94711F61ECCE010E94711F60E3CE01BE
:104070000E94711F6DEECE010E949C1F64E6CE016E
:104080000E94711F63E0CE010E94711F62E1CE01A8
:104090000E94711F61E8CE010E94711F68EECE017F
:1040A0000E949C1F65E8CE010E94711F60E0CE0156
:1040B0000E94711F68E7CE010E94711F6BECCE0158
:1040C0000E949C1F69E3CE010E94711F6CE2CE0129
:1040D0000E94711F60E0CE010E94711F64E3CE0157
:1040E0000E94711F62E0CE010E94711F67EFCE0136
:1040F0000E949C1F60E2CE010E94711F6AEECE01F9
:104100000E949C1F60E0CE010E94711F60E0CE0102
:104110000E94711F60ECCE010E949C1F63E2CE01E1
:104120000E94711F61ECCE010E949C1F60E1CE01D4
:104130000E94711F65ECCE010E949C1F6EE3CE01B0
:104140000E94711F68E2CE010E94711F67ECCE01D0
:104150000E949C1F66E8CE010E94711F66E3CE019B
:104160000E949C1F68E4CE010E94711F67E3CE018C
:104170000E949C1F89A187FF09C01EBC0DB407FEC9
:10418000FDCF1EBC0DB407FEFDCF08C060E0CE0120
:104190000E94711F60E0CE010E94711F6AE3CE0190
:1041A0000E949C1F65E5CE010E94711F61EBCE014C
:1041B0000E949C1F60E0CE010E94711F68E1CE0149
:1041C0000E94711F66EBCE010E949C1F68E0CE0129
:1041D0000E94711F62E8CE010E94711F67E2CE014A
:1041E0000E94711F62EFCE010E949C1F60E0CE0111
:1041F0000E94711F66E2CE010E949C1F61E0CE0109
:104200000E94711F60EECE010E949C1F6FE0CE01E4
:104210000E94711F61E3CE010E94711F6BE2CE010B
:104220000E94711F6CE0CE010E94711F6EE0CE01F2
:104230000E94711F68E0CE010E94711F6EE4CE01E2
:104240000E94711F61EFCE010E94711F67E3CE01D2
:104250000E94711F67E0CE010E94711F60E1CE01D4
:104260000E94711F63E0CE010E94711F6EE0CE01BB
:104270000E94711F69E0CE010E94711F60E0CE01B3
:104280000E94711F61EECE010E949C1F60E0CE0172
:104290000E94711F6EE0CE010E94711F64E1CE0189
:1042A0000E94711F63E0CE010E94711F61E1CE0187
:1042B0000E94711F67E0CE010E94711F61E3CE0171
:1042C0000E94711F61ECCE010E94711F68E4CE0153
:1042D0000E94711F68E0CE010E94711F6FE0CE0145
:1042E0000E94711F6CE0CE010E94711F61E3CE013C
:1042F0000E94711F66E3CE010E94711F6FE0CE0124
:104300000E94711F61E1CE010E949C1F68E770E06E
:1043100080E090E00E94870D69E2CE010E949C1F20
:1043200068E770E080E090E00E94870DE881F98105
:104330000288F389E02DCE01199580EF90E09987EE
:10434000888780E491E09B878A87DF91CF910895E9
:104350001F93CF93DF93EC0163706D8B6230C1F0DC
:10436000633001F1613051F080EF90E099878887E8
:1043700080E491E09B878A8718E41DC080E491E087
:104380009987888780EF90E09B878A8718E213C01F
:1043900080EF90E09987888780E491E09B878A8707
:1043A00018E809C080E491E09987888780EF90E061
:1043B0009B878A8718EEE881F9810680F781E02DD6
:1043C000CE01199566E3CE010E949C1F612FCE019C
:1043D0000E94711FE881F9810288F389E02DCE01E6
:1043E000DF91CF911F9119940F931F93CF93DF9378
:1043F0001F92CDB7DEB78C01DC01ED91FC910680F8
:10440000F781E02D698319956981611102C060E22D
:1044100001C061E2C8010E949C1FD801ED91FC918E
:104420000288F389E02DC8010F90DF91CF911F9191
:104430000F9119948F929F92AF92BF92CF92DF9279
:10444000EF92FF920F931F93CF93DF93EC014901FB
:1044500081E0881A9108860E971EC401A0E0B0E0A2
:104460004B01A12CB12C540199248824882A992A23
:10447000AA2ABB2A680181E0C81AD108C40ED51E39
:10448000C601A0E0B0E06A01E12CF12C7601DD2448
:10449000CC24C82AD92AEA2AFB2A6AE2CE010E9441
:1044A0009C1F29A16B2D77278827992727FF18C0E4
:1044B0006EBD0DB407FEFDCFC501AA27BB278EBD7B
:1044C0000DB407FEFDCFBB27AB2D9A2D892D8EBDD8
:1044D0000DB407FEFDCF8EBC0DB407FEFDCF14C09A
:1044E000CE010E94711FB50188279927CE010E9435
:1044F000711F99278B2D7A2D692DCE010E94711F76
:10450000682DCE010E94711F6BE2CE010E949C1F9C
:1045100029A16F2D77278827992727FF18C06EBDFF
:104520000DB407FEFDCFC701AA27BB278EBD0DB472
:1045300007FEFDCFBB27AF2D9E2D8D2D8EBD0DB45B
:1045400007FEFDCFCEBC0DB407FEFDCF14C0CE01DB
:104550000E94711FB70188279927CE010E94711F01
:1045600099278F2D7E2D6D2DCE010E94711F6C2DF0
:10457000CE010E94711F6CE2CE01DF91CF911F919D
:104580000F91FF90EF90DF90CF90BF90AF909F90F2
:104590008F900C949C1F1F93CF93DF93262FFC01C9
:1045A00031A137FF09C07EBD0DB407FEFDCF2EBD82
:1045B0000DB407FEFDCF0CC0672F122FEC010E9437
:1045C000711F612FCE01DF91CF911F910C94711F4C
:1045D000DF91CF911F910895EF92FF920F931F9358
:1045E000CF93DF9377FD23C0DC011896ED91FC910A
:1045F00019976E177F07DCF457FD19C01A96ED91D5
:10460000FC911B974E175F0794F47901EC0101E0D0
:1046100010E021E030E00E941A22B701CE01DF91C4
:10462000CF911F910F91FF90EF900C94CB22DF91CF
:10463000CF911F910F91FF90EF900895EF92FF920D
:104640001F93CF93DF9300D01F921F92CDB7DEB799
:104650007C01162FFC0181A187FF12C021153105B5
:104660004105510549F17EBD0DB407FEFDCF1EBDCC
:104670000DB407FEFDCF2150310941095109EECF9C
:104680002115310541055105B9F0672FC70129836F
:104690003A834B835C837D830E94711F612FC70126
:1046A0000E94711F29813A814B815C81215031091F
:1046B000410951097D81E4CF0F900F900F900F9029
:1046C0000F90DF91CF911F91FF90EF9008958F92FF
:1046D0009F92AF92BF92CF92DF92EF92FF920F9391
:1046E0001F93CF93DF935C01FB01E9014701DC01DC
:1046F00018962D913C911997621773070CF049C0D9
:104700001A968D919C911B97481759070CF041C040
:104710006B01CC0EDD1ED60111977A01E00EF11E61
:10472000B70161507109B7FD34C077FD32C0F7FFA2
:1047300003C0E601E0E0F0E057FF03C0870140E07E
:1047400050E0A217B3071CF0E901CE1BDF0B68177E
:1047500079071CF08C01041B150B9E01D8010E94E7
:10476000CA2A6B017C01BF01C5010E941A22A70160
:104770009601B401C501DF91CF911F910F91FF9078
:10478000EF90DF90CF90BF90AF909F908F900C9460
:104790001E23DF91CF911F910F91FF90EF90DF903B
:1047A000CF90BF90AF909F908F9008954F925F925F
:1047B0006F927F929F92AF92BF92CF92DF92EF92D1
:1047C000FF920F931F93CF93DF9300D000D0CDB70C
:1047D000DEB78C0160E0DC0112968C910E94610EC4
:1047E00060E0F80183810E94610E61E0D8011596B6
:1047F0008C910E94610E61E0F80184810E94610E3B
:10480000D80150968C9150971896ED91FC9119977C
:104810009081892B808351969C9151971C96ED91A4
:10482000FC911D978081282F30E0892F90E08095A2
:10483000909582239323808312968C910E94AB25BE
:104840007C01F80182810E94AB259701281B390B5E
:104850002C5F3F4F2930310548F4A701480F591FFD
:10486000CA01959587959924939401C0912C2FEFB7
:1048700033E07901E81AF90A60E0D80115968C91C5
:104880000E94610E60E0F80184810E94610E61E087
:10489000D80112968C910E94610E61E0F80183812B
:1048A0000E94610ED80153969C9153971E96ED91EC
:1048B000FC911F978081282F30E0892F90E0809510
:1048C000909582239323808352968C9152971A96C7
:1048D000ED91FC911B979081892B808314968C918C
:1048E0000E94AB256C01F80184810E94AB25A601D2
:1048F000481B590B4C5F5F4F4930510538F4960106
:10490000280F391FC9019595879501C0912C4FEF4C
:1049100053E06A01C81AD90A61E0D80115968C9152
:104920000E94610E60E0F80182810E94610ED80150
:1049300050969C9150971896ED91FC911997808113
:10494000282F30E0892F90E0809590958223932343
:10495000808353968C9153971E96ED91FC911F97EF
:104960009081892B808314968C910E94AB255C01E9
:10497000F80182810E94AB25D80116960D911C91F9
:1049800017970115110509F43FC0BC01990F880B59
:10499000990B0E9468292B013C01B501BB0C880BC7
:1049A000990B0E9468299B01AC01C301B2010E94CE
:1049B000BE2820E030E040E85FE30E9451282B0150
:1049C0003C01B7010F2C000C880B990B0E94682941
:1049D0009B01AC01C301B2010E94F4292B013C01EF
:1049E000B80180E090E00E9466299B01AC01C30100
:1049F000B2010E94F42920E030E040E85AE30E942E
:104A0000F4290E94302905C0B501681B790B61505B
:104A10007C4F911002C060E070E0FA82E982DC8293
:104A2000CB827E836D832E2D3A814C2D5C817E81DD
:104A300080E090E026960FB6F894DEBF0FBECDBFA3
:104A4000DF91CF911F910F91FF90EF90DF90CF906A
:104A5000BF90AF909F907F906F905F904F90089520
:104A6000EF92FF920F931F93DC0112964C931297D3
:104A700014962C93149713960C93139715966C9386
:104A800015971796FC92EE92169770E0FB01EA5983
:104A9000FD4FE491F0E0EE0FFF1FE455FD4F8591CF
:104AA000949119969C938E93189750E0FA01EA59C5
:104AB000FD4FE491F0E0EE0FFF1FE455FD4F8591AF
:104AC00094911B969C938E931A9730E0F901EA59C2
:104AD000FD4FE491F0E0EE0FFF1FE455FD4F85918F
:104AE00094911D969C938E931C9710E0F801EA59BF
:104AF000FD4F849190E0880F991F84559D4FFC01D4
:104B0000859194911F969C938E931E97FB01E05E76
:104B1000FD4F649150966C935097FA01E05EFD4F03
:104B2000449152964C935297F901E05EFD4F2491C7
:104B300051962C935197F801E05EFD4F04915396E6
:104B40000C9353978AE090E08D939C931F910F9163
:104B5000FF90EF900895863308F0865390917B0084
:104B6000282F2870977F922B90937B00877020913D
:104B7000020290E4299F90011124822B80937C00F3
:104B800080917A00806480937A0080917A0086FD1B
:104B9000FCCF809178002091790090E0922B0895CD
:104BA0006F927F928F929F92AF92BF92CF92DF923D
:104BB000EF92FF920F931F93CF93DF93EC01009737
:104BC00089F4CB01DF91CF911F910F91FF90EF906E
:104BD000DF90CF90BF90AF909F908F907F906F901D
:104BE0000C94B926FC01E60FF71F9C0122503109F5
:104BF000E217F30708F4ACC0D9010D911C9111978D
:104C000006171707B0F00530110508F49FC0C8015A
:104C100004978617970708F499C002501109061BDC
:104C2000170B019311936D937C93CF010E944E2734
:104C30008DC05B01A01AB10A4C01800E911EA0919B
:104C40002D06B0912E0640E050E0E12CF12C10979B
:104C500009F44AC0A815B905D1F56D907C9011975B
:104C6000630182E0C80ED11CCA14DB0480F1A301E9
:104C70004A195B096A0182E0C80ED11C1296BC90E9
:104C800012971396AC91B5E0CB16D10440F0B282E6
:104C9000A38351834083D9016D937C930AC00E5F37
:104CA0001F4FC301800F911FF90191838083EB2D6A
:104CB000FA2FE114F10431F0D7011396FC93EE932F
:104CC000129744C0F0932E06E0932D063FC08D91BD
:104CD0009C9111974817590708F4AC017D01129671
:104CE0000D90BC91A02DB3CF80912B0690912C06F6
:104CF00088159905E1F446175707C8F48091030217
:104D000090910402009741F48DB79EB7409107023D
:104D100050910802841B950BE817F907C8F4F0932B
:104D20002C06E0932B06F901718360830FC0CB0141
:104D30000E94B9267C01009759F0A801BE010E948B
:104D40001C28CE010E944E27C70104C0CE0102C01C
:104D500080E090E0DF91CF911F910F91FF90EF9055
:104D6000DF90CF90BF90AF909F908F907F906F908B
:104D70000895CF93DF938230910510F482E090E0A4
:104D8000E0912D06F0912E0620E030E0C0E0D0E06A
:104D9000309711F14081518148175907C0F04817E9
:104DA000590761F482819381209719F09B838A834C
:104DB0002BC090932E0680932D0626C02115310519
:104DC00019F04217530718F49A01BE01DF01EF01F1
:104DD0000280F381E02DDCCF2115310509F1281B7C
:104DE000390B2430310590F412968D919C911397D4
:104DF0006115710521F0FB019383828304C09093B8
:104E00002E0680932D06FD01329644C0FD01E20F6F
:104E1000F31F81939193225031092D933C933AC013
:104E200020912B0630912C06232B41F42091050272
:104E30003091060230932C0620932B06209103021A
:104E4000309104022115310541F42DB73EB7409150
:104E5000070250910802241B350BE0912B06F091BC
:104E60002C06E217F307A0F42E1B3F0B2817390777
:104E700078F0AC014E5F5F4F2417350748F04E0FB6
:104E80005F1F50932C0640932B068193919302C091
:104E9000E0E0F0E0CF01DF91CF9108950F931F93F1
:104EA000CF93DF93009709F48CC0FC0132971382F3
:104EB000128200912D0610912E060115110581F424
:104EC00020813181820F931F20912B0630912C0677
:104ED0002817390779F5F0932C06E0932B0671C05B
:104EE000D80140E050E0AE17BF0750F412962D9164
:104EF0003C911397AD012115310509F1D901F3CF8B
:104F00009D01DA013383228360817181860F971FAF
:104F10008217930769F4EC0128813981260F371F26
:104F20002E5F3F4F318320838A819B8193838283CD
:104F3000452B29F4F0932E06E0932D0642C01396DC
:104F4000FC93EE931297ED01499159919E01240F24
:104F5000351FE217F30771F480819181840F951F4B
:104F6000029611969C938E938281938113969C93C3
:104F70008E931297E0E0F0E0D80112968D919C910B
:104F80001397009719F0F8018C01F6CF8D919C9141
:104F900098012E5F3F4F820F931F20912B06309177
:104FA0002C062817390769F4309729F410922E0639
:104FB00010922D0602C01382128210932C060093C9
:104FC0002B06DF91CF911F910F91089561E085E34A
:104FD0000E949D0E61E085E30E94610E8CB58061A8
:104FE0008CBD8CB580648CBD61E084E30E94610E51
:104FF00061E083E30C94610E811103C08CB5806283
:1050000002C08CB58F7D8CBD08959CB5937F892B94
:105010008CBD08959CB5282F23709C7F922B9CBD3E
:105020002DB582FB992790F9822F8E7F892B8DBD1C
:105030000895F8940C94092BFB01DC0102C0019047
:105040000D9241505040D8F70895FB01DC010190CA
:105050000D920020E1F708954532510520F44230C9
:1050600010F00C943728FB011082CB010895BB2768
:10507000FB015527AA27880F991FAA1FA41710F014
:10508000A41B83955051B9F7A05DAA3308F0A95D20
:10509000A193009779F7B111B1931192CB010C94C0
:1050A000612A5058BB27AA270E9469280C94BA2964
:1050B0000E94AC2938F00E94B32920F039F49F3FB8
:1050C00019F426F40C94A9290EF4E095E7FB0C944E
:1050D000A329E92F0E94CB2958F3BA176207730757
:1050E0008407950720F079F4A6F50C94ED290EF4C9
:1050F000E0950B2EBA2FA02D0B01B90190010C01E8
:10510000CA01A0011124FF27591B99F0593F50F4FF
:10511000503E68F11A16F040A22F232F342F442757
:10512000585FF3CF469537952795A795F04053954F
:10513000C9F77EF41F16BA0B620B730B840BBAF01F
:105140009150A1F0FF0FBB1F661F771F881FC2F78A
:105150000EC0BA0F621F731F841F48F4879577959E
:105160006795B795F7959E3F08F0B0CF9395880F58
:1051700008F09927EE0F9795879508950E94D228F9
:105180000C94BA290E94B32958F00E94AC2940F02F
:1051900029F45F3F29F00C94A32951110C94EE29B6
:1051A0000C94A9290E94CB2968F39923B1F35523C4
:1051B00091F3951B550BBB27AA276217730784072A
:1051C00038F09F5F5F4F220F331F441FAA1FA9F3C0
:1051D00035D00E2E3AF0E0E832D091505040E695AE
:1051E000001CCAF72BD0FE2F29D0660F771F881F0F
:1051F000BB1F261737074807AB07B0E809F0BB0B02
:10520000802DBF01FF2793585F4F3AF09E3F510515
:1052100078F00C94A3290C94EE295F3FE4F3983EB8
:10522000D4F3869577956795B795F7959F5FC9F7FE
:10523000880F911D9695879597F90895E1E0660F7F
:10524000771F881FBB1F621773078407BA0720F0F8
:10525000621B730B840BBA0BEE1F88F7E095089561
:105260000E9437296894B1110C94EE2908950E9488
:10527000D32988F09F5798F0B92F9927B751B0F0EC
:10528000E1F0660F771F881F991F1AF0BA95C9F7CA
:1052900014C0B13091F00E94ED29B1E008950C9452
:1052A000ED29672F782F8827B85F39F0B93FCCF305
:1052B000869577956795B395D9F73EF49095809547
:1052C000709561957F4F8F4F9F4F0895E89409C067
:1052D00097FB3EF490958095709561957F4F8F4F29
:1052E0009F4F9923A9F0F92F96E9BB279395F6953F
:1052F000879577956795B795F111F8CFFAF4BB0FBD
:1053000011F460FF1BC06F5F7F4F8F4F9F4F16C020
:10531000882311F096E911C0772321F09EE8872FAA
:10532000762F05C0662371F096E8862F70E060E066
:105330002AF09A95660F771F881FDAF7880F9695DF
:10534000879597F9089597F99F6780E870E060E086
:1053500008959FEF80EC089500240A94161617060E
:1053600018060906089500240A9412161306140656
:1053700005060895092E0394000C11F4882352F0B9
:10538000BB0F40F4BF2B11F460FF04C06F5F7F4F71
:105390008F4F9F4F089557FD9058440F551F59F058
:1053A0005F3F71F04795880F97FB991F61F09F3F12
:1053B00079F087950895121613061406551FF2CF3B
:1053C0004695F1DF08C0161617061806991FF1CF8B
:1053D00086957105610508940895E894BB276627B2
:1053E0007727CB0197F908950E94072A0C94BA29D0
:1053F0000E94AC2938F00E94B32920F0952311F0C7
:105400000C94A3290C94A92911240C94EE290E9430
:10541000CB2970F3959FC1F3950F50E0551F629F04
:10542000F001729FBB27F00DB11D639FAA27F00DFD
:10543000B11DAA1F649F6627B00DA11D661F829F24
:105440002227B00DA11D621F739FB00DA11D621F09
:10545000839FA00D611D221F749F3327A00D611D26
:10546000231F849F600D211D822F762F6A2F112408
:105470009F5750409AF0F1F088234AF0EE0FFF1F3B
:10548000BB1F661F771F881F91505040A9F79E3F92
:10549000510580F00C94A3290C94EE295F3FE4F3AE
:1054A000983ED4F3869577956795B795F795E795E8
:1054B0009F5FC1F7FE2B880F911D9695879597F9F1
:1054C0000895DC01FC01672F71917723E1F7329792
:1054D00004C07C916D9370836291AE17BF07C8F3CF
:1054E0000895DB018F939F930E94E82ABF91AF91AB
:1054F000A29F800D911DA39F900DB29F900D11242E
:105500000895A1E21A2EAA1BBB1BFD010DC0AA1F04
:10551000BB1FEE1FFF1FA217B307E407F50720F01C
:10552000A21BB30BE40BF50B661F771F881F991F97
:105530001A9469F760957095809590959B01AC01E0
:10554000BD01CF010895052E97FB1EF400940E9423
:10555000BA2A57FD07D00E94812A07FC03D04EF4D7
:105560000C94BA2A50954095309521953F4F4F4F56
:105570005F4F089590958095709561957F4F8F4FFF
:105580009F4F0895EE0FFF1F881F8BBF0790F69166
:10559000E02D19940E94D22A332312F48A1B9B0B0C
:1055A0000C94E32AA29FB001B39FC001A39F700D8A
:1055B000811D1124911DB29F700D811D1124911D1B
:1055C00008950E94D22AB7FF0895821B930B089575
:1055D0000E94D22AA59F900DB49F900DA49F800D8C
:1055E000911D11240895F999FECF92BD81BDF89ABD
:1055F000992780B50895262FF999FECF1FBA92BD3D
:1056000081BD20BD0FB6F894FA9AF99A0FBE0196A3
:065610000895F894FFCF9D
:1056160008000100002F0680003A0050617474658E
:10562600726E20736F6C7665642100486F75720028
:105636004D696E75746573005361766520416C61C2
:10564600726D007072696E7420616C61726D7300A8
:10565600454550524F4D206C65676E7468006E75F7
:105666006D6572206F6620616C61726D73004372A6
:105676006561746520416C61726D005669657720BD
:10568600416C61726D730073697A65206F66206183
:105696006C61726D3A20007361766520616C61728F
:1056A6006D2063616C6C656400746F756368205867
:1056B60000746F756368205900170019001B001DE0
:1056C60000160018001A001C00000000001E12CD73
:1056D6000EC711F311D711131200000000D01CCD14
:1056E6000EC61186168716A6168E169A16DD15B6DE
:1056F6001685188418B716FC1640179117AF17258C
:105706001800000000D01CCD0EF01DD81EEC22673C
:1057160023C91DDD1DDD15BE1DA821F421261E6031
:0A5726001E9A1E9117AF17251800F8
:00000001FF
